{
	"HealthChain/src/SupplyChain.sol": {
		"SupplyChain": {
			"abi": [
				{
					"inputs": [
						{
							"internalType": "address",
							"name": "_priceFeedAddress",
							"type": "address"
						}
					],
					"stateMutability": "nonpayable",
					"type": "constructor"
				},
				{
					"anonymous": false,
					"inputs": [
						{
							"indexed": true,
							"internalType": "uint256",
							"name": "itemId",
							"type": "uint256"
						},
						{
							"indexed": false,
							"internalType": "string",
							"name": "name",
							"type": "string"
						},
						{
							"indexed": false,
							"internalType": "enum SupplyChain.Category",
							"name": "category",
							"type": "uint8"
						}
					],
					"name": "ItemCreated",
					"type": "event"
				},
				{
					"anonymous": false,
					"inputs": [
						{
							"indexed": true,
							"internalType": "uint256",
							"name": "itemId",
							"type": "uint256"
						},
						{
							"indexed": false,
							"internalType": "address",
							"name": "movedBy",
							"type": "address"
						},
						{
							"indexed": false,
							"internalType": "string",
							"name": "location",
							"type": "string"
						}
					],
					"name": "ItemMoved",
					"type": "event"
				},
				{
					"anonymous": false,
					"inputs": [
						{
							"indexed": true,
							"internalType": "uint256",
							"name": "itemId",
							"type": "uint256"
						},
						{
							"indexed": false,
							"internalType": "address",
							"name": "movedBy",
							"type": "address"
						},
						{
							"indexed": false,
							"internalType": "string",
							"name": "location",
							"type": "string"
						},
						{
							"indexed": false,
							"internalType": "uint256",
							"name": "priceInNGN",
							"type": "uint256"
						}
					],
					"name": "ItemMovedWithPrice",
					"type": "event"
				},
				{
					"anonymous": false,
					"inputs": [
						{
							"indexed": false,
							"internalType": "string",
							"name": "batchId",
							"type": "string"
						},
						{
							"indexed": false,
							"internalType": "bool",
							"name": "status",
							"type": "bool"
						}
					],
					"name": "ItemValidated",
					"type": "event"
				},
				{
					"anonymous": false,
					"inputs": [
						{
							"indexed": true,
							"internalType": "uint256",
							"name": "itemId",
							"type": "uint256"
						},
						{
							"indexed": false,
							"internalType": "address",
							"name": "verifier",
							"type": "address"
						},
						{
							"indexed": false,
							"internalType": "bool",
							"name": "status",
							"type": "bool"
						}
					],
					"name": "ItemVerified",
					"type": "event"
				},
				{
					"anonymous": false,
					"inputs": [
						{
							"indexed": true,
							"internalType": "uint256",
							"name": "itemId",
							"type": "uint256"
						},
						{
							"indexed": false,
							"internalType": "string",
							"name": "nationalityId",
							"type": "string"
						},
						{
							"indexed": false,
							"internalType": "enum SupplyChain.Category",
							"name": "category",
							"type": "uint8"
						},
						{
							"indexed": false,
							"internalType": "bool",
							"name": "isArrived",
							"type": "bool"
						}
					],
					"name": "Nationality",
					"type": "event"
				},
				{
					"inputs": [
						{
							"internalType": "string",
							"name": "name",
							"type": "string"
						},
						{
							"internalType": "string",
							"name": "batch",
							"type": "string"
						}
					],
					"name": "addProduct",
					"outputs": [
						{
							"internalType": "uint256",
							"name": "",
							"type": "uint256"
						}
					],
					"stateMutability": "nonpayable",
					"type": "function"
				},
				{
					"inputs": [
						{
							"internalType": "string",
							"name": "batchId",
							"type": "string"
						},
						{
							"internalType": "string",
							"name": "originCountry",
							"type": "string"
						},
						{
							"internalType": "string",
							"name": "destinationCountry",
							"type": "string"
						},
						{
							"internalType": "uint256[]",
							"name": "itemIds",
							"type": "uint256[]"
						}
					],
					"name": "authorizeImport",
					"outputs": [],
					"stateMutability": "nonpayable",
					"type": "function"
				},
				{
					"inputs": [
						{
							"internalType": "string",
							"name": "batchId",
							"type": "string"
						},
						{
							"internalType": "string",
							"name": "originCountry",
							"type": "string"
						},
						{
							"internalType": "string",
							"name": "destinationCountry",
							"type": "string"
						},
						{
							"internalType": "uint256[]",
							"name": "itemIds",
							"type": "uint256[]"
						}
					],
					"name": "authorizeImportWithPrice",
					"outputs": [],
					"stateMutability": "nonpayable",
					"type": "function"
				},
				{
					"inputs": [
						{
							"internalType": "enum SupplyChain.Category",
							"name": "",
							"type": "uint8"
						},
						{
							"internalType": "uint256",
							"name": "",
							"type": "uint256"
						}
					],
					"name": "categorizedItems",
					"outputs": [
						{
							"internalType": "uint256",
							"name": "id",
							"type": "uint256"
						},
						{
							"internalType": "string",
							"name": "name",
							"type": "string"
						},
						{
							"internalType": "uint256",
							"name": "price_in_usd",
							"type": "uint256"
						},
						{
							"internalType": "string",
							"name": "currencyCode",
							"type": "string"
						},
						{
							"internalType": "uint256",
							"name": "delivery_days",
							"type": "uint256"
						},
						{
							"internalType": "uint256",
							"name": "delivery_fee_in_usd",
							"type": "uint256"
						},
						{
							"internalType": "uint256",
							"name": "amount_of_users",
							"type": "uint256"
						}
					],
					"stateMutability": "view",
					"type": "function"
				},
				{
					"inputs": [
						{
							"internalType": "uint256",
							"name": "",
							"type": "uint256"
						}
					],
					"name": "consumersAddress",
					"outputs": [
						{
							"internalType": "address",
							"name": "",
							"type": "address"
						}
					],
					"stateMutability": "view",
					"type": "function"
				},
				{
					"inputs": [
						{
							"internalType": "uint256",
							"name": "",
							"type": "uint256"
						}
					],
					"name": "foodList",
					"outputs": [
						{
							"internalType": "uint256",
							"name": "id",
							"type": "uint256"
						},
						{
							"internalType": "string",
							"name": "name",
							"type": "string"
						},
						{
							"internalType": "uint256",
							"name": "price_in_usd",
							"type": "uint256"
						},
						{
							"internalType": "string",
							"name": "currencyCode",
							"type": "string"
						},
						{
							"internalType": "uint256",
							"name": "delivery_days",
							"type": "uint256"
						},
						{
							"internalType": "uint256",
							"name": "delivery_fee_in_usd",
							"type": "uint256"
						},
						{
							"internalType": "uint256",
							"name": "amount_of_users",
							"type": "uint256"
						}
					],
					"stateMutability": "view",
					"type": "function"
				},
				{
					"inputs": [],
					"name": "getLatestPrice",
					"outputs": [
						{
							"internalType": "int256",
							"name": "",
							"type": "int256"
						}
					],
					"stateMutability": "view",
					"type": "function"
				},
				{
					"inputs": [
						{
							"internalType": "uint256",
							"name": "productId",
							"type": "uint256"
						}
					],
					"name": "getProduct",
					"outputs": [
						{
							"internalType": "string",
							"name": "",
							"type": "string"
						},
						{
							"internalType": "string",
							"name": "",
							"type": "string"
						},
						{
							"internalType": "string",
							"name": "",
							"type": "string"
						},
						{
							"internalType": "address",
							"name": "",
							"type": "address"
						}
					],
					"stateMutability": "view",
					"type": "function"
				},
				{
					"inputs": [
						{
							"internalType": "uint256",
							"name": "",
							"type": "uint256"
						}
					],
					"name": "itemValidations",
					"outputs": [
						{
							"internalType": "uint256",
							"name": "medical_id",
							"type": "uint256"
						},
						{
							"internalType": "uint256",
							"name": "medical_report",
							"type": "uint256"
						},
						{
							"internalType": "address",
							"name": "block",
							"type": "address"
						},
						{
							"internalType": "bool",
							"name": "is_validated",
							"type": "bool"
						}
					],
					"stateMutability": "view",
					"type": "function"
				},
				{
					"inputs": [
						{
							"internalType": "uint256",
							"name": "",
							"type": "uint256"
						}
					],
					"name": "medicals",
					"outputs": [
						{
							"internalType": "uint256",
							"name": "id",
							"type": "uint256"
						},
						{
							"internalType": "bool",
							"name": "isTrue",
							"type": "bool"
						},
						{
							"internalType": "uint256",
							"name": "amount_of_users",
							"type": "uint256"
						},
						{
							"internalType": "address",
							"name": "users",
							"type": "address"
						},
						{
							"internalType": "string",
							"name": "currentStatus",
							"type": "string"
						},
						{
							"internalType": "uint256",
							"name": "warehouseId",
							"type": "uint256"
						},
						{
							"internalType": "string",
							"name": "name",
							"type": "string"
						},
						{
							"internalType": "string",
							"name": "batch",
							"type": "string"
						}
					],
					"stateMutability": "view",
					"type": "function"
				},
				{
					"inputs": [
						{
							"internalType": "uint256",
							"name": "",
							"type": "uint256"
						}
					],
					"name": "movementLogs",
					"outputs": [
						{
							"internalType": "uint256",
							"name": "tracking_id",
							"type": "uint256"
						},
						{
							"internalType": "string",
							"name": "trunk_id",
							"type": "string"
						},
						{
							"internalType": "string",
							"name": "delivery_company",
							"type": "string"
						},
						{
							"internalType": "uint256",
							"name": "delivery_fee_in_usd",
							"type": "uint256"
						},
						{
							"internalType": "bool",
							"name": "delivered_on_time",
							"type": "bool"
						}
					],
					"stateMutability": "view",
					"type": "function"
				},
				{
					"inputs": [],
					"name": "owner",
					"outputs": [
						{
							"internalType": "address payable",
							"name": "",
							"type": "address"
						}
					],
					"stateMutability": "view",
					"type": "function"
				},
				{
					"inputs": [
						{
							"internalType": "string",
							"name": "",
							"type": "string"
						}
					],
					"name": "transaction",
					"outputs": [
						{
							"internalType": "bool",
							"name": "isTransact_Successful",
							"type": "bool"
						},
						{
							"internalType": "uint256",
							"name": "amountOfUsers",
							"type": "uint256"
						},
						{
							"internalType": "address",
							"name": "payment_receiver",
							"type": "address"
						},
						{
							"internalType": "uint256",
							"name": "payment_receiver_id",
							"type": "uint256"
						},
						{
							"internalType": "address",
							"name": "medicalsId",
							"type": "address"
						}
					],
					"stateMutability": "view",
					"type": "function"
				},
				{
					"inputs": [
						{
							"internalType": "uint256",
							"name": "",
							"type": "uint256"
						}
					],
					"name": "transactionDetails",
					"outputs": [
						{
							"internalType": "bool",
							"name": "isTransact_Successful",
							"type": "bool"
						},
						{
							"internalType": "uint256",
							"name": "amountOfUsers",
							"type": "uint256"
						},
						{
							"internalType": "address",
							"name": "payment_receiver",
							"type": "address"
						},
						{
							"internalType": "uint256",
							"name": "payment_receiver_id",
							"type": "uint256"
						},
						{
							"internalType": "address",
							"name": "medicalsId",
							"type": "address"
						}
					],
					"stateMutability": "view",
					"type": "function"
				},
				{
					"inputs": [
						{
							"internalType": "uint256",
							"name": "",
							"type": "uint256"
						}
					],
					"name": "transactions",
					"outputs": [
						{
							"internalType": "bool",
							"name": "isTransact_Successful",
							"type": "bool"
						},
						{
							"internalType": "uint256",
							"name": "amountOfUsers",
							"type": "uint256"
						},
						{
							"internalType": "address",
							"name": "payment_receiver",
							"type": "address"
						},
						{
							"internalType": "uint256",
							"name": "payment_receiver_id",
							"type": "uint256"
						},
						{
							"internalType": "address",
							"name": "medicalsId",
							"type": "address"
						}
					],
					"stateMutability": "view",
					"type": "function"
				},
				{
					"inputs": [
						{
							"internalType": "string",
							"name": "batchId",
							"type": "string"
						},
						{
							"internalType": "string[]",
							"name": "itemNames",
							"type": "string[]"
						},
						{
							"internalType": "uint256[]",
							"name": "quantities",
							"type": "uint256[]"
						}
					],
					"name": "transferMedicine",
					"outputs": [],
					"stateMutability": "nonpayable",
					"type": "function"
				},
				{
					"inputs": [
						{
							"internalType": "uint256",
							"name": "productId",
							"type": "uint256"
						},
						{
							"internalType": "string",
							"name": "newStatus",
							"type": "string"
						}
					],
					"name": "updateProductStatus",
					"outputs": [],
					"stateMutability": "nonpayable",
					"type": "function"
				},
				{
					"inputs": [
						{
							"internalType": "address",
							"name": "",
							"type": "address"
						}
					],
					"name": "usersAddressToMedicalId",
					"outputs": [
						{
							"internalType": "uint256",
							"name": "id",
							"type": "uint256"
						},
						{
							"internalType": "bool",
							"name": "isTrue",
							"type": "bool"
						},
						{
							"internalType": "uint256",
							"name": "amount_of_users",
							"type": "uint256"
						},
						{
							"internalType": "address",
							"name": "users",
							"type": "address"
						},
						{
							"internalType": "string",
							"name": "currentStatus",
							"type": "string"
						},
						{
							"internalType": "uint256",
							"name": "warehouseId",
							"type": "uint256"
						},
						{
							"internalType": "string",
							"name": "name",
							"type": "string"
						},
						{
							"internalType": "string",
							"name": "batch",
							"type": "string"
						}
					],
					"stateMutability": "view",
					"type": "function"
				},
				{
					"inputs": [
						{
							"internalType": "uint256",
							"name": "",
							"type": "uint256"
						},
						{
							"internalType": "address",
							"name": "",
							"type": "address"
						}
					],
					"name": "validationResults",
					"outputs": [
						{
							"internalType": "uint256",
							"name": "medical_id",
							"type": "uint256"
						},
						{
							"internalType": "uint256",
							"name": "medical_report",
							"type": "uint256"
						},
						{
							"internalType": "address",
							"name": "block",
							"type": "address"
						},
						{
							"internalType": "bool",
							"name": "is_validated",
							"type": "bool"
						}
					],
					"stateMutability": "view",
					"type": "function"
				},
				{
					"inputs": [
						{
							"internalType": "uint256",
							"name": "",
							"type": "uint256"
						},
						{
							"internalType": "address",
							"name": "",
							"type": "address"
						}
					],
					"name": "warehouseInventory",
					"outputs": [
						{
							"internalType": "uint256",
							"name": "id",
							"type": "uint256"
						},
						{
							"internalType": "bool",
							"name": "isTrue",
							"type": "bool"
						},
						{
							"internalType": "uint256",
							"name": "amount_of_users",
							"type": "uint256"
						},
						{
							"internalType": "address",
							"name": "users",
							"type": "address"
						},
						{
							"internalType": "string",
							"name": "currentStatus",
							"type": "string"
						},
						{
							"internalType": "uint256",
							"name": "warehouseId",
							"type": "uint256"
						},
						{
							"internalType": "string",
							"name": "name",
							"type": "string"
						},
						{
							"internalType": "string",
							"name": "batch",
							"type": "string"
						}
					],
					"stateMutability": "view",
					"type": "function"
				},
				{
					"inputs": [
						{
							"internalType": "uint256",
							"name": "",
							"type": "uint256"
						}
					],
					"name": "warehouseInventory_",
					"outputs": [
						{
							"internalType": "uint256",
							"name": "id",
							"type": "uint256"
						},
						{
							"internalType": "bool",
							"name": "isTrue",
							"type": "bool"
						},
						{
							"internalType": "uint256",
							"name": "amount_of_users",
							"type": "uint256"
						},
						{
							"internalType": "address",
							"name": "users",
							"type": "address"
						},
						{
							"internalType": "string",
							"name": "currentStatus",
							"type": "string"
						},
						{
							"internalType": "uint256",
							"name": "warehouseId",
							"type": "uint256"
						},
						{
							"internalType": "string",
							"name": "name",
							"type": "string"
						},
						{
							"internalType": "string",
							"name": "batch",
							"type": "string"
						}
					],
					"stateMutability": "view",
					"type": "function"
				}
			],
			"devdoc": {
				"kind": "dev",
				"methods": {},
				"version": 1
			},
			"evm": {
				"assembly": "    /* \"HealthChain/src/SupplyChain.sol\":341:9202  contract SupplyChain{... */\n  mstore(0x40, 0x80)\n    /* \"HealthChain/src/SupplyChain.sol\":4008:4143  constructor(address _priceFeedAddress) {... */\n  callvalue\n  dup1\n  iszero\n  tag_1\n  jumpi\n  0x00\n  dup1\n  revert\ntag_1:\n  pop\n  mload(0x40)\n  sub(codesize, bytecodeSize)\n  dup1\n  bytecodeSize\n  dup4\n  codecopy\n  dup2\n  dup2\n  add\n  0x40\n  mstore\n  dup2\n  add\n  swap1\n  tag_2\n  swap2\n  swap1\n  tag_3\n  jump\t// in\ntag_2:\n    /* \"HealthChain/src/SupplyChain.sol\":4087:4104  _priceFeedAddress */\n  dup1\n    /* \"HealthChain/src/SupplyChain.sol\":4053:4062  priceFeed */\n  0x09\n  0x00\n    /* \"HealthChain/src/SupplyChain.sol\":4053:4105  priceFeed = AggregatorV3Interface(_priceFeedAddress) */\n  0x0100\n  exp\n  dup2\n  sload\n  dup2\n  0xffffffffffffffffffffffffffffffffffffffff\n  mul\n  not\n  and\n  swap1\n  dup4\n  0xffffffffffffffffffffffffffffffffffffffff\n  and\n  mul\n  or\n  swap1\n  sstore\n  pop\n    /* \"HealthChain/src/SupplyChain.sol\":4129:4139  msg.sender */\n  caller\n    /* \"HealthChain/src/SupplyChain.sol\":4113:4118  owner */\n  0x0e\n  0x00\n    /* \"HealthChain/src/SupplyChain.sol\":4113:4140  owner = payable(msg.sender) */\n  0x0100\n  exp\n  dup2\n  sload\n  dup2\n  0xffffffffffffffffffffffffffffffffffffffff\n  mul\n  not\n  and\n  swap1\n  dup4\n  0xffffffffffffffffffffffffffffffffffffffff\n  and\n  mul\n  or\n  swap1\n  sstore\n  pop\n    /* \"HealthChain/src/SupplyChain.sol\":4008:4143  constructor(address _priceFeedAddress) {... */\n  pop\n    /* \"HealthChain/src/SupplyChain.sol\":341:9202  contract SupplyChain{... */\n  jump(tag_6)\n    /* \"#utility.yul\":88:205   */\ntag_8:\n    /* \"#utility.yul\":197:198   */\n  0x00\n    /* \"#utility.yul\":194:195   */\n  dup1\n    /* \"#utility.yul\":187:199   */\n  revert\n    /* \"#utility.yul\":334:460   */\ntag_10:\n    /* \"#utility.yul\":371:378   */\n  0x00\n    /* \"#utility.yul\":411:453   */\n  0xffffffffffffffffffffffffffffffffffffffff\n    /* \"#utility.yul\":404:409   */\n  dup3\n    /* \"#utility.yul\":400:454   */\n  and\n    /* \"#utility.yul\":389:454   */\n  swap1\n  pop\n    /* \"#utility.yul\":334:460   */\n  swap2\n  swap1\n  pop\n  jump\t// out\n    /* \"#utility.yul\":466:562   */\ntag_11:\n    /* \"#utility.yul\":503:510   */\n  0x00\n    /* \"#utility.yul\":532:556   */\n  tag_20\n    /* \"#utility.yul\":550:555   */\n  dup3\n    /* \"#utility.yul\":532:556   */\n  tag_10\n  jump\t// in\ntag_20:\n    /* \"#utility.yul\":521:556   */\n  swap1\n  pop\n    /* \"#utility.yul\":466:562   */\n  swap2\n  swap1\n  pop\n  jump\t// out\n    /* \"#utility.yul\":568:690   */\ntag_12:\n    /* \"#utility.yul\":641:665   */\n  tag_22\n    /* \"#utility.yul\":659:664   */\n  dup2\n    /* \"#utility.yul\":641:665   */\n  tag_11\n  jump\t// in\ntag_22:\n    /* \"#utility.yul\":634:639   */\n  dup2\n    /* \"#utility.yul\":631:666   */\n  eq\n    /* \"#utility.yul\":621:684   */\n  tag_23\n  jumpi\n    /* \"#utility.yul\":680:681   */\n  0x00\n    /* \"#utility.yul\":677:678   */\n  dup1\n    /* \"#utility.yul\":670:682   */\n  revert\n    /* \"#utility.yul\":621:684   */\ntag_23:\n    /* \"#utility.yul\":568:690   */\n  pop\n  jump\t// out\n    /* \"#utility.yul\":696:839   */\ntag_13:\n    /* \"#utility.yul\":753:758   */\n  0x00\n    /* \"#utility.yul\":784:790   */\n  dup2\n    /* \"#utility.yul\":778:791   */\n  mload\n    /* \"#utility.yul\":769:791   */\n  swap1\n  pop\n    /* \"#utility.yul\":800:833   */\n  tag_25\n    /* \"#utility.yul\":827:832   */\n  dup2\n    /* \"#utility.yul\":800:833   */\n  tag_12\n  jump\t// in\ntag_25:\n    /* \"#utility.yul\":696:839   */\n  swap3\n  swap2\n  pop\n  pop\n  jump\t// out\n    /* \"#utility.yul\":845:1196   */\ntag_3:\n    /* \"#utility.yul\":915:921   */\n  0x00\n    /* \"#utility.yul\":964:966   */\n  0x20\n    /* \"#utility.yul\":952:961   */\n  dup3\n    /* \"#utility.yul\":943:950   */\n  dup5\n    /* \"#utility.yul\":939:962   */\n  sub\n    /* \"#utility.yul\":935:967   */\n  slt\n    /* \"#utility.yul\":932:1051   */\n  iszero\n  tag_27\n  jumpi\n    /* \"#utility.yul\":970:1049   */\n  tag_28\n  tag_8\n  jump\t// in\ntag_28:\n    /* \"#utility.yul\":932:1051   */\ntag_27:\n    /* \"#utility.yul\":1090:1091   */\n  0x00\n    /* \"#utility.yul\":1115:1179   */\n  tag_29\n    /* \"#utility.yul\":1171:1178   */\n  dup5\n    /* \"#utility.yul\":1162:1168   */\n  dup3\n    /* \"#utility.yul\":1151:1160   */\n  dup6\n    /* \"#utility.yul\":1147:1169   */\n  add\n    /* \"#utility.yul\":1115:1179   */\n  tag_13\n  jump\t// in\ntag_29:\n    /* \"#utility.yul\":1105:1179   */\n  swap2\n  pop\n    /* \"#utility.yul\":1061:1189   */\n  pop\n    /* \"#utility.yul\":845:1196   */\n  swap3\n  swap2\n  pop\n  pop\n  jump\t// out\n    /* \"HealthChain/src/SupplyChain.sol\":341:9202  contract SupplyChain{... */\ntag_6:\n  dataSize(sub_0)\n  dup1\n  dataOffset(sub_0)\n  0x00\n  codecopy\n  0x00\n  return\nstop\n\nsub_0: assembly {\n        /* \"HealthChain/src/SupplyChain.sol\":341:9202  contract SupplyChain{... */\n      mstore(0x40, 0x80)\n      callvalue\n      dup1\n      iszero\n      tag_1\n      jumpi\n      0x00\n      dup1\n      revert\n    tag_1:\n      pop\n      jumpi(tag_2, lt(calldatasize, 0x04))\n      shr(0xe0, calldataload(0x00))\n      dup1\n      0x866c8470\n      gt\n      tag_24\n      jumpi\n      dup1\n      0xba429578\n      gt\n      tag_25\n      jumpi\n      dup1\n      0xba429578\n      eq\n      tag_18\n      jumpi\n      dup1\n      0xca2efb55\n      eq\n      tag_19\n      jumpi\n      dup1\n      0xcc74458c\n      eq\n      tag_20\n      jumpi\n      dup1\n      0xdc2b2a4c\n      eq\n      tag_21\n      jumpi\n      dup1\n      0xf170cdae\n      eq\n      tag_22\n      jumpi\n      dup1\n      0xf57a3c49\n      eq\n      tag_23\n      jumpi\n      jump(tag_2)\n    tag_25:\n      dup1\n      0x866c8470\n      eq\n      tag_13\n      jumpi\n      dup1\n      0x8da5cb5b\n      eq\n      tag_14\n      jumpi\n      dup1\n      0x8e15f473\n      eq\n      tag_15\n      jumpi\n      dup1\n      0x9ace38c2\n      eq\n      tag_16\n      jumpi\n      dup1\n      0xb9db15b4\n      eq\n      tag_17\n      jumpi\n      jump(tag_2)\n    tag_24:\n      dup1\n      0x4e70be95\n      gt\n      tag_26\n      jumpi\n      dup1\n      0x4e70be95\n      eq\n      tag_8\n      jumpi\n      dup1\n      0x508ddcbb\n      eq\n      tag_9\n      jumpi\n      dup1\n      0x58475c35\n      eq\n      tag_10\n      jumpi\n      dup1\n      0x6e374428\n      eq\n      tag_11\n      jumpi\n      dup1\n      0x7cd07fed\n      eq\n      tag_12\n      jumpi\n      jump(tag_2)\n    tag_26:\n      dup1\n      0x03e5b628\n      eq\n      tag_3\n      jumpi\n      dup1\n      0x182072b0\n      eq\n      tag_4\n      jumpi\n      dup1\n      0x2b6c653f\n      eq\n      tag_5\n      jumpi\n      dup1\n      0x3f0a54a6\n      eq\n      tag_6\n      jumpi\n      dup1\n      0x4036b950\n      eq\n      tag_7\n      jumpi\n    tag_2:\n      0x00\n      dup1\n      revert\n        /* \"HealthChain/src/SupplyChain.sol\":4499:4521  Food[] public foodList */\n    tag_3:\n      tag_27\n      0x04\n      dup1\n      calldatasize\n      sub\n      dup2\n      add\n      swap1\n      tag_28\n      swap2\n      swap1\n      tag_29\n      jump\t// in\n    tag_28:\n      tag_30\n      jump\t// in\n    tag_27:\n      mload(0x40)\n      tag_31\n      swap8\n      swap7\n      swap6\n      swap5\n      swap4\n      swap3\n      swap2\n      swap1\n      tag_32\n      jump\t// in\n    tag_31:\n      mload(0x40)\n      dup1\n      swap2\n      sub\n      swap1\n      return\n        /* \"HealthChain/src/SupplyChain.sol\":4462:4489  Medicals[] public  medicals */\n    tag_4:\n      tag_33\n      0x04\n      dup1\n      calldatasize\n      sub\n      dup2\n      add\n      swap1\n      tag_34\n      swap2\n      swap1\n      tag_29\n      jump\t// in\n    tag_34:\n      tag_35\n      jump\t// in\n    tag_33:\n      mload(0x40)\n      tag_36\n      swap9\n      swap8\n      swap7\n      swap6\n      swap5\n      swap4\n      swap3\n      swap2\n      swap1\n      tag_37\n      jump\t// in\n    tag_36:\n      mload(0x40)\n      dup1\n      swap2\n      sub\n      swap1\n      return\n        /* \"HealthChain/src/SupplyChain.sol\":4580:4636  mapping (uint256 => Medicals) public warehouseInventory_ */\n    tag_5:\n      tag_38\n      0x04\n      dup1\n      calldatasize\n      sub\n      dup2\n      add\n      swap1\n      tag_39\n      swap2\n      swap1\n      tag_29\n      jump\t// in\n    tag_39:\n      tag_40\n      jump\t// in\n    tag_38:\n      mload(0x40)\n      tag_41\n      swap9\n      swap8\n      swap7\n      swap6\n      swap5\n      swap4\n      swap3\n      swap2\n      swap1\n      tag_37\n      jump\t// in\n    tag_41:\n      mload(0x40)\n      dup1\n      swap2\n      sub\n      swap1\n      return\n        /* \"HealthChain/src/SupplyChain.sol\":4531:4570  Transaction[] public transactionDetails */\n    tag_6:\n      tag_42\n      0x04\n      dup1\n      calldatasize\n      sub\n      dup2\n      add\n      swap1\n      tag_43\n      swap2\n      swap1\n      tag_29\n      jump\t// in\n    tag_43:\n      tag_44\n      jump\t// in\n    tag_42:\n      mload(0x40)\n      tag_45\n      swap6\n      swap5\n      swap4\n      swap3\n      swap2\n      swap1\n      tag_46\n      jump\t// in\n    tag_45:\n      mload(0x40)\n      dup1\n      swap2\n      sub\n      swap1\n      return\n        /* \"HealthChain/src/SupplyChain.sol\":6250:6894  function authorizeImport(... */\n    tag_7:\n      tag_47\n      0x04\n      dup1\n      calldatasize\n      sub\n      dup2\n      add\n      swap1\n      tag_48\n      swap2\n      swap1\n      tag_49\n      jump\t// in\n    tag_48:\n      tag_50\n      jump\t// in\n    tag_47:\n      stop\n        /* \"HealthChain/src/SupplyChain.sol\":5028:6135  function transferMedicine(string memory batchId, string[] memory itemNames,... */\n    tag_8:\n      tag_51\n      0x04\n      dup1\n      calldatasize\n      sub\n      dup2\n      add\n      swap1\n      tag_52\n      swap2\n      swap1\n      tag_53\n      jump\t// in\n    tag_52:\n      tag_54\n      jump\t// in\n    tag_51:\n      stop\n        /* \"HealthChain/src/SupplyChain.sol\":3372:3405  address[] public consumersAddress */\n    tag_9:\n      tag_55\n      0x04\n      dup1\n      calldatasize\n      sub\n      dup2\n      add\n      swap1\n      tag_56\n      swap2\n      swap1\n      tag_29\n      jump\t// in\n    tag_56:\n      tag_57\n      jump\t// in\n    tag_55:\n      mload(0x40)\n      tag_58\n      swap2\n      swap1\n      tag_59\n      jump\t// in\n    tag_58:\n      mload(0x40)\n      dup1\n      swap2\n      sub\n      swap1\n      return\n        /* \"HealthChain/src/SupplyChain.sol\":3281:3362  mapping(uint256 => mapping (address =>ValidationResult)) public validationResults */\n    tag_10:\n      tag_60\n      0x04\n      dup1\n      calldatasize\n      sub\n      dup2\n      add\n      swap1\n      tag_61\n      swap2\n      swap1\n      tag_62\n      jump\t// in\n    tag_61:\n      tag_63\n      jump\t// in\n    tag_60:\n      mload(0x40)\n      tag_64\n      swap5\n      swap4\n      swap3\n      swap2\n      swap1\n      tag_65\n      jump\t// in\n    tag_64:\n      mload(0x40)\n      dup1\n      swap2\n      sub\n      swap1\n      return\n        /* \"HealthChain/src/SupplyChain.sol\":3118:3187  mapping(Category => mapping(uint256 => Food)) public categorizedItems */\n    tag_11:\n      tag_66\n      0x04\n      dup1\n      calldatasize\n      sub\n      dup2\n      add\n      swap1\n      tag_67\n      swap2\n      swap1\n      tag_68\n      jump\t// in\n    tag_67:\n      tag_69\n      jump\t// in\n    tag_66:\n      mload(0x40)\n      tag_70\n      swap8\n      swap7\n      swap6\n      swap5\n      swap4\n      swap3\n      swap2\n      swap1\n      tag_32\n      jump\t// in\n    tag_70:\n      mload(0x40)\n      dup1\n      swap2\n      sub\n      swap1\n      return\n        /* \"HealthChain/src/SupplyChain.sol\":2989:3039  mapping (string => Transaction) public transaction */\n    tag_12:\n      tag_71\n      0x04\n      dup1\n      calldatasize\n      sub\n      dup2\n      add\n      swap1\n      tag_72\n      swap2\n      swap1\n      tag_73\n      jump\t// in\n    tag_72:\n      tag_74\n      jump\t// in\n    tag_71:\n      mload(0x40)\n      tag_75\n      swap6\n      swap5\n      swap4\n      swap3\n      swap2\n      swap1\n      tag_46\n      jump\t// in\n    tag_75:\n      mload(0x40)\n      dup1\n      swap2\n      sub\n      swap1\n      return\n        /* \"HealthChain/src/SupplyChain.sol\":2896:2955  mapping(uint256 => ValidationResult) public itemValidations */\n    tag_13:\n      tag_76\n      0x04\n      dup1\n      calldatasize\n      sub\n      dup2\n      add\n      swap1\n      tag_77\n      swap2\n      swap1\n      tag_29\n      jump\t// in\n    tag_77:\n      tag_78\n      jump\t// in\n    tag_76:\n      mload(0x40)\n      tag_79\n      swap5\n      swap4\n      swap3\n      swap2\n      swap1\n      tag_65\n      jump\t// in\n    tag_79:\n      mload(0x40)\n      dup1\n      swap2\n      sub\n      swap1\n      return\n        /* \"HealthChain/src/SupplyChain.sol\":4667:4695  address payable public owner */\n    tag_14:\n      tag_80\n      tag_81\n      jump\t// in\n    tag_80:\n      mload(0x40)\n      tag_82\n      swap2\n      swap1\n      tag_83\n      jump\t// in\n    tag_82:\n      mload(0x40)\n      dup1\n      swap2\n      sub\n      swap1\n      return\n        /* \"HealthChain/src/SupplyChain.sol\":4719:4868  function getLatestPrice() public view returns(int){... */\n    tag_15:\n      tag_84\n      tag_85\n      jump\t// in\n    tag_84:\n      mload(0x40)\n      tag_86\n      swap2\n      swap1\n      tag_87\n      jump\t// in\n    tag_86:\n      mload(0x40)\n      dup1\n      swap2\n      sub\n      swap1\n      return\n        /* \"HealthChain/src/SupplyChain.sol\":3509:3560  mapping(uint256 => Transaction) public transactions */\n    tag_16:\n      tag_88\n      0x04\n      dup1\n      calldatasize\n      sub\n      dup2\n      add\n      swap1\n      tag_89\n      swap2\n      swap1\n      tag_29\n      jump\t// in\n    tag_89:\n      tag_90\n      jump\t// in\n    tag_88:\n      mload(0x40)\n      tag_91\n      swap6\n      swap5\n      swap4\n      swap3\n      swap2\n      swap1\n      tag_46\n      jump\t// in\n    tag_91:\n      mload(0x40)\n      dup1\n      swap2\n      sub\n      swap1\n      return\n        /* \"HealthChain/src/SupplyChain.sol\":8527:8878  function getProduct(uint256 productId) public view returns (string memory, string memory, string memory, address) {... */\n    tag_17:\n      tag_92\n      0x04\n      dup1\n      calldatasize\n      sub\n      dup2\n      add\n      swap1\n      tag_93\n      swap2\n      swap1\n      tag_29\n      jump\t// in\n    tag_93:\n      tag_94\n      jump\t// in\n    tag_92:\n      mload(0x40)\n      tag_95\n      swap5\n      swap4\n      swap3\n      swap2\n      swap1\n      tag_96\n      jump\t// in\n    tag_95:\n      mload(0x40)\n      dup1\n      swap2\n      sub\n      swap1\n      return\n        /* \"HealthChain/src/SupplyChain.sol\":8884:9198  function updateProductStatus(uint256 productId, string memory newStatus) public {... */\n    tag_18:\n      tag_97\n      0x04\n      dup1\n      calldatasize\n      sub\n      dup2\n      add\n      swap1\n      tag_98\n      swap2\n      swap1\n      tag_99\n      jump\t// in\n    tag_98:\n      tag_100\n      jump\t// in\n    tag_97:\n      stop\n        /* \"HealthChain/src/SupplyChain.sol\":7923:8522  function addProduct(string memory name, string memory batch) public returns (uint256) {... */\n    tag_19:\n      tag_101\n      0x04\n      dup1\n      calldatasize\n      sub\n      dup2\n      add\n      swap1\n      tag_102\n      swap2\n      swap1\n      tag_103\n      jump\t// in\n    tag_102:\n      tag_104\n      jump\t// in\n    tag_101:\n      mload(0x40)\n      tag_105\n      swap2\n      swap1\n      tag_106\n      jump\t// in\n    tag_105:\n      mload(0x40)\n      dup1\n      swap2\n      sub\n      swap1\n      return\n        /* \"HealthChain/src/SupplyChain.sol\":3049:3108  mapping(address => Medicals) public usersAddressToMedicalId */\n    tag_20:\n      tag_107\n      0x04\n      dup1\n      calldatasize\n      sub\n      dup2\n      add\n      swap1\n      tag_108\n      swap2\n      swap1\n      tag_109\n      jump\t// in\n    tag_108:\n      tag_110\n      jump\t// in\n    tag_107:\n      mload(0x40)\n      tag_111\n      swap9\n      swap8\n      swap7\n      swap6\n      swap5\n      swap4\n      swap3\n      swap2\n      swap1\n      tag_37\n      jump\t// in\n    tag_111:\n      mload(0x40)\n      dup1\n      swap2\n      sub\n      swap1\n      return\n        /* \"HealthChain/src/SupplyChain.sol\":3415:3470  mapping(uint256 => MovementDetails) public movementLogs */\n    tag_21:\n      tag_112\n      0x04\n      dup1\n      calldatasize\n      sub\n      dup2\n      add\n      swap1\n      tag_113\n      swap2\n      swap1\n      tag_29\n      jump\t// in\n    tag_113:\n      tag_114\n      jump\t// in\n    tag_112:\n      mload(0x40)\n      tag_115\n      swap6\n      swap5\n      swap4\n      swap3\n      swap2\n      swap1\n      tag_116\n      jump\t// in\n    tag_115:\n      mload(0x40)\n      dup1\n      swap2\n      sub\n      swap1\n      return\n        /* \"HealthChain/src/SupplyChain.sol\":3197:3271  mapping(uint256 => mapping(address => Medicals)) public warehouseInventory */\n    tag_22:\n      tag_117\n      0x04\n      dup1\n      calldatasize\n      sub\n      dup2\n      add\n      swap1\n      tag_118\n      swap2\n      swap1\n      tag_62\n      jump\t// in\n    tag_118:\n      tag_119\n      jump\t// in\n    tag_117:\n      mload(0x40)\n      tag_120\n      swap9\n      swap8\n      swap7\n      swap6\n      swap5\n      swap4\n      swap3\n      swap2\n      swap1\n      tag_37\n      jump\t// in\n    tag_120:\n      mload(0x40)\n      dup1\n      swap2\n      sub\n      swap1\n      return\n        /* \"HealthChain/src/SupplyChain.sol\":6990:7919  function authorizeImportWithPrice(... */\n    tag_23:\n      tag_121\n      0x04\n      dup1\n      calldatasize\n      sub\n      dup2\n      add\n      swap1\n      tag_122\n      swap2\n      swap1\n      tag_49\n      jump\t// in\n    tag_122:\n      tag_123\n      jump\t// in\n    tag_121:\n      stop\n        /* \"HealthChain/src/SupplyChain.sol\":4499:4521  Food[] public foodList */\n    tag_30:\n      0x0b\n      dup2\n      dup2\n      sload\n      dup2\n      lt\n      tag_124\n      jumpi\n      0x00\n      dup1\n      revert\n    tag_124:\n      swap1\n      0x00\n      mstore\n      keccak256(0x00, 0x20)\n      swap1\n      0x07\n      mul\n      add\n      0x00\n      swap2\n      pop\n      swap1\n      pop\n      dup1\n      0x00\n      add\n      sload\n      swap1\n      dup1\n      0x01\n      add\n      dup1\n      sload\n      tag_126\n      swap1\n      tag_127\n      jump\t// in\n    tag_126:\n      dup1\n      0x1f\n      add\n      0x20\n      dup1\n      swap2\n      div\n      mul\n      0x20\n      add\n      mload(0x40)\n      swap1\n      dup2\n      add\n      0x40\n      mstore\n      dup1\n      swap3\n      swap2\n      swap1\n      dup2\n      dup2\n      mstore\n      0x20\n      add\n      dup3\n      dup1\n      sload\n      tag_128\n      swap1\n      tag_127\n      jump\t// in\n    tag_128:\n      dup1\n      iszero\n      tag_129\n      jumpi\n      dup1\n      0x1f\n      lt\n      tag_130\n      jumpi\n      0x0100\n      dup1\n      dup4\n      sload\n      div\n      mul\n      dup4\n      mstore\n      swap2\n      0x20\n      add\n      swap2\n      jump(tag_129)\n    tag_130:\n      dup3\n      add\n      swap2\n      swap1\n      0x00\n      mstore\n      keccak256(0x00, 0x20)\n      swap1\n    tag_131:\n      dup2\n      sload\n      dup2\n      mstore\n      swap1\n      0x01\n      add\n      swap1\n      0x20\n      add\n      dup1\n      dup4\n      gt\n      tag_131\n      jumpi\n      dup3\n      swap1\n      sub\n      0x1f\n      and\n      dup3\n      add\n      swap2\n    tag_129:\n      pop\n      pop\n      pop\n      pop\n      pop\n      swap1\n      dup1\n      0x02\n      add\n      sload\n      swap1\n      dup1\n      0x03\n      add\n      dup1\n      sload\n      tag_132\n      swap1\n      tag_127\n      jump\t// in\n    tag_132:\n      dup1\n      0x1f\n      add\n      0x20\n      dup1\n      swap2\n      div\n      mul\n      0x20\n      add\n      mload(0x40)\n      swap1\n      dup2\n      add\n      0x40\n      mstore\n      dup1\n      swap3\n      swap2\n      swap1\n      dup2\n      dup2\n      mstore\n      0x20\n      add\n      dup3\n      dup1\n      sload\n      tag_133\n      swap1\n      tag_127\n      jump\t// in\n    tag_133:\n      dup1\n      iszero\n      tag_134\n      jumpi\n      dup1\n      0x1f\n      lt\n      tag_135\n      jumpi\n      0x0100\n      dup1\n      dup4\n      sload\n      div\n      mul\n      dup4\n      mstore\n      swap2\n      0x20\n      add\n      swap2\n      jump(tag_134)\n    tag_135:\n      dup3\n      add\n      swap2\n      swap1\n      0x00\n      mstore\n      keccak256(0x00, 0x20)\n      swap1\n    tag_136:\n      dup2\n      sload\n      dup2\n      mstore\n      swap1\n      0x01\n      add\n      swap1\n      0x20\n      add\n      dup1\n      dup4\n      gt\n      tag_136\n      jumpi\n      dup3\n      swap1\n      sub\n      0x1f\n      and\n      dup3\n      add\n      swap2\n    tag_134:\n      pop\n      pop\n      pop\n      pop\n      pop\n      swap1\n      dup1\n      0x04\n      add\n      sload\n      swap1\n      dup1\n      0x05\n      add\n      sload\n      swap1\n      dup1\n      0x06\n      add\n      sload\n      swap1\n      pop\n      dup8\n      jump\t// out\n        /* \"HealthChain/src/SupplyChain.sol\":4462:4489  Medicals[] public  medicals */\n    tag_35:\n      0x0a\n      dup2\n      dup2\n      sload\n      dup2\n      lt\n      tag_137\n      jumpi\n      0x00\n      dup1\n      revert\n    tag_137:\n      swap1\n      0x00\n      mstore\n      keccak256(0x00, 0x20)\n      swap1\n      0x08\n      mul\n      add\n      0x00\n      swap2\n      pop\n      swap1\n      pop\n      dup1\n      0x00\n      add\n      sload\n      swap1\n      dup1\n      0x01\n      add\n      0x00\n      swap1\n      sload\n      swap1\n      0x0100\n      exp\n      swap1\n      div\n      0xff\n      and\n      swap1\n      dup1\n      0x02\n      add\n      sload\n      swap1\n      dup1\n      0x03\n      add\n      0x00\n      swap1\n      sload\n      swap1\n      0x0100\n      exp\n      swap1\n      div\n      0xffffffffffffffffffffffffffffffffffffffff\n      and\n      swap1\n      dup1\n      0x04\n      add\n      dup1\n      sload\n      tag_139\n      swap1\n      tag_127\n      jump\t// in\n    tag_139:\n      dup1\n      0x1f\n      add\n      0x20\n      dup1\n      swap2\n      div\n      mul\n      0x20\n      add\n      mload(0x40)\n      swap1\n      dup2\n      add\n      0x40\n      mstore\n      dup1\n      swap3\n      swap2\n      swap1\n      dup2\n      dup2\n      mstore\n      0x20\n      add\n      dup3\n      dup1\n      sload\n      tag_140\n      swap1\n      tag_127\n      jump\t// in\n    tag_140:\n      dup1\n      iszero\n      tag_141\n      jumpi\n      dup1\n      0x1f\n      lt\n      tag_142\n      jumpi\n      0x0100\n      dup1\n      dup4\n      sload\n      div\n      mul\n      dup4\n      mstore\n      swap2\n      0x20\n      add\n      swap2\n      jump(tag_141)\n    tag_142:\n      dup3\n      add\n      swap2\n      swap1\n      0x00\n      mstore\n      keccak256(0x00, 0x20)\n      swap1\n    tag_143:\n      dup2\n      sload\n      dup2\n      mstore\n      swap1\n      0x01\n      add\n      swap1\n      0x20\n      add\n      dup1\n      dup4\n      gt\n      tag_143\n      jumpi\n      dup3\n      swap1\n      sub\n      0x1f\n      and\n      dup3\n      add\n      swap2\n    tag_141:\n      pop\n      pop\n      pop\n      pop\n      pop\n      swap1\n      dup1\n      0x05\n      add\n      sload\n      swap1\n      dup1\n      0x06\n      add\n      dup1\n      sload\n      tag_144\n      swap1\n      tag_127\n      jump\t// in\n    tag_144:\n      dup1\n      0x1f\n      add\n      0x20\n      dup1\n      swap2\n      div\n      mul\n      0x20\n      add\n      mload(0x40)\n      swap1\n      dup2\n      add\n      0x40\n      mstore\n      dup1\n      swap3\n      swap2\n      swap1\n      dup2\n      dup2\n      mstore\n      0x20\n      add\n      dup3\n      dup1\n      sload\n      tag_145\n      swap1\n      tag_127\n      jump\t// in\n    tag_145:\n      dup1\n      iszero\n      tag_146\n      jumpi\n      dup1\n      0x1f\n      lt\n      tag_147\n      jumpi\n      0x0100\n      dup1\n      dup4\n      sload\n      div\n      mul\n      dup4\n      mstore\n      swap2\n      0x20\n      add\n      swap2\n      jump(tag_146)\n    tag_147:\n      dup3\n      add\n      swap2\n      swap1\n      0x00\n      mstore\n      keccak256(0x00, 0x20)\n      swap1\n    tag_148:\n      dup2\n      sload\n      dup2\n      mstore\n      swap1\n      0x01\n      add\n      swap1\n      0x20\n      add\n      dup1\n      dup4\n      gt\n      tag_148\n      jumpi\n      dup3\n      swap1\n      sub\n      0x1f\n      and\n      dup3\n      add\n      swap2\n    tag_146:\n      pop\n      pop\n      pop\n      pop\n      pop\n      swap1\n      dup1\n      0x07\n      add\n      dup1\n      sload\n      tag_149\n      swap1\n      tag_127\n      jump\t// in\n    tag_149:\n      dup1\n      0x1f\n      add\n      0x20\n      dup1\n      swap2\n      div\n      mul\n      0x20\n      add\n      mload(0x40)\n      swap1\n      dup2\n      add\n      0x40\n      mstore\n      dup1\n      swap3\n      swap2\n      swap1\n      dup2\n      dup2\n      mstore\n      0x20\n      add\n      dup3\n      dup1\n      sload\n      tag_150\n      swap1\n      tag_127\n      jump\t// in\n    tag_150:\n      dup1\n      iszero\n      tag_151\n      jumpi\n      dup1\n      0x1f\n      lt\n      tag_152\n      jumpi\n      0x0100\n      dup1\n      dup4\n      sload\n      div\n      mul\n      dup4\n      mstore\n      swap2\n      0x20\n      add\n      swap2\n      jump(tag_151)\n    tag_152:\n      dup3\n      add\n      swap2\n      swap1\n      0x00\n      mstore\n      keccak256(0x00, 0x20)\n      swap1\n    tag_153:\n      dup2\n      sload\n      dup2\n      mstore\n      swap1\n      0x01\n      add\n      swap1\n      0x20\n      add\n      dup1\n      dup4\n      gt\n      tag_153\n      jumpi\n      dup3\n      swap1\n      sub\n      0x1f\n      and\n      dup3\n      add\n      swap2\n    tag_151:\n      pop\n      pop\n      pop\n      pop\n      pop\n      swap1\n      pop\n      dup9\n      jump\t// out\n        /* \"HealthChain/src/SupplyChain.sol\":4580:4636  mapping (uint256 => Medicals) public warehouseInventory_ */\n    tag_40:\n      mstore(0x20, 0x0d)\n      dup1\n      0x00\n      mstore\n      keccak256(0x00, 0x40)\n      0x00\n      swap2\n      pop\n      swap1\n      pop\n      dup1\n      0x00\n      add\n      sload\n      swap1\n      dup1\n      0x01\n      add\n      0x00\n      swap1\n      sload\n      swap1\n      0x0100\n      exp\n      swap1\n      div\n      0xff\n      and\n      swap1\n      dup1\n      0x02\n      add\n      sload\n      swap1\n      dup1\n      0x03\n      add\n      0x00\n      swap1\n      sload\n      swap1\n      0x0100\n      exp\n      swap1\n      div\n      0xffffffffffffffffffffffffffffffffffffffff\n      and\n      swap1\n      dup1\n      0x04\n      add\n      dup1\n      sload\n      tag_154\n      swap1\n      tag_127\n      jump\t// in\n    tag_154:\n      dup1\n      0x1f\n      add\n      0x20\n      dup1\n      swap2\n      div\n      mul\n      0x20\n      add\n      mload(0x40)\n      swap1\n      dup2\n      add\n      0x40\n      mstore\n      dup1\n      swap3\n      swap2\n      swap1\n      dup2\n      dup2\n      mstore\n      0x20\n      add\n      dup3\n      dup1\n      sload\n      tag_155\n      swap1\n      tag_127\n      jump\t// in\n    tag_155:\n      dup1\n      iszero\n      tag_156\n      jumpi\n      dup1\n      0x1f\n      lt\n      tag_157\n      jumpi\n      0x0100\n      dup1\n      dup4\n      sload\n      div\n      mul\n      dup4\n      mstore\n      swap2\n      0x20\n      add\n      swap2\n      jump(tag_156)\n    tag_157:\n      dup3\n      add\n      swap2\n      swap1\n      0x00\n      mstore\n      keccak256(0x00, 0x20)\n      swap1\n    tag_158:\n      dup2\n      sload\n      dup2\n      mstore\n      swap1\n      0x01\n      add\n      swap1\n      0x20\n      add\n      dup1\n      dup4\n      gt\n      tag_158\n      jumpi\n      dup3\n      swap1\n      sub\n      0x1f\n      and\n      dup3\n      add\n      swap2\n    tag_156:\n      pop\n      pop\n      pop\n      pop\n      pop\n      swap1\n      dup1\n      0x05\n      add\n      sload\n      swap1\n      dup1\n      0x06\n      add\n      dup1\n      sload\n      tag_159\n      swap1\n      tag_127\n      jump\t// in\n    tag_159:\n      dup1\n      0x1f\n      add\n      0x20\n      dup1\n      swap2\n      div\n      mul\n      0x20\n      add\n      mload(0x40)\n      swap1\n      dup2\n      add\n      0x40\n      mstore\n      dup1\n      swap3\n      swap2\n      swap1\n      dup2\n      dup2\n      mstore\n      0x20\n      add\n      dup3\n      dup1\n      sload\n      tag_160\n      swap1\n      tag_127\n      jump\t// in\n    tag_160:\n      dup1\n      iszero\n      tag_161\n      jumpi\n      dup1\n      0x1f\n      lt\n      tag_162\n      jumpi\n      0x0100\n      dup1\n      dup4\n      sload\n      div\n      mul\n      dup4\n      mstore\n      swap2\n      0x20\n      add\n      swap2\n      jump(tag_161)\n    tag_162:\n      dup3\n      add\n      swap2\n      swap1\n      0x00\n      mstore\n      keccak256(0x00, 0x20)\n      swap1\n    tag_163:\n      dup2\n      sload\n      dup2\n      mstore\n      swap1\n      0x01\n      add\n      swap1\n      0x20\n      add\n      dup1\n      dup4\n      gt\n      tag_163\n      jumpi\n      dup3\n      swap1\n      sub\n      0x1f\n      and\n      dup3\n      add\n      swap2\n    tag_161:\n      pop\n      pop\n      pop\n      pop\n      pop\n      swap1\n      dup1\n      0x07\n      add\n      dup1\n      sload\n      tag_164\n      swap1\n      tag_127\n      jump\t// in\n    tag_164:\n      dup1\n      0x1f\n      add\n      0x20\n      dup1\n      swap2\n      div\n      mul\n      0x20\n      add\n      mload(0x40)\n      swap1\n      dup2\n      add\n      0x40\n      mstore\n      dup1\n      swap3\n      swap2\n      swap1\n      dup2\n      dup2\n      mstore\n      0x20\n      add\n      dup3\n      dup1\n      sload\n      tag_165\n      swap1\n      tag_127\n      jump\t// in\n    tag_165:\n      dup1\n      iszero\n      tag_166\n      jumpi\n      dup1\n      0x1f\n      lt\n      tag_167\n      jumpi\n      0x0100\n      dup1\n      dup4\n      sload\n      div\n      mul\n      dup4\n      mstore\n      swap2\n      0x20\n      add\n      swap2\n      jump(tag_166)\n    tag_167:\n      dup3\n      add\n      swap2\n      swap1\n      0x00\n      mstore\n      keccak256(0x00, 0x20)\n      swap1\n    tag_168:\n      dup2\n      sload\n      dup2\n      mstore\n      swap1\n      0x01\n      add\n      swap1\n      0x20\n      add\n      dup1\n      dup4\n      gt\n      tag_168\n      jumpi\n      dup3\n      swap1\n      sub\n      0x1f\n      and\n      dup3\n      add\n      swap2\n    tag_166:\n      pop\n      pop\n      pop\n      pop\n      pop\n      swap1\n      pop\n      dup9\n      jump\t// out\n        /* \"HealthChain/src/SupplyChain.sol\":4531:4570  Transaction[] public transactionDetails */\n    tag_44:\n      0x0c\n      dup2\n      dup2\n      sload\n      dup2\n      lt\n      tag_169\n      jumpi\n      0x00\n      dup1\n      revert\n    tag_169:\n      swap1\n      0x00\n      mstore\n      keccak256(0x00, 0x20)\n      swap1\n      0x05\n      mul\n      add\n      0x00\n      swap2\n      pop\n      swap1\n      pop\n      dup1\n      0x00\n      add\n      0x00\n      swap1\n      sload\n      swap1\n      0x0100\n      exp\n      swap1\n      div\n      0xff\n      and\n      swap1\n      dup1\n      0x01\n      add\n      sload\n      swap1\n      dup1\n      0x02\n      add\n      0x00\n      swap1\n      sload\n      swap1\n      0x0100\n      exp\n      swap1\n      div\n      0xffffffffffffffffffffffffffffffffffffffff\n      and\n      swap1\n      dup1\n      0x03\n      add\n      sload\n      swap1\n      dup1\n      0x04\n      add\n      0x00\n      swap1\n      sload\n      swap1\n      0x0100\n      exp\n      swap1\n      div\n      0xffffffffffffffffffffffffffffffffffffffff\n      and\n      swap1\n      pop\n      dup6\n      jump\t// out\n        /* \"HealthChain/src/SupplyChain.sol\":6250:6894  function authorizeImport(... */\n    tag_50:\n        /* \"HealthChain/src/SupplyChain.sol\":6452:6453  0 */\n      0x00\n        /* \"HealthChain/src/SupplyChain.sol\":6434:6441  batchId */\n      dup5\n        /* \"HealthChain/src/SupplyChain.sol\":6428:6449  bytes(batchId).length */\n      mload\n        /* \"HealthChain/src/SupplyChain.sol\":6428:6453  bytes(batchId).length > 0 */\n      gt\n        /* \"HealthChain/src/SupplyChain.sol\":6420:6478  require(bytes(batchId).length > 0, \"Batch Id is required\") */\n      tag_172\n      jumpi\n      mload(0x40)\n      0x08c379a000000000000000000000000000000000000000000000000000000000\n      dup2\n      mstore\n      0x04\n      add\n      tag_173\n      swap1\n      tag_174\n      jump\t// in\n    tag_173:\n      mload(0x40)\n      dup1\n      swap2\n      sub\n      swap1\n      revert\n    tag_172:\n        /* \"HealthChain/src/SupplyChain.sol\":6509:6510  0 */\n      0x00\n        /* \"HealthChain/src/SupplyChain.sol\":6492:6499  itemIds */\n      dup2\n        /* \"HealthChain/src/SupplyChain.sol\":6492:6506  itemIds.length */\n      mload\n        /* \"HealthChain/src/SupplyChain.sol\":6492:6510  itemIds.length > 0 */\n      gt\n        /* \"HealthChain/src/SupplyChain.sol\":6484:6533  require(itemIds.length > 0, \"Item list required\") */\n      tag_175\n      jumpi\n      mload(0x40)\n      0x08c379a000000000000000000000000000000000000000000000000000000000\n      dup2\n      mstore\n      0x04\n      add\n      tag_176\n      swap1\n      tag_177\n      jump\t// in\n    tag_176:\n      mload(0x40)\n      dup1\n      swap2\n      sub\n      swap1\n      revert\n    tag_175:\n        /* \"HealthChain/src/SupplyChain.sol\":6641:6657  bytes(\"Nigeria\") */\n      mload(0x40)\n      dup1\n      0x40\n      add\n      0x40\n      mstore\n      dup1\n      0x07\n      dup2\n      mstore\n      0x20\n      add\n      0x4e69676572696100000000000000000000000000000000000000000000000000\n      dup2\n      mstore\n      pop\n        /* \"HealthChain/src/SupplyChain.sol\":6631:6658  keccak256(bytes(\"Nigeria\")) */\n      dup1\n      mload\n      swap1\n      0x20\n      add\n      keccak256\n        /* \"HealthChain/src/SupplyChain.sol\":6612:6625  originCountry */\n      dup4\n        /* \"HealthChain/src/SupplyChain.sol\":6596:6627  keccak256(bytes(originCountry)) */\n      dup1\n      mload\n      swap1\n      0x20\n      add\n      keccak256\n        /* \"HealthChain/src/SupplyChain.sol\":6596:6658  keccak256(bytes(originCountry)) == keccak256(bytes(\"Nigeria\")) */\n      eq\n        /* \"HealthChain/src/SupplyChain.sol\":6596:6737  keccak256(bytes(originCountry)) == keccak256(bytes(\"Nigeria\")) &&... */\n      dup1\n      iszero\n      tag_178\n      jumpi\n      pop\n        /* \"HealthChain/src/SupplyChain.sol\":6720:6736  bytes(\"Nigeria\") */\n      mload(0x40)\n      dup1\n      0x40\n      add\n      0x40\n      mstore\n      dup1\n      0x07\n      dup2\n      mstore\n      0x20\n      add\n      0x4e69676572696100000000000000000000000000000000000000000000000000\n      dup2\n      mstore\n      pop\n        /* \"HealthChain/src/SupplyChain.sol\":6710:6737  keccak256(bytes(\"Nigeria\")) */\n      dup1\n      mload\n      swap1\n      0x20\n      add\n      keccak256\n        /* \"HealthChain/src/SupplyChain.sol\":6686:6704  destinationCountry */\n      dup3\n        /* \"HealthChain/src/SupplyChain.sol\":6670:6706  keccak256(bytes(destinationCountry)) */\n      dup1\n      mload\n      swap1\n      0x20\n      add\n      keccak256\n        /* \"HealthChain/src/SupplyChain.sol\":6670:6737  keccak256(bytes(destinationCountry)) != keccak256(bytes(\"Nigeria\")) */\n      eq\n      iszero\n        /* \"HealthChain/src/SupplyChain.sol\":6596:6737  keccak256(bytes(originCountry)) == keccak256(bytes(\"Nigeria\")) &&... */\n    tag_178:\n        /* \"HealthChain/src/SupplyChain.sol\":6583:6892  if (... */\n      iszero\n      tag_179\n      jumpi\n        /* \"HealthChain/src/SupplyChain.sol\":6759:6765  uint i */\n      0x00\n        /* \"HealthChain/src/SupplyChain.sol\":6754:6886  for (uint i = 0; i < itemIds.length; i++) {... */\n    tag_180:\n        /* \"HealthChain/src/SupplyChain.sol\":6775:6782  itemIds */\n      dup2\n        /* \"HealthChain/src/SupplyChain.sol\":6775:6789  itemIds.length */\n      mload\n        /* \"HealthChain/src/SupplyChain.sol\":6771:6772  i */\n      dup2\n        /* \"HealthChain/src/SupplyChain.sol\":6771:6789  i < itemIds.length */\n      lt\n        /* \"HealthChain/src/SupplyChain.sol\":6754:6886  for (uint i = 0; i < itemIds.length; i++) {... */\n      iszero\n      tag_181\n      jumpi\n        /* \"HealthChain/src/SupplyChain.sol\":6825:6832  itemIds */\n      dup2\n        /* \"HealthChain/src/SupplyChain.sol\":6833:6834  i */\n      dup2\n        /* \"HealthChain/src/SupplyChain.sol\":6825:6835  itemIds[i] */\n      dup2\n      mload\n      dup2\n      lt\n      tag_183\n      jumpi\n      tag_184\n      tag_185\n      jump\t// in\n    tag_184:\n    tag_183:\n      0x20\n      mul\n      0x20\n      add\n      add\n      mload\n        /* \"HealthChain/src/SupplyChain.sol\":6815:6875  ItemMoved(itemIds[i], msg.sender, \"Lagos Central Warehouse\") */\n      0xcc8e85e9a1f32ff5d86ada68ff28d5d46a095017387d7f4bb707254319846920\n        /* \"HealthChain/src/SupplyChain.sol\":6837:6847  msg.sender */\n      caller\n        /* \"HealthChain/src/SupplyChain.sol\":6815:6875  ItemMoved(itemIds[i], msg.sender, \"Lagos Central Warehouse\") */\n      mload(0x40)\n      tag_186\n      swap2\n      swap1\n      tag_187\n      jump\t// in\n    tag_186:\n      mload(0x40)\n      dup1\n      swap2\n      sub\n      swap1\n      log2\n        /* \"HealthChain/src/SupplyChain.sol\":6791:6794  i++ */\n      dup1\n      dup1\n      0x01\n      add\n      swap2\n      pop\n      pop\n        /* \"HealthChain/src/SupplyChain.sol\":6754:6886  for (uint i = 0; i < itemIds.length; i++) {... */\n      jump(tag_180)\n    tag_181:\n      pop\n        /* \"HealthChain/src/SupplyChain.sol\":6583:6892  if (... */\n    tag_179:\n        /* \"HealthChain/src/SupplyChain.sol\":6250:6894  function authorizeImport(... */\n      pop\n      pop\n      pop\n      pop\n      jump\t// out\n        /* \"HealthChain/src/SupplyChain.sol\":5028:6135  function transferMedicine(string memory batchId, string[] memory itemNames,... */\n    tag_54:\n        /* \"HealthChain/src/SupplyChain.sol\":5217:5238  uint[] memory itemIds */\n      0x60\n        /* \"HealthChain/src/SupplyChain.sol\":5277:5285  medicals */\n      0x0a\n        /* \"HealthChain/src/SupplyChain.sol\":5277:5292  medicals.length */\n      dup1\n      sload\n      swap1\n      pop\n        /* \"HealthChain/src/SupplyChain.sol\":5258:5266  foodList */\n      0x0b\n        /* \"HealthChain/src/SupplyChain.sol\":5258:5273  foodList.length */\n      dup1\n      sload\n      swap1\n      pop\n        /* \"HealthChain/src/SupplyChain.sol\":5258:5292  foodList.length == medicals.length */\n      eq\n        /* \"HealthChain/src/SupplyChain.sol\":5250:5330  require(foodList.length == medicals.length, \"Item and quantity length mismatch\") */\n      tag_189\n      jumpi\n      mload(0x40)\n      0x08c379a000000000000000000000000000000000000000000000000000000000\n      dup2\n      mstore\n      0x04\n      add\n      tag_190\n      swap1\n      tag_191\n      jump\t// in\n    tag_190:\n      mload(0x40)\n      dup1\n      swap2\n      sub\n      swap1\n      revert\n    tag_189:\n        /* \"HealthChain/src/SupplyChain.sol\":5346:5368  uint[] memory combined */\n      0x00\n        /* \"HealthChain/src/SupplyChain.sol\":5382:5390  foodList */\n      0x0b\n        /* \"HealthChain/src/SupplyChain.sol\":5382:5397  foodList.length */\n      dup1\n      sload\n      swap1\n      pop\n        /* \"HealthChain/src/SupplyChain.sol\":5371:5398  new uint[](foodList.length) */\n      0xffffffffffffffff\n      dup2\n      gt\n      iszero\n      tag_192\n      jumpi\n      tag_193\n      tag_194\n      jump\t// in\n    tag_193:\n    tag_192:\n      mload(0x40)\n      swap1\n      dup1\n      dup3\n      mstore\n      dup1\n      0x20\n      mul\n      0x20\n      add\n      dup3\n      add\n      0x40\n      mstore\n      dup1\n      iszero\n      tag_195\n      jumpi\n      dup2\n      0x20\n      add\n      0x20\n      dup3\n      mul\n      dup1\n      calldatasize\n      dup4\n      calldatacopy\n      dup1\n      dup3\n      add\n      swap2\n      pop\n      pop\n      swap1\n      pop\n    tag_195:\n      pop\n        /* \"HealthChain/src/SupplyChain.sol\":5346:5398  uint[] memory combined = new uint[](foodList.length) */\n      swap1\n      pop\n        /* \"HealthChain/src/SupplyChain.sol\":5418:5424  uint i */\n      0x00\n        /* \"HealthChain/src/SupplyChain.sol\":5414:5536  for(uint i = 0; i < foodList.length; i++){... */\n    tag_196:\n        /* \"HealthChain/src/SupplyChain.sol\":5434:5442  foodList */\n      0x0b\n        /* \"HealthChain/src/SupplyChain.sol\":5434:5449  foodList.length */\n      dup1\n      sload\n      swap1\n      pop\n        /* \"HealthChain/src/SupplyChain.sol\":5430:5431  i */\n      dup2\n        /* \"HealthChain/src/SupplyChain.sol\":5430:5449  i < foodList.length */\n      lt\n        /* \"HealthChain/src/SupplyChain.sol\":5414:5536  for(uint i = 0; i < foodList.length; i++){... */\n      iszero\n      tag_197\n      jumpi\n        /* \"HealthChain/src/SupplyChain.sol\":5489:5499  quantities */\n      dup4\n        /* \"HealthChain/src/SupplyChain.sol\":5500:5501  i */\n      dup2\n        /* \"HealthChain/src/SupplyChain.sol\":5489:5502  quantities[i] */\n      dup2\n      mload\n      dup2\n      lt\n      tag_199\n      jumpi\n      tag_200\n      tag_185\n      jump\t// in\n    tag_200:\n    tag_199:\n      0x20\n      mul\n      0x20\n      add\n      add\n      mload\n        /* \"HealthChain/src/SupplyChain.sol\":5474:5482  combined */\n      dup3\n        /* \"HealthChain/src/SupplyChain.sol\":5483:5484  i */\n      dup3\n        /* \"HealthChain/src/SupplyChain.sol\":5474:5485  combined[i] */\n      dup2\n      mload\n      dup2\n      lt\n      tag_201\n      jumpi\n      tag_202\n      tag_185\n      jump\t// in\n    tag_202:\n    tag_201:\n      0x20\n      mul\n      0x20\n      add\n      add\n        /* \"HealthChain/src/SupplyChain.sol\":5474:5502  combined[i] =  quantities[i] */\n      dup2\n      dup2\n      mstore\n      pop\n      pop\n        /* \"HealthChain/src/SupplyChain.sol\":5451:5454  i++ */\n      dup1\n      dup1\n      0x01\n      add\n      swap2\n      pop\n      pop\n        /* \"HealthChain/src/SupplyChain.sol\":5414:5536  for(uint i = 0; i < foodList.length; i++){... */\n      jump(tag_196)\n    tag_197:\n      pop\n        /* \"HealthChain/src/SupplyChain.sol\":5795:5796  0 */\n      0x00\n        /* \"HealthChain/src/SupplyChain.sol\":5777:5784  batchId */\n      dup6\n        /* \"HealthChain/src/SupplyChain.sol\":5771:5792  bytes(batchId).length */\n      mload\n        /* \"HealthChain/src/SupplyChain.sol\":5771:5796  bytes(batchId).length > 0 */\n      gt\n        /* \"HealthChain/src/SupplyChain.sol\":5763:5821  require(bytes(batchId).length > 0, \"Batch ID is required\") */\n      tag_203\n      jumpi\n      mload(0x40)\n      0x08c379a000000000000000000000000000000000000000000000000000000000\n      dup2\n      mstore\n      0x04\n      add\n      tag_204\n      swap1\n      tag_205\n      jump\t// in\n    tag_204:\n      mload(0x40)\n      dup1\n      swap2\n      sub\n      swap1\n      revert\n    tag_203:\n        /* \"HealthChain/src/SupplyChain.sol\":5862:5872  quantities */\n      dup3\n        /* \"HealthChain/src/SupplyChain.sol\":5862:5879  quantities.length */\n      mload\n        /* \"HealthChain/src/SupplyChain.sol\":5842:5851  itemNames */\n      dup5\n        /* \"HealthChain/src/SupplyChain.sol\":5842:5858  itemNames.length */\n      mload\n        /* \"HealthChain/src/SupplyChain.sol\":5842:5879  itemNames.length == quantities.length */\n      eq\n        /* \"HealthChain/src/SupplyChain.sol\":5834:5917  require(itemNames.length == quantities.length, \"Item and quantity length mismatch\") */\n      tag_206\n      jumpi\n      mload(0x40)\n      0x08c379a000000000000000000000000000000000000000000000000000000000\n      dup2\n      mstore\n      0x04\n      add\n      tag_207\n      swap1\n      tag_191\n      jump\t// in\n    tag_207:\n      mload(0x40)\n      dup1\n      swap2\n      sub\n      swap1\n      revert\n    tag_206:\n        /* \"HealthChain/src/SupplyChain.sol\":5937:5943  uint i */\n      0x00\n        /* \"HealthChain/src/SupplyChain.sol\":5932:6125  for (uint i = 0; i < itemNames.length; i++){... */\n    tag_208:\n        /* \"HealthChain/src/SupplyChain.sol\":5953:5962  itemNames */\n      dup5\n        /* \"HealthChain/src/SupplyChain.sol\":5953:5969  itemNames.length */\n      mload\n        /* \"HealthChain/src/SupplyChain.sol\":5949:5950  i */\n      dup2\n        /* \"HealthChain/src/SupplyChain.sol\":5949:5969  i < itemNames.length */\n      lt\n        /* \"HealthChain/src/SupplyChain.sol\":5932:6125  for (uint i = 0; i < itemNames.length; i++){... */\n      iszero\n      tag_209\n      jumpi\n        /* \"HealthChain/src/SupplyChain.sol\":5999:6028  ItemValidated(batchId , true) */\n      0x339100e79a1e49a3a66dfc5b4815844ccd06ca8220623b19840283af21727a1c\n        /* \"HealthChain/src/SupplyChain.sol\":6013:6020  batchId */\n      dup7\n        /* \"HealthChain/src/SupplyChain.sol\":6023:6027  true */\n      0x01\n        /* \"HealthChain/src/SupplyChain.sol\":5999:6028  ItemValidated(batchId , true) */\n      mload(0x40)\n      tag_211\n      swap3\n      swap2\n      swap1\n      tag_212\n      jump\t// in\n    tag_211:\n      mload(0x40)\n      dup1\n      swap2\n      sub\n      swap1\n      log1\n        /* \"HealthChain/src/SupplyChain.sol\":6061:6068  itemIds */\n      dup3\n        /* \"HealthChain/src/SupplyChain.sol\":6069:6070  i */\n      dup2\n        /* \"HealthChain/src/SupplyChain.sol\":6061:6071  itemIds[i] */\n      dup2\n      mload\n      dup2\n      lt\n      tag_213\n      jumpi\n      tag_214\n      tag_185\n      jump\t// in\n    tag_214:\n    tag_213:\n      0x20\n      mul\n      0x20\n      add\n      add\n      mload\n        /* \"HealthChain/src/SupplyChain.sol\":6051:6110  ItemMoved(itemIds[i],msg.sender, \"Lagos Central Warehouse\") */\n      0xcc8e85e9a1f32ff5d86ada68ff28d5d46a095017387d7f4bb707254319846920\n        /* \"HealthChain/src/SupplyChain.sol\":6072:6082  msg.sender */\n      caller\n        /* \"HealthChain/src/SupplyChain.sol\":6051:6110  ItemMoved(itemIds[i],msg.sender, \"Lagos Central Warehouse\") */\n      mload(0x40)\n      tag_215\n      swap2\n      swap1\n      tag_187\n      jump\t// in\n    tag_215:\n      mload(0x40)\n      dup1\n      swap2\n      sub\n      swap1\n      log2\n        /* \"HealthChain/src/SupplyChain.sol\":5971:5974  i++ */\n      dup1\n      dup1\n      0x01\n      add\n      swap2\n      pop\n      pop\n        /* \"HealthChain/src/SupplyChain.sol\":5932:6125  for (uint i = 0; i < itemNames.length; i++){... */\n      jump(tag_208)\n    tag_209:\n      pop\n        /* \"HealthChain/src/SupplyChain.sol\":5148:6135  {... */\n      pop\n      pop\n        /* \"HealthChain/src/SupplyChain.sol\":5028:6135  function transferMedicine(string memory batchId, string[] memory itemNames,... */\n      pop\n      pop\n      pop\n      jump\t// out\n        /* \"HealthChain/src/SupplyChain.sol\":3372:3405  address[] public consumersAddress */\n    tag_57:\n      0x06\n      dup2\n      dup2\n      sload\n      dup2\n      lt\n      tag_216\n      jumpi\n      0x00\n      dup1\n      revert\n    tag_216:\n      swap1\n      0x00\n      mstore\n      keccak256(0x00, 0x20)\n      add\n      0x00\n      swap2\n      pop\n      sload\n      swap1\n      0x0100\n      exp\n      swap1\n      div\n      0xffffffffffffffffffffffffffffffffffffffff\n      and\n      dup2\n      jump\t// out\n        /* \"HealthChain/src/SupplyChain.sol\":3281:3362  mapping(uint256 => mapping (address =>ValidationResult)) public validationResults */\n    tag_63:\n      mstore(0x20, 0x05)\n      dup2\n      0x00\n      mstore\n      mstore(0x20, keccak256(0x00, 0x40))\n      dup1\n      0x00\n      mstore\n      keccak256(0x00, 0x40)\n      0x00\n      swap2\n      pop\n      swap2\n      pop\n      pop\n      dup1\n      0x00\n      add\n      sload\n      swap1\n      dup1\n      0x01\n      add\n      sload\n      swap1\n      dup1\n      0x02\n      add\n      0x00\n      swap1\n      sload\n      swap1\n      0x0100\n      exp\n      swap1\n      div\n      0xffffffffffffffffffffffffffffffffffffffff\n      and\n      swap1\n      dup1\n      0x02\n      add\n      0x14\n      swap1\n      sload\n      swap1\n      0x0100\n      exp\n      swap1\n      div\n      0xff\n      and\n      swap1\n      pop\n      dup5\n      jump\t// out\n        /* \"HealthChain/src/SupplyChain.sol\":3118:3187  mapping(Category => mapping(uint256 => Food)) public categorizedItems */\n    tag_69:\n      mstore(0x20, 0x03)\n      dup2\n      0x00\n      mstore\n      mstore(0x20, keccak256(0x00, 0x40))\n      dup1\n      0x00\n      mstore\n      keccak256(0x00, 0x40)\n      0x00\n      swap2\n      pop\n      swap2\n      pop\n      pop\n      dup1\n      0x00\n      add\n      sload\n      swap1\n      dup1\n      0x01\n      add\n      dup1\n      sload\n      tag_218\n      swap1\n      tag_127\n      jump\t// in\n    tag_218:\n      dup1\n      0x1f\n      add\n      0x20\n      dup1\n      swap2\n      div\n      mul\n      0x20\n      add\n      mload(0x40)\n      swap1\n      dup2\n      add\n      0x40\n      mstore\n      dup1\n      swap3\n      swap2\n      swap1\n      dup2\n      dup2\n      mstore\n      0x20\n      add\n      dup3\n      dup1\n      sload\n      tag_219\n      swap1\n      tag_127\n      jump\t// in\n    tag_219:\n      dup1\n      iszero\n      tag_220\n      jumpi\n      dup1\n      0x1f\n      lt\n      tag_221\n      jumpi\n      0x0100\n      dup1\n      dup4\n      sload\n      div\n      mul\n      dup4\n      mstore\n      swap2\n      0x20\n      add\n      swap2\n      jump(tag_220)\n    tag_221:\n      dup3\n      add\n      swap2\n      swap1\n      0x00\n      mstore\n      keccak256(0x00, 0x20)\n      swap1\n    tag_222:\n      dup2\n      sload\n      dup2\n      mstore\n      swap1\n      0x01\n      add\n      swap1\n      0x20\n      add\n      dup1\n      dup4\n      gt\n      tag_222\n      jumpi\n      dup3\n      swap1\n      sub\n      0x1f\n      and\n      dup3\n      add\n      swap2\n    tag_220:\n      pop\n      pop\n      pop\n      pop\n      pop\n      swap1\n      dup1\n      0x02\n      add\n      sload\n      swap1\n      dup1\n      0x03\n      add\n      dup1\n      sload\n      tag_223\n      swap1\n      tag_127\n      jump\t// in\n    tag_223:\n      dup1\n      0x1f\n      add\n      0x20\n      dup1\n      swap2\n      div\n      mul\n      0x20\n      add\n      mload(0x40)\n      swap1\n      dup2\n      add\n      0x40\n      mstore\n      dup1\n      swap3\n      swap2\n      swap1\n      dup2\n      dup2\n      mstore\n      0x20\n      add\n      dup3\n      dup1\n      sload\n      tag_224\n      swap1\n      tag_127\n      jump\t// in\n    tag_224:\n      dup1\n      iszero\n      tag_225\n      jumpi\n      dup1\n      0x1f\n      lt\n      tag_226\n      jumpi\n      0x0100\n      dup1\n      dup4\n      sload\n      div\n      mul\n      dup4\n      mstore\n      swap2\n      0x20\n      add\n      swap2\n      jump(tag_225)\n    tag_226:\n      dup3\n      add\n      swap2\n      swap1\n      0x00\n      mstore\n      keccak256(0x00, 0x20)\n      swap1\n    tag_227:\n      dup2\n      sload\n      dup2\n      mstore\n      swap1\n      0x01\n      add\n      swap1\n      0x20\n      add\n      dup1\n      dup4\n      gt\n      tag_227\n      jumpi\n      dup3\n      swap1\n      sub\n      0x1f\n      and\n      dup3\n      add\n      swap2\n    tag_225:\n      pop\n      pop\n      pop\n      pop\n      pop\n      swap1\n      dup1\n      0x04\n      add\n      sload\n      swap1\n      dup1\n      0x05\n      add\n      sload\n      swap1\n      dup1\n      0x06\n      add\n      sload\n      swap1\n      pop\n      dup8\n      jump\t// out\n        /* \"HealthChain/src/SupplyChain.sol\":2989:3039  mapping (string => Transaction) public transaction */\n    tag_74:\n      0x01\n      dup2\n      dup1\n      mload\n      0x20\n      dup2\n      add\n      dup3\n      add\n      dup1\n      mload\n      dup5\n      dup3\n      mstore\n      0x20\n      dup4\n      add\n      0x20\n      dup6\n      add\n      keccak256\n      dup2\n      dup4\n      mstore\n      dup1\n      swap6\n      pop\n      pop\n      pop\n      pop\n      pop\n      pop\n      0x00\n      swap2\n      pop\n      swap1\n      pop\n      dup1\n      0x00\n      add\n      0x00\n      swap1\n      sload\n      swap1\n      0x0100\n      exp\n      swap1\n      div\n      0xff\n      and\n      swap1\n      dup1\n      0x01\n      add\n      sload\n      swap1\n      dup1\n      0x02\n      add\n      0x00\n      swap1\n      sload\n      swap1\n      0x0100\n      exp\n      swap1\n      div\n      0xffffffffffffffffffffffffffffffffffffffff\n      and\n      swap1\n      dup1\n      0x03\n      add\n      sload\n      swap1\n      dup1\n      0x04\n      add\n      0x00\n      swap1\n      sload\n      swap1\n      0x0100\n      exp\n      swap1\n      div\n      0xffffffffffffffffffffffffffffffffffffffff\n      and\n      swap1\n      pop\n      dup6\n      jump\t// out\n        /* \"HealthChain/src/SupplyChain.sol\":2896:2955  mapping(uint256 => ValidationResult) public itemValidations */\n    tag_78:\n      mstore(0x20, 0x00)\n      dup1\n      0x00\n      mstore\n      keccak256(0x00, 0x40)\n      0x00\n      swap2\n      pop\n      swap1\n      pop\n      dup1\n      0x00\n      add\n      sload\n      swap1\n      dup1\n      0x01\n      add\n      sload\n      swap1\n      dup1\n      0x02\n      add\n      0x00\n      swap1\n      sload\n      swap1\n      0x0100\n      exp\n      swap1\n      div\n      0xffffffffffffffffffffffffffffffffffffffff\n      and\n      swap1\n      dup1\n      0x02\n      add\n      0x14\n      swap1\n      sload\n      swap1\n      0x0100\n      exp\n      swap1\n      div\n      0xff\n      and\n      swap1\n      pop\n      dup5\n      jump\t// out\n        /* \"HealthChain/src/SupplyChain.sol\":4667:4695  address payable public owner */\n    tag_81:\n      0x0e\n      0x00\n      swap1\n      sload\n      swap1\n      0x0100\n      exp\n      swap1\n      div\n      0xffffffffffffffffffffffffffffffffffffffff\n      and\n      dup2\n      jump\t// out\n        /* \"HealthChain/src/SupplyChain.sol\":4719:4868  function getLatestPrice() public view returns(int){... */\n    tag_85:\n        /* \"HealthChain/src/SupplyChain.sol\":4765:4768  int */\n      0x00\n        /* \"HealthChain/src/SupplyChain.sol\":4786:4795  int price */\n      dup1\n        /* \"HealthChain/src/SupplyChain.sol\":4803:4812  priceFeed */\n      0x09\n      0x00\n      swap1\n      sload\n      swap1\n      0x0100\n      exp\n      swap1\n      div\n      0xffffffffffffffffffffffffffffffffffffffff\n      and\n        /* \"HealthChain/src/SupplyChain.sol\":4803:4828  priceFeed.latestRoundData */\n      0xffffffffffffffffffffffffffffffffffffffff\n      and\n      0xfeaf968c\n        /* \"HealthChain/src/SupplyChain.sol\":4803:4830  priceFeed.latestRoundData() */\n      mload(0x40)\n      dup2\n      0xffffffff\n      and\n      0xe0\n      shl\n      dup2\n      mstore\n      0x04\n      add\n      0xa0\n      mload(0x40)\n      dup1\n      dup4\n      sub\n      dup2\n      dup7\n      gas\n      staticcall\n      iszero\n      dup1\n      iszero\n      tag_230\n      jumpi\n      returndatasize\n      0x00\n      dup1\n      returndatacopy\n      revert(0x00, returndatasize)\n    tag_230:\n      pop\n      pop\n      pop\n      pop\n      mload(0x40)\n      returndatasize\n      not(0x1f)\n      0x1f\n      dup3\n      add\n      and\n      dup3\n      add\n      dup1\n      0x40\n      mstore\n      pop\n      dup2\n      add\n      swap1\n      tag_231\n      swap2\n      swap1\n      tag_232\n      jump\t// in\n    tag_231:\n        /* \"HealthChain/src/SupplyChain.sol\":4783:4830  (, int price ,,,) = priceFeed.latestRoundData() */\n      pop\n      pop\n      pop\n      swap2\n      pop\n      pop\n        /* \"HealthChain/src/SupplyChain.sol\":4851:4856  price */\n      dup1\n        /* \"HealthChain/src/SupplyChain.sol\":4844:4856  return price */\n      swap2\n      pop\n      pop\n        /* \"HealthChain/src/SupplyChain.sol\":4719:4868  function getLatestPrice() public view returns(int){... */\n      swap1\n      jump\t// out\n        /* \"HealthChain/src/SupplyChain.sol\":3509:3560  mapping(uint256 => Transaction) public transactions */\n    tag_90:\n      mstore(0x20, 0x08)\n      dup1\n      0x00\n      mstore\n      keccak256(0x00, 0x40)\n      0x00\n      swap2\n      pop\n      swap1\n      pop\n      dup1\n      0x00\n      add\n      0x00\n      swap1\n      sload\n      swap1\n      0x0100\n      exp\n      swap1\n      div\n      0xff\n      and\n      swap1\n      dup1\n      0x01\n      add\n      sload\n      swap1\n      dup1\n      0x02\n      add\n      0x00\n      swap1\n      sload\n      swap1\n      0x0100\n      exp\n      swap1\n      div\n      0xffffffffffffffffffffffffffffffffffffffff\n      and\n      swap1\n      dup1\n      0x03\n      add\n      sload\n      swap1\n      dup1\n      0x04\n      add\n      0x00\n      swap1\n      sload\n      swap1\n      0x0100\n      exp\n      swap1\n      div\n      0xffffffffffffffffffffffffffffffffffffffff\n      and\n      swap1\n      pop\n      dup6\n      jump\t// out\n        /* \"HealthChain/src/SupplyChain.sol\":8527:8878  function getProduct(uint256 productId) public view returns (string memory, string memory, string memory, address) {... */\n    tag_94:\n        /* \"HealthChain/src/SupplyChain.sol\":8587:8600  string memory */\n      0x60\n        /* \"HealthChain/src/SupplyChain.sol\":8602:8615  string memory */\n      dup1\n        /* \"HealthChain/src/SupplyChain.sol\":8617:8630  string memory */\n      0x60\n        /* \"HealthChain/src/SupplyChain.sol\":8632:8639  address */\n      0x00\n        /* \"HealthChain/src/SupplyChain.sol\":8671:8672  0 */\n      dup1\n        /* \"HealthChain/src/SupplyChain.sol\":8659:8668  productId */\n      dup6\n        /* \"HealthChain/src/SupplyChain.sol\":8659:8672  productId > 0 */\n      gt\n        /* \"HealthChain/src/SupplyChain.sol\":8659:8704  productId > 0 && productId <= medicals.length */\n      dup1\n      iszero\n      tag_234\n      jumpi\n      pop\n        /* \"HealthChain/src/SupplyChain.sol\":8689:8697  medicals */\n      0x0a\n        /* \"HealthChain/src/SupplyChain.sol\":8689:8704  medicals.length */\n      dup1\n      sload\n      swap1\n      pop\n        /* \"HealthChain/src/SupplyChain.sol\":8676:8685  productId */\n      dup6\n        /* \"HealthChain/src/SupplyChain.sol\":8676:8704  productId <= medicals.length */\n      gt\n      iszero\n        /* \"HealthChain/src/SupplyChain.sol\":8659:8704  productId > 0 && productId <= medicals.length */\n    tag_234:\n        /* \"HealthChain/src/SupplyChain.sol\":8651:8727  require(productId > 0 && productId <= medicals.length, \"Invalid product ID\") */\n      tag_235\n      jumpi\n      mload(0x40)\n      0x08c379a000000000000000000000000000000000000000000000000000000000\n      dup2\n      mstore\n      0x04\n      add\n      tag_236\n      swap1\n      tag_237\n      jump\t// in\n    tag_236:\n      mload(0x40)\n      dup1\n      swap2\n      sub\n      swap1\n      revert\n    tag_235:\n        /* \"HealthChain/src/SupplyChain.sol\":8737:8761  Medicals storage product */\n      0x00\n        /* \"HealthChain/src/SupplyChain.sol\":8764:8772  medicals */\n      0x0a\n        /* \"HealthChain/src/SupplyChain.sol\":8785:8786  1 */\n      0x01\n        /* \"HealthChain/src/SupplyChain.sol\":8773:8782  productId */\n      dup8\n        /* \"HealthChain/src/SupplyChain.sol\":8773:8786  productId - 1 */\n      tag_238\n      swap2\n      swap1\n      tag_239\n      jump\t// in\n    tag_238:\n        /* \"HealthChain/src/SupplyChain.sol\":8764:8787  medicals[productId - 1] */\n      dup2\n      sload\n      dup2\n      lt\n      tag_240\n      jumpi\n      tag_241\n      tag_185\n      jump\t// in\n    tag_241:\n    tag_240:\n      swap1\n      0x00\n      mstore\n      keccak256(0x00, 0x20)\n      swap1\n      0x08\n      mul\n      add\n        /* \"HealthChain/src/SupplyChain.sol\":8737:8787  Medicals storage product = medicals[productId - 1] */\n      swap1\n      pop\n        /* \"HealthChain/src/SupplyChain.sol\":8805:8812  product */\n      dup1\n        /* \"HealthChain/src/SupplyChain.sol\":8805:8817  product.name */\n      0x06\n      add\n        /* \"HealthChain/src/SupplyChain.sol\":8819:8826  product */\n      dup2\n        /* \"HealthChain/src/SupplyChain.sol\":8819:8832  product.batch */\n      0x07\n      add\n        /* \"HealthChain/src/SupplyChain.sol\":8834:8841  product */\n      dup3\n        /* \"HealthChain/src/SupplyChain.sol\":8834:8855  product.currentStatus */\n      0x04\n      add\n        /* \"HealthChain/src/SupplyChain.sol\":8857:8864  product */\n      dup4\n        /* \"HealthChain/src/SupplyChain.sol\":8857:8870  product.users */\n      0x03\n      add\n      0x00\n      swap1\n      sload\n      swap1\n      0x0100\n      exp\n      swap1\n      div\n      0xffffffffffffffffffffffffffffffffffffffff\n      and\n        /* \"HealthChain/src/SupplyChain.sol\":8797:8871  return (product.name, product.batch, product.currentStatus, product.users) */\n      dup4\n      dup1\n      sload\n      tag_243\n      swap1\n      tag_127\n      jump\t// in\n    tag_243:\n      dup1\n      0x1f\n      add\n      0x20\n      dup1\n      swap2\n      div\n      mul\n      0x20\n      add\n      mload(0x40)\n      swap1\n      dup2\n      add\n      0x40\n      mstore\n      dup1\n      swap3\n      swap2\n      swap1\n      dup2\n      dup2\n      mstore\n      0x20\n      add\n      dup3\n      dup1\n      sload\n      tag_244\n      swap1\n      tag_127\n      jump\t// in\n    tag_244:\n      dup1\n      iszero\n      tag_245\n      jumpi\n      dup1\n      0x1f\n      lt\n      tag_246\n      jumpi\n      0x0100\n      dup1\n      dup4\n      sload\n      div\n      mul\n      dup4\n      mstore\n      swap2\n      0x20\n      add\n      swap2\n      jump(tag_245)\n    tag_246:\n      dup3\n      add\n      swap2\n      swap1\n      0x00\n      mstore\n      keccak256(0x00, 0x20)\n      swap1\n    tag_247:\n      dup2\n      sload\n      dup2\n      mstore\n      swap1\n      0x01\n      add\n      swap1\n      0x20\n      add\n      dup1\n      dup4\n      gt\n      tag_247\n      jumpi\n      dup3\n      swap1\n      sub\n      0x1f\n      and\n      dup3\n      add\n      swap2\n    tag_245:\n      pop\n      pop\n      pop\n      pop\n      pop\n      swap4\n      pop\n      dup3\n      dup1\n      sload\n      tag_248\n      swap1\n      tag_127\n      jump\t// in\n    tag_248:\n      dup1\n      0x1f\n      add\n      0x20\n      dup1\n      swap2\n      div\n      mul\n      0x20\n      add\n      mload(0x40)\n      swap1\n      dup2\n      add\n      0x40\n      mstore\n      dup1\n      swap3\n      swap2\n      swap1\n      dup2\n      dup2\n      mstore\n      0x20\n      add\n      dup3\n      dup1\n      sload\n      tag_249\n      swap1\n      tag_127\n      jump\t// in\n    tag_249:\n      dup1\n      iszero\n      tag_250\n      jumpi\n      dup1\n      0x1f\n      lt\n      tag_251\n      jumpi\n      0x0100\n      dup1\n      dup4\n      sload\n      div\n      mul\n      dup4\n      mstore\n      swap2\n      0x20\n      add\n      swap2\n      jump(tag_250)\n    tag_251:\n      dup3\n      add\n      swap2\n      swap1\n      0x00\n      mstore\n      keccak256(0x00, 0x20)\n      swap1\n    tag_252:\n      dup2\n      sload\n      dup2\n      mstore\n      swap1\n      0x01\n      add\n      swap1\n      0x20\n      add\n      dup1\n      dup4\n      gt\n      tag_252\n      jumpi\n      dup3\n      swap1\n      sub\n      0x1f\n      and\n      dup3\n      add\n      swap2\n    tag_250:\n      pop\n      pop\n      pop\n      pop\n      pop\n      swap3\n      pop\n      dup2\n      dup1\n      sload\n      tag_253\n      swap1\n      tag_127\n      jump\t// in\n    tag_253:\n      dup1\n      0x1f\n      add\n      0x20\n      dup1\n      swap2\n      div\n      mul\n      0x20\n      add\n      mload(0x40)\n      swap1\n      dup2\n      add\n      0x40\n      mstore\n      dup1\n      swap3\n      swap2\n      swap1\n      dup2\n      dup2\n      mstore\n      0x20\n      add\n      dup3\n      dup1\n      sload\n      tag_254\n      swap1\n      tag_127\n      jump\t// in\n    tag_254:\n      dup1\n      iszero\n      tag_255\n      jumpi\n      dup1\n      0x1f\n      lt\n      tag_256\n      jumpi\n      0x0100\n      dup1\n      dup4\n      sload\n      div\n      mul\n      dup4\n      mstore\n      swap2\n      0x20\n      add\n      swap2\n      jump(tag_255)\n    tag_256:\n      dup3\n      add\n      swap2\n      swap1\n      0x00\n      mstore\n      keccak256(0x00, 0x20)\n      swap1\n    tag_257:\n      dup2\n      sload\n      dup2\n      mstore\n      swap1\n      0x01\n      add\n      swap1\n      0x20\n      add\n      dup1\n      dup4\n      gt\n      tag_257\n      jumpi\n      dup3\n      swap1\n      sub\n      0x1f\n      and\n      dup3\n      add\n      swap2\n    tag_255:\n      pop\n      pop\n      pop\n      pop\n      pop\n      swap2\n      pop\n      swap5\n      pop\n      swap5\n      pop\n      swap5\n      pop\n      swap5\n      pop\n      pop\n        /* \"HealthChain/src/SupplyChain.sol\":8527:8878  function getProduct(uint256 productId) public view returns (string memory, string memory, string memory, address) {... */\n      swap2\n      swap4\n      pop\n      swap2\n      swap4\n      jump\t// out\n        /* \"HealthChain/src/SupplyChain.sol\":8884:9198  function updateProductStatus(uint256 productId, string memory newStatus) public {... */\n    tag_100:\n        /* \"HealthChain/src/SupplyChain.sol\":8994:8995  0 */\n      0x00\n        /* \"HealthChain/src/SupplyChain.sol\":8982:8991  productId */\n      dup3\n        /* \"HealthChain/src/SupplyChain.sol\":8982:8995  productId > 0 */\n      gt\n        /* \"HealthChain/src/SupplyChain.sol\":8982:9027  productId > 0 && productId <= medicals.length */\n      dup1\n      iszero\n      tag_259\n      jumpi\n      pop\n        /* \"HealthChain/src/SupplyChain.sol\":9012:9020  medicals */\n      0x0a\n        /* \"HealthChain/src/SupplyChain.sol\":9012:9027  medicals.length */\n      dup1\n      sload\n      swap1\n      pop\n        /* \"HealthChain/src/SupplyChain.sol\":8999:9008  productId */\n      dup3\n        /* \"HealthChain/src/SupplyChain.sol\":8999:9027  productId <= medicals.length */\n      gt\n      iszero\n        /* \"HealthChain/src/SupplyChain.sol\":8982:9027  productId > 0 && productId <= medicals.length */\n    tag_259:\n        /* \"HealthChain/src/SupplyChain.sol\":8974:9050  require(productId > 0 && productId <= medicals.length, \"Invalid product ID\") */\n      tag_260\n      jumpi\n      mload(0x40)\n      0x08c379a000000000000000000000000000000000000000000000000000000000\n      dup2\n      mstore\n      0x04\n      add\n      tag_261\n      swap1\n      tag_237\n      jump\t// in\n    tag_261:\n      mload(0x40)\n      dup1\n      swap2\n      sub\n      swap1\n      revert\n    tag_260:\n        /* \"HealthChain/src/SupplyChain.sol\":9060:9084  Medicals storage product */\n      0x00\n        /* \"HealthChain/src/SupplyChain.sol\":9087:9095  medicals */\n      0x0a\n        /* \"HealthChain/src/SupplyChain.sol\":9108:9109  1 */\n      0x01\n        /* \"HealthChain/src/SupplyChain.sol\":9096:9105  productId */\n      dup5\n        /* \"HealthChain/src/SupplyChain.sol\":9096:9109  productId - 1 */\n      tag_262\n      swap2\n      swap1\n      tag_239\n      jump\t// in\n    tag_262:\n        /* \"HealthChain/src/SupplyChain.sol\":9087:9110  medicals[productId - 1] */\n      dup2\n      sload\n      dup2\n      lt\n      tag_263\n      jumpi\n      tag_264\n      tag_185\n      jump\t// in\n    tag_264:\n    tag_263:\n      swap1\n      0x00\n      mstore\n      keccak256(0x00, 0x20)\n      swap1\n      0x08\n      mul\n      add\n        /* \"HealthChain/src/SupplyChain.sol\":9060:9110  Medicals storage product = medicals[productId - 1] */\n      swap1\n      pop\n        /* \"HealthChain/src/SupplyChain.sol\":9144:9153  newStatus */\n      dup2\n        /* \"HealthChain/src/SupplyChain.sol\":9120:9127  product */\n      dup2\n        /* \"HealthChain/src/SupplyChain.sol\":9120:9141  product.currentStatus */\n      0x04\n      add\n        /* \"HealthChain/src/SupplyChain.sol\":9120:9153  product.currentStatus = newStatus */\n      swap1\n      dup2\n      tag_266\n      swap2\n      swap1\n      tag_267\n      jump\t// in\n    tag_266:\n      pop\n        /* \"HealthChain/src/SupplyChain.sol\":9168:9191  ItemValidated(\"\", true) */\n      0x339100e79a1e49a3a66dfc5b4815844ccd06ca8220623b19840283af21727a1c\n        /* \"HealthChain/src/SupplyChain.sol\":9186:9190  true */\n      0x01\n        /* \"HealthChain/src/SupplyChain.sol\":9168:9191  ItemValidated(\"\", true) */\n      mload(0x40)\n      tag_268\n      swap2\n      swap1\n      tag_269\n      jump\t// in\n    tag_268:\n      mload(0x40)\n      dup1\n      swap2\n      sub\n      swap1\n      log1\n        /* \"HealthChain/src/SupplyChain.sol\":8964:9198  {... */\n      pop\n        /* \"HealthChain/src/SupplyChain.sol\":8884:9198  function updateProductStatus(uint256 productId, string memory newStatus) public {... */\n      pop\n      pop\n      jump\t// out\n        /* \"HealthChain/src/SupplyChain.sol\":7923:8522  function addProduct(string memory name, string memory batch) public returns (uint256) {... */\n    tag_104:\n        /* \"HealthChain/src/SupplyChain.sol\":8000:8007  uint256 */\n      0x00\n        /* \"HealthChain/src/SupplyChain.sol\":8044:8045  0 */\n      dup1\n        /* \"HealthChain/src/SupplyChain.sol\":8029:8033  name */\n      dup4\n        /* \"HealthChain/src/SupplyChain.sol\":8023:8041  bytes(name).length */\n      mload\n        /* \"HealthChain/src/SupplyChain.sol\":8023:8045  bytes(name).length > 0 */\n      gt\n        /* \"HealthChain/src/SupplyChain.sol\":8015:8074  require(bytes(name).length > 0, \"Product name is required\") */\n      tag_271\n      jumpi\n      mload(0x40)\n      0x08c379a000000000000000000000000000000000000000000000000000000000\n      dup2\n      mstore\n      0x04\n      add\n      tag_272\n      swap1\n      tag_273\n      jump\t// in\n    tag_272:\n      mload(0x40)\n      dup1\n      swap2\n      sub\n      swap1\n      revert\n    tag_271:\n        /* \"HealthChain/src/SupplyChain.sol\":8110:8111  0 */\n      0x00\n        /* \"HealthChain/src/SupplyChain.sol\":8094:8099  batch */\n      dup3\n        /* \"HealthChain/src/SupplyChain.sol\":8088:8107  bytes(batch).length */\n      mload\n        /* \"HealthChain/src/SupplyChain.sol\":8088:8111  bytes(batch).length > 0 */\n      gt\n        /* \"HealthChain/src/SupplyChain.sol\":8080:8140  require(bytes(batch).length > 0, \"Batch number is required\") */\n      tag_274\n      jumpi\n      mload(0x40)\n      0x08c379a000000000000000000000000000000000000000000000000000000000\n      dup2\n      mstore\n      0x04\n      add\n      tag_275\n      swap1\n      tag_276\n      jump\t// in\n    tag_275:\n      mload(0x40)\n      dup1\n      swap2\n      sub\n      swap1\n      revert\n    tag_274:\n        /* \"HealthChain/src/SupplyChain.sol\":8146:8172  Medicals memory newProduct */\n      0x00\n        /* \"HealthChain/src/SupplyChain.sol\":8175:8423  Medicals({... */\n      mload(0x40)\n      dup1\n      0x0100\n      add\n      0x40\n      mstore\n      dup1\n        /* \"HealthChain/src/SupplyChain.sol\":8198:8199  0 */\n      0x00\n        /* \"HealthChain/src/SupplyChain.sol\":8175:8423  Medicals({... */\n      dup2\n      mstore\n      0x20\n      add\n        /* \"HealthChain/src/SupplyChain.sol\":8217:8221  true */\n      0x01\n        /* \"HealthChain/src/SupplyChain.sol\":8175:8423  Medicals({... */\n      iszero\n      iszero\n      dup2\n      mstore\n      0x20\n      add\n        /* \"HealthChain/src/SupplyChain.sol\":8248:8249  0 */\n      0x00\n        /* \"HealthChain/src/SupplyChain.sol\":8175:8423  Medicals({... */\n      dup2\n      mstore\n      0x20\n      add\n        /* \"HealthChain/src/SupplyChain.sol\":8266:8276  msg.sender */\n      caller\n        /* \"HealthChain/src/SupplyChain.sol\":8175:8423  Medicals({... */\n      0xffffffffffffffffffffffffffffffffffffffff\n      and\n      dup2\n      mstore\n      0x20\n      add\n      mload(0x40)\n      dup1\n      0x40\n      add\n      0x40\n      mstore\n      dup1\n      0x07\n      dup2\n      mstore\n      0x20\n      add\n      0x4372656174656400000000000000000000000000000000000000000000000000\n      dup2\n      mstore\n      pop\n      dup2\n      mstore\n      0x20\n      add\n        /* \"HealthChain/src/SupplyChain.sol\":8333:8334  0 */\n      0x00\n        /* \"HealthChain/src/SupplyChain.sol\":8175:8423  Medicals({... */\n      dup2\n      mstore\n      0x20\n      add\n        /* \"HealthChain/src/SupplyChain.sol\":8380:8384  name */\n      dup6\n        /* \"HealthChain/src/SupplyChain.sol\":8175:8423  Medicals({... */\n      dup2\n      mstore\n      0x20\n      add\n        /* \"HealthChain/src/SupplyChain.sol\":8401:8406  batch */\n      dup5\n        /* \"HealthChain/src/SupplyChain.sol\":8175:8423  Medicals({... */\n      dup2\n      mstore\n      pop\n        /* \"HealthChain/src/SupplyChain.sol\":8146:8423  Medicals memory newProduct = Medicals({... */\n      swap1\n      pop\n        /* \"HealthChain/src/SupplyChain.sol\":8430:8438  medicals */\n      0x0a\n        /* \"HealthChain/src/SupplyChain.sol\":8444:8454  newProduct */\n      dup2\n        /* \"HealthChain/src/SupplyChain.sol\":8430:8455  medicals.push(newProduct) */\n      swap1\n      dup1\n      0x01\n      dup2\n      sload\n      add\n      dup1\n      dup3\n      sstore\n      dup1\n      swap2\n      pop\n      pop\n      0x01\n      swap1\n      sub\n      swap1\n      0x00\n      mstore\n      keccak256(0x00, 0x20)\n      swap1\n      0x08\n      mul\n      add\n      0x00\n      swap1\n      swap2\n      swap1\n      swap2\n      swap1\n      swap2\n      pop\n      0x00\n      dup3\n      add\n      mload\n      dup2\n      0x00\n      add\n      sstore\n      0x20\n      dup3\n      add\n      mload\n      dup2\n      0x01\n      add\n      exp(0x0100, 0x00)\n      dup2\n      sload\n      dup2\n      0xff\n      mul\n      not\n      and\n      swap1\n      dup4\n      iszero\n      iszero\n      mul\n      or\n      swap1\n      sstore\n      pop\n      0x40\n      dup3\n      add\n      mload\n      dup2\n      0x02\n      add\n      sstore\n      0x60\n      dup3\n      add\n      mload\n      dup2\n      0x03\n      add\n      exp(0x0100, 0x00)\n      dup2\n      sload\n      dup2\n      0xffffffffffffffffffffffffffffffffffffffff\n      mul\n      not\n      and\n      swap1\n      dup4\n      0xffffffffffffffffffffffffffffffffffffffff\n      and\n      mul\n      or\n      swap1\n      sstore\n      pop\n      0x80\n      dup3\n      add\n      mload\n      dup2\n      0x04\n      add\n      swap1\n      dup2\n      tag_278\n      swap2\n      swap1\n      tag_267\n      jump\t// in\n    tag_278:\n      pop\n      0xa0\n      dup3\n      add\n      mload\n      dup2\n      0x05\n      add\n      sstore\n      0xc0\n      dup3\n      add\n      mload\n      dup2\n      0x06\n      add\n      swap1\n      dup2\n      tag_279\n      swap2\n      swap1\n      tag_267\n      jump\t// in\n    tag_279:\n      pop\n      0xe0\n      dup3\n      add\n      mload\n      dup2\n      0x07\n      add\n      swap1\n      dup2\n      tag_280\n      swap2\n      swap1\n      tag_267\n      jump\t// in\n    tag_280:\n      pop\n      pop\n      pop\n        /* \"HealthChain/src/SupplyChain.sol\":8478:8479  0 */\n      0x00\n        /* \"HealthChain/src/SupplyChain.sol\":8466:8505  ItemCreated(0, name, Category.Medicals) */\n      0x4ea95e25bfc92b9b3cac49a4220df7d53206c3d80e2ca4db9f6a49e51cb76372\n        /* \"HealthChain/src/SupplyChain.sol\":8481:8485  name */\n      dup6\n        /* \"HealthChain/src/SupplyChain.sol\":8487:8504  Category.Medicals */\n      0x00\n        /* \"HealthChain/src/SupplyChain.sol\":8466:8505  ItemCreated(0, name, Category.Medicals) */\n      mload(0x40)\n      tag_281\n      swap3\n      swap2\n      swap1\n      tag_282\n      jump\t// in\n    tag_281:\n      mload(0x40)\n      dup1\n      swap2\n      sub\n      swap1\n      log2\n        /* \"HealthChain/src/SupplyChain.sol\":8518:8519  0 */\n      0x00\n        /* \"HealthChain/src/SupplyChain.sol\":8511:8519  return 0 */\n      swap2\n      pop\n      pop\n        /* \"HealthChain/src/SupplyChain.sol\":7923:8522  function addProduct(string memory name, string memory batch) public returns (uint256) {... */\n      swap3\n      swap2\n      pop\n      pop\n      jump\t// out\n        /* \"HealthChain/src/SupplyChain.sol\":3049:3108  mapping(address => Medicals) public usersAddressToMedicalId */\n    tag_110:\n      mstore(0x20, 0x02)\n      dup1\n      0x00\n      mstore\n      keccak256(0x00, 0x40)\n      0x00\n      swap2\n      pop\n      swap1\n      pop\n      dup1\n      0x00\n      add\n      sload\n      swap1\n      dup1\n      0x01\n      add\n      0x00\n      swap1\n      sload\n      swap1\n      0x0100\n      exp\n      swap1\n      div\n      0xff\n      and\n      swap1\n      dup1\n      0x02\n      add\n      sload\n      swap1\n      dup1\n      0x03\n      add\n      0x00\n      swap1\n      sload\n      swap1\n      0x0100\n      exp\n      swap1\n      div\n      0xffffffffffffffffffffffffffffffffffffffff\n      and\n      swap1\n      dup1\n      0x04\n      add\n      dup1\n      sload\n      tag_283\n      swap1\n      tag_127\n      jump\t// in\n    tag_283:\n      dup1\n      0x1f\n      add\n      0x20\n      dup1\n      swap2\n      div\n      mul\n      0x20\n      add\n      mload(0x40)\n      swap1\n      dup2\n      add\n      0x40\n      mstore\n      dup1\n      swap3\n      swap2\n      swap1\n      dup2\n      dup2\n      mstore\n      0x20\n      add\n      dup3\n      dup1\n      sload\n      tag_284\n      swap1\n      tag_127\n      jump\t// in\n    tag_284:\n      dup1\n      iszero\n      tag_285\n      jumpi\n      dup1\n      0x1f\n      lt\n      tag_286\n      jumpi\n      0x0100\n      dup1\n      dup4\n      sload\n      div\n      mul\n      dup4\n      mstore\n      swap2\n      0x20\n      add\n      swap2\n      jump(tag_285)\n    tag_286:\n      dup3\n      add\n      swap2\n      swap1\n      0x00\n      mstore\n      keccak256(0x00, 0x20)\n      swap1\n    tag_287:\n      dup2\n      sload\n      dup2\n      mstore\n      swap1\n      0x01\n      add\n      swap1\n      0x20\n      add\n      dup1\n      dup4\n      gt\n      tag_287\n      jumpi\n      dup3\n      swap1\n      sub\n      0x1f\n      and\n      dup3\n      add\n      swap2\n    tag_285:\n      pop\n      pop\n      pop\n      pop\n      pop\n      swap1\n      dup1\n      0x05\n      add\n      sload\n      swap1\n      dup1\n      0x06\n      add\n      dup1\n      sload\n      tag_288\n      swap1\n      tag_127\n      jump\t// in\n    tag_288:\n      dup1\n      0x1f\n      add\n      0x20\n      dup1\n      swap2\n      div\n      mul\n      0x20\n      add\n      mload(0x40)\n      swap1\n      dup2\n      add\n      0x40\n      mstore\n      dup1\n      swap3\n      swap2\n      swap1\n      dup2\n      dup2\n      mstore\n      0x20\n      add\n      dup3\n      dup1\n      sload\n      tag_289\n      swap1\n      tag_127\n      jump\t// in\n    tag_289:\n      dup1\n      iszero\n      tag_290\n      jumpi\n      dup1\n      0x1f\n      lt\n      tag_291\n      jumpi\n      0x0100\n      dup1\n      dup4\n      sload\n      div\n      mul\n      dup4\n      mstore\n      swap2\n      0x20\n      add\n      swap2\n      jump(tag_290)\n    tag_291:\n      dup3\n      add\n      swap2\n      swap1\n      0x00\n      mstore\n      keccak256(0x00, 0x20)\n      swap1\n    tag_292:\n      dup2\n      sload\n      dup2\n      mstore\n      swap1\n      0x01\n      add\n      swap1\n      0x20\n      add\n      dup1\n      dup4\n      gt\n      tag_292\n      jumpi\n      dup3\n      swap1\n      sub\n      0x1f\n      and\n      dup3\n      add\n      swap2\n    tag_290:\n      pop\n      pop\n      pop\n      pop\n      pop\n      swap1\n      dup1\n      0x07\n      add\n      dup1\n      sload\n      tag_293\n      swap1\n      tag_127\n      jump\t// in\n    tag_293:\n      dup1\n      0x1f\n      add\n      0x20\n      dup1\n      swap2\n      div\n      mul\n      0x20\n      add\n      mload(0x40)\n      swap1\n      dup2\n      add\n      0x40\n      mstore\n      dup1\n      swap3\n      swap2\n      swap1\n      dup2\n      dup2\n      mstore\n      0x20\n      add\n      dup3\n      dup1\n      sload\n      tag_294\n      swap1\n      tag_127\n      jump\t// in\n    tag_294:\n      dup1\n      iszero\n      tag_295\n      jumpi\n      dup1\n      0x1f\n      lt\n      tag_296\n      jumpi\n      0x0100\n      dup1\n      dup4\n      sload\n      div\n      mul\n      dup4\n      mstore\n      swap2\n      0x20\n      add\n      swap2\n      jump(tag_295)\n    tag_296:\n      dup3\n      add\n      swap2\n      swap1\n      0x00\n      mstore\n      keccak256(0x00, 0x20)\n      swap1\n    tag_297:\n      dup2\n      sload\n      dup2\n      mstore\n      swap1\n      0x01\n      add\n      swap1\n      0x20\n      add\n      dup1\n      dup4\n      gt\n      tag_297\n      jumpi\n      dup3\n      swap1\n      sub\n      0x1f\n      and\n      dup3\n      add\n      swap2\n    tag_295:\n      pop\n      pop\n      pop\n      pop\n      pop\n      swap1\n      pop\n      dup9\n      jump\t// out\n        /* \"HealthChain/src/SupplyChain.sol\":3415:3470  mapping(uint256 => MovementDetails) public movementLogs */\n    tag_114:\n      mstore(0x20, 0x07)\n      dup1\n      0x00\n      mstore\n      keccak256(0x00, 0x40)\n      0x00\n      swap2\n      pop\n      swap1\n      pop\n      dup1\n      0x00\n      add\n      sload\n      swap1\n      dup1\n      0x01\n      add\n      dup1\n      sload\n      tag_298\n      swap1\n      tag_127\n      jump\t// in\n    tag_298:\n      dup1\n      0x1f\n      add\n      0x20\n      dup1\n      swap2\n      div\n      mul\n      0x20\n      add\n      mload(0x40)\n      swap1\n      dup2\n      add\n      0x40\n      mstore\n      dup1\n      swap3\n      swap2\n      swap1\n      dup2\n      dup2\n      mstore\n      0x20\n      add\n      dup3\n      dup1\n      sload\n      tag_299\n      swap1\n      tag_127\n      jump\t// in\n    tag_299:\n      dup1\n      iszero\n      tag_300\n      jumpi\n      dup1\n      0x1f\n      lt\n      tag_301\n      jumpi\n      0x0100\n      dup1\n      dup4\n      sload\n      div\n      mul\n      dup4\n      mstore\n      swap2\n      0x20\n      add\n      swap2\n      jump(tag_300)\n    tag_301:\n      dup3\n      add\n      swap2\n      swap1\n      0x00\n      mstore\n      keccak256(0x00, 0x20)\n      swap1\n    tag_302:\n      dup2\n      sload\n      dup2\n      mstore\n      swap1\n      0x01\n      add\n      swap1\n      0x20\n      add\n      dup1\n      dup4\n      gt\n      tag_302\n      jumpi\n      dup3\n      swap1\n      sub\n      0x1f\n      and\n      dup3\n      add\n      swap2\n    tag_300:\n      pop\n      pop\n      pop\n      pop\n      pop\n      swap1\n      dup1\n      0x02\n      add\n      dup1\n      sload\n      tag_303\n      swap1\n      tag_127\n      jump\t// in\n    tag_303:\n      dup1\n      0x1f\n      add\n      0x20\n      dup1\n      swap2\n      div\n      mul\n      0x20\n      add\n      mload(0x40)\n      swap1\n      dup2\n      add\n      0x40\n      mstore\n      dup1\n      swap3\n      swap2\n      swap1\n      dup2\n      dup2\n      mstore\n      0x20\n      add\n      dup3\n      dup1\n      sload\n      tag_304\n      swap1\n      tag_127\n      jump\t// in\n    tag_304:\n      dup1\n      iszero\n      tag_305\n      jumpi\n      dup1\n      0x1f\n      lt\n      tag_306\n      jumpi\n      0x0100\n      dup1\n      dup4\n      sload\n      div\n      mul\n      dup4\n      mstore\n      swap2\n      0x20\n      add\n      swap2\n      jump(tag_305)\n    tag_306:\n      dup3\n      add\n      swap2\n      swap1\n      0x00\n      mstore\n      keccak256(0x00, 0x20)\n      swap1\n    tag_307:\n      dup2\n      sload\n      dup2\n      mstore\n      swap1\n      0x01\n      add\n      swap1\n      0x20\n      add\n      dup1\n      dup4\n      gt\n      tag_307\n      jumpi\n      dup3\n      swap1\n      sub\n      0x1f\n      and\n      dup3\n      add\n      swap2\n    tag_305:\n      pop\n      pop\n      pop\n      pop\n      pop\n      swap1\n      dup1\n      0x03\n      add\n      sload\n      swap1\n      dup1\n      0x04\n      add\n      0x00\n      swap1\n      sload\n      swap1\n      0x0100\n      exp\n      swap1\n      div\n      0xff\n      and\n      swap1\n      pop\n      dup6\n      jump\t// out\n        /* \"HealthChain/src/SupplyChain.sol\":3197:3271  mapping(uint256 => mapping(address => Medicals)) public warehouseInventory */\n    tag_119:\n      mstore(0x20, 0x04)\n      dup2\n      0x00\n      mstore\n      mstore(0x20, keccak256(0x00, 0x40))\n      dup1\n      0x00\n      mstore\n      keccak256(0x00, 0x40)\n      0x00\n      swap2\n      pop\n      swap2\n      pop\n      pop\n      dup1\n      0x00\n      add\n      sload\n      swap1\n      dup1\n      0x01\n      add\n      0x00\n      swap1\n      sload\n      swap1\n      0x0100\n      exp\n      swap1\n      div\n      0xff\n      and\n      swap1\n      dup1\n      0x02\n      add\n      sload\n      swap1\n      dup1\n      0x03\n      add\n      0x00\n      swap1\n      sload\n      swap1\n      0x0100\n      exp\n      swap1\n      div\n      0xffffffffffffffffffffffffffffffffffffffff\n      and\n      swap1\n      dup1\n      0x04\n      add\n      dup1\n      sload\n      tag_308\n      swap1\n      tag_127\n      jump\t// in\n    tag_308:\n      dup1\n      0x1f\n      add\n      0x20\n      dup1\n      swap2\n      div\n      mul\n      0x20\n      add\n      mload(0x40)\n      swap1\n      dup2\n      add\n      0x40\n      mstore\n      dup1\n      swap3\n      swap2\n      swap1\n      dup2\n      dup2\n      mstore\n      0x20\n      add\n      dup3\n      dup1\n      sload\n      tag_309\n      swap1\n      tag_127\n      jump\t// in\n    tag_309:\n      dup1\n      iszero\n      tag_310\n      jumpi\n      dup1\n      0x1f\n      lt\n      tag_311\n      jumpi\n      0x0100\n      dup1\n      dup4\n      sload\n      div\n      mul\n      dup4\n      mstore\n      swap2\n      0x20\n      add\n      swap2\n      jump(tag_310)\n    tag_311:\n      dup3\n      add\n      swap2\n      swap1\n      0x00\n      mstore\n      keccak256(0x00, 0x20)\n      swap1\n    tag_312:\n      dup2\n      sload\n      dup2\n      mstore\n      swap1\n      0x01\n      add\n      swap1\n      0x20\n      add\n      dup1\n      dup4\n      gt\n      tag_312\n      jumpi\n      dup3\n      swap1\n      sub\n      0x1f\n      and\n      dup3\n      add\n      swap2\n    tag_310:\n      pop\n      pop\n      pop\n      pop\n      pop\n      swap1\n      dup1\n      0x05\n      add\n      sload\n      swap1\n      dup1\n      0x06\n      add\n      dup1\n      sload\n      tag_313\n      swap1\n      tag_127\n      jump\t// in\n    tag_313:\n      dup1\n      0x1f\n      add\n      0x20\n      dup1\n      swap2\n      div\n      mul\n      0x20\n      add\n      mload(0x40)\n      swap1\n      dup2\n      add\n      0x40\n      mstore\n      dup1\n      swap3\n      swap2\n      swap1\n      dup2\n      dup2\n      mstore\n      0x20\n      add\n      dup3\n      dup1\n      sload\n      tag_314\n      swap1\n      tag_127\n      jump\t// in\n    tag_314:\n      dup1\n      iszero\n      tag_315\n      jumpi\n      dup1\n      0x1f\n      lt\n      tag_316\n      jumpi\n      0x0100\n      dup1\n      dup4\n      sload\n      div\n      mul\n      dup4\n      mstore\n      swap2\n      0x20\n      add\n      swap2\n      jump(tag_315)\n    tag_316:\n      dup3\n      add\n      swap2\n      swap1\n      0x00\n      mstore\n      keccak256(0x00, 0x20)\n      swap1\n    tag_317:\n      dup2\n      sload\n      dup2\n      mstore\n      swap1\n      0x01\n      add\n      swap1\n      0x20\n      add\n      dup1\n      dup4\n      gt\n      tag_317\n      jumpi\n      dup3\n      swap1\n      sub\n      0x1f\n      and\n      dup3\n      add\n      swap2\n    tag_315:\n      pop\n      pop\n      pop\n      pop\n      pop\n      swap1\n      dup1\n      0x07\n      add\n      dup1\n      sload\n      tag_318\n      swap1\n      tag_127\n      jump\t// in\n    tag_318:\n      dup1\n      0x1f\n      add\n      0x20\n      dup1\n      swap2\n      div\n      mul\n      0x20\n      add\n      mload(0x40)\n      swap1\n      dup2\n      add\n      0x40\n      mstore\n      dup1\n      swap3\n      swap2\n      swap1\n      dup2\n      dup2\n      mstore\n      0x20\n      add\n      dup3\n      dup1\n      sload\n      tag_319\n      swap1\n      tag_127\n      jump\t// in\n    tag_319:\n      dup1\n      iszero\n      tag_320\n      jumpi\n      dup1\n      0x1f\n      lt\n      tag_321\n      jumpi\n      0x0100\n      dup1\n      dup4\n      sload\n      div\n      mul\n      dup4\n      mstore\n      swap2\n      0x20\n      add\n      swap2\n      jump(tag_320)\n    tag_321:\n      dup3\n      add\n      swap2\n      swap1\n      0x00\n      mstore\n      keccak256(0x00, 0x20)\n      swap1\n    tag_322:\n      dup2\n      sload\n      dup2\n      mstore\n      swap1\n      0x01\n      add\n      swap1\n      0x20\n      add\n      dup1\n      dup4\n      gt\n      tag_322\n      jumpi\n      dup3\n      swap1\n      sub\n      0x1f\n      and\n      dup3\n      add\n      swap2\n    tag_320:\n      pop\n      pop\n      pop\n      pop\n      pop\n      swap1\n      pop\n      dup9\n      jump\t// out\n        /* \"HealthChain/src/SupplyChain.sol\":6990:7919  function authorizeImportWithPrice(... */\n    tag_123:\n        /* \"HealthChain/src/SupplyChain.sol\":7201:7202  0 */\n      0x00\n        /* \"HealthChain/src/SupplyChain.sol\":7183:7190  batchId */\n      dup5\n        /* \"HealthChain/src/SupplyChain.sol\":7177:7198  bytes(batchId).length */\n      mload\n        /* \"HealthChain/src/SupplyChain.sol\":7177:7202  bytes(batchId).length > 0 */\n      gt\n        /* \"HealthChain/src/SupplyChain.sol\":7169:7227  require(bytes(batchId).length > 0, \"Batch Id is required\") */\n      tag_324\n      jumpi\n      mload(0x40)\n      0x08c379a000000000000000000000000000000000000000000000000000000000\n      dup2\n      mstore\n      0x04\n      add\n      tag_325\n      swap1\n      tag_174\n      jump\t// in\n    tag_325:\n      mload(0x40)\n      dup1\n      swap2\n      sub\n      swap1\n      revert\n    tag_324:\n        /* \"HealthChain/src/SupplyChain.sol\":7258:7259  0 */\n      0x00\n        /* \"HealthChain/src/SupplyChain.sol\":7241:7248  itemIds */\n      dup2\n        /* \"HealthChain/src/SupplyChain.sol\":7241:7255  itemIds.length */\n      mload\n        /* \"HealthChain/src/SupplyChain.sol\":7241:7259  itemIds.length > 0 */\n      gt\n        /* \"HealthChain/src/SupplyChain.sol\":7233:7282  require(itemIds.length > 0, \"Item list required\") */\n      tag_326\n      jumpi\n      mload(0x40)\n      0x08c379a000000000000000000000000000000000000000000000000000000000\n      dup2\n      mstore\n      0x04\n      add\n      tag_327\n      swap1\n      tag_177\n      jump\t// in\n    tag_327:\n      mload(0x40)\n      dup1\n      swap2\n      sub\n      swap1\n      revert\n    tag_326:\n        /* \"HealthChain/src/SupplyChain.sol\":7391:7407  bytes(\"Nigeria\") */\n      mload(0x40)\n      dup1\n      0x40\n      add\n      0x40\n      mstore\n      dup1\n      0x07\n      dup2\n      mstore\n      0x20\n      add\n      0x4e69676572696100000000000000000000000000000000000000000000000000\n      dup2\n      mstore\n      pop\n        /* \"HealthChain/src/SupplyChain.sol\":7381:7408  keccak256(bytes(\"Nigeria\")) */\n      dup1\n      mload\n      swap1\n      0x20\n      add\n      keccak256\n        /* \"HealthChain/src/SupplyChain.sol\":7362:7375  originCountry */\n      dup4\n        /* \"HealthChain/src/SupplyChain.sol\":7346:7377  keccak256(bytes(originCountry)) */\n      dup1\n      mload\n      swap1\n      0x20\n      add\n      keccak256\n        /* \"HealthChain/src/SupplyChain.sol\":7346:7408  keccak256(bytes(originCountry)) == keccak256(bytes(\"Nigeria\")) */\n      eq\n        /* \"HealthChain/src/SupplyChain.sol\":7346:7487  keccak256(bytes(originCountry)) == keccak256(bytes(\"Nigeria\")) &&... */\n      dup1\n      iszero\n      tag_328\n      jumpi\n      pop\n        /* \"HealthChain/src/SupplyChain.sol\":7470:7486  bytes(\"Nigeria\") */\n      mload(0x40)\n      dup1\n      0x40\n      add\n      0x40\n      mstore\n      dup1\n      0x07\n      dup2\n      mstore\n      0x20\n      add\n      0x4e69676572696100000000000000000000000000000000000000000000000000\n      dup2\n      mstore\n      pop\n        /* \"HealthChain/src/SupplyChain.sol\":7460:7487  keccak256(bytes(\"Nigeria\")) */\n      dup1\n      mload\n      swap1\n      0x20\n      add\n      keccak256\n        /* \"HealthChain/src/SupplyChain.sol\":7436:7454  destinationCountry */\n      dup3\n        /* \"HealthChain/src/SupplyChain.sol\":7420:7456  keccak256(bytes(destinationCountry)) */\n      dup1\n      mload\n      swap1\n      0x20\n      add\n      keccak256\n        /* \"HealthChain/src/SupplyChain.sol\":7420:7487  keccak256(bytes(destinationCountry)) != keccak256(bytes(\"Nigeria\")) */\n      eq\n      iszero\n        /* \"HealthChain/src/SupplyChain.sol\":7346:7487  keccak256(bytes(originCountry)) == keccak256(bytes(\"Nigeria\")) &&... */\n    tag_328:\n        /* \"HealthChain/src/SupplyChain.sol\":7333:7917  if (... */\n      iszero\n      tag_329\n      jumpi\n        /* \"HealthChain/src/SupplyChain.sol\":7559:7568  int price */\n      0x00\n        /* \"HealthChain/src/SupplyChain.sol\":7575:7584  priceFeed */\n      0x09\n      0x00\n      swap1\n      sload\n      swap1\n      0x0100\n      exp\n      swap1\n      div\n      0xffffffffffffffffffffffffffffffffffffffff\n      and\n        /* \"HealthChain/src/SupplyChain.sol\":7575:7600  priceFeed.latestRoundData */\n      0xffffffffffffffffffffffffffffffffffffffff\n      and\n      0xfeaf968c\n        /* \"HealthChain/src/SupplyChain.sol\":7575:7602  priceFeed.latestRoundData() */\n      mload(0x40)\n      dup2\n      0xffffffff\n      and\n      0xe0\n      shl\n      dup2\n      mstore\n      0x04\n      add\n      0xa0\n      mload(0x40)\n      dup1\n      dup4\n      sub\n      dup2\n      dup7\n      gas\n      staticcall\n      iszero\n      dup1\n      iszero\n      tag_331\n      jumpi\n      returndatasize\n      0x00\n      dup1\n      returndatacopy\n      revert(0x00, returndatasize)\n    tag_331:\n      pop\n      pop\n      pop\n      pop\n      mload(0x40)\n      returndatasize\n      not(0x1f)\n      0x1f\n      dup3\n      add\n      and\n      dup3\n      add\n      dup1\n      0x40\n      mstore\n      pop\n      dup2\n      add\n      swap1\n      tag_332\n      swap2\n      swap1\n      tag_232\n      jump\t// in\n    tag_332:\n        /* \"HealthChain/src/SupplyChain.sol\":7556:7602  (, int price,,,) = priceFeed.latestRoundData() */\n      pop\n      pop\n      pop\n      swap2\n      pop\n      pop\n        /* \"HealthChain/src/SupplyChain.sol\":7628:7629  0 */\n      0x00\n        /* \"HealthChain/src/SupplyChain.sol\":7620:7625  price */\n      dup2\n        /* \"HealthChain/src/SupplyChain.sol\":7620:7629  price > 0 */\n      sgt\n        /* \"HealthChain/src/SupplyChain.sol\":7612:7647  require(price > 0, \"Invalid price\") */\n      tag_333\n      jumpi\n      mload(0x40)\n      0x08c379a000000000000000000000000000000000000000000000000000000000\n      dup2\n      mstore\n      0x04\n      add\n      tag_334\n      swap1\n      tag_335\n      jump\t// in\n    tag_334:\n      mload(0x40)\n      dup1\n      swap2\n      sub\n      swap1\n      revert\n    tag_333:\n        /* \"HealthChain/src/SupplyChain.sol\":7663:7669  uint i */\n      0x00\n        /* \"HealthChain/src/SupplyChain.sol\":7658:7911  for (uint i = 0; i < itemIds.length; i++) {... */\n    tag_336:\n        /* \"HealthChain/src/SupplyChain.sol\":7679:7686  itemIds */\n      dup3\n        /* \"HealthChain/src/SupplyChain.sol\":7679:7693  itemIds.length */\n      mload\n        /* \"HealthChain/src/SupplyChain.sol\":7675:7676  i */\n      dup2\n        /* \"HealthChain/src/SupplyChain.sol\":7675:7693  i < itemIds.length */\n      lt\n        /* \"HealthChain/src/SupplyChain.sol\":7658:7911  for (uint i = 0; i < itemIds.length; i++) {... */\n      iszero\n      tag_337\n      jumpi\n        /* \"HealthChain/src/SupplyChain.sol\":7755:7762  itemIds */\n      dup3\n        /* \"HealthChain/src/SupplyChain.sol\":7763:7764  i */\n      dup2\n        /* \"HealthChain/src/SupplyChain.sol\":7755:7765  itemIds[i] */\n      dup2\n      mload\n      dup2\n      lt\n      tag_339\n      jumpi\n      tag_340\n      tag_185\n      jump\t// in\n    tag_340:\n    tag_339:\n      0x20\n      mul\n      0x20\n      add\n      add\n      mload\n        /* \"HealthChain/src/SupplyChain.sol\":7719:7900  ItemMovedWithPrice(... */\n      0xcadcd35989e6067d7504dfedc645c79e7f8fcf1e0168974c122bacb5cc17fda1\n        /* \"HealthChain/src/SupplyChain.sol\":7783:7793  msg.sender */\n      caller\n        /* \"HealthChain/src/SupplyChain.sol\":7862:7867  price */\n      dup5\n        /* \"HealthChain/src/SupplyChain.sol\":7719:7900  ItemMovedWithPrice(... */\n      mload(0x40)\n      tag_341\n      swap3\n      swap2\n      swap1\n      tag_342\n      jump\t// in\n    tag_341:\n      mload(0x40)\n      dup1\n      swap2\n      sub\n      swap1\n      log2\n        /* \"HealthChain/src/SupplyChain.sol\":7695:7698  i++ */\n      dup1\n      dup1\n      0x01\n      add\n      swap2\n      pop\n      pop\n        /* \"HealthChain/src/SupplyChain.sol\":7658:7911  for (uint i = 0; i < itemIds.length; i++) {... */\n      jump(tag_336)\n    tag_337:\n      pop\n        /* \"HealthChain/src/SupplyChain.sol\":7494:7917  {... */\n      pop\n        /* \"HealthChain/src/SupplyChain.sol\":7333:7917  if (... */\n    tag_329:\n        /* \"HealthChain/src/SupplyChain.sol\":6990:7919  function authorizeImportWithPrice(... */\n      pop\n      pop\n      pop\n      pop\n      jump\t// out\n        /* \"#utility.yul\":7:82   */\n    tag_343:\n        /* \"#utility.yul\":40:46   */\n      0x00\n        /* \"#utility.yul\":73:75   */\n      0x40\n        /* \"#utility.yul\":67:76   */\n      mload\n        /* \"#utility.yul\":57:76   */\n      swap1\n      pop\n        /* \"#utility.yul\":7:82   */\n      swap1\n      jump\t// out\n        /* \"#utility.yul\":88:205   */\n    tag_344:\n        /* \"#utility.yul\":197:198   */\n      0x00\n        /* \"#utility.yul\":194:195   */\n      dup1\n        /* \"#utility.yul\":187:199   */\n      revert\n        /* \"#utility.yul\":211:328   */\n    tag_345:\n        /* \"#utility.yul\":320:321   */\n      0x00\n        /* \"#utility.yul\":317:318   */\n      dup1\n        /* \"#utility.yul\":310:322   */\n      revert\n        /* \"#utility.yul\":334:411   */\n    tag_346:\n        /* \"#utility.yul\":371:378   */\n      0x00\n        /* \"#utility.yul\":400:405   */\n      dup2\n        /* \"#utility.yul\":389:405   */\n      swap1\n      pop\n        /* \"#utility.yul\":334:411   */\n      swap2\n      swap1\n      pop\n      jump\t// out\n        /* \"#utility.yul\":417:539   */\n    tag_347:\n        /* \"#utility.yul\":490:514   */\n      tag_437\n        /* \"#utility.yul\":508:513   */\n      dup2\n        /* \"#utility.yul\":490:514   */\n      tag_346\n      jump\t// in\n    tag_437:\n        /* \"#utility.yul\":483:488   */\n      dup2\n        /* \"#utility.yul\":480:515   */\n      eq\n        /* \"#utility.yul\":470:533   */\n      tag_438\n      jumpi\n        /* \"#utility.yul\":529:530   */\n      0x00\n        /* \"#utility.yul\":526:527   */\n      dup1\n        /* \"#utility.yul\":519:531   */\n      revert\n        /* \"#utility.yul\":470:533   */\n    tag_438:\n        /* \"#utility.yul\":417:539   */\n      pop\n      jump\t// out\n        /* \"#utility.yul\":545:684   */\n    tag_348:\n        /* \"#utility.yul\":591:596   */\n      0x00\n        /* \"#utility.yul\":629:635   */\n      dup2\n        /* \"#utility.yul\":616:636   */\n      calldataload\n        /* \"#utility.yul\":607:636   */\n      swap1\n      pop\n        /* \"#utility.yul\":645:678   */\n      tag_440\n        /* \"#utility.yul\":672:677   */\n      dup2\n        /* \"#utility.yul\":645:678   */\n      tag_347\n      jump\t// in\n    tag_440:\n        /* \"#utility.yul\":545:684   */\n      swap3\n      swap2\n      pop\n      pop\n      jump\t// out\n        /* \"#utility.yul\":690:1019   */\n    tag_29:\n        /* \"#utility.yul\":749:755   */\n      0x00\n        /* \"#utility.yul\":798:800   */\n      0x20\n        /* \"#utility.yul\":786:795   */\n      dup3\n        /* \"#utility.yul\":777:784   */\n      dup5\n        /* \"#utility.yul\":773:796   */\n      sub\n        /* \"#utility.yul\":769:801   */\n      slt\n        /* \"#utility.yul\":766:885   */\n      iszero\n      tag_442\n      jumpi\n        /* \"#utility.yul\":804:883   */\n      tag_443\n      tag_344\n      jump\t// in\n    tag_443:\n        /* \"#utility.yul\":766:885   */\n    tag_442:\n        /* \"#utility.yul\":924:925   */\n      0x00\n        /* \"#utility.yul\":949:1002   */\n      tag_444\n        /* \"#utility.yul\":994:1001   */\n      dup5\n        /* \"#utility.yul\":985:991   */\n      dup3\n        /* \"#utility.yul\":974:983   */\n      dup6\n        /* \"#utility.yul\":970:992   */\n      add\n        /* \"#utility.yul\":949:1002   */\n      tag_348\n      jump\t// in\n    tag_444:\n        /* \"#utility.yul\":939:1002   */\n      swap2\n      pop\n        /* \"#utility.yul\":895:1012   */\n      pop\n        /* \"#utility.yul\":690:1019   */\n      swap3\n      swap2\n      pop\n      pop\n      jump\t// out\n        /* \"#utility.yul\":1025:1143   */\n    tag_349:\n        /* \"#utility.yul\":1112:1136   */\n      tag_446\n        /* \"#utility.yul\":1130:1135   */\n      dup2\n        /* \"#utility.yul\":1112:1136   */\n      tag_346\n      jump\t// in\n    tag_446:\n        /* \"#utility.yul\":1107:1110   */\n      dup3\n        /* \"#utility.yul\":1100:1137   */\n      mstore\n        /* \"#utility.yul\":1025:1143   */\n      pop\n      pop\n      jump\t// out\n        /* \"#utility.yul\":1149:1248   */\n    tag_350:\n        /* \"#utility.yul\":1201:1207   */\n      0x00\n        /* \"#utility.yul\":1235:1240   */\n      dup2\n        /* \"#utility.yul\":1229:1241   */\n      mload\n        /* \"#utility.yul\":1219:1241   */\n      swap1\n      pop\n        /* \"#utility.yul\":1149:1248   */\n      swap2\n      swap1\n      pop\n      jump\t// out\n        /* \"#utility.yul\":1254:1423   */\n    tag_351:\n        /* \"#utility.yul\":1338:1349   */\n      0x00\n        /* \"#utility.yul\":1372:1378   */\n      dup3\n        /* \"#utility.yul\":1367:1370   */\n      dup3\n        /* \"#utility.yul\":1360:1379   */\n      mstore\n        /* \"#utility.yul\":1412:1416   */\n      0x20\n        /* \"#utility.yul\":1407:1410   */\n      dup3\n        /* \"#utility.yul\":1403:1417   */\n      add\n        /* \"#utility.yul\":1388:1417   */\n      swap1\n      pop\n        /* \"#utility.yul\":1254:1423   */\n      swap3\n      swap2\n      pop\n      pop\n      jump\t// out\n        /* \"#utility.yul\":1429:1675   */\n    tag_352:\n        /* \"#utility.yul\":1510:1511   */\n      0x00\n        /* \"#utility.yul\":1520:1633   */\n    tag_450:\n        /* \"#utility.yul\":1534:1540   */\n      dup4\n        /* \"#utility.yul\":1531:1532   */\n      dup2\n        /* \"#utility.yul\":1528:1541   */\n      lt\n        /* \"#utility.yul\":1520:1633   */\n      iszero\n      tag_452\n      jumpi\n        /* \"#utility.yul\":1619:1620   */\n      dup1\n        /* \"#utility.yul\":1614:1617   */\n      dup3\n        /* \"#utility.yul\":1610:1621   */\n      add\n        /* \"#utility.yul\":1604:1622   */\n      mload\n        /* \"#utility.yul\":1600:1601   */\n      dup2\n        /* \"#utility.yul\":1595:1598   */\n      dup5\n        /* \"#utility.yul\":1591:1602   */\n      add\n        /* \"#utility.yul\":1584:1623   */\n      mstore\n        /* \"#utility.yul\":1556:1558   */\n      0x20\n        /* \"#utility.yul\":1553:1554   */\n      dup2\n        /* \"#utility.yul\":1549:1559   */\n      add\n        /* \"#utility.yul\":1544:1559   */\n      swap1\n      pop\n        /* \"#utility.yul\":1520:1633   */\n      jump(tag_450)\n    tag_452:\n        /* \"#utility.yul\":1667:1668   */\n      0x00\n        /* \"#utility.yul\":1658:1664   */\n      dup5\n        /* \"#utility.yul\":1653:1656   */\n      dup5\n        /* \"#utility.yul\":1649:1665   */\n      add\n        /* \"#utility.yul\":1642:1669   */\n      mstore\n        /* \"#utility.yul\":1491:1675   */\n      pop\n        /* \"#utility.yul\":1429:1675   */\n      pop\n      pop\n      pop\n      jump\t// out\n        /* \"#utility.yul\":1681:1783   */\n    tag_353:\n        /* \"#utility.yul\":1722:1728   */\n      0x00\n        /* \"#utility.yul\":1773:1775   */\n      0x1f\n        /* \"#utility.yul\":1769:1776   */\n      not\n        /* \"#utility.yul\":1764:1766   */\n      0x1f\n        /* \"#utility.yul\":1757:1762   */\n      dup4\n        /* \"#utility.yul\":1753:1767   */\n      add\n        /* \"#utility.yul\":1749:1777   */\n      and\n        /* \"#utility.yul\":1739:1777   */\n      swap1\n      pop\n        /* \"#utility.yul\":1681:1783   */\n      swap2\n      swap1\n      pop\n      jump\t// out\n        /* \"#utility.yul\":1789:2166   */\n    tag_354:\n        /* \"#utility.yul\":1877:1880   */\n      0x00\n        /* \"#utility.yul\":1905:1944   */\n      tag_455\n        /* \"#utility.yul\":1938:1943   */\n      dup3\n        /* \"#utility.yul\":1905:1944   */\n      tag_350\n      jump\t// in\n    tag_455:\n        /* \"#utility.yul\":1960:2031   */\n      tag_456\n        /* \"#utility.yul\":2024:2030   */\n      dup2\n        /* \"#utility.yul\":2019:2022   */\n      dup6\n        /* \"#utility.yul\":1960:2031   */\n      tag_351\n      jump\t// in\n    tag_456:\n        /* \"#utility.yul\":1953:2031   */\n      swap4\n      pop\n        /* \"#utility.yul\":2040:2105   */\n      tag_457\n        /* \"#utility.yul\":2098:2104   */\n      dup2\n        /* \"#utility.yul\":2093:2096   */\n      dup6\n        /* \"#utility.yul\":2086:2090   */\n      0x20\n        /* \"#utility.yul\":2079:2084   */\n      dup7\n        /* \"#utility.yul\":2075:2091   */\n      add\n        /* \"#utility.yul\":2040:2105   */\n      tag_352\n      jump\t// in\n    tag_457:\n        /* \"#utility.yul\":2130:2159   */\n      tag_458\n        /* \"#utility.yul\":2152:2158   */\n      dup2\n        /* \"#utility.yul\":2130:2159   */\n      tag_353\n      jump\t// in\n    tag_458:\n        /* \"#utility.yul\":2125:2128   */\n      dup5\n        /* \"#utility.yul\":2121:2160   */\n      add\n        /* \"#utility.yul\":2114:2160   */\n      swap2\n      pop\n        /* \"#utility.yul\":1881:2166   */\n      pop\n        /* \"#utility.yul\":1789:2166   */\n      swap3\n      swap2\n      pop\n      pop\n      jump\t// out\n        /* \"#utility.yul\":2172:3240   */\n    tag_32:\n        /* \"#utility.yul\":2473:2477   */\n      0x00\n        /* \"#utility.yul\":2511:2514   */\n      0xe0\n        /* \"#utility.yul\":2500:2509   */\n      dup3\n        /* \"#utility.yul\":2496:2515   */\n      add\n        /* \"#utility.yul\":2488:2515   */\n      swap1\n      pop\n        /* \"#utility.yul\":2525:2596   */\n      tag_460\n        /* \"#utility.yul\":2593:2594   */\n      0x00\n        /* \"#utility.yul\":2582:2591   */\n      dup4\n        /* \"#utility.yul\":2578:2595   */\n      add\n        /* \"#utility.yul\":2569:2575   */\n      dup11\n        /* \"#utility.yul\":2525:2596   */\n      tag_349\n      jump\t// in\n    tag_460:\n        /* \"#utility.yul\":2643:2652   */\n      dup2\n        /* \"#utility.yul\":2637:2641   */\n      dup2\n        /* \"#utility.yul\":2633:2653   */\n      sub\n        /* \"#utility.yul\":2628:2630   */\n      0x20\n        /* \"#utility.yul\":2617:2626   */\n      dup4\n        /* \"#utility.yul\":2613:2631   */\n      add\n        /* \"#utility.yul\":2606:2654   */\n      mstore\n        /* \"#utility.yul\":2671:2749   */\n      tag_461\n        /* \"#utility.yul\":2744:2748   */\n      dup2\n        /* \"#utility.yul\":2735:2741   */\n      dup10\n        /* \"#utility.yul\":2671:2749   */\n      tag_354\n      jump\t// in\n    tag_461:\n        /* \"#utility.yul\":2663:2749   */\n      swap1\n      pop\n        /* \"#utility.yul\":2759:2831   */\n      tag_462\n        /* \"#utility.yul\":2827:2829   */\n      0x40\n        /* \"#utility.yul\":2816:2825   */\n      dup4\n        /* \"#utility.yul\":2812:2830   */\n      add\n        /* \"#utility.yul\":2803:2809   */\n      dup9\n        /* \"#utility.yul\":2759:2831   */\n      tag_349\n      jump\t// in\n    tag_462:\n        /* \"#utility.yul\":2878:2887   */\n      dup2\n        /* \"#utility.yul\":2872:2876   */\n      dup2\n        /* \"#utility.yul\":2868:2888   */\n      sub\n        /* \"#utility.yul\":2863:2865   */\n      0x60\n        /* \"#utility.yul\":2852:2861   */\n      dup4\n        /* \"#utility.yul\":2848:2866   */\n      add\n        /* \"#utility.yul\":2841:2889   */\n      mstore\n        /* \"#utility.yul\":2906:2984   */\n      tag_463\n        /* \"#utility.yul\":2979:2983   */\n      dup2\n        /* \"#utility.yul\":2970:2976   */\n      dup8\n        /* \"#utility.yul\":2906:2984   */\n      tag_354\n      jump\t// in\n    tag_463:\n        /* \"#utility.yul\":2898:2984   */\n      swap1\n      pop\n        /* \"#utility.yul\":2994:3067   */\n      tag_464\n        /* \"#utility.yul\":3062:3065   */\n      0x80\n        /* \"#utility.yul\":3051:3060   */\n      dup4\n        /* \"#utility.yul\":3047:3066   */\n      add\n        /* \"#utility.yul\":3038:3044   */\n      dup7\n        /* \"#utility.yul\":2994:3067   */\n      tag_349\n      jump\t// in\n    tag_464:\n        /* \"#utility.yul\":3077:3150   */\n      tag_465\n        /* \"#utility.yul\":3145:3148   */\n      0xa0\n        /* \"#utility.yul\":3134:3143   */\n      dup4\n        /* \"#utility.yul\":3130:3149   */\n      add\n        /* \"#utility.yul\":3121:3127   */\n      dup6\n        /* \"#utility.yul\":3077:3150   */\n      tag_349\n      jump\t// in\n    tag_465:\n        /* \"#utility.yul\":3160:3233   */\n      tag_466\n        /* \"#utility.yul\":3228:3231   */\n      0xc0\n        /* \"#utility.yul\":3217:3226   */\n      dup4\n        /* \"#utility.yul\":3213:3232   */\n      add\n        /* \"#utility.yul\":3204:3210   */\n      dup5\n        /* \"#utility.yul\":3160:3233   */\n      tag_349\n      jump\t// in\n    tag_466:\n        /* \"#utility.yul\":2172:3240   */\n      swap9\n      swap8\n      pop\n      pop\n      pop\n      pop\n      pop\n      pop\n      pop\n      pop\n      jump\t// out\n        /* \"#utility.yul\":3246:3336   */\n    tag_355:\n        /* \"#utility.yul\":3280:3287   */\n      0x00\n        /* \"#utility.yul\":3323:3328   */\n      dup2\n        /* \"#utility.yul\":3316:3329   */\n      iszero\n        /* \"#utility.yul\":3309:3330   */\n      iszero\n        /* \"#utility.yul\":3298:3330   */\n      swap1\n      pop\n        /* \"#utility.yul\":3246:3336   */\n      swap2\n      swap1\n      pop\n      jump\t// out\n        /* \"#utility.yul\":3342:3451   */\n    tag_356:\n        /* \"#utility.yul\":3423:3444   */\n      tag_469\n        /* \"#utility.yul\":3438:3443   */\n      dup2\n        /* \"#utility.yul\":3423:3444   */\n      tag_355\n      jump\t// in\n    tag_469:\n        /* \"#utility.yul\":3418:3421   */\n      dup3\n        /* \"#utility.yul\":3411:3445   */\n      mstore\n        /* \"#utility.yul\":3342:3451   */\n      pop\n      pop\n      jump\t// out\n        /* \"#utility.yul\":3457:3583   */\n    tag_357:\n        /* \"#utility.yul\":3494:3501   */\n      0x00\n        /* \"#utility.yul\":3534:3576   */\n      0xffffffffffffffffffffffffffffffffffffffff\n        /* \"#utility.yul\":3527:3532   */\n      dup3\n        /* \"#utility.yul\":3523:3577   */\n      and\n        /* \"#utility.yul\":3512:3577   */\n      swap1\n      pop\n        /* \"#utility.yul\":3457:3583   */\n      swap2\n      swap1\n      pop\n      jump\t// out\n        /* \"#utility.yul\":3589:3685   */\n    tag_358:\n        /* \"#utility.yul\":3626:3633   */\n      0x00\n        /* \"#utility.yul\":3655:3679   */\n      tag_472\n        /* \"#utility.yul\":3673:3678   */\n      dup3\n        /* \"#utility.yul\":3655:3679   */\n      tag_357\n      jump\t// in\n    tag_472:\n        /* \"#utility.yul\":3644:3679   */\n      swap1\n      pop\n        /* \"#utility.yul\":3589:3685   */\n      swap2\n      swap1\n      pop\n      jump\t// out\n        /* \"#utility.yul\":3691:3809   */\n    tag_359:\n        /* \"#utility.yul\":3778:3802   */\n      tag_474\n        /* \"#utility.yul\":3796:3801   */\n      dup2\n        /* \"#utility.yul\":3778:3802   */\n      tag_358\n      jump\t// in\n    tag_474:\n        /* \"#utility.yul\":3773:3776   */\n      dup3\n        /* \"#utility.yul\":3766:3803   */\n      mstore\n        /* \"#utility.yul\":3691:3809   */\n      pop\n      pop\n      jump\t// out\n        /* \"#utility.yul\":3815:5073   */\n    tag_37:\n        /* \"#utility.yul\":4158:4162   */\n      0x00\n        /* \"#utility.yul\":4196:4199   */\n      0x0100\n        /* \"#utility.yul\":4185:4194   */\n      dup3\n        /* \"#utility.yul\":4181:4200   */\n      add\n        /* \"#utility.yul\":4173:4200   */\n      swap1\n      pop\n        /* \"#utility.yul\":4210:4281   */\n      tag_476\n        /* \"#utility.yul\":4278:4279   */\n      0x00\n        /* \"#utility.yul\":4267:4276   */\n      dup4\n        /* \"#utility.yul\":4263:4280   */\n      add\n        /* \"#utility.yul\":4254:4260   */\n      dup12\n        /* \"#utility.yul\":4210:4281   */\n      tag_349\n      jump\t// in\n    tag_476:\n        /* \"#utility.yul\":4291:4357   */\n      tag_477\n        /* \"#utility.yul\":4353:4355   */\n      0x20\n        /* \"#utility.yul\":4342:4351   */\n      dup4\n        /* \"#utility.yul\":4338:4356   */\n      add\n        /* \"#utility.yul\":4329:4335   */\n      dup11\n        /* \"#utility.yul\":4291:4357   */\n      tag_356\n      jump\t// in\n    tag_477:\n        /* \"#utility.yul\":4367:4439   */\n      tag_478\n        /* \"#utility.yul\":4435:4437   */\n      0x40\n        /* \"#utility.yul\":4424:4433   */\n      dup4\n        /* \"#utility.yul\":4420:4438   */\n      add\n        /* \"#utility.yul\":4411:4417   */\n      dup10\n        /* \"#utility.yul\":4367:4439   */\n      tag_349\n      jump\t// in\n    tag_478:\n        /* \"#utility.yul\":4449:4521   */\n      tag_479\n        /* \"#utility.yul\":4517:4519   */\n      0x60\n        /* \"#utility.yul\":4506:4515   */\n      dup4\n        /* \"#utility.yul\":4502:4520   */\n      add\n        /* \"#utility.yul\":4493:4499   */\n      dup9\n        /* \"#utility.yul\":4449:4521   */\n      tag_359\n      jump\t// in\n    tag_479:\n        /* \"#utility.yul\":4569:4578   */\n      dup2\n        /* \"#utility.yul\":4563:4567   */\n      dup2\n        /* \"#utility.yul\":4559:4579   */\n      sub\n        /* \"#utility.yul\":4553:4556   */\n      0x80\n        /* \"#utility.yul\":4542:4551   */\n      dup4\n        /* \"#utility.yul\":4538:4557   */\n      add\n        /* \"#utility.yul\":4531:4580   */\n      mstore\n        /* \"#utility.yul\":4597:4675   */\n      tag_480\n        /* \"#utility.yul\":4670:4674   */\n      dup2\n        /* \"#utility.yul\":4661:4667   */\n      dup8\n        /* \"#utility.yul\":4597:4675   */\n      tag_354\n      jump\t// in\n    tag_480:\n        /* \"#utility.yul\":4589:4675   */\n      swap1\n      pop\n        /* \"#utility.yul\":4685:4758   */\n      tag_481\n        /* \"#utility.yul\":4753:4756   */\n      0xa0\n        /* \"#utility.yul\":4742:4751   */\n      dup4\n        /* \"#utility.yul\":4738:4757   */\n      add\n        /* \"#utility.yul\":4729:4735   */\n      dup7\n        /* \"#utility.yul\":4685:4758   */\n      tag_349\n      jump\t// in\n    tag_481:\n        /* \"#utility.yul\":4806:4815   */\n      dup2\n        /* \"#utility.yul\":4800:4804   */\n      dup2\n        /* \"#utility.yul\":4796:4816   */\n      sub\n        /* \"#utility.yul\":4790:4793   */\n      0xc0\n        /* \"#utility.yul\":4779:4788   */\n      dup4\n        /* \"#utility.yul\":4775:4794   */\n      add\n        /* \"#utility.yul\":4768:4817   */\n      mstore\n        /* \"#utility.yul\":4834:4912   */\n      tag_482\n        /* \"#utility.yul\":4907:4911   */\n      dup2\n        /* \"#utility.yul\":4898:4904   */\n      dup6\n        /* \"#utility.yul\":4834:4912   */\n      tag_354\n      jump\t// in\n    tag_482:\n        /* \"#utility.yul\":4826:4912   */\n      swap1\n      pop\n        /* \"#utility.yul\":4960:4969   */\n      dup2\n        /* \"#utility.yul\":4954:4958   */\n      dup2\n        /* \"#utility.yul\":4950:4970   */\n      sub\n        /* \"#utility.yul\":4944:4947   */\n      0xe0\n        /* \"#utility.yul\":4933:4942   */\n      dup4\n        /* \"#utility.yul\":4929:4948   */\n      add\n        /* \"#utility.yul\":4922:4971   */\n      mstore\n        /* \"#utility.yul\":4988:5066   */\n      tag_483\n        /* \"#utility.yul\":5061:5065   */\n      dup2\n        /* \"#utility.yul\":5052:5058   */\n      dup5\n        /* \"#utility.yul\":4988:5066   */\n      tag_354\n      jump\t// in\n    tag_483:\n        /* \"#utility.yul\":4980:5066   */\n      swap1\n      pop\n        /* \"#utility.yul\":3815:5073   */\n      swap10\n      swap9\n      pop\n      pop\n      pop\n      pop\n      pop\n      pop\n      pop\n      pop\n      pop\n      jump\t// out\n        /* \"#utility.yul\":5079:5731   */\n    tag_46:\n        /* \"#utility.yul\":5278:5282   */\n      0x00\n        /* \"#utility.yul\":5316:5319   */\n      0xa0\n        /* \"#utility.yul\":5305:5314   */\n      dup3\n        /* \"#utility.yul\":5301:5320   */\n      add\n        /* \"#utility.yul\":5293:5320   */\n      swap1\n      pop\n        /* \"#utility.yul\":5330:5395   */\n      tag_485\n        /* \"#utility.yul\":5392:5393   */\n      0x00\n        /* \"#utility.yul\":5381:5390   */\n      dup4\n        /* \"#utility.yul\":5377:5394   */\n      add\n        /* \"#utility.yul\":5368:5374   */\n      dup9\n        /* \"#utility.yul\":5330:5395   */\n      tag_356\n      jump\t// in\n    tag_485:\n        /* \"#utility.yul\":5405:5477   */\n      tag_486\n        /* \"#utility.yul\":5473:5475   */\n      0x20\n        /* \"#utility.yul\":5462:5471   */\n      dup4\n        /* \"#utility.yul\":5458:5476   */\n      add\n        /* \"#utility.yul\":5449:5455   */\n      dup8\n        /* \"#utility.yul\":5405:5477   */\n      tag_349\n      jump\t// in\n    tag_486:\n        /* \"#utility.yul\":5487:5559   */\n      tag_487\n        /* \"#utility.yul\":5555:5557   */\n      0x40\n        /* \"#utility.yul\":5544:5553   */\n      dup4\n        /* \"#utility.yul\":5540:5558   */\n      add\n        /* \"#utility.yul\":5531:5537   */\n      dup7\n        /* \"#utility.yul\":5487:5559   */\n      tag_359\n      jump\t// in\n    tag_487:\n        /* \"#utility.yul\":5569:5641   */\n      tag_488\n        /* \"#utility.yul\":5637:5639   */\n      0x60\n        /* \"#utility.yul\":5626:5635   */\n      dup4\n        /* \"#utility.yul\":5622:5640   */\n      add\n        /* \"#utility.yul\":5613:5619   */\n      dup6\n        /* \"#utility.yul\":5569:5641   */\n      tag_349\n      jump\t// in\n    tag_488:\n        /* \"#utility.yul\":5651:5724   */\n      tag_489\n        /* \"#utility.yul\":5719:5722   */\n      0x80\n        /* \"#utility.yul\":5708:5717   */\n      dup4\n        /* \"#utility.yul\":5704:5723   */\n      add\n        /* \"#utility.yul\":5695:5701   */\n      dup5\n        /* \"#utility.yul\":5651:5724   */\n      tag_359\n      jump\t// in\n    tag_489:\n        /* \"#utility.yul\":5079:5731   */\n      swap7\n      swap6\n      pop\n      pop\n      pop\n      pop\n      pop\n      pop\n      jump\t// out\n        /* \"#utility.yul\":5737:5854   */\n    tag_360:\n        /* \"#utility.yul\":5846:5847   */\n      0x00\n        /* \"#utility.yul\":5843:5844   */\n      dup1\n        /* \"#utility.yul\":5836:5848   */\n      revert\n        /* \"#utility.yul\":5860:5977   */\n    tag_361:\n        /* \"#utility.yul\":5969:5970   */\n      0x00\n        /* \"#utility.yul\":5966:5967   */\n      dup1\n        /* \"#utility.yul\":5959:5971   */\n      revert\n        /* \"#utility.yul\":5983:6163   */\n    tag_194:\n        /* \"#utility.yul\":6031:6108   */\n      0x4e487b7100000000000000000000000000000000000000000000000000000000\n        /* \"#utility.yul\":6028:6029   */\n      0x00\n        /* \"#utility.yul\":6021:6109   */\n      mstore\n        /* \"#utility.yul\":6128:6132   */\n      0x41\n        /* \"#utility.yul\":6125:6126   */\n      0x04\n        /* \"#utility.yul\":6118:6133   */\n      mstore\n        /* \"#utility.yul\":6152:6156   */\n      0x24\n        /* \"#utility.yul\":6149:6150   */\n      0x00\n        /* \"#utility.yul\":6142:6157   */\n      revert\n        /* \"#utility.yul\":6169:6450   */\n    tag_362:\n        /* \"#utility.yul\":6252:6279   */\n      tag_494\n        /* \"#utility.yul\":6274:6278   */\n      dup3\n        /* \"#utility.yul\":6252:6279   */\n      tag_353\n      jump\t// in\n    tag_494:\n        /* \"#utility.yul\":6244:6250   */\n      dup2\n        /* \"#utility.yul\":6240:6280   */\n      add\n        /* \"#utility.yul\":6382:6388   */\n      dup2\n        /* \"#utility.yul\":6370:6380   */\n      dup2\n        /* \"#utility.yul\":6367:6389   */\n      lt\n        /* \"#utility.yul\":6346:6364   */\n      0xffffffffffffffff\n        /* \"#utility.yul\":6334:6344   */\n      dup3\n        /* \"#utility.yul\":6331:6365   */\n      gt\n        /* \"#utility.yul\":6328:6390   */\n      or\n        /* \"#utility.yul\":6325:6413   */\n      iszero\n      tag_495\n      jumpi\n        /* \"#utility.yul\":6393:6411   */\n      tag_496\n      tag_194\n      jump\t// in\n    tag_496:\n        /* \"#utility.yul\":6325:6413   */\n    tag_495:\n        /* \"#utility.yul\":6433:6443   */\n      dup1\n        /* \"#utility.yul\":6429:6431   */\n      0x40\n        /* \"#utility.yul\":6422:6444   */\n      mstore\n        /* \"#utility.yul\":6212:6450   */\n      pop\n        /* \"#utility.yul\":6169:6450   */\n      pop\n      pop\n      jump\t// out\n        /* \"#utility.yul\":6456:6585   */\n    tag_363:\n        /* \"#utility.yul\":6490:6496   */\n      0x00\n        /* \"#utility.yul\":6517:6537   */\n      tag_498\n      tag_343\n      jump\t// in\n    tag_498:\n        /* \"#utility.yul\":6507:6537   */\n      swap1\n      pop\n        /* \"#utility.yul\":6546:6579   */\n      tag_499\n        /* \"#utility.yul\":6574:6578   */\n      dup3\n        /* \"#utility.yul\":6566:6572   */\n      dup3\n        /* \"#utility.yul\":6546:6579   */\n      tag_362\n      jump\t// in\n    tag_499:\n        /* \"#utility.yul\":6456:6585   */\n      swap2\n      swap1\n      pop\n      jump\t// out\n        /* \"#utility.yul\":6591:6899   */\n    tag_364:\n        /* \"#utility.yul\":6653:6657   */\n      0x00\n        /* \"#utility.yul\":6743:6761   */\n      0xffffffffffffffff\n        /* \"#utility.yul\":6735:6741   */\n      dup3\n        /* \"#utility.yul\":6732:6762   */\n      gt\n        /* \"#utility.yul\":6729:6785   */\n      iszero\n      tag_501\n      jumpi\n        /* \"#utility.yul\":6765:6783   */\n      tag_502\n      tag_194\n      jump\t// in\n    tag_502:\n        /* \"#utility.yul\":6729:6785   */\n    tag_501:\n        /* \"#utility.yul\":6803:6832   */\n      tag_503\n        /* \"#utility.yul\":6825:6831   */\n      dup3\n        /* \"#utility.yul\":6803:6832   */\n      tag_353\n      jump\t// in\n    tag_503:\n        /* \"#utility.yul\":6795:6832   */\n      swap1\n      pop\n        /* \"#utility.yul\":6887:6891   */\n      0x20\n        /* \"#utility.yul\":6881:6885   */\n      dup2\n        /* \"#utility.yul\":6877:6892   */\n      add\n        /* \"#utility.yul\":6869:6892   */\n      swap1\n      pop\n        /* \"#utility.yul\":6591:6899   */\n      swap2\n      swap1\n      pop\n      jump\t// out\n        /* \"#utility.yul\":6905:7051   */\n    tag_365:\n        /* \"#utility.yul\":7002:7008   */\n      dup3\n        /* \"#utility.yul\":6997:7000   */\n      dup2\n        /* \"#utility.yul\":6992:6995   */\n      dup4\n        /* \"#utility.yul\":6979:7009   */\n      calldatacopy\n        /* \"#utility.yul\":7043:7044   */\n      0x00\n        /* \"#utility.yul\":7034:7040   */\n      dup4\n        /* \"#utility.yul\":7029:7032   */\n      dup4\n        /* \"#utility.yul\":7025:7041   */\n      add\n        /* \"#utility.yul\":7018:7045   */\n      mstore\n        /* \"#utility.yul\":6905:7051   */\n      pop\n      pop\n      pop\n      jump\t// out\n        /* \"#utility.yul\":7057:7482   */\n    tag_366:\n        /* \"#utility.yul\":7135:7140   */\n      0x00\n        /* \"#utility.yul\":7160:7226   */\n      tag_506\n        /* \"#utility.yul\":7176:7225   */\n      tag_507\n        /* \"#utility.yul\":7218:7224   */\n      dup5\n        /* \"#utility.yul\":7176:7225   */\n      tag_364\n      jump\t// in\n    tag_507:\n        /* \"#utility.yul\":7160:7226   */\n      tag_363\n      jump\t// in\n    tag_506:\n        /* \"#utility.yul\":7151:7226   */\n      swap1\n      pop\n        /* \"#utility.yul\":7249:7255   */\n      dup3\n        /* \"#utility.yul\":7242:7247   */\n      dup2\n        /* \"#utility.yul\":7235:7256   */\n      mstore\n        /* \"#utility.yul\":7287:7291   */\n      0x20\n        /* \"#utility.yul\":7280:7285   */\n      dup2\n        /* \"#utility.yul\":7276:7292   */\n      add\n        /* \"#utility.yul\":7325:7328   */\n      dup5\n        /* \"#utility.yul\":7316:7322   */\n      dup5\n        /* \"#utility.yul\":7311:7314   */\n      dup5\n        /* \"#utility.yul\":7307:7323   */\n      add\n        /* \"#utility.yul\":7304:7329   */\n      gt\n        /* \"#utility.yul\":7301:7413   */\n      iszero\n      tag_508\n      jumpi\n        /* \"#utility.yul\":7332:7411   */\n      tag_509\n      tag_361\n      jump\t// in\n    tag_509:\n        /* \"#utility.yul\":7301:7413   */\n    tag_508:\n        /* \"#utility.yul\":7422:7476   */\n      tag_510\n        /* \"#utility.yul\":7469:7475   */\n      dup5\n        /* \"#utility.yul\":7464:7467   */\n      dup3\n        /* \"#utility.yul\":7459:7462   */\n      dup6\n        /* \"#utility.yul\":7422:7476   */\n      tag_365\n      jump\t// in\n    tag_510:\n        /* \"#utility.yul\":7141:7482   */\n      pop\n        /* \"#utility.yul\":7057:7482   */\n      swap4\n      swap3\n      pop\n      pop\n      pop\n      jump\t// out\n        /* \"#utility.yul\":7502:7842   */\n    tag_367:\n        /* \"#utility.yul\":7558:7563   */\n      0x00\n        /* \"#utility.yul\":7607:7610   */\n      dup3\n        /* \"#utility.yul\":7600:7604   */\n      0x1f\n        /* \"#utility.yul\":7592:7598   */\n      dup4\n        /* \"#utility.yul\":7588:7605   */\n      add\n        /* \"#utility.yul\":7584:7611   */\n      slt\n        /* \"#utility.yul\":7574:7696   */\n      tag_512\n      jumpi\n        /* \"#utility.yul\":7615:7694   */\n      tag_513\n      tag_360\n      jump\t// in\n    tag_513:\n        /* \"#utility.yul\":7574:7696   */\n    tag_512:\n        /* \"#utility.yul\":7732:7738   */\n      dup2\n        /* \"#utility.yul\":7719:7739   */\n      calldataload\n        /* \"#utility.yul\":7757:7836   */\n      tag_514\n        /* \"#utility.yul\":7832:7835   */\n      dup5\n        /* \"#utility.yul\":7824:7830   */\n      dup3\n        /* \"#utility.yul\":7817:7821   */\n      0x20\n        /* \"#utility.yul\":7809:7815   */\n      dup7\n        /* \"#utility.yul\":7805:7822   */\n      add\n        /* \"#utility.yul\":7757:7836   */\n      tag_366\n      jump\t// in\n    tag_514:\n        /* \"#utility.yul\":7748:7836   */\n      swap2\n      pop\n        /* \"#utility.yul\":7564:7842   */\n      pop\n        /* \"#utility.yul\":7502:7842   */\n      swap3\n      swap2\n      pop\n      pop\n      jump\t// out\n        /* \"#utility.yul\":7848:8159   */\n    tag_368:\n        /* \"#utility.yul\":7925:7929   */\n      0x00\n        /* \"#utility.yul\":8015:8033   */\n      0xffffffffffffffff\n        /* \"#utility.yul\":8007:8013   */\n      dup3\n        /* \"#utility.yul\":8004:8034   */\n      gt\n        /* \"#utility.yul\":8001:8057   */\n      iszero\n      tag_516\n      jumpi\n        /* \"#utility.yul\":8037:8055   */\n      tag_517\n      tag_194\n      jump\t// in\n    tag_517:\n        /* \"#utility.yul\":8001:8057   */\n    tag_516:\n        /* \"#utility.yul\":8087:8091   */\n      0x20\n        /* \"#utility.yul\":8079:8085   */\n      dup3\n        /* \"#utility.yul\":8075:8092   */\n      mul\n        /* \"#utility.yul\":8067:8092   */\n      swap1\n      pop\n        /* \"#utility.yul\":8147:8151   */\n      0x20\n        /* \"#utility.yul\":8141:8145   */\n      dup2\n        /* \"#utility.yul\":8137:8152   */\n      add\n        /* \"#utility.yul\":8129:8152   */\n      swap1\n      pop\n        /* \"#utility.yul\":7848:8159   */\n      swap2\n      swap1\n      pop\n      jump\t// out\n        /* \"#utility.yul\":8165:8282   */\n    tag_369:\n        /* \"#utility.yul\":8274:8275   */\n      0x00\n        /* \"#utility.yul\":8271:8272   */\n      dup1\n        /* \"#utility.yul\":8264:8276   */\n      revert\n        /* \"#utility.yul\":8305:9015   */\n    tag_370:\n        /* \"#utility.yul\":8401:8406   */\n      0x00\n        /* \"#utility.yul\":8426:8507   */\n      tag_520\n        /* \"#utility.yul\":8442:8506   */\n      tag_521\n        /* \"#utility.yul\":8499:8505   */\n      dup5\n        /* \"#utility.yul\":8442:8506   */\n      tag_368\n      jump\t// in\n    tag_521:\n        /* \"#utility.yul\":8426:8507   */\n      tag_363\n      jump\t// in\n    tag_520:\n        /* \"#utility.yul\":8417:8507   */\n      swap1\n      pop\n        /* \"#utility.yul\":8527:8532   */\n      dup1\n        /* \"#utility.yul\":8556:8562   */\n      dup4\n        /* \"#utility.yul\":8549:8554   */\n      dup3\n        /* \"#utility.yul\":8542:8563   */\n      mstore\n        /* \"#utility.yul\":8590:8594   */\n      0x20\n        /* \"#utility.yul\":8583:8588   */\n      dup3\n        /* \"#utility.yul\":8579:8595   */\n      add\n        /* \"#utility.yul\":8572:8595   */\n      swap1\n      pop\n        /* \"#utility.yul\":8643:8647   */\n      0x20\n        /* \"#utility.yul\":8635:8641   */\n      dup5\n        /* \"#utility.yul\":8631:8648   */\n      mul\n        /* \"#utility.yul\":8623:8629   */\n      dup4\n        /* \"#utility.yul\":8619:8649   */\n      add\n        /* \"#utility.yul\":8672:8675   */\n      dup6\n        /* \"#utility.yul\":8664:8670   */\n      dup2\n        /* \"#utility.yul\":8661:8676   */\n      gt\n        /* \"#utility.yul\":8658:8780   */\n      iszero\n      tag_522\n      jumpi\n        /* \"#utility.yul\":8691:8770   */\n      tag_523\n      tag_369\n      jump\t// in\n    tag_523:\n        /* \"#utility.yul\":8658:8780   */\n    tag_522:\n        /* \"#utility.yul\":8806:8812   */\n      dup4\n        /* \"#utility.yul\":8789:9009   */\n    tag_524:\n        /* \"#utility.yul\":8823:8829   */\n      dup2\n        /* \"#utility.yul\":8818:8821   */\n      dup2\n        /* \"#utility.yul\":8815:8830   */\n      lt\n        /* \"#utility.yul\":8789:9009   */\n      iszero\n      tag_526\n      jumpi\n        /* \"#utility.yul\":8898:8901   */\n      dup1\n        /* \"#utility.yul\":8927:8964   */\n      tag_527\n        /* \"#utility.yul\":8960:8963   */\n      dup9\n        /* \"#utility.yul\":8948:8958   */\n      dup3\n        /* \"#utility.yul\":8927:8964   */\n      tag_348\n      jump\t// in\n    tag_527:\n        /* \"#utility.yul\":8922:8925   */\n      dup5\n        /* \"#utility.yul\":8915:8965   */\n      mstore\n        /* \"#utility.yul\":8994:8998   */\n      0x20\n        /* \"#utility.yul\":8989:8992   */\n      dup5\n        /* \"#utility.yul\":8985:8999   */\n      add\n        /* \"#utility.yul\":8978:8999   */\n      swap4\n      pop\n        /* \"#utility.yul\":8865:9009   */\n      pop\n        /* \"#utility.yul\":8849:8853   */\n      0x20\n        /* \"#utility.yul\":8844:8847   */\n      dup2\n        /* \"#utility.yul\":8840:8854   */\n      add\n        /* \"#utility.yul\":8833:8854   */\n      swap1\n      pop\n        /* \"#utility.yul\":8789:9009   */\n      jump(tag_524)\n    tag_526:\n        /* \"#utility.yul\":8793:8814   */\n      pop\n        /* \"#utility.yul\":8407:9015   */\n      pop\n      pop\n        /* \"#utility.yul\":8305:9015   */\n      swap4\n      swap3\n      pop\n      pop\n      pop\n      jump\t// out\n        /* \"#utility.yul\":9038:9408   */\n    tag_371:\n        /* \"#utility.yul\":9109:9114   */\n      0x00\n        /* \"#utility.yul\":9158:9161   */\n      dup3\n        /* \"#utility.yul\":9151:9155   */\n      0x1f\n        /* \"#utility.yul\":9143:9149   */\n      dup4\n        /* \"#utility.yul\":9139:9156   */\n      add\n        /* \"#utility.yul\":9135:9162   */\n      slt\n        /* \"#utility.yul\":9125:9247   */\n      tag_529\n      jumpi\n        /* \"#utility.yul\":9166:9245   */\n      tag_530\n      tag_360\n      jump\t// in\n    tag_530:\n        /* \"#utility.yul\":9125:9247   */\n    tag_529:\n        /* \"#utility.yul\":9283:9289   */\n      dup2\n        /* \"#utility.yul\":9270:9290   */\n      calldataload\n        /* \"#utility.yul\":9308:9402   */\n      tag_531\n        /* \"#utility.yul\":9398:9401   */\n      dup5\n        /* \"#utility.yul\":9390:9396   */\n      dup3\n        /* \"#utility.yul\":9383:9387   */\n      0x20\n        /* \"#utility.yul\":9375:9381   */\n      dup7\n        /* \"#utility.yul\":9371:9388   */\n      add\n        /* \"#utility.yul\":9308:9402   */\n      tag_370\n      jump\t// in\n    tag_531:\n        /* \"#utility.yul\":9299:9402   */\n      swap2\n      pop\n        /* \"#utility.yul\":9115:9408   */\n      pop\n        /* \"#utility.yul\":9038:9408   */\n      swap3\n      swap2\n      pop\n      pop\n      jump\t// out\n        /* \"#utility.yul\":9414:10929   */\n    tag_49:\n        /* \"#utility.yul\":9555:9561   */\n      0x00\n        /* \"#utility.yul\":9563:9569   */\n      dup1\n        /* \"#utility.yul\":9571:9577   */\n      0x00\n        /* \"#utility.yul\":9579:9585   */\n      dup1\n        /* \"#utility.yul\":9628:9631   */\n      0x80\n        /* \"#utility.yul\":9616:9625   */\n      dup6\n        /* \"#utility.yul\":9607:9614   */\n      dup8\n        /* \"#utility.yul\":9603:9626   */\n      sub\n        /* \"#utility.yul\":9599:9632   */\n      slt\n        /* \"#utility.yul\":9596:9716   */\n      iszero\n      tag_533\n      jumpi\n        /* \"#utility.yul\":9635:9714   */\n      tag_534\n      tag_344\n      jump\t// in\n    tag_534:\n        /* \"#utility.yul\":9596:9716   */\n    tag_533:\n        /* \"#utility.yul\":9783:9784   */\n      0x00\n        /* \"#utility.yul\":9772:9781   */\n      dup6\n        /* \"#utility.yul\":9768:9785   */\n      add\n        /* \"#utility.yul\":9755:9786   */\n      calldataload\n        /* \"#utility.yul\":9813:9831   */\n      0xffffffffffffffff\n        /* \"#utility.yul\":9805:9811   */\n      dup2\n        /* \"#utility.yul\":9802:9832   */\n      gt\n        /* \"#utility.yul\":9799:9916   */\n      iszero\n      tag_535\n      jumpi\n        /* \"#utility.yul\":9835:9914   */\n      tag_536\n      tag_345\n      jump\t// in\n    tag_536:\n        /* \"#utility.yul\":9799:9916   */\n    tag_535:\n        /* \"#utility.yul\":9940:10003   */\n      tag_537\n        /* \"#utility.yul\":9995:10002   */\n      dup8\n        /* \"#utility.yul\":9986:9992   */\n      dup3\n        /* \"#utility.yul\":9975:9984   */\n      dup9\n        /* \"#utility.yul\":9971:9993   */\n      add\n        /* \"#utility.yul\":9940:10003   */\n      tag_367\n      jump\t// in\n    tag_537:\n        /* \"#utility.yul\":9930:10003   */\n      swap5\n      pop\n        /* \"#utility.yul\":9726:10013   */\n      pop\n        /* \"#utility.yul\":10080:10082   */\n      0x20\n        /* \"#utility.yul\":10069:10078   */\n      dup6\n        /* \"#utility.yul\":10065:10083   */\n      add\n        /* \"#utility.yul\":10052:10084   */\n      calldataload\n        /* \"#utility.yul\":10111:10129   */\n      0xffffffffffffffff\n        /* \"#utility.yul\":10103:10109   */\n      dup2\n        /* \"#utility.yul\":10100:10130   */\n      gt\n        /* \"#utility.yul\":10097:10214   */\n      iszero\n      tag_538\n      jumpi\n        /* \"#utility.yul\":10133:10212   */\n      tag_539\n      tag_345\n      jump\t// in\n    tag_539:\n        /* \"#utility.yul\":10097:10214   */\n    tag_538:\n        /* \"#utility.yul\":10238:10301   */\n      tag_540\n        /* \"#utility.yul\":10293:10300   */\n      dup8\n        /* \"#utility.yul\":10284:10290   */\n      dup3\n        /* \"#utility.yul\":10273:10282   */\n      dup9\n        /* \"#utility.yul\":10269:10291   */\n      add\n        /* \"#utility.yul\":10238:10301   */\n      tag_367\n      jump\t// in\n    tag_540:\n        /* \"#utility.yul\":10228:10301   */\n      swap4\n      pop\n        /* \"#utility.yul\":10023:10311   */\n      pop\n        /* \"#utility.yul\":10378:10380   */\n      0x40\n        /* \"#utility.yul\":10367:10376   */\n      dup6\n        /* \"#utility.yul\":10363:10381   */\n      add\n        /* \"#utility.yul\":10350:10382   */\n      calldataload\n        /* \"#utility.yul\":10409:10427   */\n      0xffffffffffffffff\n        /* \"#utility.yul\":10401:10407   */\n      dup2\n        /* \"#utility.yul\":10398:10428   */\n      gt\n        /* \"#utility.yul\":10395:10512   */\n      iszero\n      tag_541\n      jumpi\n        /* \"#utility.yul\":10431:10510   */\n      tag_542\n      tag_345\n      jump\t// in\n    tag_542:\n        /* \"#utility.yul\":10395:10512   */\n    tag_541:\n        /* \"#utility.yul\":10536:10599   */\n      tag_543\n        /* \"#utility.yul\":10591:10598   */\n      dup8\n        /* \"#utility.yul\":10582:10588   */\n      dup3\n        /* \"#utility.yul\":10571:10580   */\n      dup9\n        /* \"#utility.yul\":10567:10589   */\n      add\n        /* \"#utility.yul\":10536:10599   */\n      tag_367\n      jump\t// in\n    tag_543:\n        /* \"#utility.yul\":10526:10599   */\n      swap3\n      pop\n        /* \"#utility.yul\":10321:10609   */\n      pop\n        /* \"#utility.yul\":10676:10678   */\n      0x60\n        /* \"#utility.yul\":10665:10674   */\n      dup6\n        /* \"#utility.yul\":10661:10679   */\n      add\n        /* \"#utility.yul\":10648:10680   */\n      calldataload\n        /* \"#utility.yul\":10707:10725   */\n      0xffffffffffffffff\n        /* \"#utility.yul\":10699:10705   */\n      dup2\n        /* \"#utility.yul\":10696:10726   */\n      gt\n        /* \"#utility.yul\":10693:10810   */\n      iszero\n      tag_544\n      jumpi\n        /* \"#utility.yul\":10729:10808   */\n      tag_545\n      tag_345\n      jump\t// in\n    tag_545:\n        /* \"#utility.yul\":10693:10810   */\n    tag_544:\n        /* \"#utility.yul\":10834:10912   */\n      tag_546\n        /* \"#utility.yul\":10904:10911   */\n      dup8\n        /* \"#utility.yul\":10895:10901   */\n      dup3\n        /* \"#utility.yul\":10884:10893   */\n      dup9\n        /* \"#utility.yul\":10880:10902   */\n      add\n        /* \"#utility.yul\":10834:10912   */\n      tag_371\n      jump\t// in\n    tag_546:\n        /* \"#utility.yul\":10824:10912   */\n      swap2\n      pop\n        /* \"#utility.yul\":10619:10922   */\n      pop\n        /* \"#utility.yul\":9414:10929   */\n      swap3\n      swap6\n      swap2\n      swap5\n      pop\n      swap3\n      pop\n      jump\t// out\n        /* \"#utility.yul\":10935:11256   */\n    tag_372:\n        /* \"#utility.yul\":11022:11026   */\n      0x00\n        /* \"#utility.yul\":11112:11130   */\n      0xffffffffffffffff\n        /* \"#utility.yul\":11104:11110   */\n      dup3\n        /* \"#utility.yul\":11101:11131   */\n      gt\n        /* \"#utility.yul\":11098:11154   */\n      iszero\n      tag_548\n      jumpi\n        /* \"#utility.yul\":11134:11152   */\n      tag_549\n      tag_194\n      jump\t// in\n    tag_549:\n        /* \"#utility.yul\":11098:11154   */\n    tag_548:\n        /* \"#utility.yul\":11184:11188   */\n      0x20\n        /* \"#utility.yul\":11176:11182   */\n      dup3\n        /* \"#utility.yul\":11172:11189   */\n      mul\n        /* \"#utility.yul\":11164:11189   */\n      swap1\n      pop\n        /* \"#utility.yul\":11244:11248   */\n      0x20\n        /* \"#utility.yul\":11238:11242   */\n      dup2\n        /* \"#utility.yul\":11234:11249   */\n      add\n        /* \"#utility.yul\":11226:11249   */\n      swap1\n      pop\n        /* \"#utility.yul\":10935:11256   */\n      swap2\n      swap1\n      pop\n      jump\t// out\n        /* \"#utility.yul\":11278:12223   */\n    tag_373:\n        /* \"#utility.yul\":11384:11389   */\n      0x00\n        /* \"#utility.yul\":11409:11500   */\n      tag_551\n        /* \"#utility.yul\":11425:11499   */\n      tag_552\n        /* \"#utility.yul\":11492:11498   */\n      dup5\n        /* \"#utility.yul\":11425:11499   */\n      tag_372\n      jump\t// in\n    tag_552:\n        /* \"#utility.yul\":11409:11500   */\n      tag_363\n      jump\t// in\n    tag_551:\n        /* \"#utility.yul\":11400:11500   */\n      swap1\n      pop\n        /* \"#utility.yul\":11520:11525   */\n      dup1\n        /* \"#utility.yul\":11549:11555   */\n      dup4\n        /* \"#utility.yul\":11542:11547   */\n      dup3\n        /* \"#utility.yul\":11535:11556   */\n      mstore\n        /* \"#utility.yul\":11583:11587   */\n      0x20\n        /* \"#utility.yul\":11576:11581   */\n      dup3\n        /* \"#utility.yul\":11572:11588   */\n      add\n        /* \"#utility.yul\":11565:11588   */\n      swap1\n      pop\n        /* \"#utility.yul\":11636:11640   */\n      0x20\n        /* \"#utility.yul\":11628:11634   */\n      dup5\n        /* \"#utility.yul\":11624:11641   */\n      mul\n        /* \"#utility.yul\":11616:11622   */\n      dup4\n        /* \"#utility.yul\":11612:11642   */\n      add\n        /* \"#utility.yul\":11665:11668   */\n      dup6\n        /* \"#utility.yul\":11657:11663   */\n      dup2\n        /* \"#utility.yul\":11654:11669   */\n      gt\n        /* \"#utility.yul\":11651:11773   */\n      iszero\n      tag_553\n      jumpi\n        /* \"#utility.yul\":11684:11763   */\n      tag_554\n      tag_369\n      jump\t// in\n    tag_554:\n        /* \"#utility.yul\":11651:11773   */\n    tag_553:\n        /* \"#utility.yul\":11799:11805   */\n      dup4\n        /* \"#utility.yul\":11782:12217   */\n    tag_555:\n        /* \"#utility.yul\":11816:11822   */\n      dup2\n        /* \"#utility.yul\":11811:11814   */\n      dup2\n        /* \"#utility.yul\":11808:11823   */\n      lt\n        /* \"#utility.yul\":11782:12217   */\n      iszero\n      tag_557\n      jumpi\n        /* \"#utility.yul\":11905:11908   */\n      dup1\n        /* \"#utility.yul\":11892:11909   */\n      calldataload\n        /* \"#utility.yul\":11941:11959   */\n      0xffffffffffffffff\n        /* \"#utility.yul\":11928:11939   */\n      dup2\n        /* \"#utility.yul\":11925:11960   */\n      gt\n        /* \"#utility.yul\":11922:12044   */\n      iszero\n      tag_558\n      jumpi\n        /* \"#utility.yul\":11963:12042   */\n      tag_559\n      tag_360\n      jump\t// in\n    tag_559:\n        /* \"#utility.yul\":11922:12044   */\n    tag_558:\n        /* \"#utility.yul\":12087:12098   */\n      dup1\n        /* \"#utility.yul\":12079:12085   */\n      dup7\n        /* \"#utility.yul\":12075:12099   */\n      add\n        /* \"#utility.yul\":12125:12172   */\n      tag_560\n        /* \"#utility.yul\":12168:12171   */\n      dup10\n        /* \"#utility.yul\":12156:12166   */\n      dup3\n        /* \"#utility.yul\":12125:12172   */\n      tag_367\n      jump\t// in\n    tag_560:\n        /* \"#utility.yul\":12120:12123   */\n      dup6\n        /* \"#utility.yul\":12113:12173   */\n      mstore\n        /* \"#utility.yul\":12202:12206   */\n      0x20\n        /* \"#utility.yul\":12197:12200   */\n      dup6\n        /* \"#utility.yul\":12193:12207   */\n      add\n        /* \"#utility.yul\":12186:12207   */\n      swap5\n      pop\n        /* \"#utility.yul\":11858:12217   */\n      pop\n      pop\n        /* \"#utility.yul\":11842:11846   */\n      0x20\n        /* \"#utility.yul\":11837:11840   */\n      dup2\n        /* \"#utility.yul\":11833:11847   */\n      add\n        /* \"#utility.yul\":11826:11847   */\n      swap1\n      pop\n        /* \"#utility.yul\":11782:12217   */\n      jump(tag_555)\n    tag_557:\n        /* \"#utility.yul\":11786:11807   */\n      pop\n        /* \"#utility.yul\":11390:12223   */\n      pop\n      pop\n        /* \"#utility.yul\":11278:12223   */\n      swap4\n      swap3\n      pop\n      pop\n      pop\n      jump\t// out\n        /* \"#utility.yul\":12245:12635   */\n    tag_374:\n        /* \"#utility.yul\":12326:12331   */\n      0x00\n        /* \"#utility.yul\":12375:12378   */\n      dup3\n        /* \"#utility.yul\":12368:12372   */\n      0x1f\n        /* \"#utility.yul\":12360:12366   */\n      dup4\n        /* \"#utility.yul\":12356:12373   */\n      add\n        /* \"#utility.yul\":12352:12379   */\n      slt\n        /* \"#utility.yul\":12342:12464   */\n      tag_562\n      jumpi\n        /* \"#utility.yul\":12383:12462   */\n      tag_563\n      tag_360\n      jump\t// in\n    tag_563:\n        /* \"#utility.yul\":12342:12464   */\n    tag_562:\n        /* \"#utility.yul\":12500:12506   */\n      dup2\n        /* \"#utility.yul\":12487:12507   */\n      calldataload\n        /* \"#utility.yul\":12525:12629   */\n      tag_564\n        /* \"#utility.yul\":12625:12628   */\n      dup5\n        /* \"#utility.yul\":12617:12623   */\n      dup3\n        /* \"#utility.yul\":12610:12614   */\n      0x20\n        /* \"#utility.yul\":12602:12608   */\n      dup7\n        /* \"#utility.yul\":12598:12615   */\n      add\n        /* \"#utility.yul\":12525:12629   */\n      tag_373\n      jump\t// in\n    tag_564:\n        /* \"#utility.yul\":12516:12629   */\n      swap2\n      pop\n        /* \"#utility.yul\":12332:12635   */\n      pop\n        /* \"#utility.yul\":12245:12635   */\n      swap3\n      swap2\n      pop\n      pop\n      jump\t// out\n        /* \"#utility.yul\":12641:13880   */\n    tag_53:\n        /* \"#utility.yul\":12788:12794   */\n      0x00\n        /* \"#utility.yul\":12796:12802   */\n      dup1\n        /* \"#utility.yul\":12804:12810   */\n      0x00\n        /* \"#utility.yul\":12853:12855   */\n      0x60\n        /* \"#utility.yul\":12841:12850   */\n      dup5\n        /* \"#utility.yul\":12832:12839   */\n      dup7\n        /* \"#utility.yul\":12828:12851   */\n      sub\n        /* \"#utility.yul\":12824:12856   */\n      slt\n        /* \"#utility.yul\":12821:12940   */\n      iszero\n      tag_566\n      jumpi\n        /* \"#utility.yul\":12859:12938   */\n      tag_567\n      tag_344\n      jump\t// in\n    tag_567:\n        /* \"#utility.yul\":12821:12940   */\n    tag_566:\n        /* \"#utility.yul\":13007:13008   */\n      0x00\n        /* \"#utility.yul\":12996:13005   */\n      dup5\n        /* \"#utility.yul\":12992:13009   */\n      add\n        /* \"#utility.yul\":12979:13010   */\n      calldataload\n        /* \"#utility.yul\":13037:13055   */\n      0xffffffffffffffff\n        /* \"#utility.yul\":13029:13035   */\n      dup2\n        /* \"#utility.yul\":13026:13056   */\n      gt\n        /* \"#utility.yul\":13023:13140   */\n      iszero\n      tag_568\n      jumpi\n        /* \"#utility.yul\":13059:13138   */\n      tag_569\n      tag_345\n      jump\t// in\n    tag_569:\n        /* \"#utility.yul\":13023:13140   */\n    tag_568:\n        /* \"#utility.yul\":13164:13227   */\n      tag_570\n        /* \"#utility.yul\":13219:13226   */\n      dup7\n        /* \"#utility.yul\":13210:13216   */\n      dup3\n        /* \"#utility.yul\":13199:13208   */\n      dup8\n        /* \"#utility.yul\":13195:13217   */\n      add\n        /* \"#utility.yul\":13164:13227   */\n      tag_367\n      jump\t// in\n    tag_570:\n        /* \"#utility.yul\":13154:13227   */\n      swap4\n      pop\n        /* \"#utility.yul\":12950:13237   */\n      pop\n        /* \"#utility.yul\":13304:13306   */\n      0x20\n        /* \"#utility.yul\":13293:13302   */\n      dup5\n        /* \"#utility.yul\":13289:13307   */\n      add\n        /* \"#utility.yul\":13276:13308   */\n      calldataload\n        /* \"#utility.yul\":13335:13353   */\n      0xffffffffffffffff\n        /* \"#utility.yul\":13327:13333   */\n      dup2\n        /* \"#utility.yul\":13324:13354   */\n      gt\n        /* \"#utility.yul\":13321:13438   */\n      iszero\n      tag_571\n      jumpi\n        /* \"#utility.yul\":13357:13436   */\n      tag_572\n      tag_345\n      jump\t// in\n    tag_572:\n        /* \"#utility.yul\":13321:13438   */\n    tag_571:\n        /* \"#utility.yul\":13462:13550   */\n      tag_573\n        /* \"#utility.yul\":13542:13549   */\n      dup7\n        /* \"#utility.yul\":13533:13539   */\n      dup3\n        /* \"#utility.yul\":13522:13531   */\n      dup8\n        /* \"#utility.yul\":13518:13540   */\n      add\n        /* \"#utility.yul\":13462:13550   */\n      tag_374\n      jump\t// in\n    tag_573:\n        /* \"#utility.yul\":13452:13550   */\n      swap3\n      pop\n        /* \"#utility.yul\":13247:13560   */\n      pop\n        /* \"#utility.yul\":13627:13629   */\n      0x40\n        /* \"#utility.yul\":13616:13625   */\n      dup5\n        /* \"#utility.yul\":13612:13630   */\n      add\n        /* \"#utility.yul\":13599:13631   */\n      calldataload\n        /* \"#utility.yul\":13658:13676   */\n      0xffffffffffffffff\n        /* \"#utility.yul\":13650:13656   */\n      dup2\n        /* \"#utility.yul\":13647:13677   */\n      gt\n        /* \"#utility.yul\":13644:13761   */\n      iszero\n      tag_574\n      jumpi\n        /* \"#utility.yul\":13680:13759   */\n      tag_575\n      tag_345\n      jump\t// in\n    tag_575:\n        /* \"#utility.yul\":13644:13761   */\n    tag_574:\n        /* \"#utility.yul\":13785:13863   */\n      tag_576\n        /* \"#utility.yul\":13855:13862   */\n      dup7\n        /* \"#utility.yul\":13846:13852   */\n      dup3\n        /* \"#utility.yul\":13835:13844   */\n      dup8\n        /* \"#utility.yul\":13831:13853   */\n      add\n        /* \"#utility.yul\":13785:13863   */\n      tag_371\n      jump\t// in\n    tag_576:\n        /* \"#utility.yul\":13775:13863   */\n      swap2\n      pop\n        /* \"#utility.yul\":13570:13873   */\n      pop\n        /* \"#utility.yul\":12641:13880   */\n      swap3\n      pop\n      swap3\n      pop\n      swap3\n      jump\t// out\n        /* \"#utility.yul\":13886:14108   */\n    tag_59:\n        /* \"#utility.yul\":13979:13983   */\n      0x00\n        /* \"#utility.yul\":14017:14019   */\n      0x20\n        /* \"#utility.yul\":14006:14015   */\n      dup3\n        /* \"#utility.yul\":14002:14020   */\n      add\n        /* \"#utility.yul\":13994:14020   */\n      swap1\n      pop\n        /* \"#utility.yul\":14030:14101   */\n      tag_578\n        /* \"#utility.yul\":14098:14099   */\n      0x00\n        /* \"#utility.yul\":14087:14096   */\n      dup4\n        /* \"#utility.yul\":14083:14100   */\n      add\n        /* \"#utility.yul\":14074:14080   */\n      dup5\n        /* \"#utility.yul\":14030:14101   */\n      tag_359\n      jump\t// in\n    tag_578:\n        /* \"#utility.yul\":13886:14108   */\n      swap3\n      swap2\n      pop\n      pop\n      jump\t// out\n        /* \"#utility.yul\":14114:14236   */\n    tag_375:\n        /* \"#utility.yul\":14187:14211   */\n      tag_580\n        /* \"#utility.yul\":14205:14210   */\n      dup2\n        /* \"#utility.yul\":14187:14211   */\n      tag_358\n      jump\t// in\n    tag_580:\n        /* \"#utility.yul\":14180:14185   */\n      dup2\n        /* \"#utility.yul\":14177:14212   */\n      eq\n        /* \"#utility.yul\":14167:14230   */\n      tag_581\n      jumpi\n        /* \"#utility.yul\":14226:14227   */\n      0x00\n        /* \"#utility.yul\":14223:14224   */\n      dup1\n        /* \"#utility.yul\":14216:14228   */\n      revert\n        /* \"#utility.yul\":14167:14230   */\n    tag_581:\n        /* \"#utility.yul\":14114:14236   */\n      pop\n      jump\t// out\n        /* \"#utility.yul\":14242:14381   */\n    tag_376:\n        /* \"#utility.yul\":14288:14293   */\n      0x00\n        /* \"#utility.yul\":14326:14332   */\n      dup2\n        /* \"#utility.yul\":14313:14333   */\n      calldataload\n        /* \"#utility.yul\":14304:14333   */\n      swap1\n      pop\n        /* \"#utility.yul\":14342:14375   */\n      tag_583\n        /* \"#utility.yul\":14369:14374   */\n      dup2\n        /* \"#utility.yul\":14342:14375   */\n      tag_375\n      jump\t// in\n    tag_583:\n        /* \"#utility.yul\":14242:14381   */\n      swap3\n      swap2\n      pop\n      pop\n      jump\t// out\n        /* \"#utility.yul\":14387:14861   */\n    tag_62:\n        /* \"#utility.yul\":14455:14461   */\n      0x00\n        /* \"#utility.yul\":14463:14469   */\n      dup1\n        /* \"#utility.yul\":14512:14514   */\n      0x40\n        /* \"#utility.yul\":14500:14509   */\n      dup4\n        /* \"#utility.yul\":14491:14498   */\n      dup6\n        /* \"#utility.yul\":14487:14510   */\n      sub\n        /* \"#utility.yul\":14483:14515   */\n      slt\n        /* \"#utility.yul\":14480:14599   */\n      iszero\n      tag_585\n      jumpi\n        /* \"#utility.yul\":14518:14597   */\n      tag_586\n      tag_344\n      jump\t// in\n    tag_586:\n        /* \"#utility.yul\":14480:14599   */\n    tag_585:\n        /* \"#utility.yul\":14638:14639   */\n      0x00\n        /* \"#utility.yul\":14663:14716   */\n      tag_587\n        /* \"#utility.yul\":14708:14715   */\n      dup6\n        /* \"#utility.yul\":14699:14705   */\n      dup3\n        /* \"#utility.yul\":14688:14697   */\n      dup7\n        /* \"#utility.yul\":14684:14706   */\n      add\n        /* \"#utility.yul\":14663:14716   */\n      tag_348\n      jump\t// in\n    tag_587:\n        /* \"#utility.yul\":14653:14716   */\n      swap3\n      pop\n        /* \"#utility.yul\":14609:14726   */\n      pop\n        /* \"#utility.yul\":14765:14767   */\n      0x20\n        /* \"#utility.yul\":14791:14844   */\n      tag_588\n        /* \"#utility.yul\":14836:14843   */\n      dup6\n        /* \"#utility.yul\":14827:14833   */\n      dup3\n        /* \"#utility.yul\":14816:14825   */\n      dup7\n        /* \"#utility.yul\":14812:14834   */\n      add\n        /* \"#utility.yul\":14791:14844   */\n      tag_376\n      jump\t// in\n    tag_588:\n        /* \"#utility.yul\":14781:14844   */\n      swap2\n      pop\n        /* \"#utility.yul\":14736:14854   */\n      pop\n        /* \"#utility.yul\":14387:14861   */\n      swap3\n      pop\n      swap3\n      swap1\n      pop\n      jump\t// out\n        /* \"#utility.yul\":14867:15408   */\n    tag_65:\n        /* \"#utility.yul\":15038:15042   */\n      0x00\n        /* \"#utility.yul\":15076:15079   */\n      0x80\n        /* \"#utility.yul\":15065:15074   */\n      dup3\n        /* \"#utility.yul\":15061:15080   */\n      add\n        /* \"#utility.yul\":15053:15080   */\n      swap1\n      pop\n        /* \"#utility.yul\":15090:15161   */\n      tag_590\n        /* \"#utility.yul\":15158:15159   */\n      0x00\n        /* \"#utility.yul\":15147:15156   */\n      dup4\n        /* \"#utility.yul\":15143:15160   */\n      add\n        /* \"#utility.yul\":15134:15140   */\n      dup8\n        /* \"#utility.yul\":15090:15161   */\n      tag_349\n      jump\t// in\n    tag_590:\n        /* \"#utility.yul\":15171:15243   */\n      tag_591\n        /* \"#utility.yul\":15239:15241   */\n      0x20\n        /* \"#utility.yul\":15228:15237   */\n      dup4\n        /* \"#utility.yul\":15224:15242   */\n      add\n        /* \"#utility.yul\":15215:15221   */\n      dup7\n        /* \"#utility.yul\":15171:15243   */\n      tag_349\n      jump\t// in\n    tag_591:\n        /* \"#utility.yul\":15253:15325   */\n      tag_592\n        /* \"#utility.yul\":15321:15323   */\n      0x40\n        /* \"#utility.yul\":15310:15319   */\n      dup4\n        /* \"#utility.yul\":15306:15324   */\n      add\n        /* \"#utility.yul\":15297:15303   */\n      dup6\n        /* \"#utility.yul\":15253:15325   */\n      tag_359\n      jump\t// in\n    tag_592:\n        /* \"#utility.yul\":15335:15401   */\n      tag_593\n        /* \"#utility.yul\":15397:15399   */\n      0x60\n        /* \"#utility.yul\":15386:15395   */\n      dup4\n        /* \"#utility.yul\":15382:15400   */\n      add\n        /* \"#utility.yul\":15373:15379   */\n      dup5\n        /* \"#utility.yul\":15335:15401   */\n      tag_356\n      jump\t// in\n    tag_593:\n        /* \"#utility.yul\":14867:15408   */\n      swap6\n      swap5\n      pop\n      pop\n      pop\n      pop\n      pop\n      jump\t// out\n        /* \"#utility.yul\":15414:15524   */\n    tag_377:\n        /* \"#utility.yul\":15498:15499   */\n      0x02\n        /* \"#utility.yul\":15491:15496   */\n      dup2\n        /* \"#utility.yul\":15488:15500   */\n      lt\n        /* \"#utility.yul\":15478:15518   */\n      tag_595\n      jumpi\n        /* \"#utility.yul\":15514:15515   */\n      0x00\n        /* \"#utility.yul\":15511:15512   */\n      dup1\n        /* \"#utility.yul\":15504:15516   */\n      revert\n        /* \"#utility.yul\":15478:15518   */\n    tag_595:\n        /* \"#utility.yul\":15414:15524   */\n      pop\n      jump\t// out\n        /* \"#utility.yul\":15530:15691   */\n    tag_378:\n        /* \"#utility.yul\":15587:15592   */\n      0x00\n        /* \"#utility.yul\":15625:15631   */\n      dup2\n        /* \"#utility.yul\":15612:15632   */\n      calldataload\n        /* \"#utility.yul\":15603:15632   */\n      swap1\n      pop\n        /* \"#utility.yul\":15641:15685   */\n      tag_597\n        /* \"#utility.yul\":15679:15684   */\n      dup2\n        /* \"#utility.yul\":15641:15685   */\n      tag_377\n      jump\t// in\n    tag_597:\n        /* \"#utility.yul\":15530:15691   */\n      swap3\n      swap2\n      pop\n      pop\n      jump\t// out\n        /* \"#utility.yul\":15697:16193   */\n    tag_68:\n        /* \"#utility.yul\":15776:15782   */\n      0x00\n        /* \"#utility.yul\":15784:15790   */\n      dup1\n        /* \"#utility.yul\":15833:15835   */\n      0x40\n        /* \"#utility.yul\":15821:15830   */\n      dup4\n        /* \"#utility.yul\":15812:15819   */\n      dup6\n        /* \"#utility.yul\":15808:15831   */\n      sub\n        /* \"#utility.yul\":15804:15836   */\n      slt\n        /* \"#utility.yul\":15801:15920   */\n      iszero\n      tag_599\n      jumpi\n        /* \"#utility.yul\":15839:15918   */\n      tag_600\n      tag_344\n      jump\t// in\n    tag_600:\n        /* \"#utility.yul\":15801:15920   */\n    tag_599:\n        /* \"#utility.yul\":15959:15960   */\n      0x00\n        /* \"#utility.yul\":15984:16048   */\n      tag_601\n        /* \"#utility.yul\":16040:16047   */\n      dup6\n        /* \"#utility.yul\":16031:16037   */\n      dup3\n        /* \"#utility.yul\":16020:16029   */\n      dup7\n        /* \"#utility.yul\":16016:16038   */\n      add\n        /* \"#utility.yul\":15984:16048   */\n      tag_378\n      jump\t// in\n    tag_601:\n        /* \"#utility.yul\":15974:16048   */\n      swap3\n      pop\n        /* \"#utility.yul\":15930:16058   */\n      pop\n        /* \"#utility.yul\":16097:16099   */\n      0x20\n        /* \"#utility.yul\":16123:16176   */\n      tag_602\n        /* \"#utility.yul\":16168:16175   */\n      dup6\n        /* \"#utility.yul\":16159:16165   */\n      dup3\n        /* \"#utility.yul\":16148:16157   */\n      dup7\n        /* \"#utility.yul\":16144:16166   */\n      add\n        /* \"#utility.yul\":16123:16176   */\n      tag_348\n      jump\t// in\n    tag_602:\n        /* \"#utility.yul\":16113:16176   */\n      swap2\n      pop\n        /* \"#utility.yul\":16068:16186   */\n      pop\n        /* \"#utility.yul\":15697:16193   */\n      swap3\n      pop\n      swap3\n      swap1\n      pop\n      jump\t// out\n        /* \"#utility.yul\":16199:16708   */\n    tag_73:\n        /* \"#utility.yul\":16268:16274   */\n      0x00\n        /* \"#utility.yul\":16317:16319   */\n      0x20\n        /* \"#utility.yul\":16305:16314   */\n      dup3\n        /* \"#utility.yul\":16296:16303   */\n      dup5\n        /* \"#utility.yul\":16292:16315   */\n      sub\n        /* \"#utility.yul\":16288:16320   */\n      slt\n        /* \"#utility.yul\":16285:16404   */\n      iszero\n      tag_604\n      jumpi\n        /* \"#utility.yul\":16323:16402   */\n      tag_605\n      tag_344\n      jump\t// in\n    tag_605:\n        /* \"#utility.yul\":16285:16404   */\n    tag_604:\n        /* \"#utility.yul\":16471:16472   */\n      0x00\n        /* \"#utility.yul\":16460:16469   */\n      dup3\n        /* \"#utility.yul\":16456:16473   */\n      add\n        /* \"#utility.yul\":16443:16474   */\n      calldataload\n        /* \"#utility.yul\":16501:16519   */\n      0xffffffffffffffff\n        /* \"#utility.yul\":16493:16499   */\n      dup2\n        /* \"#utility.yul\":16490:16520   */\n      gt\n        /* \"#utility.yul\":16487:16604   */\n      iszero\n      tag_606\n      jumpi\n        /* \"#utility.yul\":16523:16602   */\n      tag_607\n      tag_345\n      jump\t// in\n    tag_607:\n        /* \"#utility.yul\":16487:16604   */\n    tag_606:\n        /* \"#utility.yul\":16628:16691   */\n      tag_608\n        /* \"#utility.yul\":16683:16690   */\n      dup5\n        /* \"#utility.yul\":16674:16680   */\n      dup3\n        /* \"#utility.yul\":16663:16672   */\n      dup6\n        /* \"#utility.yul\":16659:16681   */\n      add\n        /* \"#utility.yul\":16628:16691   */\n      tag_367\n      jump\t// in\n    tag_608:\n        /* \"#utility.yul\":16618:16691   */\n      swap2\n      pop\n        /* \"#utility.yul\":16414:16701   */\n      pop\n        /* \"#utility.yul\":16199:16708   */\n      swap3\n      swap2\n      pop\n      pop\n      jump\t// out\n        /* \"#utility.yul\":16714:16818   */\n    tag_379:\n        /* \"#utility.yul\":16759:16766   */\n      0x00\n        /* \"#utility.yul\":16788:16812   */\n      tag_610\n        /* \"#utility.yul\":16806:16811   */\n      dup3\n        /* \"#utility.yul\":16788:16812   */\n      tag_357\n      jump\t// in\n    tag_610:\n        /* \"#utility.yul\":16777:16812   */\n      swap1\n      pop\n        /* \"#utility.yul\":16714:16818   */\n      swap2\n      swap1\n      pop\n      jump\t// out\n        /* \"#utility.yul\":16824:16966   */\n    tag_380:\n        /* \"#utility.yul\":16927:16959   */\n      tag_612\n        /* \"#utility.yul\":16953:16958   */\n      dup2\n        /* \"#utility.yul\":16927:16959   */\n      tag_379\n      jump\t// in\n    tag_612:\n        /* \"#utility.yul\":16922:16925   */\n      dup3\n        /* \"#utility.yul\":16915:16960   */\n      mstore\n        /* \"#utility.yul\":16824:16966   */\n      pop\n      pop\n      jump\t// out\n        /* \"#utility.yul\":16972:17226   */\n    tag_83:\n        /* \"#utility.yul\":17081:17085   */\n      0x00\n        /* \"#utility.yul\":17119:17121   */\n      0x20\n        /* \"#utility.yul\":17108:17117   */\n      dup3\n        /* \"#utility.yul\":17104:17122   */\n      add\n        /* \"#utility.yul\":17096:17122   */\n      swap1\n      pop\n        /* \"#utility.yul\":17132:17219   */\n      tag_614\n        /* \"#utility.yul\":17216:17217   */\n      0x00\n        /* \"#utility.yul\":17205:17214   */\n      dup4\n        /* \"#utility.yul\":17201:17218   */\n      add\n        /* \"#utility.yul\":17192:17198   */\n      dup5\n        /* \"#utility.yul\":17132:17219   */\n      tag_380\n      jump\t// in\n    tag_614:\n        /* \"#utility.yul\":16972:17226   */\n      swap3\n      swap2\n      pop\n      pop\n      jump\t// out\n        /* \"#utility.yul\":17232:17308   */\n    tag_381:\n        /* \"#utility.yul\":17268:17275   */\n      0x00\n        /* \"#utility.yul\":17297:17302   */\n      dup2\n        /* \"#utility.yul\":17286:17302   */\n      swap1\n      pop\n        /* \"#utility.yul\":17232:17308   */\n      swap2\n      swap1\n      pop\n      jump\t// out\n        /* \"#utility.yul\":17314:17429   */\n    tag_382:\n        /* \"#utility.yul\":17399:17422   */\n      tag_617\n        /* \"#utility.yul\":17416:17421   */\n      dup2\n        /* \"#utility.yul\":17399:17422   */\n      tag_381\n      jump\t// in\n    tag_617:\n        /* \"#utility.yul\":17394:17397   */\n      dup3\n        /* \"#utility.yul\":17387:17423   */\n      mstore\n        /* \"#utility.yul\":17314:17429   */\n      pop\n      pop\n      jump\t// out\n        /* \"#utility.yul\":17435:17653   */\n    tag_87:\n        /* \"#utility.yul\":17526:17530   */\n      0x00\n        /* \"#utility.yul\":17564:17566   */\n      0x20\n        /* \"#utility.yul\":17553:17562   */\n      dup3\n        /* \"#utility.yul\":17549:17567   */\n      add\n        /* \"#utility.yul\":17541:17567   */\n      swap1\n      pop\n        /* \"#utility.yul\":17577:17646   */\n      tag_619\n        /* \"#utility.yul\":17643:17644   */\n      0x00\n        /* \"#utility.yul\":17632:17641   */\n      dup4\n        /* \"#utility.yul\":17628:17645   */\n      add\n        /* \"#utility.yul\":17619:17625   */\n      dup5\n        /* \"#utility.yul\":17577:17646   */\n      tag_382\n      jump\t// in\n    tag_619:\n        /* \"#utility.yul\":17435:17653   */\n      swap3\n      swap2\n      pop\n      pop\n      jump\t// out\n        /* \"#utility.yul\":17659:18485   */\n    tag_96:\n        /* \"#utility.yul\":17896:17900   */\n      0x00\n        /* \"#utility.yul\":17934:17937   */\n      0x80\n        /* \"#utility.yul\":17923:17932   */\n      dup3\n        /* \"#utility.yul\":17919:17938   */\n      add\n        /* \"#utility.yul\":17911:17938   */\n      swap1\n      pop\n        /* \"#utility.yul\":17984:17993   */\n      dup2\n        /* \"#utility.yul\":17978:17982   */\n      dup2\n        /* \"#utility.yul\":17974:17994   */\n      sub\n        /* \"#utility.yul\":17970:17971   */\n      0x00\n        /* \"#utility.yul\":17959:17968   */\n      dup4\n        /* \"#utility.yul\":17955:17972   */\n      add\n        /* \"#utility.yul\":17948:17995   */\n      mstore\n        /* \"#utility.yul\":18012:18090   */\n      tag_621\n        /* \"#utility.yul\":18085:18089   */\n      dup2\n        /* \"#utility.yul\":18076:18082   */\n      dup8\n        /* \"#utility.yul\":18012:18090   */\n      tag_354\n      jump\t// in\n    tag_621:\n        /* \"#utility.yul\":18004:18090   */\n      swap1\n      pop\n        /* \"#utility.yul\":18137:18146   */\n      dup2\n        /* \"#utility.yul\":18131:18135   */\n      dup2\n        /* \"#utility.yul\":18127:18147   */\n      sub\n        /* \"#utility.yul\":18122:18124   */\n      0x20\n        /* \"#utility.yul\":18111:18120   */\n      dup4\n        /* \"#utility.yul\":18107:18125   */\n      add\n        /* \"#utility.yul\":18100:18148   */\n      mstore\n        /* \"#utility.yul\":18165:18243   */\n      tag_622\n        /* \"#utility.yul\":18238:18242   */\n      dup2\n        /* \"#utility.yul\":18229:18235   */\n      dup7\n        /* \"#utility.yul\":18165:18243   */\n      tag_354\n      jump\t// in\n    tag_622:\n        /* \"#utility.yul\":18157:18243   */\n      swap1\n      pop\n        /* \"#utility.yul\":18290:18299   */\n      dup2\n        /* \"#utility.yul\":18284:18288   */\n      dup2\n        /* \"#utility.yul\":18280:18300   */\n      sub\n        /* \"#utility.yul\":18275:18277   */\n      0x40\n        /* \"#utility.yul\":18264:18273   */\n      dup4\n        /* \"#utility.yul\":18260:18278   */\n      add\n        /* \"#utility.yul\":18253:18301   */\n      mstore\n        /* \"#utility.yul\":18318:18396   */\n      tag_623\n        /* \"#utility.yul\":18391:18395   */\n      dup2\n        /* \"#utility.yul\":18382:18388   */\n      dup6\n        /* \"#utility.yul\":18318:18396   */\n      tag_354\n      jump\t// in\n    tag_623:\n        /* \"#utility.yul\":18310:18396   */\n      swap1\n      pop\n        /* \"#utility.yul\":18406:18478   */\n      tag_624\n        /* \"#utility.yul\":18474:18476   */\n      0x60\n        /* \"#utility.yul\":18463:18472   */\n      dup4\n        /* \"#utility.yul\":18459:18477   */\n      add\n        /* \"#utility.yul\":18450:18456   */\n      dup5\n        /* \"#utility.yul\":18406:18478   */\n      tag_359\n      jump\t// in\n    tag_624:\n        /* \"#utility.yul\":17659:18485   */\n      swap6\n      swap5\n      pop\n      pop\n      pop\n      pop\n      pop\n      jump\t// out\n        /* \"#utility.yul\":18491:19145   */\n    tag_99:\n        /* \"#utility.yul\":18569:18575   */\n      0x00\n        /* \"#utility.yul\":18577:18583   */\n      dup1\n        /* \"#utility.yul\":18626:18628   */\n      0x40\n        /* \"#utility.yul\":18614:18623   */\n      dup4\n        /* \"#utility.yul\":18605:18612   */\n      dup6\n        /* \"#utility.yul\":18601:18624   */\n      sub\n        /* \"#utility.yul\":18597:18629   */\n      slt\n        /* \"#utility.yul\":18594:18713   */\n      iszero\n      tag_626\n      jumpi\n        /* \"#utility.yul\":18632:18711   */\n      tag_627\n      tag_344\n      jump\t// in\n    tag_627:\n        /* \"#utility.yul\":18594:18713   */\n    tag_626:\n        /* \"#utility.yul\":18752:18753   */\n      0x00\n        /* \"#utility.yul\":18777:18830   */\n      tag_628\n        /* \"#utility.yul\":18822:18829   */\n      dup6\n        /* \"#utility.yul\":18813:18819   */\n      dup3\n        /* \"#utility.yul\":18802:18811   */\n      dup7\n        /* \"#utility.yul\":18798:18820   */\n      add\n        /* \"#utility.yul\":18777:18830   */\n      tag_348\n      jump\t// in\n    tag_628:\n        /* \"#utility.yul\":18767:18830   */\n      swap3\n      pop\n        /* \"#utility.yul\":18723:18840   */\n      pop\n        /* \"#utility.yul\":18907:18909   */\n      0x20\n        /* \"#utility.yul\":18896:18905   */\n      dup4\n        /* \"#utility.yul\":18892:18910   */\n      add\n        /* \"#utility.yul\":18879:18911   */\n      calldataload\n        /* \"#utility.yul\":18938:18956   */\n      0xffffffffffffffff\n        /* \"#utility.yul\":18930:18936   */\n      dup2\n        /* \"#utility.yul\":18927:18957   */\n      gt\n        /* \"#utility.yul\":18924:19041   */\n      iszero\n      tag_629\n      jumpi\n        /* \"#utility.yul\":18960:19039   */\n      tag_630\n      tag_345\n      jump\t// in\n    tag_630:\n        /* \"#utility.yul\":18924:19041   */\n    tag_629:\n        /* \"#utility.yul\":19065:19128   */\n      tag_631\n        /* \"#utility.yul\":19120:19127   */\n      dup6\n        /* \"#utility.yul\":19111:19117   */\n      dup3\n        /* \"#utility.yul\":19100:19109   */\n      dup7\n        /* \"#utility.yul\":19096:19118   */\n      add\n        /* \"#utility.yul\":19065:19128   */\n      tag_367\n      jump\t// in\n    tag_631:\n        /* \"#utility.yul\":19055:19128   */\n      swap2\n      pop\n        /* \"#utility.yul\":18850:19138   */\n      pop\n        /* \"#utility.yul\":18491:19145   */\n      swap3\n      pop\n      swap3\n      swap1\n      pop\n      jump\t// out\n        /* \"#utility.yul\":19151:19985   */\n    tag_103:\n        /* \"#utility.yul\":19239:19245   */\n      0x00\n        /* \"#utility.yul\":19247:19253   */\n      dup1\n        /* \"#utility.yul\":19296:19298   */\n      0x40\n        /* \"#utility.yul\":19284:19293   */\n      dup4\n        /* \"#utility.yul\":19275:19282   */\n      dup6\n        /* \"#utility.yul\":19271:19294   */\n      sub\n        /* \"#utility.yul\":19267:19299   */\n      slt\n        /* \"#utility.yul\":19264:19383   */\n      iszero\n      tag_633\n      jumpi\n        /* \"#utility.yul\":19302:19381   */\n      tag_634\n      tag_344\n      jump\t// in\n    tag_634:\n        /* \"#utility.yul\":19264:19383   */\n    tag_633:\n        /* \"#utility.yul\":19450:19451   */\n      0x00\n        /* \"#utility.yul\":19439:19448   */\n      dup4\n        /* \"#utility.yul\":19435:19452   */\n      add\n        /* \"#utility.yul\":19422:19453   */\n      calldataload\n        /* \"#utility.yul\":19480:19498   */\n      0xffffffffffffffff\n        /* \"#utility.yul\":19472:19478   */\n      dup2\n        /* \"#utility.yul\":19469:19499   */\n      gt\n        /* \"#utility.yul\":19466:19583   */\n      iszero\n      tag_635\n      jumpi\n        /* \"#utility.yul\":19502:19581   */\n      tag_636\n      tag_345\n      jump\t// in\n    tag_636:\n        /* \"#utility.yul\":19466:19583   */\n    tag_635:\n        /* \"#utility.yul\":19607:19670   */\n      tag_637\n        /* \"#utility.yul\":19662:19669   */\n      dup6\n        /* \"#utility.yul\":19653:19659   */\n      dup3\n        /* \"#utility.yul\":19642:19651   */\n      dup7\n        /* \"#utility.yul\":19638:19660   */\n      add\n        /* \"#utility.yul\":19607:19670   */\n      tag_367\n      jump\t// in\n    tag_637:\n        /* \"#utility.yul\":19597:19670   */\n      swap3\n      pop\n        /* \"#utility.yul\":19393:19680   */\n      pop\n        /* \"#utility.yul\":19747:19749   */\n      0x20\n        /* \"#utility.yul\":19736:19745   */\n      dup4\n        /* \"#utility.yul\":19732:19750   */\n      add\n        /* \"#utility.yul\":19719:19751   */\n      calldataload\n        /* \"#utility.yul\":19778:19796   */\n      0xffffffffffffffff\n        /* \"#utility.yul\":19770:19776   */\n      dup2\n        /* \"#utility.yul\":19767:19797   */\n      gt\n        /* \"#utility.yul\":19764:19881   */\n      iszero\n      tag_638\n      jumpi\n        /* \"#utility.yul\":19800:19879   */\n      tag_639\n      tag_345\n      jump\t// in\n    tag_639:\n        /* \"#utility.yul\":19764:19881   */\n    tag_638:\n        /* \"#utility.yul\":19905:19968   */\n      tag_640\n        /* \"#utility.yul\":19960:19967   */\n      dup6\n        /* \"#utility.yul\":19951:19957   */\n      dup3\n        /* \"#utility.yul\":19940:19949   */\n      dup7\n        /* \"#utility.yul\":19936:19958   */\n      add\n        /* \"#utility.yul\":19905:19968   */\n      tag_367\n      jump\t// in\n    tag_640:\n        /* \"#utility.yul\":19895:19968   */\n      swap2\n      pop\n        /* \"#utility.yul\":19690:19978   */\n      pop\n        /* \"#utility.yul\":19151:19985   */\n      swap3\n      pop\n      swap3\n      swap1\n      pop\n      jump\t// out\n        /* \"#utility.yul\":19991:20213   */\n    tag_106:\n        /* \"#utility.yul\":20084:20088   */\n      0x00\n        /* \"#utility.yul\":20122:20124   */\n      0x20\n        /* \"#utility.yul\":20111:20120   */\n      dup3\n        /* \"#utility.yul\":20107:20125   */\n      add\n        /* \"#utility.yul\":20099:20125   */\n      swap1\n      pop\n        /* \"#utility.yul\":20135:20206   */\n      tag_642\n        /* \"#utility.yul\":20203:20204   */\n      0x00\n        /* \"#utility.yul\":20192:20201   */\n      dup4\n        /* \"#utility.yul\":20188:20205   */\n      add\n        /* \"#utility.yul\":20179:20185   */\n      dup5\n        /* \"#utility.yul\":20135:20206   */\n      tag_349\n      jump\t// in\n    tag_642:\n        /* \"#utility.yul\":19991:20213   */\n      swap3\n      swap2\n      pop\n      pop\n      jump\t// out\n        /* \"#utility.yul\":20219:20548   */\n    tag_109:\n        /* \"#utility.yul\":20278:20284   */\n      0x00\n        /* \"#utility.yul\":20327:20329   */\n      0x20\n        /* \"#utility.yul\":20315:20324   */\n      dup3\n        /* \"#utility.yul\":20306:20313   */\n      dup5\n        /* \"#utility.yul\":20302:20325   */\n      sub\n        /* \"#utility.yul\":20298:20330   */\n      slt\n        /* \"#utility.yul\":20295:20414   */\n      iszero\n      tag_644\n      jumpi\n        /* \"#utility.yul\":20333:20412   */\n      tag_645\n      tag_344\n      jump\t// in\n    tag_645:\n        /* \"#utility.yul\":20295:20414   */\n    tag_644:\n        /* \"#utility.yul\":20453:20454   */\n      0x00\n        /* \"#utility.yul\":20478:20531   */\n      tag_646\n        /* \"#utility.yul\":20523:20530   */\n      dup5\n        /* \"#utility.yul\":20514:20520   */\n      dup3\n        /* \"#utility.yul\":20503:20512   */\n      dup6\n        /* \"#utility.yul\":20499:20521   */\n      add\n        /* \"#utility.yul\":20478:20531   */\n      tag_376\n      jump\t// in\n    tag_646:\n        /* \"#utility.yul\":20468:20531   */\n      swap2\n      pop\n        /* \"#utility.yul\":20424:20541   */\n      pop\n        /* \"#utility.yul\":20219:20548   */\n      swap3\n      swap2\n      pop\n      pop\n      jump\t// out\n        /* \"#utility.yul\":20554:21388   */\n    tag_116:\n        /* \"#utility.yul\":20793:20797   */\n      0x00\n        /* \"#utility.yul\":20831:20834   */\n      0xa0\n        /* \"#utility.yul\":20820:20829   */\n      dup3\n        /* \"#utility.yul\":20816:20835   */\n      add\n        /* \"#utility.yul\":20808:20835   */\n      swap1\n      pop\n        /* \"#utility.yul\":20845:20916   */\n      tag_648\n        /* \"#utility.yul\":20913:20914   */\n      0x00\n        /* \"#utility.yul\":20902:20911   */\n      dup4\n        /* \"#utility.yul\":20898:20915   */\n      add\n        /* \"#utility.yul\":20889:20895   */\n      dup9\n        /* \"#utility.yul\":20845:20916   */\n      tag_349\n      jump\t// in\n    tag_648:\n        /* \"#utility.yul\":20963:20972   */\n      dup2\n        /* \"#utility.yul\":20957:20961   */\n      dup2\n        /* \"#utility.yul\":20953:20973   */\n      sub\n        /* \"#utility.yul\":20948:20950   */\n      0x20\n        /* \"#utility.yul\":20937:20946   */\n      dup4\n        /* \"#utility.yul\":20933:20951   */\n      add\n        /* \"#utility.yul\":20926:20974   */\n      mstore\n        /* \"#utility.yul\":20991:21069   */\n      tag_649\n        /* \"#utility.yul\":21064:21068   */\n      dup2\n        /* \"#utility.yul\":21055:21061   */\n      dup8\n        /* \"#utility.yul\":20991:21069   */\n      tag_354\n      jump\t// in\n    tag_649:\n        /* \"#utility.yul\":20983:21069   */\n      swap1\n      pop\n        /* \"#utility.yul\":21116:21125   */\n      dup2\n        /* \"#utility.yul\":21110:21114   */\n      dup2\n        /* \"#utility.yul\":21106:21126   */\n      sub\n        /* \"#utility.yul\":21101:21103   */\n      0x40\n        /* \"#utility.yul\":21090:21099   */\n      dup4\n        /* \"#utility.yul\":21086:21104   */\n      add\n        /* \"#utility.yul\":21079:21127   */\n      mstore\n        /* \"#utility.yul\":21144:21222   */\n      tag_650\n        /* \"#utility.yul\":21217:21221   */\n      dup2\n        /* \"#utility.yul\":21208:21214   */\n      dup7\n        /* \"#utility.yul\":21144:21222   */\n      tag_354\n      jump\t// in\n    tag_650:\n        /* \"#utility.yul\":21136:21222   */\n      swap1\n      pop\n        /* \"#utility.yul\":21232:21304   */\n      tag_651\n        /* \"#utility.yul\":21300:21302   */\n      0x60\n        /* \"#utility.yul\":21289:21298   */\n      dup4\n        /* \"#utility.yul\":21285:21303   */\n      add\n        /* \"#utility.yul\":21276:21282   */\n      dup6\n        /* \"#utility.yul\":21232:21304   */\n      tag_349\n      jump\t// in\n    tag_651:\n        /* \"#utility.yul\":21314:21381   */\n      tag_652\n        /* \"#utility.yul\":21376:21379   */\n      0x80\n        /* \"#utility.yul\":21365:21374   */\n      dup4\n        /* \"#utility.yul\":21361:21380   */\n      add\n        /* \"#utility.yul\":21352:21358   */\n      dup5\n        /* \"#utility.yul\":21314:21381   */\n      tag_356\n      jump\t// in\n    tag_652:\n        /* \"#utility.yul\":20554:21388   */\n      swap7\n      swap6\n      pop\n      pop\n      pop\n      pop\n      pop\n      pop\n      jump\t// out\n        /* \"#utility.yul\":21394:21574   */\n    tag_383:\n        /* \"#utility.yul\":21442:21519   */\n      0x4e487b7100000000000000000000000000000000000000000000000000000000\n        /* \"#utility.yul\":21439:21440   */\n      0x00\n        /* \"#utility.yul\":21432:21520   */\n      mstore\n        /* \"#utility.yul\":21539:21543   */\n      0x22\n        /* \"#utility.yul\":21536:21537   */\n      0x04\n        /* \"#utility.yul\":21529:21544   */\n      mstore\n        /* \"#utility.yul\":21563:21567   */\n      0x24\n        /* \"#utility.yul\":21560:21561   */\n      0x00\n        /* \"#utility.yul\":21553:21568   */\n      revert\n        /* \"#utility.yul\":21580:21900   */\n    tag_127:\n        /* \"#utility.yul\":21624:21630   */\n      0x00\n        /* \"#utility.yul\":21661:21662   */\n      0x02\n        /* \"#utility.yul\":21655:21659   */\n      dup3\n        /* \"#utility.yul\":21651:21663   */\n      div\n        /* \"#utility.yul\":21641:21663   */\n      swap1\n      pop\n        /* \"#utility.yul\":21708:21709   */\n      0x01\n        /* \"#utility.yul\":21702:21706   */\n      dup3\n        /* \"#utility.yul\":21698:21710   */\n      and\n        /* \"#utility.yul\":21729:21747   */\n      dup1\n        /* \"#utility.yul\":21719:21800   */\n      tag_655\n      jumpi\n        /* \"#utility.yul\":21785:21789   */\n      0x7f\n        /* \"#utility.yul\":21777:21783   */\n      dup3\n        /* \"#utility.yul\":21773:21790   */\n      and\n        /* \"#utility.yul\":21763:21790   */\n      swap2\n      pop\n        /* \"#utility.yul\":21719:21800   */\n    tag_655:\n        /* \"#utility.yul\":21847:21849   */\n      0x20\n        /* \"#utility.yul\":21839:21845   */\n      dup3\n        /* \"#utility.yul\":21836:21850   */\n      lt\n        /* \"#utility.yul\":21816:21834   */\n      dup2\n        /* \"#utility.yul\":21813:21851   */\n      sub\n        /* \"#utility.yul\":21810:21894   */\n      tag_656\n      jumpi\n        /* \"#utility.yul\":21866:21884   */\n      tag_657\n      tag_383\n      jump\t// in\n    tag_657:\n        /* \"#utility.yul\":21810:21894   */\n    tag_656:\n        /* \"#utility.yul\":21631:21900   */\n      pop\n        /* \"#utility.yul\":21580:21900   */\n      swap2\n      swap1\n      pop\n      jump\t// out\n        /* \"#utility.yul\":21906:22076   */\n    tag_384:\n        /* \"#utility.yul\":22046:22068   */\n      0x4261746368204964206973207265717569726564000000000000000000000000\n        /* \"#utility.yul\":22042:22043   */\n      0x00\n        /* \"#utility.yul\":22034:22040   */\n      dup3\n        /* \"#utility.yul\":22030:22044   */\n      add\n        /* \"#utility.yul\":22023:22069   */\n      mstore\n        /* \"#utility.yul\":21906:22076   */\n      pop\n      jump\t// out\n        /* \"#utility.yul\":22082:22448   */\n    tag_385:\n        /* \"#utility.yul\":22224:22227   */\n      0x00\n        /* \"#utility.yul\":22245:22312   */\n      tag_660\n        /* \"#utility.yul\":22309:22311   */\n      0x14\n        /* \"#utility.yul\":22304:22307   */\n      dup4\n        /* \"#utility.yul\":22245:22312   */\n      tag_351\n      jump\t// in\n    tag_660:\n        /* \"#utility.yul\":22238:22312   */\n      swap2\n      pop\n        /* \"#utility.yul\":22321:22414   */\n      tag_661\n        /* \"#utility.yul\":22410:22413   */\n      dup3\n        /* \"#utility.yul\":22321:22414   */\n      tag_384\n      jump\t// in\n    tag_661:\n        /* \"#utility.yul\":22439:22441   */\n      0x20\n        /* \"#utility.yul\":22434:22437   */\n      dup3\n        /* \"#utility.yul\":22430:22442   */\n      add\n        /* \"#utility.yul\":22423:22442   */\n      swap1\n      pop\n        /* \"#utility.yul\":22082:22448   */\n      swap2\n      swap1\n      pop\n      jump\t// out\n        /* \"#utility.yul\":22454:22873   */\n    tag_174:\n        /* \"#utility.yul\":22620:22624   */\n      0x00\n        /* \"#utility.yul\":22658:22660   */\n      0x20\n        /* \"#utility.yul\":22647:22656   */\n      dup3\n        /* \"#utility.yul\":22643:22661   */\n      add\n        /* \"#utility.yul\":22635:22661   */\n      swap1\n      pop\n        /* \"#utility.yul\":22707:22716   */\n      dup2\n        /* \"#utility.yul\":22701:22705   */\n      dup2\n        /* \"#utility.yul\":22697:22717   */\n      sub\n        /* \"#utility.yul\":22693:22694   */\n      0x00\n        /* \"#utility.yul\":22682:22691   */\n      dup4\n        /* \"#utility.yul\":22678:22695   */\n      add\n        /* \"#utility.yul\":22671:22718   */\n      mstore\n        /* \"#utility.yul\":22735:22866   */\n      tag_663\n        /* \"#utility.yul\":22861:22865   */\n      dup2\n        /* \"#utility.yul\":22735:22866   */\n      tag_385\n      jump\t// in\n    tag_663:\n        /* \"#utility.yul\":22727:22866   */\n      swap1\n      pop\n        /* \"#utility.yul\":22454:22873   */\n      swap2\n      swap1\n      pop\n      jump\t// out\n        /* \"#utility.yul\":22879:23047   */\n    tag_386:\n        /* \"#utility.yul\":23019:23039   */\n      0x4974656d206c6973742072657175697265640000000000000000000000000000\n        /* \"#utility.yul\":23015:23016   */\n      0x00\n        /* \"#utility.yul\":23007:23013   */\n      dup3\n        /* \"#utility.yul\":23003:23017   */\n      add\n        /* \"#utility.yul\":22996:23040   */\n      mstore\n        /* \"#utility.yul\":22879:23047   */\n      pop\n      jump\t// out\n        /* \"#utility.yul\":23053:23419   */\n    tag_387:\n        /* \"#utility.yul\":23195:23198   */\n      0x00\n        /* \"#utility.yul\":23216:23283   */\n      tag_666\n        /* \"#utility.yul\":23280:23282   */\n      0x12\n        /* \"#utility.yul\":23275:23278   */\n      dup4\n        /* \"#utility.yul\":23216:23283   */\n      tag_351\n      jump\t// in\n    tag_666:\n        /* \"#utility.yul\":23209:23283   */\n      swap2\n      pop\n        /* \"#utility.yul\":23292:23385   */\n      tag_667\n        /* \"#utility.yul\":23381:23384   */\n      dup3\n        /* \"#utility.yul\":23292:23385   */\n      tag_386\n      jump\t// in\n    tag_667:\n        /* \"#utility.yul\":23410:23412   */\n      0x20\n        /* \"#utility.yul\":23405:23408   */\n      dup3\n        /* \"#utility.yul\":23401:23413   */\n      add\n        /* \"#utility.yul\":23394:23413   */\n      swap1\n      pop\n        /* \"#utility.yul\":23053:23419   */\n      swap2\n      swap1\n      pop\n      jump\t// out\n        /* \"#utility.yul\":23425:23844   */\n    tag_177:\n        /* \"#utility.yul\":23591:23595   */\n      0x00\n        /* \"#utility.yul\":23629:23631   */\n      0x20\n        /* \"#utility.yul\":23618:23627   */\n      dup3\n        /* \"#utility.yul\":23614:23632   */\n      add\n        /* \"#utility.yul\":23606:23632   */\n      swap1\n      pop\n        /* \"#utility.yul\":23678:23687   */\n      dup2\n        /* \"#utility.yul\":23672:23676   */\n      dup2\n        /* \"#utility.yul\":23668:23688   */\n      sub\n        /* \"#utility.yul\":23664:23665   */\n      0x00\n        /* \"#utility.yul\":23653:23662   */\n      dup4\n        /* \"#utility.yul\":23649:23666   */\n      add\n        /* \"#utility.yul\":23642:23689   */\n      mstore\n        /* \"#utility.yul\":23706:23837   */\n      tag_669\n        /* \"#utility.yul\":23832:23836   */\n      dup2\n        /* \"#utility.yul\":23706:23837   */\n      tag_387\n      jump\t// in\n    tag_669:\n        /* \"#utility.yul\":23698:23837   */\n      swap1\n      pop\n        /* \"#utility.yul\":23425:23844   */\n      swap2\n      swap1\n      pop\n      jump\t// out\n        /* \"#utility.yul\":23850:24030   */\n    tag_185:\n        /* \"#utility.yul\":23898:23975   */\n      0x4e487b7100000000000000000000000000000000000000000000000000000000\n        /* \"#utility.yul\":23895:23896   */\n      0x00\n        /* \"#utility.yul\":23888:23976   */\n      mstore\n        /* \"#utility.yul\":23995:23999   */\n      0x32\n        /* \"#utility.yul\":23992:23993   */\n      0x04\n        /* \"#utility.yul\":23985:24000   */\n      mstore\n        /* \"#utility.yul\":24019:24023   */\n      0x24\n        /* \"#utility.yul\":24016:24017   */\n      0x00\n        /* \"#utility.yul\":24009:24024   */\n      revert\n        /* \"#utility.yul\":24036:24209   */\n    tag_388:\n        /* \"#utility.yul\":24176:24201   */\n      0x4c61676f732043656e7472616c2057617265686f757365000000000000000000\n        /* \"#utility.yul\":24172:24173   */\n      0x00\n        /* \"#utility.yul\":24164:24170   */\n      dup3\n        /* \"#utility.yul\":24160:24174   */\n      add\n        /* \"#utility.yul\":24153:24202   */\n      mstore\n        /* \"#utility.yul\":24036:24209   */\n      pop\n      jump\t// out\n        /* \"#utility.yul\":24215:24581   */\n    tag_389:\n        /* \"#utility.yul\":24357:24360   */\n      0x00\n        /* \"#utility.yul\":24378:24445   */\n      tag_673\n        /* \"#utility.yul\":24442:24444   */\n      0x17\n        /* \"#utility.yul\":24437:24440   */\n      dup4\n        /* \"#utility.yul\":24378:24445   */\n      tag_351\n      jump\t// in\n    tag_673:\n        /* \"#utility.yul\":24371:24445   */\n      swap2\n      pop\n        /* \"#utility.yul\":24454:24547   */\n      tag_674\n        /* \"#utility.yul\":24543:24546   */\n      dup3\n        /* \"#utility.yul\":24454:24547   */\n      tag_388\n      jump\t// in\n    tag_674:\n        /* \"#utility.yul\":24572:24574   */\n      0x20\n        /* \"#utility.yul\":24567:24570   */\n      dup3\n        /* \"#utility.yul\":24563:24575   */\n      add\n        /* \"#utility.yul\":24556:24575   */\n      swap1\n      pop\n        /* \"#utility.yul\":24215:24581   */\n      swap2\n      swap1\n      pop\n      jump\t// out\n        /* \"#utility.yul\":24587:25116   */\n    tag_187:\n        /* \"#utility.yul\":24781:24785   */\n      0x00\n        /* \"#utility.yul\":24819:24821   */\n      0x40\n        /* \"#utility.yul\":24808:24817   */\n      dup3\n        /* \"#utility.yul\":24804:24822   */\n      add\n        /* \"#utility.yul\":24796:24822   */\n      swap1\n      pop\n        /* \"#utility.yul\":24832:24903   */\n      tag_676\n        /* \"#utility.yul\":24900:24901   */\n      0x00\n        /* \"#utility.yul\":24889:24898   */\n      dup4\n        /* \"#utility.yul\":24885:24902   */\n      add\n        /* \"#utility.yul\":24876:24882   */\n      dup5\n        /* \"#utility.yul\":24832:24903   */\n      tag_359\n      jump\t// in\n    tag_676:\n        /* \"#utility.yul\":24950:24959   */\n      dup2\n        /* \"#utility.yul\":24944:24948   */\n      dup2\n        /* \"#utility.yul\":24940:24960   */\n      sub\n        /* \"#utility.yul\":24935:24937   */\n      0x20\n        /* \"#utility.yul\":24924:24933   */\n      dup4\n        /* \"#utility.yul\":24920:24938   */\n      add\n        /* \"#utility.yul\":24913:24961   */\n      mstore\n        /* \"#utility.yul\":24978:25109   */\n      tag_677\n        /* \"#utility.yul\":25104:25108   */\n      dup2\n        /* \"#utility.yul\":24978:25109   */\n      tag_389\n      jump\t// in\n    tag_677:\n        /* \"#utility.yul\":24970:25109   */\n      swap1\n      pop\n        /* \"#utility.yul\":24587:25116   */\n      swap3\n      swap2\n      pop\n      pop\n      jump\t// out\n        /* \"#utility.yul\":25122:25342   */\n    tag_390:\n        /* \"#utility.yul\":25262:25296   */\n      0x4974656d20616e64207175616e74697479206c656e677468206d69736d617463\n        /* \"#utility.yul\":25258:25259   */\n      0x00\n        /* \"#utility.yul\":25250:25256   */\n      dup3\n        /* \"#utility.yul\":25246:25260   */\n      add\n        /* \"#utility.yul\":25239:25297   */\n      mstore\n        /* \"#utility.yul\":25331:25334   */\n      0x6800000000000000000000000000000000000000000000000000000000000000\n        /* \"#utility.yul\":25326:25328   */\n      0x20\n        /* \"#utility.yul\":25318:25324   */\n      dup3\n        /* \"#utility.yul\":25314:25329   */\n      add\n        /* \"#utility.yul\":25307:25335   */\n      mstore\n        /* \"#utility.yul\":25122:25342   */\n      pop\n      jump\t// out\n        /* \"#utility.yul\":25348:25714   */\n    tag_391:\n        /* \"#utility.yul\":25490:25493   */\n      0x00\n        /* \"#utility.yul\":25511:25578   */\n      tag_680\n        /* \"#utility.yul\":25575:25577   */\n      0x21\n        /* \"#utility.yul\":25570:25573   */\n      dup4\n        /* \"#utility.yul\":25511:25578   */\n      tag_351\n      jump\t// in\n    tag_680:\n        /* \"#utility.yul\":25504:25578   */\n      swap2\n      pop\n        /* \"#utility.yul\":25587:25680   */\n      tag_681\n        /* \"#utility.yul\":25676:25679   */\n      dup3\n        /* \"#utility.yul\":25587:25680   */\n      tag_390\n      jump\t// in\n    tag_681:\n        /* \"#utility.yul\":25705:25707   */\n      0x40\n        /* \"#utility.yul\":25700:25703   */\n      dup3\n        /* \"#utility.yul\":25696:25708   */\n      add\n        /* \"#utility.yul\":25689:25708   */\n      swap1\n      pop\n        /* \"#utility.yul\":25348:25714   */\n      swap2\n      swap1\n      pop\n      jump\t// out\n        /* \"#utility.yul\":25720:26139   */\n    tag_191:\n        /* \"#utility.yul\":25886:25890   */\n      0x00\n        /* \"#utility.yul\":25924:25926   */\n      0x20\n        /* \"#utility.yul\":25913:25922   */\n      dup3\n        /* \"#utility.yul\":25909:25927   */\n      add\n        /* \"#utility.yul\":25901:25927   */\n      swap1\n      pop\n        /* \"#utility.yul\":25973:25982   */\n      dup2\n        /* \"#utility.yul\":25967:25971   */\n      dup2\n        /* \"#utility.yul\":25963:25983   */\n      sub\n        /* \"#utility.yul\":25959:25960   */\n      0x00\n        /* \"#utility.yul\":25948:25957   */\n      dup4\n        /* \"#utility.yul\":25944:25961   */\n      add\n        /* \"#utility.yul\":25937:25984   */\n      mstore\n        /* \"#utility.yul\":26001:26132   */\n      tag_683\n        /* \"#utility.yul\":26127:26131   */\n      dup2\n        /* \"#utility.yul\":26001:26132   */\n      tag_391\n      jump\t// in\n    tag_683:\n        /* \"#utility.yul\":25993:26132   */\n      swap1\n      pop\n        /* \"#utility.yul\":25720:26139   */\n      swap2\n      swap1\n      pop\n      jump\t// out\n        /* \"#utility.yul\":26145:26315   */\n    tag_392:\n        /* \"#utility.yul\":26285:26307   */\n      0x4261746368204944206973207265717569726564000000000000000000000000\n        /* \"#utility.yul\":26281:26282   */\n      0x00\n        /* \"#utility.yul\":26273:26279   */\n      dup3\n        /* \"#utility.yul\":26269:26283   */\n      add\n        /* \"#utility.yul\":26262:26308   */\n      mstore\n        /* \"#utility.yul\":26145:26315   */\n      pop\n      jump\t// out\n        /* \"#utility.yul\":26321:26687   */\n    tag_393:\n        /* \"#utility.yul\":26463:26466   */\n      0x00\n        /* \"#utility.yul\":26484:26551   */\n      tag_686\n        /* \"#utility.yul\":26548:26550   */\n      0x14\n        /* \"#utility.yul\":26543:26546   */\n      dup4\n        /* \"#utility.yul\":26484:26551   */\n      tag_351\n      jump\t// in\n    tag_686:\n        /* \"#utility.yul\":26477:26551   */\n      swap2\n      pop\n        /* \"#utility.yul\":26560:26653   */\n      tag_687\n        /* \"#utility.yul\":26649:26652   */\n      dup3\n        /* \"#utility.yul\":26560:26653   */\n      tag_392\n      jump\t// in\n    tag_687:\n        /* \"#utility.yul\":26678:26680   */\n      0x20\n        /* \"#utility.yul\":26673:26676   */\n      dup3\n        /* \"#utility.yul\":26669:26681   */\n      add\n        /* \"#utility.yul\":26662:26681   */\n      swap1\n      pop\n        /* \"#utility.yul\":26321:26687   */\n      swap2\n      swap1\n      pop\n      jump\t// out\n        /* \"#utility.yul\":26693:27112   */\n    tag_205:\n        /* \"#utility.yul\":26859:26863   */\n      0x00\n        /* \"#utility.yul\":26897:26899   */\n      0x20\n        /* \"#utility.yul\":26886:26895   */\n      dup3\n        /* \"#utility.yul\":26882:26900   */\n      add\n        /* \"#utility.yul\":26874:26900   */\n      swap1\n      pop\n        /* \"#utility.yul\":26946:26955   */\n      dup2\n        /* \"#utility.yul\":26940:26944   */\n      dup2\n        /* \"#utility.yul\":26936:26956   */\n      sub\n        /* \"#utility.yul\":26932:26933   */\n      0x00\n        /* \"#utility.yul\":26921:26930   */\n      dup4\n        /* \"#utility.yul\":26917:26934   */\n      add\n        /* \"#utility.yul\":26910:26957   */\n      mstore\n        /* \"#utility.yul\":26974:27105   */\n      tag_689\n        /* \"#utility.yul\":27100:27104   */\n      dup2\n        /* \"#utility.yul\":26974:27105   */\n      tag_393\n      jump\t// in\n    tag_689:\n        /* \"#utility.yul\":26966:27105   */\n      swap1\n      pop\n        /* \"#utility.yul\":26693:27112   */\n      swap2\n      swap1\n      pop\n      jump\t// out\n        /* \"#utility.yul\":27118:27529   */\n    tag_212:\n        /* \"#utility.yul\":27253:27257   */\n      0x00\n        /* \"#utility.yul\":27291:27293   */\n      0x40\n        /* \"#utility.yul\":27280:27289   */\n      dup3\n        /* \"#utility.yul\":27276:27294   */\n      add\n        /* \"#utility.yul\":27268:27294   */\n      swap1\n      pop\n        /* \"#utility.yul\":27340:27349   */\n      dup2\n        /* \"#utility.yul\":27334:27338   */\n      dup2\n        /* \"#utility.yul\":27330:27350   */\n      sub\n        /* \"#utility.yul\":27326:27327   */\n      0x00\n        /* \"#utility.yul\":27315:27324   */\n      dup4\n        /* \"#utility.yul\":27311:27328   */\n      add\n        /* \"#utility.yul\":27304:27351   */\n      mstore\n        /* \"#utility.yul\":27368:27446   */\n      tag_691\n        /* \"#utility.yul\":27441:27445   */\n      dup2\n        /* \"#utility.yul\":27432:27438   */\n      dup6\n        /* \"#utility.yul\":27368:27446   */\n      tag_354\n      jump\t// in\n    tag_691:\n        /* \"#utility.yul\":27360:27446   */\n      swap1\n      pop\n        /* \"#utility.yul\":27456:27522   */\n      tag_692\n        /* \"#utility.yul\":27518:27520   */\n      0x20\n        /* \"#utility.yul\":27507:27516   */\n      dup4\n        /* \"#utility.yul\":27503:27521   */\n      add\n        /* \"#utility.yul\":27494:27500   */\n      dup5\n        /* \"#utility.yul\":27456:27522   */\n      tag_356\n      jump\t// in\n    tag_692:\n        /* \"#utility.yul\":27118:27529   */\n      swap4\n      swap3\n      pop\n      pop\n      pop\n      jump\t// out\n        /* \"#utility.yul\":27535:27640   */\n    tag_394:\n        /* \"#utility.yul\":27571:27578   */\n      0x00\n        /* \"#utility.yul\":27611:27633   */\n      0xffffffffffffffffffff\n        /* \"#utility.yul\":27604:27609   */\n      dup3\n        /* \"#utility.yul\":27600:27634   */\n      and\n        /* \"#utility.yul\":27589:27634   */\n      swap1\n      pop\n        /* \"#utility.yul\":27535:27640   */\n      swap2\n      swap1\n      pop\n      jump\t// out\n        /* \"#utility.yul\":27646:27766   */\n    tag_395:\n        /* \"#utility.yul\":27718:27741   */\n      tag_695\n        /* \"#utility.yul\":27735:27740   */\n      dup2\n        /* \"#utility.yul\":27718:27741   */\n      tag_394\n      jump\t// in\n    tag_695:\n        /* \"#utility.yul\":27711:27716   */\n      dup2\n        /* \"#utility.yul\":27708:27742   */\n      eq\n        /* \"#utility.yul\":27698:27760   */\n      tag_696\n      jumpi\n        /* \"#utility.yul\":27756:27757   */\n      0x00\n        /* \"#utility.yul\":27753:27754   */\n      dup1\n        /* \"#utility.yul\":27746:27758   */\n      revert\n        /* \"#utility.yul\":27698:27760   */\n    tag_696:\n        /* \"#utility.yul\":27646:27766   */\n      pop\n      jump\t// out\n        /* \"#utility.yul\":27772:27913   */\n    tag_396:\n        /* \"#utility.yul\":27828:27833   */\n      0x00\n        /* \"#utility.yul\":27859:27865   */\n      dup2\n        /* \"#utility.yul\":27853:27866   */\n      mload\n        /* \"#utility.yul\":27844:27866   */\n      swap1\n      pop\n        /* \"#utility.yul\":27875:27907   */\n      tag_698\n        /* \"#utility.yul\":27901:27906   */\n      dup2\n        /* \"#utility.yul\":27875:27907   */\n      tag_395\n      jump\t// in\n    tag_698:\n        /* \"#utility.yul\":27772:27913   */\n      swap3\n      swap2\n      pop\n      pop\n      jump\t// out\n        /* \"#utility.yul\":27919:28039   */\n    tag_397:\n        /* \"#utility.yul\":27991:28014   */\n      tag_700\n        /* \"#utility.yul\":28008:28013   */\n      dup2\n        /* \"#utility.yul\":27991:28014   */\n      tag_381\n      jump\t// in\n    tag_700:\n        /* \"#utility.yul\":27984:27989   */\n      dup2\n        /* \"#utility.yul\":27981:28015   */\n      eq\n        /* \"#utility.yul\":27971:28033   */\n      tag_701\n      jumpi\n        /* \"#utility.yul\":28029:28030   */\n      0x00\n        /* \"#utility.yul\":28026:28027   */\n      dup1\n        /* \"#utility.yul\":28019:28031   */\n      revert\n        /* \"#utility.yul\":27971:28033   */\n    tag_701:\n        /* \"#utility.yul\":27919:28039   */\n      pop\n      jump\t// out\n        /* \"#utility.yul\":28045:28186   */\n    tag_398:\n        /* \"#utility.yul\":28101:28106   */\n      0x00\n        /* \"#utility.yul\":28132:28138   */\n      dup2\n        /* \"#utility.yul\":28126:28139   */\n      mload\n        /* \"#utility.yul\":28117:28139   */\n      swap1\n      pop\n        /* \"#utility.yul\":28148:28180   */\n      tag_703\n        /* \"#utility.yul\":28174:28179   */\n      dup2\n        /* \"#utility.yul\":28148:28180   */\n      tag_397\n      jump\t// in\n    tag_703:\n        /* \"#utility.yul\":28045:28186   */\n      swap3\n      swap2\n      pop\n      pop\n      jump\t// out\n        /* \"#utility.yul\":28192:28335   */\n    tag_399:\n        /* \"#utility.yul\":28249:28254   */\n      0x00\n        /* \"#utility.yul\":28280:28286   */\n      dup2\n        /* \"#utility.yul\":28274:28287   */\n      mload\n        /* \"#utility.yul\":28265:28287   */\n      swap1\n      pop\n        /* \"#utility.yul\":28296:28329   */\n      tag_705\n        /* \"#utility.yul\":28323:28328   */\n      dup2\n        /* \"#utility.yul\":28296:28329   */\n      tag_347\n      jump\t// in\n    tag_705:\n        /* \"#utility.yul\":28192:28335   */\n      swap3\n      swap2\n      pop\n      pop\n      jump\t// out\n        /* \"#utility.yul\":28341:29312   */\n    tag_232:\n        /* \"#utility.yul\":28444:28450   */\n      0x00\n        /* \"#utility.yul\":28452:28458   */\n      dup1\n        /* \"#utility.yul\":28460:28466   */\n      0x00\n        /* \"#utility.yul\":28468:28474   */\n      dup1\n        /* \"#utility.yul\":28476:28482   */\n      0x00\n        /* \"#utility.yul\":28525:28528   */\n      0xa0\n        /* \"#utility.yul\":28513:28522   */\n      dup7\n        /* \"#utility.yul\":28504:28511   */\n      dup9\n        /* \"#utility.yul\":28500:28523   */\n      sub\n        /* \"#utility.yul\":28496:28529   */\n      slt\n        /* \"#utility.yul\":28493:28613   */\n      iszero\n      tag_707\n      jumpi\n        /* \"#utility.yul\":28532:28611   */\n      tag_708\n      tag_344\n      jump\t// in\n    tag_708:\n        /* \"#utility.yul\":28493:28613   */\n    tag_707:\n        /* \"#utility.yul\":28652:28653   */\n      0x00\n        /* \"#utility.yul\":28677:28740   */\n      tag_709\n        /* \"#utility.yul\":28732:28739   */\n      dup9\n        /* \"#utility.yul\":28723:28729   */\n      dup3\n        /* \"#utility.yul\":28712:28721   */\n      dup10\n        /* \"#utility.yul\":28708:28730   */\n      add\n        /* \"#utility.yul\":28677:28740   */\n      tag_396\n      jump\t// in\n    tag_709:\n        /* \"#utility.yul\":28667:28740   */\n      swap6\n      pop\n        /* \"#utility.yul\":28623:28750   */\n      pop\n        /* \"#utility.yul\":28789:28791   */\n      0x20\n        /* \"#utility.yul\":28815:28878   */\n      tag_710\n        /* \"#utility.yul\":28870:28877   */\n      dup9\n        /* \"#utility.yul\":28861:28867   */\n      dup3\n        /* \"#utility.yul\":28850:28859   */\n      dup10\n        /* \"#utility.yul\":28846:28868   */\n      add\n        /* \"#utility.yul\":28815:28878   */\n      tag_398\n      jump\t// in\n    tag_710:\n        /* \"#utility.yul\":28805:28878   */\n      swap5\n      pop\n        /* \"#utility.yul\":28760:28888   */\n      pop\n        /* \"#utility.yul\":28927:28929   */\n      0x40\n        /* \"#utility.yul\":28953:29017   */\n      tag_711\n        /* \"#utility.yul\":29009:29016   */\n      dup9\n        /* \"#utility.yul\":29000:29006   */\n      dup3\n        /* \"#utility.yul\":28989:28998   */\n      dup10\n        /* \"#utility.yul\":28985:29007   */\n      add\n        /* \"#utility.yul\":28953:29017   */\n      tag_399\n      jump\t// in\n    tag_711:\n        /* \"#utility.yul\":28943:29017   */\n      swap4\n      pop\n        /* \"#utility.yul\":28898:29027   */\n      pop\n        /* \"#utility.yul\":29066:29068   */\n      0x60\n        /* \"#utility.yul\":29092:29156   */\n      tag_712\n        /* \"#utility.yul\":29148:29155   */\n      dup9\n        /* \"#utility.yul\":29139:29145   */\n      dup3\n        /* \"#utility.yul\":29128:29137   */\n      dup10\n        /* \"#utility.yul\":29124:29146   */\n      add\n        /* \"#utility.yul\":29092:29156   */\n      tag_399\n      jump\t// in\n    tag_712:\n        /* \"#utility.yul\":29082:29156   */\n      swap3\n      pop\n        /* \"#utility.yul\":29037:29166   */\n      pop\n        /* \"#utility.yul\":29205:29208   */\n      0x80\n        /* \"#utility.yul\":29232:29295   */\n      tag_713\n        /* \"#utility.yul\":29287:29294   */\n      dup9\n        /* \"#utility.yul\":29278:29284   */\n      dup3\n        /* \"#utility.yul\":29267:29276   */\n      dup10\n        /* \"#utility.yul\":29263:29285   */\n      add\n        /* \"#utility.yul\":29232:29295   */\n      tag_396\n      jump\t// in\n    tag_713:\n        /* \"#utility.yul\":29222:29295   */\n      swap2\n      pop\n        /* \"#utility.yul\":29176:29305   */\n      pop\n        /* \"#utility.yul\":28341:29312   */\n      swap3\n      swap6\n      pop\n      swap3\n      swap6\n      swap1\n      swap4\n      pop\n      jump\t// out\n        /* \"#utility.yul\":29318:29486   */\n    tag_400:\n        /* \"#utility.yul\":29458:29478   */\n      0x496e76616c69642070726f647563742049440000000000000000000000000000\n        /* \"#utility.yul\":29454:29455   */\n      0x00\n        /* \"#utility.yul\":29446:29452   */\n      dup3\n        /* \"#utility.yul\":29442:29456   */\n      add\n        /* \"#utility.yul\":29435:29479   */\n      mstore\n        /* \"#utility.yul\":29318:29486   */\n      pop\n      jump\t// out\n        /* \"#utility.yul\":29492:29858   */\n    tag_401:\n        /* \"#utility.yul\":29634:29637   */\n      0x00\n        /* \"#utility.yul\":29655:29722   */\n      tag_716\n        /* \"#utility.yul\":29719:29721   */\n      0x12\n        /* \"#utility.yul\":29714:29717   */\n      dup4\n        /* \"#utility.yul\":29655:29722   */\n      tag_351\n      jump\t// in\n    tag_716:\n        /* \"#utility.yul\":29648:29722   */\n      swap2\n      pop\n        /* \"#utility.yul\":29731:29824   */\n      tag_717\n        /* \"#utility.yul\":29820:29823   */\n      dup3\n        /* \"#utility.yul\":29731:29824   */\n      tag_400\n      jump\t// in\n    tag_717:\n        /* \"#utility.yul\":29849:29851   */\n      0x20\n        /* \"#utility.yul\":29844:29847   */\n      dup3\n        /* \"#utility.yul\":29840:29852   */\n      add\n        /* \"#utility.yul\":29833:29852   */\n      swap1\n      pop\n        /* \"#utility.yul\":29492:29858   */\n      swap2\n      swap1\n      pop\n      jump\t// out\n        /* \"#utility.yul\":29864:30283   */\n    tag_237:\n        /* \"#utility.yul\":30030:30034   */\n      0x00\n        /* \"#utility.yul\":30068:30070   */\n      0x20\n        /* \"#utility.yul\":30057:30066   */\n      dup3\n        /* \"#utility.yul\":30053:30071   */\n      add\n        /* \"#utility.yul\":30045:30071   */\n      swap1\n      pop\n        /* \"#utility.yul\":30117:30126   */\n      dup2\n        /* \"#utility.yul\":30111:30115   */\n      dup2\n        /* \"#utility.yul\":30107:30127   */\n      sub\n        /* \"#utility.yul\":30103:30104   */\n      0x00\n        /* \"#utility.yul\":30092:30101   */\n      dup4\n        /* \"#utility.yul\":30088:30105   */\n      add\n        /* \"#utility.yul\":30081:30128   */\n      mstore\n        /* \"#utility.yul\":30145:30276   */\n      tag_719\n        /* \"#utility.yul\":30271:30275   */\n      dup2\n        /* \"#utility.yul\":30145:30276   */\n      tag_401\n      jump\t// in\n    tag_719:\n        /* \"#utility.yul\":30137:30276   */\n      swap1\n      pop\n        /* \"#utility.yul\":29864:30283   */\n      swap2\n      swap1\n      pop\n      jump\t// out\n        /* \"#utility.yul\":30289:30469   */\n    tag_402:\n        /* \"#utility.yul\":30337:30414   */\n      0x4e487b7100000000000000000000000000000000000000000000000000000000\n        /* \"#utility.yul\":30334:30335   */\n      0x00\n        /* \"#utility.yul\":30327:30415   */\n      mstore\n        /* \"#utility.yul\":30434:30438   */\n      0x11\n        /* \"#utility.yul\":30431:30432   */\n      0x04\n        /* \"#utility.yul\":30424:30439   */\n      mstore\n        /* \"#utility.yul\":30458:30462   */\n      0x24\n        /* \"#utility.yul\":30455:30456   */\n      0x00\n        /* \"#utility.yul\":30448:30463   */\n      revert\n        /* \"#utility.yul\":30475:30669   */\n    tag_239:\n        /* \"#utility.yul\":30515:30519   */\n      0x00\n        /* \"#utility.yul\":30535:30555   */\n      tag_722\n        /* \"#utility.yul\":30553:30554   */\n      dup3\n        /* \"#utility.yul\":30535:30555   */\n      tag_346\n      jump\t// in\n    tag_722:\n        /* \"#utility.yul\":30530:30555   */\n      swap2\n      pop\n        /* \"#utility.yul\":30569:30589   */\n      tag_723\n        /* \"#utility.yul\":30587:30588   */\n      dup4\n        /* \"#utility.yul\":30569:30589   */\n      tag_346\n      jump\t// in\n    tag_723:\n        /* \"#utility.yul\":30564:30589   */\n      swap3\n      pop\n        /* \"#utility.yul\":30613:30614   */\n      dup3\n        /* \"#utility.yul\":30610:30611   */\n      dup3\n        /* \"#utility.yul\":30606:30615   */\n      sub\n        /* \"#utility.yul\":30598:30615   */\n      swap1\n      pop\n        /* \"#utility.yul\":30637:30638   */\n      dup2\n        /* \"#utility.yul\":30631:30635   */\n      dup2\n        /* \"#utility.yul\":30628:30639   */\n      gt\n        /* \"#utility.yul\":30625:30662   */\n      iszero\n      tag_724\n      jumpi\n        /* \"#utility.yul\":30642:30660   */\n      tag_725\n      tag_402\n      jump\t// in\n    tag_725:\n        /* \"#utility.yul\":30625:30662   */\n    tag_724:\n        /* \"#utility.yul\":30475:30669   */\n      swap3\n      swap2\n      pop\n      pop\n      jump\t// out\n        /* \"#utility.yul\":30675:30816   */\n    tag_403:\n        /* \"#utility.yul\":30724:30728   */\n      0x00\n        /* \"#utility.yul\":30747:30750   */\n      dup2\n        /* \"#utility.yul\":30739:30750   */\n      swap1\n      pop\n        /* \"#utility.yul\":30770:30773   */\n      dup2\n        /* \"#utility.yul\":30767:30768   */\n      0x00\n        /* \"#utility.yul\":30760:30774   */\n      mstore\n        /* \"#utility.yul\":30804:30808   */\n      0x20\n        /* \"#utility.yul\":30801:30802   */\n      0x00\n        /* \"#utility.yul\":30791:30809   */\n      keccak256\n        /* \"#utility.yul\":30783:30809   */\n      swap1\n      pop\n        /* \"#utility.yul\":30675:30816   */\n      swap2\n      swap1\n      pop\n      jump\t// out\n        /* \"#utility.yul\":30822:30915   */\n    tag_404:\n        /* \"#utility.yul\":30859:30865   */\n      0x00\n        /* \"#utility.yul\":30906:30908   */\n      0x20\n        /* \"#utility.yul\":30901:30903   */\n      0x1f\n        /* \"#utility.yul\":30894:30899   */\n      dup4\n        /* \"#utility.yul\":30890:30904   */\n      add\n        /* \"#utility.yul\":30886:30909   */\n      div\n        /* \"#utility.yul\":30876:30909   */\n      swap1\n      pop\n        /* \"#utility.yul\":30822:30915   */\n      swap2\n      swap1\n      pop\n      jump\t// out\n        /* \"#utility.yul\":30921:31028   */\n    tag_405:\n        /* \"#utility.yul\":30965:30973   */\n      0x00\n        /* \"#utility.yul\":31015:31020   */\n      dup3\n        /* \"#utility.yul\":31009:31013   */\n      dup3\n        /* \"#utility.yul\":31005:31021   */\n      shl\n        /* \"#utility.yul\":30984:31021   */\n      swap1\n      pop\n        /* \"#utility.yul\":30921:31028   */\n      swap3\n      swap2\n      pop\n      pop\n      jump\t// out\n        /* \"#utility.yul\":31034:31427   */\n    tag_406:\n        /* \"#utility.yul\":31103:31109   */\n      0x00\n        /* \"#utility.yul\":31153:31154   */\n      0x08\n        /* \"#utility.yul\":31141:31151   */\n      dup4\n        /* \"#utility.yul\":31137:31155   */\n      mul\n        /* \"#utility.yul\":31176:31273   */\n      tag_730\n        /* \"#utility.yul\":31206:31272   */\n      0xffffffffffffffffffffffffffffffffffffffffffffffffffffffffffffffff\n        /* \"#utility.yul\":31195:31204   */\n      dup3\n        /* \"#utility.yul\":31176:31273   */\n      tag_405\n      jump\t// in\n    tag_730:\n        /* \"#utility.yul\":31294:31333   */\n      tag_731\n        /* \"#utility.yul\":31324:31332   */\n      dup7\n        /* \"#utility.yul\":31313:31322   */\n      dup4\n        /* \"#utility.yul\":31294:31333   */\n      tag_405\n      jump\t// in\n    tag_731:\n        /* \"#utility.yul\":31282:31333   */\n      swap6\n      pop\n        /* \"#utility.yul\":31366:31370   */\n      dup1\n        /* \"#utility.yul\":31362:31371   */\n      not\n        /* \"#utility.yul\":31355:31360   */\n      dup5\n        /* \"#utility.yul\":31351:31372   */\n      and\n        /* \"#utility.yul\":31342:31372   */\n      swap4\n      pop\n        /* \"#utility.yul\":31415:31419   */\n      dup1\n        /* \"#utility.yul\":31405:31413   */\n      dup7\n        /* \"#utility.yul\":31401:31420   */\n      and\n        /* \"#utility.yul\":31394:31399   */\n      dup5\n        /* \"#utility.yul\":31391:31421   */\n      or\n        /* \"#utility.yul\":31381:31421   */\n      swap3\n      pop\n        /* \"#utility.yul\":31110:31427   */\n      pop\n      pop\n        /* \"#utility.yul\":31034:31427   */\n      swap4\n      swap3\n      pop\n      pop\n      pop\n      jump\t// out\n        /* \"#utility.yul\":31433:31493   */\n    tag_407:\n        /* \"#utility.yul\":31461:31464   */\n      0x00\n        /* \"#utility.yul\":31482:31487   */\n      dup2\n        /* \"#utility.yul\":31475:31487   */\n      swap1\n      pop\n        /* \"#utility.yul\":31433:31493   */\n      swap2\n      swap1\n      pop\n      jump\t// out\n        /* \"#utility.yul\":31499:31641   */\n    tag_408:\n        /* \"#utility.yul\":31549:31558   */\n      0x00\n        /* \"#utility.yul\":31582:31635   */\n      tag_734\n        /* \"#utility.yul\":31600:31634   */\n      tag_735\n        /* \"#utility.yul\":31609:31633   */\n      tag_736\n        /* \"#utility.yul\":31627:31632   */\n      dup5\n        /* \"#utility.yul\":31609:31633   */\n      tag_346\n      jump\t// in\n    tag_736:\n        /* \"#utility.yul\":31600:31634   */\n      tag_407\n      jump\t// in\n    tag_735:\n        /* \"#utility.yul\":31582:31635   */\n      tag_346\n      jump\t// in\n    tag_734:\n        /* \"#utility.yul\":31569:31635   */\n      swap1\n      pop\n        /* \"#utility.yul\":31499:31641   */\n      swap2\n      swap1\n      pop\n      jump\t// out\n        /* \"#utility.yul\":31647:31722   */\n    tag_409:\n        /* \"#utility.yul\":31690:31693   */\n      0x00\n        /* \"#utility.yul\":31711:31716   */\n      dup2\n        /* \"#utility.yul\":31704:31716   */\n      swap1\n      pop\n        /* \"#utility.yul\":31647:31722   */\n      swap2\n      swap1\n      pop\n      jump\t// out\n        /* \"#utility.yul\":31728:31997   */\n    tag_410:\n        /* \"#utility.yul\":31838:31877   */\n      tag_739\n        /* \"#utility.yul\":31869:31876   */\n      dup4\n        /* \"#utility.yul\":31838:31877   */\n      tag_408\n      jump\t// in\n    tag_739:\n        /* \"#utility.yul\":31899:31990   */\n      tag_740\n        /* \"#utility.yul\":31948:31989   */\n      tag_741\n        /* \"#utility.yul\":31972:31988   */\n      dup3\n        /* \"#utility.yul\":31948:31989   */\n      tag_409\n      jump\t// in\n    tag_741:\n        /* \"#utility.yul\":31940:31946   */\n      dup5\n        /* \"#utility.yul\":31933:31937   */\n      dup5\n        /* \"#utility.yul\":31927:31938   */\n      sload\n        /* \"#utility.yul\":31899:31990   */\n      tag_406\n      jump\t// in\n    tag_740:\n        /* \"#utility.yul\":31893:31897   */\n      dup3\n        /* \"#utility.yul\":31886:31991   */\n      sstore\n        /* \"#utility.yul\":31804:31997   */\n      pop\n        /* \"#utility.yul\":31728:31997   */\n      pop\n      pop\n      pop\n      jump\t// out\n        /* \"#utility.yul\":32003:32076   */\n    tag_411:\n        /* \"#utility.yul\":32048:32051   */\n      0x00\n        /* \"#utility.yul\":32003:32076   */\n      swap1\n      jump\t// out\n        /* \"#utility.yul\":32082:32271   */\n    tag_412:\n        /* \"#utility.yul\":32159:32191   */\n      tag_744\n      tag_411\n      jump\t// in\n    tag_744:\n        /* \"#utility.yul\":32200:32265   */\n      tag_745\n        /* \"#utility.yul\":32258:32264   */\n      dup2\n        /* \"#utility.yul\":32250:32256   */\n      dup5\n        /* \"#utility.yul\":32244:32248   */\n      dup5\n        /* \"#utility.yul\":32200:32265   */\n      tag_410\n      jump\t// in\n    tag_745:\n        /* \"#utility.yul\":32135:32271   */\n      pop\n        /* \"#utility.yul\":32082:32271   */\n      pop\n      pop\n      jump\t// out\n        /* \"#utility.yul\":32277:32463   */\n    tag_413:\n        /* \"#utility.yul\":32337:32457   */\n    tag_747:\n        /* \"#utility.yul\":32354:32357   */\n      dup2\n        /* \"#utility.yul\":32347:32352   */\n      dup2\n        /* \"#utility.yul\":32344:32358   */\n      lt\n        /* \"#utility.yul\":32337:32457   */\n      iszero\n      tag_749\n      jumpi\n        /* \"#utility.yul\":32408:32447   */\n      tag_750\n        /* \"#utility.yul\":32445:32446   */\n      0x00\n        /* \"#utility.yul\":32438:32443   */\n      dup3\n        /* \"#utility.yul\":32408:32447   */\n      tag_412\n      jump\t// in\n    tag_750:\n        /* \"#utility.yul\":32381:32382   */\n      0x01\n        /* \"#utility.yul\":32374:32379   */\n      dup2\n        /* \"#utility.yul\":32370:32383   */\n      add\n        /* \"#utility.yul\":32361:32383   */\n      swap1\n      pop\n        /* \"#utility.yul\":32337:32457   */\n      jump(tag_747)\n    tag_749:\n        /* \"#utility.yul\":32277:32463   */\n      pop\n      pop\n      jump\t// out\n        /* \"#utility.yul\":32469:33012   */\n    tag_414:\n        /* \"#utility.yul\":32570:32572   */\n      0x1f\n        /* \"#utility.yul\":32565:32568   */\n      dup3\n        /* \"#utility.yul\":32562:32573   */\n      gt\n        /* \"#utility.yul\":32559:33005   */\n      iszero\n      tag_752\n      jumpi\n        /* \"#utility.yul\":32604:32642   */\n      tag_753\n        /* \"#utility.yul\":32636:32641   */\n      dup2\n        /* \"#utility.yul\":32604:32642   */\n      tag_403\n      jump\t// in\n    tag_753:\n        /* \"#utility.yul\":32688:32717   */\n      tag_754\n        /* \"#utility.yul\":32706:32716   */\n      dup5\n        /* \"#utility.yul\":32688:32717   */\n      tag_404\n      jump\t// in\n    tag_754:\n        /* \"#utility.yul\":32678:32686   */\n      dup2\n        /* \"#utility.yul\":32674:32718   */\n      add\n        /* \"#utility.yul\":32871:32873   */\n      0x20\n        /* \"#utility.yul\":32859:32869   */\n      dup6\n        /* \"#utility.yul\":32856:32874   */\n      lt\n        /* \"#utility.yul\":32853:32902   */\n      iszero\n      tag_755\n      jumpi\n        /* \"#utility.yul\":32892:32900   */\n      dup2\n        /* \"#utility.yul\":32877:32900   */\n      swap1\n      pop\n        /* \"#utility.yul\":32853:32902   */\n    tag_755:\n        /* \"#utility.yul\":32915:32995   */\n      tag_756\n        /* \"#utility.yul\":32971:32993   */\n      tag_757\n        /* \"#utility.yul\":32989:32992   */\n      dup6\n        /* \"#utility.yul\":32971:32993   */\n      tag_404\n      jump\t// in\n    tag_757:\n        /* \"#utility.yul\":32961:32969   */\n      dup4\n        /* \"#utility.yul\":32957:32994   */\n      add\n        /* \"#utility.yul\":32944:32955   */\n      dup3\n        /* \"#utility.yul\":32915:32995   */\n      tag_413\n      jump\t// in\n    tag_756:\n        /* \"#utility.yul\":32574:33005   */\n      pop\n      pop\n        /* \"#utility.yul\":32559:33005   */\n    tag_752:\n        /* \"#utility.yul\":32469:33012   */\n      pop\n      pop\n      pop\n      jump\t// out\n        /* \"#utility.yul\":33018:33135   */\n    tag_415:\n        /* \"#utility.yul\":33072:33080   */\n      0x00\n        /* \"#utility.yul\":33122:33127   */\n      dup3\n        /* \"#utility.yul\":33116:33120   */\n      dup3\n        /* \"#utility.yul\":33112:33128   */\n      shr\n        /* \"#utility.yul\":33091:33128   */\n      swap1\n      pop\n        /* \"#utility.yul\":33018:33135   */\n      swap3\n      swap2\n      pop\n      pop\n      jump\t// out\n        /* \"#utility.yul\":33141:33310   */\n    tag_416:\n        /* \"#utility.yul\":33185:33191   */\n      0x00\n        /* \"#utility.yul\":33218:33269   */\n      tag_760\n        /* \"#utility.yul\":33266:33267   */\n      0x00\n        /* \"#utility.yul\":33262:33268   */\n      not\n        /* \"#utility.yul\":33254:33259   */\n      dup5\n        /* \"#utility.yul\":33251:33252   */\n      0x08\n        /* \"#utility.yul\":33247:33260   */\n      mul\n        /* \"#utility.yul\":33218:33269   */\n      tag_415\n      jump\t// in\n    tag_760:\n        /* \"#utility.yul\":33214:33270   */\n      not\n        /* \"#utility.yul\":33299:33303   */\n      dup1\n        /* \"#utility.yul\":33293:33297   */\n      dup4\n        /* \"#utility.yul\":33289:33304   */\n      and\n        /* \"#utility.yul\":33279:33304   */\n      swap2\n      pop\n        /* \"#utility.yul\":33192:33310   */\n      pop\n        /* \"#utility.yul\":33141:33310   */\n      swap3\n      swap2\n      pop\n      pop\n      jump\t// out\n        /* \"#utility.yul\":33315:33610   */\n    tag_417:\n        /* \"#utility.yul\":33391:33395   */\n      0x00\n        /* \"#utility.yul\":33537:33566   */\n      tag_762\n        /* \"#utility.yul\":33562:33565   */\n      dup4\n        /* \"#utility.yul\":33556:33560   */\n      dup4\n        /* \"#utility.yul\":33537:33566   */\n      tag_416\n      jump\t// in\n    tag_762:\n        /* \"#utility.yul\":33529:33566   */\n      swap2\n      pop\n        /* \"#utility.yul\":33599:33602   */\n      dup3\n        /* \"#utility.yul\":33596:33597   */\n      0x02\n        /* \"#utility.yul\":33592:33603   */\n      mul\n        /* \"#utility.yul\":33586:33590   */\n      dup3\n        /* \"#utility.yul\":33583:33604   */\n      or\n        /* \"#utility.yul\":33575:33604   */\n      swap1\n      pop\n        /* \"#utility.yul\":33315:33610   */\n      swap3\n      swap2\n      pop\n      pop\n      jump\t// out\n        /* \"#utility.yul\":33615:35010   */\n    tag_267:\n        /* \"#utility.yul\":33732:33769   */\n      tag_764\n        /* \"#utility.yul\":33765:33768   */\n      dup3\n        /* \"#utility.yul\":33732:33769   */\n      tag_350\n      jump\t// in\n    tag_764:\n        /* \"#utility.yul\":33834:33852   */\n      0xffffffffffffffff\n        /* \"#utility.yul\":33826:33832   */\n      dup2\n        /* \"#utility.yul\":33823:33853   */\n      gt\n        /* \"#utility.yul\":33820:33876   */\n      iszero\n      tag_765\n      jumpi\n        /* \"#utility.yul\":33856:33874   */\n      tag_766\n      tag_194\n      jump\t// in\n    tag_766:\n        /* \"#utility.yul\":33820:33876   */\n    tag_765:\n        /* \"#utility.yul\":33900:33938   */\n      tag_767\n        /* \"#utility.yul\":33932:33936   */\n      dup3\n        /* \"#utility.yul\":33926:33937   */\n      sload\n        /* \"#utility.yul\":33900:33938   */\n      tag_127\n      jump\t// in\n    tag_767:\n        /* \"#utility.yul\":33985:34052   */\n      tag_768\n        /* \"#utility.yul\":34045:34051   */\n      dup3\n        /* \"#utility.yul\":34037:34043   */\n      dup3\n        /* \"#utility.yul\":34031:34035   */\n      dup6\n        /* \"#utility.yul\":33985:34052   */\n      tag_414\n      jump\t// in\n    tag_768:\n        /* \"#utility.yul\":34079:34080   */\n      0x00\n        /* \"#utility.yul\":34103:34107   */\n      0x20\n        /* \"#utility.yul\":34090:34107   */\n      swap1\n      pop\n        /* \"#utility.yul\":34135:34137   */\n      0x1f\n        /* \"#utility.yul\":34127:34133   */\n      dup4\n        /* \"#utility.yul\":34124:34138   */\n      gt\n        /* \"#utility.yul\":34152:34153   */\n      0x01\n        /* \"#utility.yul\":34147:34765   */\n      dup2\n      eq\n      tag_770\n      jumpi\n        /* \"#utility.yul\":34809:34810   */\n      0x00\n        /* \"#utility.yul\":34826:34832   */\n      dup5\n        /* \"#utility.yul\":34823:34900   */\n      iszero\n      tag_771\n      jumpi\n        /* \"#utility.yul\":34875:34884   */\n      dup3\n        /* \"#utility.yul\":34870:34873   */\n      dup8\n        /* \"#utility.yul\":34866:34885   */\n      add\n        /* \"#utility.yul\":34860:34886   */\n      mload\n        /* \"#utility.yul\":34851:34886   */\n      swap1\n      pop\n        /* \"#utility.yul\":34823:34900   */\n    tag_771:\n        /* \"#utility.yul\":34926:34993   */\n      tag_772\n        /* \"#utility.yul\":34986:34992   */\n      dup6\n        /* \"#utility.yul\":34979:34984   */\n      dup3\n        /* \"#utility.yul\":34926:34993   */\n      tag_417\n      jump\t// in\n    tag_772:\n        /* \"#utility.yul\":34920:34924   */\n      dup7\n        /* \"#utility.yul\":34913:34994   */\n      sstore\n        /* \"#utility.yul\":34782:35004   */\n      pop\n        /* \"#utility.yul\":34117:35004   */\n      jump(tag_769)\n        /* \"#utility.yul\":34147:34765   */\n    tag_770:\n        /* \"#utility.yul\":34199:34203   */\n      0x1f\n        /* \"#utility.yul\":34195:34204   */\n      not\n        /* \"#utility.yul\":34187:34193   */\n      dup5\n        /* \"#utility.yul\":34183:34205   */\n      and\n        /* \"#utility.yul\":34233:34270   */\n      tag_773\n        /* \"#utility.yul\":34265:34269   */\n      dup7\n        /* \"#utility.yul\":34233:34270   */\n      tag_403\n      jump\t// in\n    tag_773:\n        /* \"#utility.yul\":34292:34293   */\n      0x00\n        /* \"#utility.yul\":34306:34514   */\n    tag_774:\n        /* \"#utility.yul\":34320:34327   */\n      dup3\n        /* \"#utility.yul\":34317:34318   */\n      dup2\n        /* \"#utility.yul\":34314:34328   */\n      lt\n        /* \"#utility.yul\":34306:34514   */\n      iszero\n      tag_776\n      jumpi\n        /* \"#utility.yul\":34399:34408   */\n      dup5\n        /* \"#utility.yul\":34394:34397   */\n      dup10\n        /* \"#utility.yul\":34390:34409   */\n      add\n        /* \"#utility.yul\":34384:34410   */\n      mload\n        /* \"#utility.yul\":34376:34382   */\n      dup3\n        /* \"#utility.yul\":34369:34411   */\n      sstore\n        /* \"#utility.yul\":34450:34451   */\n      0x01\n        /* \"#utility.yul\":34442:34448   */\n      dup3\n        /* \"#utility.yul\":34438:34452   */\n      add\n        /* \"#utility.yul\":34428:34452   */\n      swap2\n      pop\n        /* \"#utility.yul\":34497:34499   */\n      0x20\n        /* \"#utility.yul\":34486:34495   */\n      dup6\n        /* \"#utility.yul\":34482:34500   */\n      add\n        /* \"#utility.yul\":34469:34500   */\n      swap5\n      pop\n        /* \"#utility.yul\":34343:34347   */\n      0x20\n        /* \"#utility.yul\":34340:34341   */\n      dup2\n        /* \"#utility.yul\":34336:34348   */\n      add\n        /* \"#utility.yul\":34331:34348   */\n      swap1\n      pop\n        /* \"#utility.yul\":34306:34514   */\n      jump(tag_774)\n    tag_776:\n        /* \"#utility.yul\":34542:34548   */\n      dup7\n        /* \"#utility.yul\":34533:34540   */\n      dup4\n        /* \"#utility.yul\":34530:34549   */\n      lt\n        /* \"#utility.yul\":34527:34706   */\n      iszero\n      tag_777\n      jumpi\n        /* \"#utility.yul\":34600:34609   */\n      dup5\n        /* \"#utility.yul\":34595:34598   */\n      dup10\n        /* \"#utility.yul\":34591:34610   */\n      add\n        /* \"#utility.yul\":34585:34611   */\n      mload\n        /* \"#utility.yul\":34643:34691   */\n      tag_778\n        /* \"#utility.yul\":34685:34689   */\n      0x1f\n        /* \"#utility.yul\":34677:34683   */\n      dup10\n        /* \"#utility.yul\":34673:34690   */\n      and\n        /* \"#utility.yul\":34662:34671   */\n      dup3\n        /* \"#utility.yul\":34643:34691   */\n      tag_416\n      jump\t// in\n    tag_778:\n        /* \"#utility.yul\":34635:34641   */\n      dup4\n        /* \"#utility.yul\":34628:34692   */\n      sstore\n        /* \"#utility.yul\":34550:34706   */\n      pop\n        /* \"#utility.yul\":34527:34706   */\n    tag_777:\n        /* \"#utility.yul\":34752:34753   */\n      0x01\n        /* \"#utility.yul\":34748:34749   */\n      0x02\n        /* \"#utility.yul\":34740:34746   */\n      dup9\n        /* \"#utility.yul\":34736:34750   */\n      mul\n        /* \"#utility.yul\":34732:34754   */\n      add\n        /* \"#utility.yul\":34726:34730   */\n      dup9\n        /* \"#utility.yul\":34719:34755   */\n      sstore\n        /* \"#utility.yul\":34154:34765   */\n      pop\n      pop\n      pop\n        /* \"#utility.yul\":34117:35004   */\n    tag_769:\n      pop\n        /* \"#utility.yul\":33707:35010   */\n      pop\n      pop\n      pop\n        /* \"#utility.yul\":33615:35010   */\n      pop\n      pop\n      jump\t// out\n        /* \"#utility.yul\":35016:35130   */\n    tag_418:\n      pop\n      jump\t// out\n        /* \"#utility.yul\":35136:35500   */\n    tag_419:\n        /* \"#utility.yul\":35278:35281   */\n      0x00\n        /* \"#utility.yul\":35299:35365   */\n      tag_781\n        /* \"#utility.yul\":35363:35364   */\n      0x00\n        /* \"#utility.yul\":35358:35361   */\n      dup4\n        /* \"#utility.yul\":35299:35365   */\n      tag_351\n      jump\t// in\n    tag_781:\n        /* \"#utility.yul\":35292:35365   */\n      swap2\n      pop\n        /* \"#utility.yul\":35374:35467   */\n      tag_782\n        /* \"#utility.yul\":35463:35466   */\n      dup3\n        /* \"#utility.yul\":35374:35467   */\n      tag_418\n      jump\t// in\n    tag_782:\n        /* \"#utility.yul\":35492:35493   */\n      0x00\n        /* \"#utility.yul\":35487:35490   */\n      dup3\n        /* \"#utility.yul\":35483:35494   */\n      add\n        /* \"#utility.yul\":35476:35494   */\n      swap1\n      pop\n        /* \"#utility.yul\":35136:35500   */\n      swap2\n      swap1\n      pop\n      jump\t// out\n        /* \"#utility.yul\":35506:36023   */\n    tag_269:\n        /* \"#utility.yul\":35694:35698   */\n      0x00\n        /* \"#utility.yul\":35732:35734   */\n      0x40\n        /* \"#utility.yul\":35721:35730   */\n      dup3\n        /* \"#utility.yul\":35717:35735   */\n      add\n        /* \"#utility.yul\":35709:35735   */\n      swap1\n      pop\n        /* \"#utility.yul\":35781:35790   */\n      dup2\n        /* \"#utility.yul\":35775:35779   */\n      dup2\n        /* \"#utility.yul\":35771:35791   */\n      sub\n        /* \"#utility.yul\":35767:35768   */\n      0x00\n        /* \"#utility.yul\":35756:35765   */\n      dup4\n        /* \"#utility.yul\":35752:35769   */\n      add\n        /* \"#utility.yul\":35745:35792   */\n      mstore\n        /* \"#utility.yul\":35809:35940   */\n      tag_784\n        /* \"#utility.yul\":35935:35939   */\n      dup2\n        /* \"#utility.yul\":35809:35940   */\n      tag_419\n      jump\t// in\n    tag_784:\n        /* \"#utility.yul\":35801:35940   */\n      swap1\n      pop\n        /* \"#utility.yul\":35950:36016   */\n      tag_785\n        /* \"#utility.yul\":36012:36014   */\n      0x20\n        /* \"#utility.yul\":36001:36010   */\n      dup4\n        /* \"#utility.yul\":35997:36015   */\n      add\n        /* \"#utility.yul\":35988:35994   */\n      dup5\n        /* \"#utility.yul\":35950:36016   */\n      tag_356\n      jump\t// in\n    tag_785:\n        /* \"#utility.yul\":35506:36023   */\n      swap3\n      swap2\n      pop\n      pop\n      jump\t// out\n        /* \"#utility.yul\":36029:36203   */\n    tag_420:\n        /* \"#utility.yul\":36169:36195   */\n      0x50726f64756374206e616d652069732072657175697265640000000000000000\n        /* \"#utility.yul\":36165:36166   */\n      0x00\n        /* \"#utility.yul\":36157:36163   */\n      dup3\n        /* \"#utility.yul\":36153:36167   */\n      add\n        /* \"#utility.yul\":36146:36196   */\n      mstore\n        /* \"#utility.yul\":36029:36203   */\n      pop\n      jump\t// out\n        /* \"#utility.yul\":36209:36575   */\n    tag_421:\n        /* \"#utility.yul\":36351:36354   */\n      0x00\n        /* \"#utility.yul\":36372:36439   */\n      tag_788\n        /* \"#utility.yul\":36436:36438   */\n      0x18\n        /* \"#utility.yul\":36431:36434   */\n      dup4\n        /* \"#utility.yul\":36372:36439   */\n      tag_351\n      jump\t// in\n    tag_788:\n        /* \"#utility.yul\":36365:36439   */\n      swap2\n      pop\n        /* \"#utility.yul\":36448:36541   */\n      tag_789\n        /* \"#utility.yul\":36537:36540   */\n      dup3\n        /* \"#utility.yul\":36448:36541   */\n      tag_420\n      jump\t// in\n    tag_789:\n        /* \"#utility.yul\":36566:36568   */\n      0x20\n        /* \"#utility.yul\":36561:36564   */\n      dup3\n        /* \"#utility.yul\":36557:36569   */\n      add\n        /* \"#utility.yul\":36550:36569   */\n      swap1\n      pop\n        /* \"#utility.yul\":36209:36575   */\n      swap2\n      swap1\n      pop\n      jump\t// out\n        /* \"#utility.yul\":36581:37000   */\n    tag_273:\n        /* \"#utility.yul\":36747:36751   */\n      0x00\n        /* \"#utility.yul\":36785:36787   */\n      0x20\n        /* \"#utility.yul\":36774:36783   */\n      dup3\n        /* \"#utility.yul\":36770:36788   */\n      add\n        /* \"#utility.yul\":36762:36788   */\n      swap1\n      pop\n        /* \"#utility.yul\":36834:36843   */\n      dup2\n        /* \"#utility.yul\":36828:36832   */\n      dup2\n        /* \"#utility.yul\":36824:36844   */\n      sub\n        /* \"#utility.yul\":36820:36821   */\n      0x00\n        /* \"#utility.yul\":36809:36818   */\n      dup4\n        /* \"#utility.yul\":36805:36822   */\n      add\n        /* \"#utility.yul\":36798:36845   */\n      mstore\n        /* \"#utility.yul\":36862:36993   */\n      tag_791\n        /* \"#utility.yul\":36988:36992   */\n      dup2\n        /* \"#utility.yul\":36862:36993   */\n      tag_421\n      jump\t// in\n    tag_791:\n        /* \"#utility.yul\":36854:36993   */\n      swap1\n      pop\n        /* \"#utility.yul\":36581:37000   */\n      swap2\n      swap1\n      pop\n      jump\t// out\n        /* \"#utility.yul\":37006:37180   */\n    tag_422:\n        /* \"#utility.yul\":37146:37172   */\n      0x4261746368206e756d6265722069732072657175697265640000000000000000\n        /* \"#utility.yul\":37142:37143   */\n      0x00\n        /* \"#utility.yul\":37134:37140   */\n      dup3\n        /* \"#utility.yul\":37130:37144   */\n      add\n        /* \"#utility.yul\":37123:37173   */\n      mstore\n        /* \"#utility.yul\":37006:37180   */\n      pop\n      jump\t// out\n        /* \"#utility.yul\":37186:37552   */\n    tag_423:\n        /* \"#utility.yul\":37328:37331   */\n      0x00\n        /* \"#utility.yul\":37349:37416   */\n      tag_794\n        /* \"#utility.yul\":37413:37415   */\n      0x18\n        /* \"#utility.yul\":37408:37411   */\n      dup4\n        /* \"#utility.yul\":37349:37416   */\n      tag_351\n      jump\t// in\n    tag_794:\n        /* \"#utility.yul\":37342:37416   */\n      swap2\n      pop\n        /* \"#utility.yul\":37425:37518   */\n      tag_795\n        /* \"#utility.yul\":37514:37517   */\n      dup3\n        /* \"#utility.yul\":37425:37518   */\n      tag_422\n      jump\t// in\n    tag_795:\n        /* \"#utility.yul\":37543:37545   */\n      0x20\n        /* \"#utility.yul\":37538:37541   */\n      dup3\n        /* \"#utility.yul\":37534:37546   */\n      add\n        /* \"#utility.yul\":37527:37546   */\n      swap1\n      pop\n        /* \"#utility.yul\":37186:37552   */\n      swap2\n      swap1\n      pop\n      jump\t// out\n        /* \"#utility.yul\":37558:37977   */\n    tag_276:\n        /* \"#utility.yul\":37724:37728   */\n      0x00\n        /* \"#utility.yul\":37762:37764   */\n      0x20\n        /* \"#utility.yul\":37751:37760   */\n      dup3\n        /* \"#utility.yul\":37747:37765   */\n      add\n        /* \"#utility.yul\":37739:37765   */\n      swap1\n      pop\n        /* \"#utility.yul\":37811:37820   */\n      dup2\n        /* \"#utility.yul\":37805:37809   */\n      dup2\n        /* \"#utility.yul\":37801:37821   */\n      sub\n        /* \"#utility.yul\":37797:37798   */\n      0x00\n        /* \"#utility.yul\":37786:37795   */\n      dup4\n        /* \"#utility.yul\":37782:37799   */\n      add\n        /* \"#utility.yul\":37775:37822   */\n      mstore\n        /* \"#utility.yul\":37839:37970   */\n      tag_797\n        /* \"#utility.yul\":37965:37969   */\n      dup2\n        /* \"#utility.yul\":37839:37970   */\n      tag_423\n      jump\t// in\n    tag_797:\n        /* \"#utility.yul\":37831:37970   */\n      swap1\n      pop\n        /* \"#utility.yul\":37558:37977   */\n      swap2\n      swap1\n      pop\n      jump\t// out\n        /* \"#utility.yul\":37983:38163   */\n    tag_424:\n        /* \"#utility.yul\":38031:38108   */\n      0x4e487b7100000000000000000000000000000000000000000000000000000000\n        /* \"#utility.yul\":38028:38029   */\n      0x00\n        /* \"#utility.yul\":38021:38109   */\n      mstore\n        /* \"#utility.yul\":38128:38132   */\n      0x21\n        /* \"#utility.yul\":38125:38126   */\n      0x04\n        /* \"#utility.yul\":38118:38133   */\n      mstore\n        /* \"#utility.yul\":38152:38156   */\n      0x24\n        /* \"#utility.yul\":38149:38150   */\n      0x00\n        /* \"#utility.yul\":38142:38157   */\n      revert\n        /* \"#utility.yul\":38169:38285   */\n    tag_425:\n        /* \"#utility.yul\":38253:38254   */\n      0x02\n        /* \"#utility.yul\":38246:38251   */\n      dup2\n        /* \"#utility.yul\":38243:38255   */\n      lt\n        /* \"#utility.yul\":38233:38279   */\n      tag_800\n      jumpi\n        /* \"#utility.yul\":38259:38277   */\n      tag_801\n      tag_424\n      jump\t// in\n    tag_801:\n        /* \"#utility.yul\":38233:38279   */\n    tag_800:\n        /* \"#utility.yul\":38169:38285   */\n      pop\n      jump\t// out\n        /* \"#utility.yul\":38291:38424   */\n    tag_426:\n        /* \"#utility.yul\":38339:38346   */\n      0x00\n        /* \"#utility.yul\":38368:38373   */\n      dup2\n        /* \"#utility.yul\":38357:38373   */\n      swap1\n      pop\n        /* \"#utility.yul\":38374:38418   */\n      tag_803\n        /* \"#utility.yul\":38412:38417   */\n      dup3\n        /* \"#utility.yul\":38374:38418   */\n      tag_425\n      jump\t// in\n    tag_803:\n        /* \"#utility.yul\":38291:38424   */\n      swap2\n      swap1\n      pop\n      jump\t// out\n        /* \"#utility.yul\":38430:38563   */\n    tag_427:\n        /* \"#utility.yul\":38489:38498   */\n      0x00\n        /* \"#utility.yul\":38522:38557   */\n      tag_805\n        /* \"#utility.yul\":38551:38556   */\n      dup3\n        /* \"#utility.yul\":38522:38557   */\n      tag_426\n      jump\t// in\n    tag_805:\n        /* \"#utility.yul\":38509:38557   */\n      swap1\n      pop\n        /* \"#utility.yul\":38430:38563   */\n      swap2\n      swap1\n      pop\n      jump\t// out\n        /* \"#utility.yul\":38569:38718   */\n    tag_428:\n        /* \"#utility.yul\":38665:38711   */\n      tag_807\n        /* \"#utility.yul\":38705:38710   */\n      dup2\n        /* \"#utility.yul\":38665:38711   */\n      tag_427\n      jump\t// in\n    tag_807:\n        /* \"#utility.yul\":38660:38663   */\n      dup3\n        /* \"#utility.yul\":38653:38712   */\n      mstore\n        /* \"#utility.yul\":38569:38718   */\n      pop\n      pop\n      jump\t// out\n        /* \"#utility.yul\":38724:39165   */\n    tag_282:\n        /* \"#utility.yul\":38874:38878   */\n      0x00\n        /* \"#utility.yul\":38912:38914   */\n      0x40\n        /* \"#utility.yul\":38901:38910   */\n      dup3\n        /* \"#utility.yul\":38897:38915   */\n      add\n        /* \"#utility.yul\":38889:38915   */\n      swap1\n      pop\n        /* \"#utility.yul\":38961:38970   */\n      dup2\n        /* \"#utility.yul\":38955:38959   */\n      dup2\n        /* \"#utility.yul\":38951:38971   */\n      sub\n        /* \"#utility.yul\":38947:38948   */\n      0x00\n        /* \"#utility.yul\":38936:38945   */\n      dup4\n        /* \"#utility.yul\":38932:38949   */\n      add\n        /* \"#utility.yul\":38925:38972   */\n      mstore\n        /* \"#utility.yul\":38989:39067   */\n      tag_809\n        /* \"#utility.yul\":39062:39066   */\n      dup2\n        /* \"#utility.yul\":39053:39059   */\n      dup6\n        /* \"#utility.yul\":38989:39067   */\n      tag_354\n      jump\t// in\n    tag_809:\n        /* \"#utility.yul\":38981:39067   */\n      swap1\n      pop\n        /* \"#utility.yul\":39077:39158   */\n      tag_810\n        /* \"#utility.yul\":39154:39156   */\n      0x20\n        /* \"#utility.yul\":39143:39152   */\n      dup4\n        /* \"#utility.yul\":39139:39157   */\n      add\n        /* \"#utility.yul\":39130:39136   */\n      dup5\n        /* \"#utility.yul\":39077:39158   */\n      tag_428\n      jump\t// in\n    tag_810:\n        /* \"#utility.yul\":38724:39165   */\n      swap4\n      swap3\n      pop\n      pop\n      pop\n      jump\t// out\n        /* \"#utility.yul\":39171:39334   */\n    tag_429:\n        /* \"#utility.yul\":39311:39326   */\n      0x496e76616c696420707269636500000000000000000000000000000000000000\n        /* \"#utility.yul\":39307:39308   */\n      0x00\n        /* \"#utility.yul\":39299:39305   */\n      dup3\n        /* \"#utility.yul\":39295:39309   */\n      add\n        /* \"#utility.yul\":39288:39327   */\n      mstore\n        /* \"#utility.yul\":39171:39334   */\n      pop\n      jump\t// out\n        /* \"#utility.yul\":39340:39706   */\n    tag_430:\n        /* \"#utility.yul\":39482:39485   */\n      0x00\n        /* \"#utility.yul\":39503:39570   */\n      tag_813\n        /* \"#utility.yul\":39567:39569   */\n      0x0d\n        /* \"#utility.yul\":39562:39565   */\n      dup4\n        /* \"#utility.yul\":39503:39570   */\n      tag_351\n      jump\t// in\n    tag_813:\n        /* \"#utility.yul\":39496:39570   */\n      swap2\n      pop\n        /* \"#utility.yul\":39579:39672   */\n      tag_814\n        /* \"#utility.yul\":39668:39671   */\n      dup3\n        /* \"#utility.yul\":39579:39672   */\n      tag_429\n      jump\t// in\n    tag_814:\n        /* \"#utility.yul\":39697:39699   */\n      0x20\n        /* \"#utility.yul\":39692:39695   */\n      dup3\n        /* \"#utility.yul\":39688:39700   */\n      add\n        /* \"#utility.yul\":39681:39700   */\n      swap1\n      pop\n        /* \"#utility.yul\":39340:39706   */\n      swap2\n      swap1\n      pop\n      jump\t// out\n        /* \"#utility.yul\":39712:40131   */\n    tag_335:\n        /* \"#utility.yul\":39878:39882   */\n      0x00\n        /* \"#utility.yul\":39916:39918   */\n      0x20\n        /* \"#utility.yul\":39905:39914   */\n      dup3\n        /* \"#utility.yul\":39901:39919   */\n      add\n        /* \"#utility.yul\":39893:39919   */\n      swap1\n      pop\n        /* \"#utility.yul\":39965:39974   */\n      dup2\n        /* \"#utility.yul\":39959:39963   */\n      dup2\n        /* \"#utility.yul\":39955:39975   */\n      sub\n        /* \"#utility.yul\":39951:39952   */\n      0x00\n        /* \"#utility.yul\":39940:39949   */\n      dup4\n        /* \"#utility.yul\":39936:39953   */\n      add\n        /* \"#utility.yul\":39929:39976   */\n      mstore\n        /* \"#utility.yul\":39993:40124   */\n      tag_816\n        /* \"#utility.yul\":40119:40123   */\n      dup2\n        /* \"#utility.yul\":39993:40124   */\n      tag_430\n      jump\t// in\n    tag_816:\n        /* \"#utility.yul\":39985:40124   */\n      swap1\n      pop\n        /* \"#utility.yul\":39712:40131   */\n      swap2\n      swap1\n      pop\n      jump\t// out\n        /* \"#utility.yul\":40137:40776   */\n    tag_342:\n        /* \"#utility.yul\":40359:40363   */\n      0x00\n        /* \"#utility.yul\":40397:40399   */\n      0x60\n        /* \"#utility.yul\":40386:40395   */\n      dup3\n        /* \"#utility.yul\":40382:40400   */\n      add\n        /* \"#utility.yul\":40374:40400   */\n      swap1\n      pop\n        /* \"#utility.yul\":40410:40481   */\n      tag_818\n        /* \"#utility.yul\":40478:40479   */\n      0x00\n        /* \"#utility.yul\":40467:40476   */\n      dup4\n        /* \"#utility.yul\":40463:40480   */\n      add\n        /* \"#utility.yul\":40454:40460   */\n      dup6\n        /* \"#utility.yul\":40410:40481   */\n      tag_359\n      jump\t// in\n    tag_818:\n        /* \"#utility.yul\":40528:40537   */\n      dup2\n        /* \"#utility.yul\":40522:40526   */\n      dup2\n        /* \"#utility.yul\":40518:40538   */\n      sub\n        /* \"#utility.yul\":40513:40515   */\n      0x20\n        /* \"#utility.yul\":40502:40511   */\n      dup4\n        /* \"#utility.yul\":40498:40516   */\n      add\n        /* \"#utility.yul\":40491:40539   */\n      mstore\n        /* \"#utility.yul\":40556:40687   */\n      tag_819\n        /* \"#utility.yul\":40682:40686   */\n      dup2\n        /* \"#utility.yul\":40556:40687   */\n      tag_389\n      jump\t// in\n    tag_819:\n        /* \"#utility.yul\":40548:40687   */\n      swap1\n      pop\n        /* \"#utility.yul\":40697:40769   */\n      tag_820\n        /* \"#utility.yul\":40765:40767   */\n      0x40\n        /* \"#utility.yul\":40754:40763   */\n      dup4\n        /* \"#utility.yul\":40750:40768   */\n      add\n        /* \"#utility.yul\":40741:40747   */\n      dup5\n        /* \"#utility.yul\":40697:40769   */\n      tag_349\n      jump\t// in\n    tag_820:\n        /* \"#utility.yul\":40137:40776   */\n      swap4\n      swap3\n      pop\n      pop\n      pop\n      jump\t// out\n\n    auxdata: 0xa2646970667358221220d7eb424814c94ea34ad8e318e15168a510ca2cced64e4a83c79681a06fda728064736f6c63430008180033\n}\n",
				"bytecode": {
					"linkReferences": {},
					"object": "608060405234801562000010575f80fd5b50604051620035b9380380620035b9833981810160405281019062000036919062000122565b8060095f6101000a81548173ffffffffffffffffffffffffffffffffffffffff021916908373ffffffffffffffffffffffffffffffffffffffff16021790555033600e5f6101000a81548173ffffffffffffffffffffffffffffffffffffffff021916908373ffffffffffffffffffffffffffffffffffffffff1602179055505062000152565b5f80fd5b5f73ffffffffffffffffffffffffffffffffffffffff82169050919050565b5f620000ec82620000c1565b9050919050565b620000fe81620000e0565b811462000109575f80fd5b50565b5f815190506200011c81620000f3565b92915050565b5f602082840312156200013a5762000139620000bd565b5b5f62000149848285016200010c565b91505092915050565b61345980620001605f395ff3fe608060405234801561000f575f80fd5b5060043610610135575f3560e01c8063866c8470116100b6578063ba4295781161007a578063ba429578146103ec578063ca2efb5514610408578063cc74458c14610438578063dc2b2a4c1461046f578063f170cdae146104a3578063f57a3c49146104da57610135565b8063866c8470146103165780638da5cb5b146103495780638e15f473146103675780639ace38c214610385578063b9db15b4146103b957610135565b80634e70be95116100fd5780634e70be951461022d578063508ddcbb1461024957806358475c35146102795780636e374428146102ac5780637cd07fed146102e257610135565b806303e5b62814610139578063182072b01461016f5780632b6c653f146101a65780633f0a54a6146101dd5780634036b95014610211575b5f80fd5b610153600480360381019061014e9190612044565b6104f6565b6040516101669796959493929190612108565b60405180910390f35b61018960048036038101906101849190612044565b61064f565b60405161019d9897969594939291906121dc565b60405180910390f35b6101c060048036038101906101bb9190612044565b61085f565b6040516101d49897969594939291906121dc565b60405180910390f35b6101f760048036038101906101f29190612044565b610a60565b60405161020895949392919061226d565b60405180910390f35b61022b600480360381019061022691906124ae565b610aeb565b005b61024760048036038101906102429190612660565b610c7d565b005b610263600480360381019061025e9190612044565b610ea6565b6040516102709190612704565b60405180910390f35b610293600480360381019061028e9190612747565b610ee1565b6040516102a39493929190612785565b60405180910390f35b6102c660048036038101906102c191906127eb565b610f44565b6040516102d99796959493929190612108565b60405180910390f35b6102fc60048036038101906102f79190612829565b611099565b60405161030d95949392919061226d565b60405180910390f35b610330600480360381019061032b9190612044565b61112d565b6040516103409493929190612785565b60405180910390f35b610351611184565b60405161035e9190612890565b60405180910390f35b61036f6111a9565b60405161037c91906128c1565b60405180910390f35b61039f600480360381019061039a9190612044565b611246565b6040516103b095949392919061226d565b60405180910390f35b6103d360048036038101906103ce9190612044565b6112c2565b6040516103e394939291906128da565b60405180910390f35b61040660048036038101906104019190612932565b611528565b005b610422600480360381019061041d919061298c565b6115f9565b60405161042f9190612a02565b60405180910390f35b610452600480360381019061044d9190612a1b565b61183d565b6040516104669897969594939291906121dc565b60405180910390f35b61048960048036038101906104849190612044565b611a3e565b60405161049a959493929190612a46565b60405180910390f35b6104bd60048036038101906104b89190612747565b611b88565b6040516104d19897969594939291906121dc565b60405180910390f35b6104f460048036038101906104ef91906124ae565b611d94565b005b600b8181548110610505575f80fd5b905f5260205f2090600702015f91509050805f01549080600101805461052a90612ad2565b80601f016020809104026020016040519081016040528092919081815260200182805461055690612ad2565b80156105a15780601f10610578576101008083540402835291602001916105a1565b820191905f5260205f20905b81548152906001019060200180831161058457829003601f168201915b5050505050908060020154908060030180546105bc90612ad2565b80601f01602080910402602001604051908101604052809291908181526020018280546105e890612ad2565b80156106335780601f1061060a57610100808354040283529160200191610633565b820191905f5260205f20905b81548152906001019060200180831161061657829003601f168201915b5050505050908060040154908060050154908060060154905087565b600a818154811061065e575f80fd5b905f5260205f2090600802015f91509050805f015490806001015f9054906101000a900460ff1690806002015490806003015f9054906101000a900473ffffffffffffffffffffffffffffffffffffffff16908060040180546106c090612ad2565b80601f01602080910402602001604051908101604052809291908181526020018280546106ec90612ad2565b80156107375780601f1061070e57610100808354040283529160200191610737565b820191905f5260205f20905b81548152906001019060200180831161071a57829003601f168201915b50505050509080600501549080600601805461075290612ad2565b80601f016020809104026020016040519081016040528092919081815260200182805461077e90612ad2565b80156107c95780601f106107a0576101008083540402835291602001916107c9565b820191905f5260205f20905b8154815290600101906020018083116107ac57829003601f168201915b5050505050908060070180546107de90612ad2565b80601f016020809104026020016040519081016040528092919081815260200182805461080a90612ad2565b80156108555780601f1061082c57610100808354040283529160200191610855565b820191905f5260205f20905b81548152906001019060200180831161083857829003601f168201915b5050505050905088565b600d602052805f5260405f205f91509050805f015490806001015f9054906101000a900460ff1690806002015490806003015f9054906101000a900473ffffffffffffffffffffffffffffffffffffffff16908060040180546108c190612ad2565b80601f01602080910402602001604051908101604052809291908181526020018280546108ed90612ad2565b80156109385780601f1061090f57610100808354040283529160200191610938565b820191905f5260205f20905b81548152906001019060200180831161091b57829003601f168201915b50505050509080600501549080600601805461095390612ad2565b80601f016020809104026020016040519081016040528092919081815260200182805461097f90612ad2565b80156109ca5780601f106109a1576101008083540402835291602001916109ca565b820191905f5260205f20905b8154815290600101906020018083116109ad57829003601f168201915b5050505050908060070180546109df90612ad2565b80601f0160208091040260200160405190810160405280929190818152602001828054610a0b90612ad2565b8015610a565780601f10610a2d57610100808354040283529160200191610a56565b820191905f5260205f20905b815481529060010190602001808311610a3957829003601f168201915b5050505050905088565b600c8181548110610a6f575f80fd5b905f5260205f2090600502015f91509050805f015f9054906101000a900460ff1690806001015490806002015f9054906101000a900473ffffffffffffffffffffffffffffffffffffffff1690806003015490806004015f9054906101000a900473ffffffffffffffffffffffffffffffffffffffff16905085565b5f845111610b2e576040517f08c379a0000000000000000000000000000000000000000000000000000000008152600401610b2590612b4c565b60405180910390fd5b5f815111610b71576040517f08c379a0000000000000000000000000000000000000000000000000000000008152600401610b6890612bb4565b60405180910390fd5b6040518060400160405280600781526020017f4e69676572696100000000000000000000000000000000000000000000000000815250805190602001208380519060200120148015610c0657506040518060400160405280600781526020017f4e6967657269610000000000000000000000000000000000000000000000000081525080519060200120828051906020012014155b15610c77575f5b8151811015610c7557818181518110610c2957610c28612bd2565b5b60200260200101517fcc8e85e9a1f32ff5d86ada68ff28d5d46a095017387d7f4bb70725431984692033604051610c609190612c49565b60405180910390a28080600101915050610c0d565b505b50505050565b6060600a80549050600b8054905014610ccb576040517f08c379a0000000000000000000000000000000000000000000000000000000008152600401610cc290612ce5565b60405180910390fd5b5f600b8054905067ffffffffffffffff811115610ceb57610cea6122c6565b5b604051908082528060200260200182016040528015610d195781602001602082028036833780820191505090505b5090505f5b600b80549050811015610d7257838181518110610d3e57610d3d612bd2565b5b6020026020010151828281518110610d5957610d58612bd2565b5b6020026020010181815250508080600101915050610d1e565b505f855111610db6576040517f08c379a0000000000000000000000000000000000000000000000000000000008152600401610dad90612d4d565b60405180910390fd5b8251845114610dfa576040517f08c379a0000000000000000000000000000000000000000000000000000000008152600401610df190612ce5565b60405180910390fd5b5f5b8451811015610e9e577f339100e79a1e49a3a66dfc5b4815844ccd06ca8220623b19840283af21727a1c866001604051610e37929190612d6b565b60405180910390a1828181518110610e5257610e51612bd2565b5b60200260200101517fcc8e85e9a1f32ff5d86ada68ff28d5d46a095017387d7f4bb70725431984692033604051610e899190612c49565b60405180910390a28080600101915050610dfc565b505050505050565b60068181548110610eb5575f80fd5b905f5260205f20015f915054906101000a900473ffffffffffffffffffffffffffffffffffffffff1681565b6005602052815f5260405f20602052805f5260405f205f9150915050805f015490806001015490806002015f9054906101000a900473ffffffffffffffffffffffffffffffffffffffff16908060020160149054906101000a900460ff16905084565b6003602052815f5260405f20602052805f5260405f205f9150915050805f015490806001018054610f7490612ad2565b80601f0160208091040260200160405190810160405280929190818152602001828054610fa090612ad2565b8015610feb5780601f10610fc257610100808354040283529160200191610feb565b820191905f5260205f20905b815481529060010190602001808311610fce57829003601f168201915b50505050509080600201549080600301805461100690612ad2565b80601f016020809104026020016040519081016040528092919081815260200182805461103290612ad2565b801561107d5780601f106110545761010080835404028352916020019161107d565b820191905f5260205f20905b81548152906001019060200180831161106057829003601f168201915b5050505050908060040154908060050154908060060154905087565b6001818051602081018201805184825260208301602085012081835280955050505050505f91509050805f015f9054906101000a900460ff1690806001015490806002015f9054906101000a900473ffffffffffffffffffffffffffffffffffffffff1690806003015490806004015f9054906101000a900473ffffffffffffffffffffffffffffffffffffffff16905085565b5f602052805f5260405f205f91509050805f015490806001015490806002015f9054906101000a900473ffffffffffffffffffffffffffffffffffffffff16908060020160149054906101000a900460ff16905084565b600e5f9054906101000a900473ffffffffffffffffffffffffffffffffffffffff1681565b5f8060095f9054906101000a900473ffffffffffffffffffffffffffffffffffffffff1673ffffffffffffffffffffffffffffffffffffffff1663feaf968c6040518163ffffffff1660e01b815260040160a060405180830381865afa158015611215573d5f803e3d5ffd5b505050506040513d601f19601f820116820180604052508101906112399190612e16565b5050509150508091505090565b6008602052805f5260405f205f91509050805f015f9054906101000a900460ff1690806001015490806002015f9054906101000a900473ffffffffffffffffffffffffffffffffffffffff1690806003015490806004015f9054906101000a900473ffffffffffffffffffffffffffffffffffffffff16905085565b60608060605f80851180156112dc5750600a805490508511155b61131b576040517f08c379a000000000000000000000000000000000000000000000000000000000815260040161131290612ed7565b60405180910390fd5b5f600a60018761132b9190612f22565b8154811061133c5761133b612bd2565b5b905f5260205f2090600802019050806006018160070182600401836003015f9054906101000a900473ffffffffffffffffffffffffffffffffffffffff1683805461138690612ad2565b80601f01602080910402602001604051908101604052809291908181526020018280546113b290612ad2565b80156113fd5780601f106113d4576101008083540402835291602001916113fd565b820191905f5260205f20905b8154815290600101906020018083116113e057829003601f168201915b5050505050935082805461141090612ad2565b80601f016020809104026020016040519081016040528092919081815260200182805461143c90612ad2565b80156114875780601f1061145e57610100808354040283529160200191611487565b820191905f5260205f20905b81548152906001019060200180831161146a57829003601f168201915b5050505050925081805461149a90612ad2565b80601f01602080910402602001604051908101604052809291908181526020018280546114c690612ad2565b80156115115780601f106114e857610100808354040283529160200191611511565b820191905f5260205f20905b8154815290600101906020018083116114f457829003601f168201915b505050505091509450945094509450509193509193565b5f8211801561153c5750600a805490508211155b61157b576040517f08c379a000000000000000000000000000000000000000000000000000000000815260040161157290612ed7565b60405180910390fd5b5f600a60018461158b9190612f22565b8154811061159c5761159b612bd2565b5b905f5260205f2090600802019050818160040190816115bb91906130f2565b507f339100e79a1e49a3a66dfc5b4815844ccd06ca8220623b19840283af21727a1c60016040516115ec91906131e4565b60405180910390a1505050565b5f8083511161163d576040517f08c379a00000000000000000000000000000000000000000000000000000000081526004016116349061325a565b60405180910390fd5b5f825111611680576040517f08c379a0000000000000000000000000000000000000000000000000000000008152600401611677906132c2565b60405180910390fd5b5f6040518061010001604052805f81526020016001151581526020015f81526020013373ffffffffffffffffffffffffffffffffffffffff1681526020016040518060400160405280600781526020017f437265617465640000000000000000000000000000000000000000000000000081525081526020015f8152602001858152602001848152509050600a81908060018154018082558091505060019003905f5260205f2090600802015f909190919091505f820151815f01556020820151816001015f6101000a81548160ff021916908315150217905550604082015181600201556060820151816003015f6101000a81548173ffffffffffffffffffffffffffffffffffffffff021916908373ffffffffffffffffffffffffffffffffffffffff16021790555060808201518160040190816117c091906130f2565b5060a0820151816005015560c08201518160060190816117e091906130f2565b5060e08201518160070190816117f691906130f2565b5050505f7f4ea95e25bfc92b9b3cac49a4220df7d53206c3d80e2ca4db9f6a49e51cb76372855f60405161182b929190613353565b60405180910390a25f91505092915050565b6002602052805f5260405f205f91509050805f015490806001015f9054906101000a900460ff1690806002015490806003015f9054906101000a900473ffffffffffffffffffffffffffffffffffffffff169080600401805461189f90612ad2565b80601f01602080910402602001604051908101604052809291908181526020018280546118cb90612ad2565b80156119165780601f106118ed57610100808354040283529160200191611916565b820191905f5260205f20905b8154815290600101906020018083116118f957829003601f168201915b50505050509080600501549080600601805461193190612ad2565b80601f016020809104026020016040519081016040528092919081815260200182805461195d90612ad2565b80156119a85780601f1061197f576101008083540402835291602001916119a8565b820191905f5260205f20905b81548152906001019060200180831161198b57829003601f168201915b5050505050908060070180546119bd90612ad2565b80601f01602080910402602001604051908101604052809291908181526020018280546119e990612ad2565b8015611a345780601f10611a0b57610100808354040283529160200191611a34565b820191905f5260205f20905b815481529060010190602001808311611a1757829003601f168201915b5050505050905088565b6007602052805f5260405f205f91509050805f015490806001018054611a6390612ad2565b80601f0160208091040260200160405190810160405280929190818152602001828054611a8f90612ad2565b8015611ada5780601f10611ab157610100808354040283529160200191611ada565b820191905f5260205f20905b815481529060010190602001808311611abd57829003601f168201915b505050505090806002018054611aef90612ad2565b80601f0160208091040260200160405190810160405280929190818152602001828054611b1b90612ad2565b8015611b665780601f10611b3d57610100808354040283529160200191611b66565b820191905f5260205f20905b815481529060010190602001808311611b4957829003601f168201915b505050505090806003015490806004015f9054906101000a900460ff16905085565b6004602052815f5260405f20602052805f5260405f205f9150915050805f015490806001015f9054906101000a900460ff1690806002015490806003015f9054906101000a900473ffffffffffffffffffffffffffffffffffffffff1690806004018054611bf590612ad2565b80601f0160208091040260200160405190810160405280929190818152602001828054611c2190612ad2565b8015611c6c5780601f10611c4357610100808354040283529160200191611c6c565b820191905f5260205f20905b815481529060010190602001808311611c4f57829003601f168201915b505050505090806005015490806006018054611c8790612ad2565b80601f0160208091040260200160405190810160405280929190818152602001828054611cb390612ad2565b8015611cfe5780601f10611cd557610100808354040283529160200191611cfe565b820191905f5260205f20905b815481529060010190602001808311611ce157829003601f168201915b505050505090806007018054611d1390612ad2565b80601f0160208091040260200160405190810160405280929190818152602001828054611d3f90612ad2565b8015611d8a5780601f10611d6157610100808354040283529160200191611d8a565b820191905f5260205f20905b815481529060010190602001808311611d6d57829003601f168201915b5050505050905088565b5f845111611dd7576040517f08c379a0000000000000000000000000000000000000000000000000000000008152600401611dce90612b4c565b60405180910390fd5b5f815111611e1a576040517f08c379a0000000000000000000000000000000000000000000000000000000008152600401611e1190612bb4565b60405180910390fd5b6040518060400160405280600781526020017f4e69676572696100000000000000000000000000000000000000000000000000815250805190602001208380519060200120148015611eaf57506040518060400160405280600781526020017f4e6967657269610000000000000000000000000000000000000000000000000081525080519060200120828051906020012014155b15611ffa575f60095f9054906101000a900473ffffffffffffffffffffffffffffffffffffffff1673ffffffffffffffffffffffffffffffffffffffff1663feaf968c6040518163ffffffff1660e01b815260040160a060405180830381865afa158015611f1f573d5f803e3d5ffd5b505050506040513d601f19601f82011682018060405250810190611f439190612e16565b5050509150505f8113611f8b576040517f08c379a0000000000000000000000000000000000000000000000000000000008152600401611f82906133cb565b60405180910390fd5b5f5b8251811015611ff757828181518110611fa957611fa8612bd2565b5b60200260200101517fcadcd35989e6067d7504dfedc645c79e7f8fcf1e0168974c122bacb5cc17fda13384604051611fe29291906133e9565b60405180910390a28080600101915050611f8d565b50505b50505050565b5f604051905090565b5f80fd5b5f80fd5b5f819050919050565b61202381612011565b811461202d575f80fd5b50565b5f8135905061203e8161201a565b92915050565b5f6020828403121561205957612058612009565b5b5f61206684828501612030565b91505092915050565b61207881612011565b82525050565b5f81519050919050565b5f82825260208201905092915050565b5f5b838110156120b557808201518184015260208101905061209a565b5f8484015250505050565b5f601f19601f8301169050919050565b5f6120da8261207e565b6120e48185612088565b93506120f4818560208601612098565b6120fd816120c0565b840191505092915050565b5f60e08201905061211b5f83018a61206f565b818103602083015261212d81896120d0565b905061213c604083018861206f565b818103606083015261214e81876120d0565b905061215d608083018661206f565b61216a60a083018561206f565b61217760c083018461206f565b98975050505050505050565b5f8115159050919050565b61219781612183565b82525050565b5f73ffffffffffffffffffffffffffffffffffffffff82169050919050565b5f6121c68261219d565b9050919050565b6121d6816121bc565b82525050565b5f610100820190506121f05f83018b61206f565b6121fd602083018a61218e565b61220a604083018961206f565b61221760608301886121cd565b818103608083015261222981876120d0565b905061223860a083018661206f565b81810360c083015261224a81856120d0565b905081810360e083015261225e81846120d0565b90509998505050505050505050565b5f60a0820190506122805f83018861218e565b61228d602083018761206f565b61229a60408301866121cd565b6122a7606083018561206f565b6122b460808301846121cd565b9695505050505050565b5f80fd5b5f80fd5b7f4e487b71000000000000000000000000000000000000000000000000000000005f52604160045260245ffd5b6122fc826120c0565b810181811067ffffffffffffffff8211171561231b5761231a6122c6565b5b80604052505050565b5f61232d612000565b905061233982826122f3565b919050565b5f67ffffffffffffffff821115612358576123576122c6565b5b612361826120c0565b9050602081019050919050565b828183375f83830152505050565b5f61238e6123898461233e565b612324565b9050828152602081018484840111156123aa576123a96122c2565b5b6123b584828561236e565b509392505050565b5f82601f8301126123d1576123d06122be565b5b81356123e184826020860161237c565b91505092915050565b5f67ffffffffffffffff821115612404576124036122c6565b5b602082029050602081019050919050565b5f80fd5b5f61242b612426846123ea565b612324565b9050808382526020820190506020840283018581111561244e5761244d612415565b5b835b8181101561247757806124638882612030565b845260208401935050602081019050612450565b5050509392505050565b5f82601f830112612495576124946122be565b5b81356124a5848260208601612419565b91505092915050565b5f805f80608085870312156124c6576124c5612009565b5b5f85013567ffffffffffffffff8111156124e3576124e261200d565b5b6124ef878288016123bd565b945050602085013567ffffffffffffffff8111156125105761250f61200d565b5b61251c878288016123bd565b935050604085013567ffffffffffffffff81111561253d5761253c61200d565b5b612549878288016123bd565b925050606085013567ffffffffffffffff81111561256a5761256961200d565b5b61257687828801612481565b91505092959194509250565b5f67ffffffffffffffff82111561259c5761259b6122c6565b5b602082029050602081019050919050565b5f6125bf6125ba84612582565b612324565b905080838252602082019050602084028301858111156125e2576125e1612415565b5b835b8181101561262957803567ffffffffffffffff811115612607576126066122be565b5b80860161261489826123bd565b855260208501945050506020810190506125e4565b5050509392505050565b5f82601f830112612647576126466122be565b5b81356126578482602086016125ad565b91505092915050565b5f805f6060848603121561267757612676612009565b5b5f84013567ffffffffffffffff8111156126945761269361200d565b5b6126a0868287016123bd565b935050602084013567ffffffffffffffff8111156126c1576126c061200d565b5b6126cd86828701612633565b925050604084013567ffffffffffffffff8111156126ee576126ed61200d565b5b6126fa86828701612481565b9150509250925092565b5f6020820190506127175f8301846121cd565b92915050565b612726816121bc565b8114612730575f80fd5b50565b5f813590506127418161271d565b92915050565b5f806040838503121561275d5761275c612009565b5b5f61276a85828601612030565b925050602061277b85828601612733565b9150509250929050565b5f6080820190506127985f83018761206f565b6127a5602083018661206f565b6127b260408301856121cd565b6127bf606083018461218e565b95945050505050565b600281106127d4575f80fd5b50565b5f813590506127e5816127c8565b92915050565b5f806040838503121561280157612800612009565b5b5f61280e858286016127d7565b925050602061281f85828601612030565b9150509250929050565b5f6020828403121561283e5761283d612009565b5b5f82013567ffffffffffffffff81111561285b5761285a61200d565b5b612867848285016123bd565b91505092915050565b5f61287a8261219d565b9050919050565b61288a81612870565b82525050565b5f6020820190506128a35f830184612881565b92915050565b5f819050919050565b6128bb816128a9565b82525050565b5f6020820190506128d45f8301846128b2565b92915050565b5f6080820190508181035f8301526128f281876120d0565b9050818103602083015261290681866120d0565b9050818103604083015261291a81856120d0565b905061292960608301846121cd565b95945050505050565b5f806040838503121561294857612947612009565b5b5f61295585828601612030565b925050602083013567ffffffffffffffff8111156129765761297561200d565b5b612982858286016123bd565b9150509250929050565b5f80604083850312156129a2576129a1612009565b5b5f83013567ffffffffffffffff8111156129bf576129be61200d565b5b6129cb858286016123bd565b925050602083013567ffffffffffffffff8111156129ec576129eb61200d565b5b6129f8858286016123bd565b9150509250929050565b5f602082019050612a155f83018461206f565b92915050565b5f60208284031215612a3057612a2f612009565b5b5f612a3d84828501612733565b91505092915050565b5f60a082019050612a595f83018861206f565b8181036020830152612a6b81876120d0565b90508181036040830152612a7f81866120d0565b9050612a8e606083018561206f565b612a9b608083018461218e565b9695505050505050565b7f4e487b71000000000000000000000000000000000000000000000000000000005f52602260045260245ffd5b5f6002820490506001821680612ae957607f821691505b602082108103612afc57612afb612aa5565b5b50919050565b7f42617463682049642069732072657175697265640000000000000000000000005f82015250565b5f612b36601483612088565b9150612b4182612b02565b602082019050919050565b5f6020820190508181035f830152612b6381612b2a565b9050919050565b7f4974656d206c69737420726571756972656400000000000000000000000000005f82015250565b5f612b9e601283612088565b9150612ba982612b6a565b602082019050919050565b5f6020820190508181035f830152612bcb81612b92565b9050919050565b7f4e487b71000000000000000000000000000000000000000000000000000000005f52603260045260245ffd5b7f4c61676f732043656e7472616c2057617265686f7573650000000000000000005f82015250565b5f612c33601783612088565b9150612c3e82612bff565b602082019050919050565b5f604082019050612c5c5f8301846121cd565b8181036020830152612c6d81612c27565b905092915050565b7f4974656d20616e64207175616e74697479206c656e677468206d69736d6174635f8201527f6800000000000000000000000000000000000000000000000000000000000000602082015250565b5f612ccf602183612088565b9150612cda82612c75565b604082019050919050565b5f6020820190508181035f830152612cfc81612cc3565b9050919050565b7f42617463682049442069732072657175697265640000000000000000000000005f82015250565b5f612d37601483612088565b9150612d4282612d03565b602082019050919050565b5f6020820190508181035f830152612d6481612d2b565b9050919050565b5f6040820190508181035f830152612d8381856120d0565b9050612d92602083018461218e565b9392505050565b5f69ffffffffffffffffffff82169050919050565b612db781612d99565b8114612dc1575f80fd5b50565b5f81519050612dd281612dae565b92915050565b612de1816128a9565b8114612deb575f80fd5b50565b5f81519050612dfc81612dd8565b92915050565b5f81519050612e108161201a565b92915050565b5f805f805f60a08688031215612e2f57612e2e612009565b5b5f612e3c88828901612dc4565b9550506020612e4d88828901612dee565b9450506040612e5e88828901612e02565b9350506060612e6f88828901612e02565b9250506080612e8088828901612dc4565b9150509295509295909350565b7f496e76616c69642070726f6475637420494400000000000000000000000000005f82015250565b5f612ec1601283612088565b9150612ecc82612e8d565b602082019050919050565b5f6020820190508181035f830152612eee81612eb5565b9050919050565b7f4e487b71000000000000000000000000000000000000000000000000000000005f52601160045260245ffd5b5f612f2c82612011565b9150612f3783612011565b9250828203905081811115612f4f57612f4e612ef5565b5b92915050565b5f819050815f5260205f209050919050565b5f6020601f8301049050919050565b5f82821b905092915050565b5f60088302612fb17fffffffffffffffffffffffffffffffffffffffffffffffffffffffffffffffff82612f76565b612fbb8683612f76565b95508019841693508086168417925050509392505050565b5f819050919050565b5f612ff6612ff1612fec84612011565b612fd3565b612011565b9050919050565b5f819050919050565b61300f83612fdc565b61302361301b82612ffd565b848454612f82565b825550505050565b5f90565b61303761302b565b613042818484613006565b505050565b5b818110156130655761305a5f8261302f565b600181019050613048565b5050565b601f8211156130aa5761307b81612f55565b61308484612f67565b81016020851015613093578190505b6130a761309f85612f67565b830182613047565b50505b505050565b5f82821c905092915050565b5f6130ca5f19846008026130af565b1980831691505092915050565b5f6130e283836130bb565b9150826002028217905092915050565b6130fb8261207e565b67ffffffffffffffff811115613114576131136122c6565b5b61311e8254612ad2565b613129828285613069565b5f60209050601f83116001811461315a575f8415613148578287015190505b61315285826130d7565b8655506131b9565b601f19841661316886612f55565b5f5b8281101561318f5784890151825560018201915060208501945060208101905061316a565b868310156131ac57848901516131a8601f8916826130bb565b8355505b6001600288020188555050505b505050505050565b50565b5f6131cf5f83612088565b91506131da826131c1565b5f82019050919050565b5f6040820190508181035f8301526131fb816131c4565b905061320a602083018461218e565b92915050565b7f50726f64756374206e616d6520697320726571756972656400000000000000005f82015250565b5f613244601883612088565b915061324f82613210565b602082019050919050565b5f6020820190508181035f83015261327181613238565b9050919050565b7f4261746368206e756d62657220697320726571756972656400000000000000005f82015250565b5f6132ac601883612088565b91506132b782613278565b602082019050919050565b5f6020820190508181035f8301526132d9816132a0565b9050919050565b7f4e487b71000000000000000000000000000000000000000000000000000000005f52602160045260245ffd5b6002811061331e5761331d6132e0565b5b50565b5f81905061332e8261330d565b919050565b5f61333d82613321565b9050919050565b61334d81613333565b82525050565b5f6040820190508181035f83015261336b81856120d0565b905061337a6020830184613344565b9392505050565b7f496e76616c6964207072696365000000000000000000000000000000000000005f82015250565b5f6133b5600d83612088565b91506133c082613381565b602082019050919050565b5f6020820190508181035f8301526133e2816133a9565b9050919050565b5f6060820190506133fc5f8301856121cd565b818103602083015261340d81612c27565b905061341c604083018461206f565b939250505056fea2646970667358221220d7eb424814c94ea34ad8e318e15168a510ca2cced64e4a83c79681a06fda728064736f6c63430008180033",
					"opcodes": "PUSH1 0x80 PUSH1 0x40 MSTORE CALLVALUE DUP1 ISZERO PUSH3 0x10 JUMPI PUSH0 DUP1 REVERT JUMPDEST POP PUSH1 0x40 MLOAD PUSH3 0x35B9 CODESIZE SUB DUP1 PUSH3 0x35B9 DUP4 CODECOPY DUP2 DUP2 ADD PUSH1 0x40 MSTORE DUP2 ADD SWAP1 PUSH3 0x36 SWAP2 SWAP1 PUSH3 0x122 JUMP JUMPDEST DUP1 PUSH1 0x9 PUSH0 PUSH2 0x100 EXP DUP2 SLOAD DUP2 PUSH20 0xFFFFFFFFFFFFFFFFFFFFFFFFFFFFFFFFFFFFFFFF MUL NOT AND SWAP1 DUP4 PUSH20 0xFFFFFFFFFFFFFFFFFFFFFFFFFFFFFFFFFFFFFFFF AND MUL OR SWAP1 SSTORE POP CALLER PUSH1 0xE PUSH0 PUSH2 0x100 EXP DUP2 SLOAD DUP2 PUSH20 0xFFFFFFFFFFFFFFFFFFFFFFFFFFFFFFFFFFFFFFFF MUL NOT AND SWAP1 DUP4 PUSH20 0xFFFFFFFFFFFFFFFFFFFFFFFFFFFFFFFFFFFFFFFF AND MUL OR SWAP1 SSTORE POP POP PUSH3 0x152 JUMP JUMPDEST PUSH0 DUP1 REVERT JUMPDEST PUSH0 PUSH20 0xFFFFFFFFFFFFFFFFFFFFFFFFFFFFFFFFFFFFFFFF DUP3 AND SWAP1 POP SWAP2 SWAP1 POP JUMP JUMPDEST PUSH0 PUSH3 0xEC DUP3 PUSH3 0xC1 JUMP JUMPDEST SWAP1 POP SWAP2 SWAP1 POP JUMP JUMPDEST PUSH3 0xFE DUP2 PUSH3 0xE0 JUMP JUMPDEST DUP2 EQ PUSH3 0x109 JUMPI PUSH0 DUP1 REVERT JUMPDEST POP JUMP JUMPDEST PUSH0 DUP2 MLOAD SWAP1 POP PUSH3 0x11C DUP2 PUSH3 0xF3 JUMP JUMPDEST SWAP3 SWAP2 POP POP JUMP JUMPDEST PUSH0 PUSH1 0x20 DUP3 DUP5 SUB SLT ISZERO PUSH3 0x13A JUMPI PUSH3 0x139 PUSH3 0xBD JUMP JUMPDEST JUMPDEST PUSH0 PUSH3 0x149 DUP5 DUP3 DUP6 ADD PUSH3 0x10C JUMP JUMPDEST SWAP2 POP POP SWAP3 SWAP2 POP POP JUMP JUMPDEST PUSH2 0x3459 DUP1 PUSH3 0x160 PUSH0 CODECOPY PUSH0 RETURN INVALID PUSH1 0x80 PUSH1 0x40 MSTORE CALLVALUE DUP1 ISZERO PUSH2 0xF JUMPI PUSH0 DUP1 REVERT JUMPDEST POP PUSH1 0x4 CALLDATASIZE LT PUSH2 0x135 JUMPI PUSH0 CALLDATALOAD PUSH1 0xE0 SHR DUP1 PUSH4 0x866C8470 GT PUSH2 0xB6 JUMPI DUP1 PUSH4 0xBA429578 GT PUSH2 0x7A JUMPI DUP1 PUSH4 0xBA429578 EQ PUSH2 0x3EC JUMPI DUP1 PUSH4 0xCA2EFB55 EQ PUSH2 0x408 JUMPI DUP1 PUSH4 0xCC74458C EQ PUSH2 0x438 JUMPI DUP1 PUSH4 0xDC2B2A4C EQ PUSH2 0x46F JUMPI DUP1 PUSH4 0xF170CDAE EQ PUSH2 0x4A3 JUMPI DUP1 PUSH4 0xF57A3C49 EQ PUSH2 0x4DA JUMPI PUSH2 0x135 JUMP JUMPDEST DUP1 PUSH4 0x866C8470 EQ PUSH2 0x316 JUMPI DUP1 PUSH4 0x8DA5CB5B EQ PUSH2 0x349 JUMPI DUP1 PUSH4 0x8E15F473 EQ PUSH2 0x367 JUMPI DUP1 PUSH4 0x9ACE38C2 EQ PUSH2 0x385 JUMPI DUP1 PUSH4 0xB9DB15B4 EQ PUSH2 0x3B9 JUMPI PUSH2 0x135 JUMP JUMPDEST DUP1 PUSH4 0x4E70BE95 GT PUSH2 0xFD JUMPI DUP1 PUSH4 0x4E70BE95 EQ PUSH2 0x22D JUMPI DUP1 PUSH4 0x508DDCBB EQ PUSH2 0x249 JUMPI DUP1 PUSH4 0x58475C35 EQ PUSH2 0x279 JUMPI DUP1 PUSH4 0x6E374428 EQ PUSH2 0x2AC JUMPI DUP1 PUSH4 0x7CD07FED EQ PUSH2 0x2E2 JUMPI PUSH2 0x135 JUMP JUMPDEST DUP1 PUSH4 0x3E5B628 EQ PUSH2 0x139 JUMPI DUP1 PUSH4 0x182072B0 EQ PUSH2 0x16F JUMPI DUP1 PUSH4 0x2B6C653F EQ PUSH2 0x1A6 JUMPI DUP1 PUSH4 0x3F0A54A6 EQ PUSH2 0x1DD JUMPI DUP1 PUSH4 0x4036B950 EQ PUSH2 0x211 JUMPI JUMPDEST PUSH0 DUP1 REVERT JUMPDEST PUSH2 0x153 PUSH1 0x4 DUP1 CALLDATASIZE SUB DUP2 ADD SWAP1 PUSH2 0x14E SWAP2 SWAP1 PUSH2 0x2044 JUMP JUMPDEST PUSH2 0x4F6 JUMP JUMPDEST PUSH1 0x40 MLOAD PUSH2 0x166 SWAP8 SWAP7 SWAP6 SWAP5 SWAP4 SWAP3 SWAP2 SWAP1 PUSH2 0x2108 JUMP JUMPDEST PUSH1 0x40 MLOAD DUP1 SWAP2 SUB SWAP1 RETURN JUMPDEST PUSH2 0x189 PUSH1 0x4 DUP1 CALLDATASIZE SUB DUP2 ADD SWAP1 PUSH2 0x184 SWAP2 SWAP1 PUSH2 0x2044 JUMP JUMPDEST PUSH2 0x64F JUMP JUMPDEST PUSH1 0x40 MLOAD PUSH2 0x19D SWAP9 SWAP8 SWAP7 SWAP6 SWAP5 SWAP4 SWAP3 SWAP2 SWAP1 PUSH2 0x21DC JUMP JUMPDEST PUSH1 0x40 MLOAD DUP1 SWAP2 SUB SWAP1 RETURN JUMPDEST PUSH2 0x1C0 PUSH1 0x4 DUP1 CALLDATASIZE SUB DUP2 ADD SWAP1 PUSH2 0x1BB SWAP2 SWAP1 PUSH2 0x2044 JUMP JUMPDEST PUSH2 0x85F JUMP JUMPDEST PUSH1 0x40 MLOAD PUSH2 0x1D4 SWAP9 SWAP8 SWAP7 SWAP6 SWAP5 SWAP4 SWAP3 SWAP2 SWAP1 PUSH2 0x21DC JUMP JUMPDEST PUSH1 0x40 MLOAD DUP1 SWAP2 SUB SWAP1 RETURN JUMPDEST PUSH2 0x1F7 PUSH1 0x4 DUP1 CALLDATASIZE SUB DUP2 ADD SWAP1 PUSH2 0x1F2 SWAP2 SWAP1 PUSH2 0x2044 JUMP JUMPDEST PUSH2 0xA60 JUMP JUMPDEST PUSH1 0x40 MLOAD PUSH2 0x208 SWAP6 SWAP5 SWAP4 SWAP3 SWAP2 SWAP1 PUSH2 0x226D JUMP JUMPDEST PUSH1 0x40 MLOAD DUP1 SWAP2 SUB SWAP1 RETURN JUMPDEST PUSH2 0x22B PUSH1 0x4 DUP1 CALLDATASIZE SUB DUP2 ADD SWAP1 PUSH2 0x226 SWAP2 SWAP1 PUSH2 0x24AE JUMP JUMPDEST PUSH2 0xAEB JUMP JUMPDEST STOP JUMPDEST PUSH2 0x247 PUSH1 0x4 DUP1 CALLDATASIZE SUB DUP2 ADD SWAP1 PUSH2 0x242 SWAP2 SWAP1 PUSH2 0x2660 JUMP JUMPDEST PUSH2 0xC7D JUMP JUMPDEST STOP JUMPDEST PUSH2 0x263 PUSH1 0x4 DUP1 CALLDATASIZE SUB DUP2 ADD SWAP1 PUSH2 0x25E SWAP2 SWAP1 PUSH2 0x2044 JUMP JUMPDEST PUSH2 0xEA6 JUMP JUMPDEST PUSH1 0x40 MLOAD PUSH2 0x270 SWAP2 SWAP1 PUSH2 0x2704 JUMP JUMPDEST PUSH1 0x40 MLOAD DUP1 SWAP2 SUB SWAP1 RETURN JUMPDEST PUSH2 0x293 PUSH1 0x4 DUP1 CALLDATASIZE SUB DUP2 ADD SWAP1 PUSH2 0x28E SWAP2 SWAP1 PUSH2 0x2747 JUMP JUMPDEST PUSH2 0xEE1 JUMP JUMPDEST PUSH1 0x40 MLOAD PUSH2 0x2A3 SWAP5 SWAP4 SWAP3 SWAP2 SWAP1 PUSH2 0x2785 JUMP JUMPDEST PUSH1 0x40 MLOAD DUP1 SWAP2 SUB SWAP1 RETURN JUMPDEST PUSH2 0x2C6 PUSH1 0x4 DUP1 CALLDATASIZE SUB DUP2 ADD SWAP1 PUSH2 0x2C1 SWAP2 SWAP1 PUSH2 0x27EB JUMP JUMPDEST PUSH2 0xF44 JUMP JUMPDEST PUSH1 0x40 MLOAD PUSH2 0x2D9 SWAP8 SWAP7 SWAP6 SWAP5 SWAP4 SWAP3 SWAP2 SWAP1 PUSH2 0x2108 JUMP JUMPDEST PUSH1 0x40 MLOAD DUP1 SWAP2 SUB SWAP1 RETURN JUMPDEST PUSH2 0x2FC PUSH1 0x4 DUP1 CALLDATASIZE SUB DUP2 ADD SWAP1 PUSH2 0x2F7 SWAP2 SWAP1 PUSH2 0x2829 JUMP JUMPDEST PUSH2 0x1099 JUMP JUMPDEST PUSH1 0x40 MLOAD PUSH2 0x30D SWAP6 SWAP5 SWAP4 SWAP3 SWAP2 SWAP1 PUSH2 0x226D JUMP JUMPDEST PUSH1 0x40 MLOAD DUP1 SWAP2 SUB SWAP1 RETURN JUMPDEST PUSH2 0x330 PUSH1 0x4 DUP1 CALLDATASIZE SUB DUP2 ADD SWAP1 PUSH2 0x32B SWAP2 SWAP1 PUSH2 0x2044 JUMP JUMPDEST PUSH2 0x112D JUMP JUMPDEST PUSH1 0x40 MLOAD PUSH2 0x340 SWAP5 SWAP4 SWAP3 SWAP2 SWAP1 PUSH2 0x2785 JUMP JUMPDEST PUSH1 0x40 MLOAD DUP1 SWAP2 SUB SWAP1 RETURN JUMPDEST PUSH2 0x351 PUSH2 0x1184 JUMP JUMPDEST PUSH1 0x40 MLOAD PUSH2 0x35E SWAP2 SWAP1 PUSH2 0x2890 JUMP JUMPDEST PUSH1 0x40 MLOAD DUP1 SWAP2 SUB SWAP1 RETURN JUMPDEST PUSH2 0x36F PUSH2 0x11A9 JUMP JUMPDEST PUSH1 0x40 MLOAD PUSH2 0x37C SWAP2 SWAP1 PUSH2 0x28C1 JUMP JUMPDEST PUSH1 0x40 MLOAD DUP1 SWAP2 SUB SWAP1 RETURN JUMPDEST PUSH2 0x39F PUSH1 0x4 DUP1 CALLDATASIZE SUB DUP2 ADD SWAP1 PUSH2 0x39A SWAP2 SWAP1 PUSH2 0x2044 JUMP JUMPDEST PUSH2 0x1246 JUMP JUMPDEST PUSH1 0x40 MLOAD PUSH2 0x3B0 SWAP6 SWAP5 SWAP4 SWAP3 SWAP2 SWAP1 PUSH2 0x226D JUMP JUMPDEST PUSH1 0x40 MLOAD DUP1 SWAP2 SUB SWAP1 RETURN JUMPDEST PUSH2 0x3D3 PUSH1 0x4 DUP1 CALLDATASIZE SUB DUP2 ADD SWAP1 PUSH2 0x3CE SWAP2 SWAP1 PUSH2 0x2044 JUMP JUMPDEST PUSH2 0x12C2 JUMP JUMPDEST PUSH1 0x40 MLOAD PUSH2 0x3E3 SWAP5 SWAP4 SWAP3 SWAP2 SWAP1 PUSH2 0x28DA JUMP JUMPDEST PUSH1 0x40 MLOAD DUP1 SWAP2 SUB SWAP1 RETURN JUMPDEST PUSH2 0x406 PUSH1 0x4 DUP1 CALLDATASIZE SUB DUP2 ADD SWAP1 PUSH2 0x401 SWAP2 SWAP1 PUSH2 0x2932 JUMP JUMPDEST PUSH2 0x1528 JUMP JUMPDEST STOP JUMPDEST PUSH2 0x422 PUSH1 0x4 DUP1 CALLDATASIZE SUB DUP2 ADD SWAP1 PUSH2 0x41D SWAP2 SWAP1 PUSH2 0x298C JUMP JUMPDEST PUSH2 0x15F9 JUMP JUMPDEST PUSH1 0x40 MLOAD PUSH2 0x42F SWAP2 SWAP1 PUSH2 0x2A02 JUMP JUMPDEST PUSH1 0x40 MLOAD DUP1 SWAP2 SUB SWAP1 RETURN JUMPDEST PUSH2 0x452 PUSH1 0x4 DUP1 CALLDATASIZE SUB DUP2 ADD SWAP1 PUSH2 0x44D SWAP2 SWAP1 PUSH2 0x2A1B JUMP JUMPDEST PUSH2 0x183D JUMP JUMPDEST PUSH1 0x40 MLOAD PUSH2 0x466 SWAP9 SWAP8 SWAP7 SWAP6 SWAP5 SWAP4 SWAP3 SWAP2 SWAP1 PUSH2 0x21DC JUMP JUMPDEST PUSH1 0x40 MLOAD DUP1 SWAP2 SUB SWAP1 RETURN JUMPDEST PUSH2 0x489 PUSH1 0x4 DUP1 CALLDATASIZE SUB DUP2 ADD SWAP1 PUSH2 0x484 SWAP2 SWAP1 PUSH2 0x2044 JUMP JUMPDEST PUSH2 0x1A3E JUMP JUMPDEST PUSH1 0x40 MLOAD PUSH2 0x49A SWAP6 SWAP5 SWAP4 SWAP3 SWAP2 SWAP1 PUSH2 0x2A46 JUMP JUMPDEST PUSH1 0x40 MLOAD DUP1 SWAP2 SUB SWAP1 RETURN JUMPDEST PUSH2 0x4BD PUSH1 0x4 DUP1 CALLDATASIZE SUB DUP2 ADD SWAP1 PUSH2 0x4B8 SWAP2 SWAP1 PUSH2 0x2747 JUMP JUMPDEST PUSH2 0x1B88 JUMP JUMPDEST PUSH1 0x40 MLOAD PUSH2 0x4D1 SWAP9 SWAP8 SWAP7 SWAP6 SWAP5 SWAP4 SWAP3 SWAP2 SWAP1 PUSH2 0x21DC JUMP JUMPDEST PUSH1 0x40 MLOAD DUP1 SWAP2 SUB SWAP1 RETURN JUMPDEST PUSH2 0x4F4 PUSH1 0x4 DUP1 CALLDATASIZE SUB DUP2 ADD SWAP1 PUSH2 0x4EF SWAP2 SWAP1 PUSH2 0x24AE JUMP JUMPDEST PUSH2 0x1D94 JUMP JUMPDEST STOP JUMPDEST PUSH1 0xB DUP2 DUP2 SLOAD DUP2 LT PUSH2 0x505 JUMPI PUSH0 DUP1 REVERT JUMPDEST SWAP1 PUSH0 MSTORE PUSH1 0x20 PUSH0 KECCAK256 SWAP1 PUSH1 0x7 MUL ADD PUSH0 SWAP2 POP SWAP1 POP DUP1 PUSH0 ADD SLOAD SWAP1 DUP1 PUSH1 0x1 ADD DUP1 SLOAD PUSH2 0x52A SWAP1 PUSH2 0x2AD2 JUMP JUMPDEST DUP1 PUSH1 0x1F ADD PUSH1 0x20 DUP1 SWAP2 DIV MUL PUSH1 0x20 ADD PUSH1 0x40 MLOAD SWAP1 DUP2 ADD PUSH1 0x40 MSTORE DUP1 SWAP3 SWAP2 SWAP1 DUP2 DUP2 MSTORE PUSH1 0x20 ADD DUP3 DUP1 SLOAD PUSH2 0x556 SWAP1 PUSH2 0x2AD2 JUMP JUMPDEST DUP1 ISZERO PUSH2 0x5A1 JUMPI DUP1 PUSH1 0x1F LT PUSH2 0x578 JUMPI PUSH2 0x100 DUP1 DUP4 SLOAD DIV MUL DUP4 MSTORE SWAP2 PUSH1 0x20 ADD SWAP2 PUSH2 0x5A1 JUMP JUMPDEST DUP3 ADD SWAP2 SWAP1 PUSH0 MSTORE PUSH1 0x20 PUSH0 KECCAK256 SWAP1 JUMPDEST DUP2 SLOAD DUP2 MSTORE SWAP1 PUSH1 0x1 ADD SWAP1 PUSH1 0x20 ADD DUP1 DUP4 GT PUSH2 0x584 JUMPI DUP3 SWAP1 SUB PUSH1 0x1F AND DUP3 ADD SWAP2 JUMPDEST POP POP POP POP POP SWAP1 DUP1 PUSH1 0x2 ADD SLOAD SWAP1 DUP1 PUSH1 0x3 ADD DUP1 SLOAD PUSH2 0x5BC SWAP1 PUSH2 0x2AD2 JUMP JUMPDEST DUP1 PUSH1 0x1F ADD PUSH1 0x20 DUP1 SWAP2 DIV MUL PUSH1 0x20 ADD PUSH1 0x40 MLOAD SWAP1 DUP2 ADD PUSH1 0x40 MSTORE DUP1 SWAP3 SWAP2 SWAP1 DUP2 DUP2 MSTORE PUSH1 0x20 ADD DUP3 DUP1 SLOAD PUSH2 0x5E8 SWAP1 PUSH2 0x2AD2 JUMP JUMPDEST DUP1 ISZERO PUSH2 0x633 JUMPI DUP1 PUSH1 0x1F LT PUSH2 0x60A JUMPI PUSH2 0x100 DUP1 DUP4 SLOAD DIV MUL DUP4 MSTORE SWAP2 PUSH1 0x20 ADD SWAP2 PUSH2 0x633 JUMP JUMPDEST DUP3 ADD SWAP2 SWAP1 PUSH0 MSTORE PUSH1 0x20 PUSH0 KECCAK256 SWAP1 JUMPDEST DUP2 SLOAD DUP2 MSTORE SWAP1 PUSH1 0x1 ADD SWAP1 PUSH1 0x20 ADD DUP1 DUP4 GT PUSH2 0x616 JUMPI DUP3 SWAP1 SUB PUSH1 0x1F AND DUP3 ADD SWAP2 JUMPDEST POP POP POP POP POP SWAP1 DUP1 PUSH1 0x4 ADD SLOAD SWAP1 DUP1 PUSH1 0x5 ADD SLOAD SWAP1 DUP1 PUSH1 0x6 ADD SLOAD SWAP1 POP DUP8 JUMP JUMPDEST PUSH1 0xA DUP2 DUP2 SLOAD DUP2 LT PUSH2 0x65E JUMPI PUSH0 DUP1 REVERT JUMPDEST SWAP1 PUSH0 MSTORE PUSH1 0x20 PUSH0 KECCAK256 SWAP1 PUSH1 0x8 MUL ADD PUSH0 SWAP2 POP SWAP1 POP DUP1 PUSH0 ADD SLOAD SWAP1 DUP1 PUSH1 0x1 ADD PUSH0 SWAP1 SLOAD SWAP1 PUSH2 0x100 EXP SWAP1 DIV PUSH1 0xFF AND SWAP1 DUP1 PUSH1 0x2 ADD SLOAD SWAP1 DUP1 PUSH1 0x3 ADD PUSH0 SWAP1 SLOAD SWAP1 PUSH2 0x100 EXP SWAP1 DIV PUSH20 0xFFFFFFFFFFFFFFFFFFFFFFFFFFFFFFFFFFFFFFFF AND SWAP1 DUP1 PUSH1 0x4 ADD DUP1 SLOAD PUSH2 0x6C0 SWAP1 PUSH2 0x2AD2 JUMP JUMPDEST DUP1 PUSH1 0x1F ADD PUSH1 0x20 DUP1 SWAP2 DIV MUL PUSH1 0x20 ADD PUSH1 0x40 MLOAD SWAP1 DUP2 ADD PUSH1 0x40 MSTORE DUP1 SWAP3 SWAP2 SWAP1 DUP2 DUP2 MSTORE PUSH1 0x20 ADD DUP3 DUP1 SLOAD PUSH2 0x6EC SWAP1 PUSH2 0x2AD2 JUMP JUMPDEST DUP1 ISZERO PUSH2 0x737 JUMPI DUP1 PUSH1 0x1F LT PUSH2 0x70E JUMPI PUSH2 0x100 DUP1 DUP4 SLOAD DIV MUL DUP4 MSTORE SWAP2 PUSH1 0x20 ADD SWAP2 PUSH2 0x737 JUMP JUMPDEST DUP3 ADD SWAP2 SWAP1 PUSH0 MSTORE PUSH1 0x20 PUSH0 KECCAK256 SWAP1 JUMPDEST DUP2 SLOAD DUP2 MSTORE SWAP1 PUSH1 0x1 ADD SWAP1 PUSH1 0x20 ADD DUP1 DUP4 GT PUSH2 0x71A JUMPI DUP3 SWAP1 SUB PUSH1 0x1F AND DUP3 ADD SWAP2 JUMPDEST POP POP POP POP POP SWAP1 DUP1 PUSH1 0x5 ADD SLOAD SWAP1 DUP1 PUSH1 0x6 ADD DUP1 SLOAD PUSH2 0x752 SWAP1 PUSH2 0x2AD2 JUMP JUMPDEST DUP1 PUSH1 0x1F ADD PUSH1 0x20 DUP1 SWAP2 DIV MUL PUSH1 0x20 ADD PUSH1 0x40 MLOAD SWAP1 DUP2 ADD PUSH1 0x40 MSTORE DUP1 SWAP3 SWAP2 SWAP1 DUP2 DUP2 MSTORE PUSH1 0x20 ADD DUP3 DUP1 SLOAD PUSH2 0x77E SWAP1 PUSH2 0x2AD2 JUMP JUMPDEST DUP1 ISZERO PUSH2 0x7C9 JUMPI DUP1 PUSH1 0x1F LT PUSH2 0x7A0 JUMPI PUSH2 0x100 DUP1 DUP4 SLOAD DIV MUL DUP4 MSTORE SWAP2 PUSH1 0x20 ADD SWAP2 PUSH2 0x7C9 JUMP JUMPDEST DUP3 ADD SWAP2 SWAP1 PUSH0 MSTORE PUSH1 0x20 PUSH0 KECCAK256 SWAP1 JUMPDEST DUP2 SLOAD DUP2 MSTORE SWAP1 PUSH1 0x1 ADD SWAP1 PUSH1 0x20 ADD DUP1 DUP4 GT PUSH2 0x7AC JUMPI DUP3 SWAP1 SUB PUSH1 0x1F AND DUP3 ADD SWAP2 JUMPDEST POP POP POP POP POP SWAP1 DUP1 PUSH1 0x7 ADD DUP1 SLOAD PUSH2 0x7DE SWAP1 PUSH2 0x2AD2 JUMP JUMPDEST DUP1 PUSH1 0x1F ADD PUSH1 0x20 DUP1 SWAP2 DIV MUL PUSH1 0x20 ADD PUSH1 0x40 MLOAD SWAP1 DUP2 ADD PUSH1 0x40 MSTORE DUP1 SWAP3 SWAP2 SWAP1 DUP2 DUP2 MSTORE PUSH1 0x20 ADD DUP3 DUP1 SLOAD PUSH2 0x80A SWAP1 PUSH2 0x2AD2 JUMP JUMPDEST DUP1 ISZERO PUSH2 0x855 JUMPI DUP1 PUSH1 0x1F LT PUSH2 0x82C JUMPI PUSH2 0x100 DUP1 DUP4 SLOAD DIV MUL DUP4 MSTORE SWAP2 PUSH1 0x20 ADD SWAP2 PUSH2 0x855 JUMP JUMPDEST DUP3 ADD SWAP2 SWAP1 PUSH0 MSTORE PUSH1 0x20 PUSH0 KECCAK256 SWAP1 JUMPDEST DUP2 SLOAD DUP2 MSTORE SWAP1 PUSH1 0x1 ADD SWAP1 PUSH1 0x20 ADD DUP1 DUP4 GT PUSH2 0x838 JUMPI DUP3 SWAP1 SUB PUSH1 0x1F AND DUP3 ADD SWAP2 JUMPDEST POP POP POP POP POP SWAP1 POP DUP9 JUMP JUMPDEST PUSH1 0xD PUSH1 0x20 MSTORE DUP1 PUSH0 MSTORE PUSH1 0x40 PUSH0 KECCAK256 PUSH0 SWAP2 POP SWAP1 POP DUP1 PUSH0 ADD SLOAD SWAP1 DUP1 PUSH1 0x1 ADD PUSH0 SWAP1 SLOAD SWAP1 PUSH2 0x100 EXP SWAP1 DIV PUSH1 0xFF AND SWAP1 DUP1 PUSH1 0x2 ADD SLOAD SWAP1 DUP1 PUSH1 0x3 ADD PUSH0 SWAP1 SLOAD SWAP1 PUSH2 0x100 EXP SWAP1 DIV PUSH20 0xFFFFFFFFFFFFFFFFFFFFFFFFFFFFFFFFFFFFFFFF AND SWAP1 DUP1 PUSH1 0x4 ADD DUP1 SLOAD PUSH2 0x8C1 SWAP1 PUSH2 0x2AD2 JUMP JUMPDEST DUP1 PUSH1 0x1F ADD PUSH1 0x20 DUP1 SWAP2 DIV MUL PUSH1 0x20 ADD PUSH1 0x40 MLOAD SWAP1 DUP2 ADD PUSH1 0x40 MSTORE DUP1 SWAP3 SWAP2 SWAP1 DUP2 DUP2 MSTORE PUSH1 0x20 ADD DUP3 DUP1 SLOAD PUSH2 0x8ED SWAP1 PUSH2 0x2AD2 JUMP JUMPDEST DUP1 ISZERO PUSH2 0x938 JUMPI DUP1 PUSH1 0x1F LT PUSH2 0x90F JUMPI PUSH2 0x100 DUP1 DUP4 SLOAD DIV MUL DUP4 MSTORE SWAP2 PUSH1 0x20 ADD SWAP2 PUSH2 0x938 JUMP JUMPDEST DUP3 ADD SWAP2 SWAP1 PUSH0 MSTORE PUSH1 0x20 PUSH0 KECCAK256 SWAP1 JUMPDEST DUP2 SLOAD DUP2 MSTORE SWAP1 PUSH1 0x1 ADD SWAP1 PUSH1 0x20 ADD DUP1 DUP4 GT PUSH2 0x91B JUMPI DUP3 SWAP1 SUB PUSH1 0x1F AND DUP3 ADD SWAP2 JUMPDEST POP POP POP POP POP SWAP1 DUP1 PUSH1 0x5 ADD SLOAD SWAP1 DUP1 PUSH1 0x6 ADD DUP1 SLOAD PUSH2 0x953 SWAP1 PUSH2 0x2AD2 JUMP JUMPDEST DUP1 PUSH1 0x1F ADD PUSH1 0x20 DUP1 SWAP2 DIV MUL PUSH1 0x20 ADD PUSH1 0x40 MLOAD SWAP1 DUP2 ADD PUSH1 0x40 MSTORE DUP1 SWAP3 SWAP2 SWAP1 DUP2 DUP2 MSTORE PUSH1 0x20 ADD DUP3 DUP1 SLOAD PUSH2 0x97F SWAP1 PUSH2 0x2AD2 JUMP JUMPDEST DUP1 ISZERO PUSH2 0x9CA JUMPI DUP1 PUSH1 0x1F LT PUSH2 0x9A1 JUMPI PUSH2 0x100 DUP1 DUP4 SLOAD DIV MUL DUP4 MSTORE SWAP2 PUSH1 0x20 ADD SWAP2 PUSH2 0x9CA JUMP JUMPDEST DUP3 ADD SWAP2 SWAP1 PUSH0 MSTORE PUSH1 0x20 PUSH0 KECCAK256 SWAP1 JUMPDEST DUP2 SLOAD DUP2 MSTORE SWAP1 PUSH1 0x1 ADD SWAP1 PUSH1 0x20 ADD DUP1 DUP4 GT PUSH2 0x9AD JUMPI DUP3 SWAP1 SUB PUSH1 0x1F AND DUP3 ADD SWAP2 JUMPDEST POP POP POP POP POP SWAP1 DUP1 PUSH1 0x7 ADD DUP1 SLOAD PUSH2 0x9DF SWAP1 PUSH2 0x2AD2 JUMP JUMPDEST DUP1 PUSH1 0x1F ADD PUSH1 0x20 DUP1 SWAP2 DIV MUL PUSH1 0x20 ADD PUSH1 0x40 MLOAD SWAP1 DUP2 ADD PUSH1 0x40 MSTORE DUP1 SWAP3 SWAP2 SWAP1 DUP2 DUP2 MSTORE PUSH1 0x20 ADD DUP3 DUP1 SLOAD PUSH2 0xA0B SWAP1 PUSH2 0x2AD2 JUMP JUMPDEST DUP1 ISZERO PUSH2 0xA56 JUMPI DUP1 PUSH1 0x1F LT PUSH2 0xA2D JUMPI PUSH2 0x100 DUP1 DUP4 SLOAD DIV MUL DUP4 MSTORE SWAP2 PUSH1 0x20 ADD SWAP2 PUSH2 0xA56 JUMP JUMPDEST DUP3 ADD SWAP2 SWAP1 PUSH0 MSTORE PUSH1 0x20 PUSH0 KECCAK256 SWAP1 JUMPDEST DUP2 SLOAD DUP2 MSTORE SWAP1 PUSH1 0x1 ADD SWAP1 PUSH1 0x20 ADD DUP1 DUP4 GT PUSH2 0xA39 JUMPI DUP3 SWAP1 SUB PUSH1 0x1F AND DUP3 ADD SWAP2 JUMPDEST POP POP POP POP POP SWAP1 POP DUP9 JUMP JUMPDEST PUSH1 0xC DUP2 DUP2 SLOAD DUP2 LT PUSH2 0xA6F JUMPI PUSH0 DUP1 REVERT JUMPDEST SWAP1 PUSH0 MSTORE PUSH1 0x20 PUSH0 KECCAK256 SWAP1 PUSH1 0x5 MUL ADD PUSH0 SWAP2 POP SWAP1 POP DUP1 PUSH0 ADD PUSH0 SWAP1 SLOAD SWAP1 PUSH2 0x100 EXP SWAP1 DIV PUSH1 0xFF AND SWAP1 DUP1 PUSH1 0x1 ADD SLOAD SWAP1 DUP1 PUSH1 0x2 ADD PUSH0 SWAP1 SLOAD SWAP1 PUSH2 0x100 EXP SWAP1 DIV PUSH20 0xFFFFFFFFFFFFFFFFFFFFFFFFFFFFFFFFFFFFFFFF AND SWAP1 DUP1 PUSH1 0x3 ADD SLOAD SWAP1 DUP1 PUSH1 0x4 ADD PUSH0 SWAP1 SLOAD SWAP1 PUSH2 0x100 EXP SWAP1 DIV PUSH20 0xFFFFFFFFFFFFFFFFFFFFFFFFFFFFFFFFFFFFFFFF AND SWAP1 POP DUP6 JUMP JUMPDEST PUSH0 DUP5 MLOAD GT PUSH2 0xB2E JUMPI PUSH1 0x40 MLOAD PUSH32 0x8C379A000000000000000000000000000000000000000000000000000000000 DUP2 MSTORE PUSH1 0x4 ADD PUSH2 0xB25 SWAP1 PUSH2 0x2B4C JUMP JUMPDEST PUSH1 0x40 MLOAD DUP1 SWAP2 SUB SWAP1 REVERT JUMPDEST PUSH0 DUP2 MLOAD GT PUSH2 0xB71 JUMPI PUSH1 0x40 MLOAD PUSH32 0x8C379A000000000000000000000000000000000000000000000000000000000 DUP2 MSTORE PUSH1 0x4 ADD PUSH2 0xB68 SWAP1 PUSH2 0x2BB4 JUMP JUMPDEST PUSH1 0x40 MLOAD DUP1 SWAP2 SUB SWAP1 REVERT JUMPDEST PUSH1 0x40 MLOAD DUP1 PUSH1 0x40 ADD PUSH1 0x40 MSTORE DUP1 PUSH1 0x7 DUP2 MSTORE PUSH1 0x20 ADD PUSH32 0x4E69676572696100000000000000000000000000000000000000000000000000 DUP2 MSTORE POP DUP1 MLOAD SWAP1 PUSH1 0x20 ADD KECCAK256 DUP4 DUP1 MLOAD SWAP1 PUSH1 0x20 ADD KECCAK256 EQ DUP1 ISZERO PUSH2 0xC06 JUMPI POP PUSH1 0x40 MLOAD DUP1 PUSH1 0x40 ADD PUSH1 0x40 MSTORE DUP1 PUSH1 0x7 DUP2 MSTORE PUSH1 0x20 ADD PUSH32 0x4E69676572696100000000000000000000000000000000000000000000000000 DUP2 MSTORE POP DUP1 MLOAD SWAP1 PUSH1 0x20 ADD KECCAK256 DUP3 DUP1 MLOAD SWAP1 PUSH1 0x20 ADD KECCAK256 EQ ISZERO JUMPDEST ISZERO PUSH2 0xC77 JUMPI PUSH0 JUMPDEST DUP2 MLOAD DUP2 LT ISZERO PUSH2 0xC75 JUMPI DUP2 DUP2 DUP2 MLOAD DUP2 LT PUSH2 0xC29 JUMPI PUSH2 0xC28 PUSH2 0x2BD2 JUMP JUMPDEST JUMPDEST PUSH1 0x20 MUL PUSH1 0x20 ADD ADD MLOAD PUSH32 0xCC8E85E9A1F32FF5D86ADA68FF28D5D46A095017387D7F4BB707254319846920 CALLER PUSH1 0x40 MLOAD PUSH2 0xC60 SWAP2 SWAP1 PUSH2 0x2C49 JUMP JUMPDEST PUSH1 0x40 MLOAD DUP1 SWAP2 SUB SWAP1 LOG2 DUP1 DUP1 PUSH1 0x1 ADD SWAP2 POP POP PUSH2 0xC0D JUMP JUMPDEST POP JUMPDEST POP POP POP POP JUMP JUMPDEST PUSH1 0x60 PUSH1 0xA DUP1 SLOAD SWAP1 POP PUSH1 0xB DUP1 SLOAD SWAP1 POP EQ PUSH2 0xCCB JUMPI PUSH1 0x40 MLOAD PUSH32 0x8C379A000000000000000000000000000000000000000000000000000000000 DUP2 MSTORE PUSH1 0x4 ADD PUSH2 0xCC2 SWAP1 PUSH2 0x2CE5 JUMP JUMPDEST PUSH1 0x40 MLOAD DUP1 SWAP2 SUB SWAP1 REVERT JUMPDEST PUSH0 PUSH1 0xB DUP1 SLOAD SWAP1 POP PUSH8 0xFFFFFFFFFFFFFFFF DUP2 GT ISZERO PUSH2 0xCEB JUMPI PUSH2 0xCEA PUSH2 0x22C6 JUMP JUMPDEST JUMPDEST PUSH1 0x40 MLOAD SWAP1 DUP1 DUP3 MSTORE DUP1 PUSH1 0x20 MUL PUSH1 0x20 ADD DUP3 ADD PUSH1 0x40 MSTORE DUP1 ISZERO PUSH2 0xD19 JUMPI DUP2 PUSH1 0x20 ADD PUSH1 0x20 DUP3 MUL DUP1 CALLDATASIZE DUP4 CALLDATACOPY DUP1 DUP3 ADD SWAP2 POP POP SWAP1 POP JUMPDEST POP SWAP1 POP PUSH0 JUMPDEST PUSH1 0xB DUP1 SLOAD SWAP1 POP DUP2 LT ISZERO PUSH2 0xD72 JUMPI DUP4 DUP2 DUP2 MLOAD DUP2 LT PUSH2 0xD3E JUMPI PUSH2 0xD3D PUSH2 0x2BD2 JUMP JUMPDEST JUMPDEST PUSH1 0x20 MUL PUSH1 0x20 ADD ADD MLOAD DUP3 DUP3 DUP2 MLOAD DUP2 LT PUSH2 0xD59 JUMPI PUSH2 0xD58 PUSH2 0x2BD2 JUMP JUMPDEST JUMPDEST PUSH1 0x20 MUL PUSH1 0x20 ADD ADD DUP2 DUP2 MSTORE POP POP DUP1 DUP1 PUSH1 0x1 ADD SWAP2 POP POP PUSH2 0xD1E JUMP JUMPDEST POP PUSH0 DUP6 MLOAD GT PUSH2 0xDB6 JUMPI PUSH1 0x40 MLOAD PUSH32 0x8C379A000000000000000000000000000000000000000000000000000000000 DUP2 MSTORE PUSH1 0x4 ADD PUSH2 0xDAD SWAP1 PUSH2 0x2D4D JUMP JUMPDEST PUSH1 0x40 MLOAD DUP1 SWAP2 SUB SWAP1 REVERT JUMPDEST DUP3 MLOAD DUP5 MLOAD EQ PUSH2 0xDFA JUMPI PUSH1 0x40 MLOAD PUSH32 0x8C379A000000000000000000000000000000000000000000000000000000000 DUP2 MSTORE PUSH1 0x4 ADD PUSH2 0xDF1 SWAP1 PUSH2 0x2CE5 JUMP JUMPDEST PUSH1 0x40 MLOAD DUP1 SWAP2 SUB SWAP1 REVERT JUMPDEST PUSH0 JUMPDEST DUP5 MLOAD DUP2 LT ISZERO PUSH2 0xE9E JUMPI PUSH32 0x339100E79A1E49A3A66DFC5B4815844CCD06CA8220623B19840283AF21727A1C DUP7 PUSH1 0x1 PUSH1 0x40 MLOAD PUSH2 0xE37 SWAP3 SWAP2 SWAP1 PUSH2 0x2D6B JUMP JUMPDEST PUSH1 0x40 MLOAD DUP1 SWAP2 SUB SWAP1 LOG1 DUP3 DUP2 DUP2 MLOAD DUP2 LT PUSH2 0xE52 JUMPI PUSH2 0xE51 PUSH2 0x2BD2 JUMP JUMPDEST JUMPDEST PUSH1 0x20 MUL PUSH1 0x20 ADD ADD MLOAD PUSH32 0xCC8E85E9A1F32FF5D86ADA68FF28D5D46A095017387D7F4BB707254319846920 CALLER PUSH1 0x40 MLOAD PUSH2 0xE89 SWAP2 SWAP1 PUSH2 0x2C49 JUMP JUMPDEST PUSH1 0x40 MLOAD DUP1 SWAP2 SUB SWAP1 LOG2 DUP1 DUP1 PUSH1 0x1 ADD SWAP2 POP POP PUSH2 0xDFC JUMP JUMPDEST POP POP POP POP POP POP JUMP JUMPDEST PUSH1 0x6 DUP2 DUP2 SLOAD DUP2 LT PUSH2 0xEB5 JUMPI PUSH0 DUP1 REVERT JUMPDEST SWAP1 PUSH0 MSTORE PUSH1 0x20 PUSH0 KECCAK256 ADD PUSH0 SWAP2 POP SLOAD SWAP1 PUSH2 0x100 EXP SWAP1 DIV PUSH20 0xFFFFFFFFFFFFFFFFFFFFFFFFFFFFFFFFFFFFFFFF AND DUP2 JUMP JUMPDEST PUSH1 0x5 PUSH1 0x20 MSTORE DUP2 PUSH0 MSTORE PUSH1 0x40 PUSH0 KECCAK256 PUSH1 0x20 MSTORE DUP1 PUSH0 MSTORE PUSH1 0x40 PUSH0 KECCAK256 PUSH0 SWAP2 POP SWAP2 POP POP DUP1 PUSH0 ADD SLOAD SWAP1 DUP1 PUSH1 0x1 ADD SLOAD SWAP1 DUP1 PUSH1 0x2 ADD PUSH0 SWAP1 SLOAD SWAP1 PUSH2 0x100 EXP SWAP1 DIV PUSH20 0xFFFFFFFFFFFFFFFFFFFFFFFFFFFFFFFFFFFFFFFF AND SWAP1 DUP1 PUSH1 0x2 ADD PUSH1 0x14 SWAP1 SLOAD SWAP1 PUSH2 0x100 EXP SWAP1 DIV PUSH1 0xFF AND SWAP1 POP DUP5 JUMP JUMPDEST PUSH1 0x3 PUSH1 0x20 MSTORE DUP2 PUSH0 MSTORE PUSH1 0x40 PUSH0 KECCAK256 PUSH1 0x20 MSTORE DUP1 PUSH0 MSTORE PUSH1 0x40 PUSH0 KECCAK256 PUSH0 SWAP2 POP SWAP2 POP POP DUP1 PUSH0 ADD SLOAD SWAP1 DUP1 PUSH1 0x1 ADD DUP1 SLOAD PUSH2 0xF74 SWAP1 PUSH2 0x2AD2 JUMP JUMPDEST DUP1 PUSH1 0x1F ADD PUSH1 0x20 DUP1 SWAP2 DIV MUL PUSH1 0x20 ADD PUSH1 0x40 MLOAD SWAP1 DUP2 ADD PUSH1 0x40 MSTORE DUP1 SWAP3 SWAP2 SWAP1 DUP2 DUP2 MSTORE PUSH1 0x20 ADD DUP3 DUP1 SLOAD PUSH2 0xFA0 SWAP1 PUSH2 0x2AD2 JUMP JUMPDEST DUP1 ISZERO PUSH2 0xFEB JUMPI DUP1 PUSH1 0x1F LT PUSH2 0xFC2 JUMPI PUSH2 0x100 DUP1 DUP4 SLOAD DIV MUL DUP4 MSTORE SWAP2 PUSH1 0x20 ADD SWAP2 PUSH2 0xFEB JUMP JUMPDEST DUP3 ADD SWAP2 SWAP1 PUSH0 MSTORE PUSH1 0x20 PUSH0 KECCAK256 SWAP1 JUMPDEST DUP2 SLOAD DUP2 MSTORE SWAP1 PUSH1 0x1 ADD SWAP1 PUSH1 0x20 ADD DUP1 DUP4 GT PUSH2 0xFCE JUMPI DUP3 SWAP1 SUB PUSH1 0x1F AND DUP3 ADD SWAP2 JUMPDEST POP POP POP POP POP SWAP1 DUP1 PUSH1 0x2 ADD SLOAD SWAP1 DUP1 PUSH1 0x3 ADD DUP1 SLOAD PUSH2 0x1006 SWAP1 PUSH2 0x2AD2 JUMP JUMPDEST DUP1 PUSH1 0x1F ADD PUSH1 0x20 DUP1 SWAP2 DIV MUL PUSH1 0x20 ADD PUSH1 0x40 MLOAD SWAP1 DUP2 ADD PUSH1 0x40 MSTORE DUP1 SWAP3 SWAP2 SWAP1 DUP2 DUP2 MSTORE PUSH1 0x20 ADD DUP3 DUP1 SLOAD PUSH2 0x1032 SWAP1 PUSH2 0x2AD2 JUMP JUMPDEST DUP1 ISZERO PUSH2 0x107D JUMPI DUP1 PUSH1 0x1F LT PUSH2 0x1054 JUMPI PUSH2 0x100 DUP1 DUP4 SLOAD DIV MUL DUP4 MSTORE SWAP2 PUSH1 0x20 ADD SWAP2 PUSH2 0x107D JUMP JUMPDEST DUP3 ADD SWAP2 SWAP1 PUSH0 MSTORE PUSH1 0x20 PUSH0 KECCAK256 SWAP1 JUMPDEST DUP2 SLOAD DUP2 MSTORE SWAP1 PUSH1 0x1 ADD SWAP1 PUSH1 0x20 ADD DUP1 DUP4 GT PUSH2 0x1060 JUMPI DUP3 SWAP1 SUB PUSH1 0x1F AND DUP3 ADD SWAP2 JUMPDEST POP POP POP POP POP SWAP1 DUP1 PUSH1 0x4 ADD SLOAD SWAP1 DUP1 PUSH1 0x5 ADD SLOAD SWAP1 DUP1 PUSH1 0x6 ADD SLOAD SWAP1 POP DUP8 JUMP JUMPDEST PUSH1 0x1 DUP2 DUP1 MLOAD PUSH1 0x20 DUP2 ADD DUP3 ADD DUP1 MLOAD DUP5 DUP3 MSTORE PUSH1 0x20 DUP4 ADD PUSH1 0x20 DUP6 ADD KECCAK256 DUP2 DUP4 MSTORE DUP1 SWAP6 POP POP POP POP POP POP PUSH0 SWAP2 POP SWAP1 POP DUP1 PUSH0 ADD PUSH0 SWAP1 SLOAD SWAP1 PUSH2 0x100 EXP SWAP1 DIV PUSH1 0xFF AND SWAP1 DUP1 PUSH1 0x1 ADD SLOAD SWAP1 DUP1 PUSH1 0x2 ADD PUSH0 SWAP1 SLOAD SWAP1 PUSH2 0x100 EXP SWAP1 DIV PUSH20 0xFFFFFFFFFFFFFFFFFFFFFFFFFFFFFFFFFFFFFFFF AND SWAP1 DUP1 PUSH1 0x3 ADD SLOAD SWAP1 DUP1 PUSH1 0x4 ADD PUSH0 SWAP1 SLOAD SWAP1 PUSH2 0x100 EXP SWAP1 DIV PUSH20 0xFFFFFFFFFFFFFFFFFFFFFFFFFFFFFFFFFFFFFFFF AND SWAP1 POP DUP6 JUMP JUMPDEST PUSH0 PUSH1 0x20 MSTORE DUP1 PUSH0 MSTORE PUSH1 0x40 PUSH0 KECCAK256 PUSH0 SWAP2 POP SWAP1 POP DUP1 PUSH0 ADD SLOAD SWAP1 DUP1 PUSH1 0x1 ADD SLOAD SWAP1 DUP1 PUSH1 0x2 ADD PUSH0 SWAP1 SLOAD SWAP1 PUSH2 0x100 EXP SWAP1 DIV PUSH20 0xFFFFFFFFFFFFFFFFFFFFFFFFFFFFFFFFFFFFFFFF AND SWAP1 DUP1 PUSH1 0x2 ADD PUSH1 0x14 SWAP1 SLOAD SWAP1 PUSH2 0x100 EXP SWAP1 DIV PUSH1 0xFF AND SWAP1 POP DUP5 JUMP JUMPDEST PUSH1 0xE PUSH0 SWAP1 SLOAD SWAP1 PUSH2 0x100 EXP SWAP1 DIV PUSH20 0xFFFFFFFFFFFFFFFFFFFFFFFFFFFFFFFFFFFFFFFF AND DUP2 JUMP JUMPDEST PUSH0 DUP1 PUSH1 0x9 PUSH0 SWAP1 SLOAD SWAP1 PUSH2 0x100 EXP SWAP1 DIV PUSH20 0xFFFFFFFFFFFFFFFFFFFFFFFFFFFFFFFFFFFFFFFF AND PUSH20 0xFFFFFFFFFFFFFFFFFFFFFFFFFFFFFFFFFFFFFFFF AND PUSH4 0xFEAF968C PUSH1 0x40 MLOAD DUP2 PUSH4 0xFFFFFFFF AND PUSH1 0xE0 SHL DUP2 MSTORE PUSH1 0x4 ADD PUSH1 0xA0 PUSH1 0x40 MLOAD DUP1 DUP4 SUB DUP2 DUP7 GAS STATICCALL ISZERO DUP1 ISZERO PUSH2 0x1215 JUMPI RETURNDATASIZE PUSH0 DUP1 RETURNDATACOPY RETURNDATASIZE PUSH0 REVERT JUMPDEST POP POP POP POP PUSH1 0x40 MLOAD RETURNDATASIZE PUSH1 0x1F NOT PUSH1 0x1F DUP3 ADD AND DUP3 ADD DUP1 PUSH1 0x40 MSTORE POP DUP2 ADD SWAP1 PUSH2 0x1239 SWAP2 SWAP1 PUSH2 0x2E16 JUMP JUMPDEST POP POP POP SWAP2 POP POP DUP1 SWAP2 POP POP SWAP1 JUMP JUMPDEST PUSH1 0x8 PUSH1 0x20 MSTORE DUP1 PUSH0 MSTORE PUSH1 0x40 PUSH0 KECCAK256 PUSH0 SWAP2 POP SWAP1 POP DUP1 PUSH0 ADD PUSH0 SWAP1 SLOAD SWAP1 PUSH2 0x100 EXP SWAP1 DIV PUSH1 0xFF AND SWAP1 DUP1 PUSH1 0x1 ADD SLOAD SWAP1 DUP1 PUSH1 0x2 ADD PUSH0 SWAP1 SLOAD SWAP1 PUSH2 0x100 EXP SWAP1 DIV PUSH20 0xFFFFFFFFFFFFFFFFFFFFFFFFFFFFFFFFFFFFFFFF AND SWAP1 DUP1 PUSH1 0x3 ADD SLOAD SWAP1 DUP1 PUSH1 0x4 ADD PUSH0 SWAP1 SLOAD SWAP1 PUSH2 0x100 EXP SWAP1 DIV PUSH20 0xFFFFFFFFFFFFFFFFFFFFFFFFFFFFFFFFFFFFFFFF AND SWAP1 POP DUP6 JUMP JUMPDEST PUSH1 0x60 DUP1 PUSH1 0x60 PUSH0 DUP1 DUP6 GT DUP1 ISZERO PUSH2 0x12DC JUMPI POP PUSH1 0xA DUP1 SLOAD SWAP1 POP DUP6 GT ISZERO JUMPDEST PUSH2 0x131B JUMPI PUSH1 0x40 MLOAD PUSH32 0x8C379A000000000000000000000000000000000000000000000000000000000 DUP2 MSTORE PUSH1 0x4 ADD PUSH2 0x1312 SWAP1 PUSH2 0x2ED7 JUMP JUMPDEST PUSH1 0x40 MLOAD DUP1 SWAP2 SUB SWAP1 REVERT JUMPDEST PUSH0 PUSH1 0xA PUSH1 0x1 DUP8 PUSH2 0x132B SWAP2 SWAP1 PUSH2 0x2F22 JUMP JUMPDEST DUP2 SLOAD DUP2 LT PUSH2 0x133C JUMPI PUSH2 0x133B PUSH2 0x2BD2 JUMP JUMPDEST JUMPDEST SWAP1 PUSH0 MSTORE PUSH1 0x20 PUSH0 KECCAK256 SWAP1 PUSH1 0x8 MUL ADD SWAP1 POP DUP1 PUSH1 0x6 ADD DUP2 PUSH1 0x7 ADD DUP3 PUSH1 0x4 ADD DUP4 PUSH1 0x3 ADD PUSH0 SWAP1 SLOAD SWAP1 PUSH2 0x100 EXP SWAP1 DIV PUSH20 0xFFFFFFFFFFFFFFFFFFFFFFFFFFFFFFFFFFFFFFFF AND DUP4 DUP1 SLOAD PUSH2 0x1386 SWAP1 PUSH2 0x2AD2 JUMP JUMPDEST DUP1 PUSH1 0x1F ADD PUSH1 0x20 DUP1 SWAP2 DIV MUL PUSH1 0x20 ADD PUSH1 0x40 MLOAD SWAP1 DUP2 ADD PUSH1 0x40 MSTORE DUP1 SWAP3 SWAP2 SWAP1 DUP2 DUP2 MSTORE PUSH1 0x20 ADD DUP3 DUP1 SLOAD PUSH2 0x13B2 SWAP1 PUSH2 0x2AD2 JUMP JUMPDEST DUP1 ISZERO PUSH2 0x13FD JUMPI DUP1 PUSH1 0x1F LT PUSH2 0x13D4 JUMPI PUSH2 0x100 DUP1 DUP4 SLOAD DIV MUL DUP4 MSTORE SWAP2 PUSH1 0x20 ADD SWAP2 PUSH2 0x13FD JUMP JUMPDEST DUP3 ADD SWAP2 SWAP1 PUSH0 MSTORE PUSH1 0x20 PUSH0 KECCAK256 SWAP1 JUMPDEST DUP2 SLOAD DUP2 MSTORE SWAP1 PUSH1 0x1 ADD SWAP1 PUSH1 0x20 ADD DUP1 DUP4 GT PUSH2 0x13E0 JUMPI DUP3 SWAP1 SUB PUSH1 0x1F AND DUP3 ADD SWAP2 JUMPDEST POP POP POP POP POP SWAP4 POP DUP3 DUP1 SLOAD PUSH2 0x1410 SWAP1 PUSH2 0x2AD2 JUMP JUMPDEST DUP1 PUSH1 0x1F ADD PUSH1 0x20 DUP1 SWAP2 DIV MUL PUSH1 0x20 ADD PUSH1 0x40 MLOAD SWAP1 DUP2 ADD PUSH1 0x40 MSTORE DUP1 SWAP3 SWAP2 SWAP1 DUP2 DUP2 MSTORE PUSH1 0x20 ADD DUP3 DUP1 SLOAD PUSH2 0x143C SWAP1 PUSH2 0x2AD2 JUMP JUMPDEST DUP1 ISZERO PUSH2 0x1487 JUMPI DUP1 PUSH1 0x1F LT PUSH2 0x145E JUMPI PUSH2 0x100 DUP1 DUP4 SLOAD DIV MUL DUP4 MSTORE SWAP2 PUSH1 0x20 ADD SWAP2 PUSH2 0x1487 JUMP JUMPDEST DUP3 ADD SWAP2 SWAP1 PUSH0 MSTORE PUSH1 0x20 PUSH0 KECCAK256 SWAP1 JUMPDEST DUP2 SLOAD DUP2 MSTORE SWAP1 PUSH1 0x1 ADD SWAP1 PUSH1 0x20 ADD DUP1 DUP4 GT PUSH2 0x146A JUMPI DUP3 SWAP1 SUB PUSH1 0x1F AND DUP3 ADD SWAP2 JUMPDEST POP POP POP POP POP SWAP3 POP DUP2 DUP1 SLOAD PUSH2 0x149A SWAP1 PUSH2 0x2AD2 JUMP JUMPDEST DUP1 PUSH1 0x1F ADD PUSH1 0x20 DUP1 SWAP2 DIV MUL PUSH1 0x20 ADD PUSH1 0x40 MLOAD SWAP1 DUP2 ADD PUSH1 0x40 MSTORE DUP1 SWAP3 SWAP2 SWAP1 DUP2 DUP2 MSTORE PUSH1 0x20 ADD DUP3 DUP1 SLOAD PUSH2 0x14C6 SWAP1 PUSH2 0x2AD2 JUMP JUMPDEST DUP1 ISZERO PUSH2 0x1511 JUMPI DUP1 PUSH1 0x1F LT PUSH2 0x14E8 JUMPI PUSH2 0x100 DUP1 DUP4 SLOAD DIV MUL DUP4 MSTORE SWAP2 PUSH1 0x20 ADD SWAP2 PUSH2 0x1511 JUMP JUMPDEST DUP3 ADD SWAP2 SWAP1 PUSH0 MSTORE PUSH1 0x20 PUSH0 KECCAK256 SWAP1 JUMPDEST DUP2 SLOAD DUP2 MSTORE SWAP1 PUSH1 0x1 ADD SWAP1 PUSH1 0x20 ADD DUP1 DUP4 GT PUSH2 0x14F4 JUMPI DUP3 SWAP1 SUB PUSH1 0x1F AND DUP3 ADD SWAP2 JUMPDEST POP POP POP POP POP SWAP2 POP SWAP5 POP SWAP5 POP SWAP5 POP SWAP5 POP POP SWAP2 SWAP4 POP SWAP2 SWAP4 JUMP JUMPDEST PUSH0 DUP3 GT DUP1 ISZERO PUSH2 0x153C JUMPI POP PUSH1 0xA DUP1 SLOAD SWAP1 POP DUP3 GT ISZERO JUMPDEST PUSH2 0x157B JUMPI PUSH1 0x40 MLOAD PUSH32 0x8C379A000000000000000000000000000000000000000000000000000000000 DUP2 MSTORE PUSH1 0x4 ADD PUSH2 0x1572 SWAP1 PUSH2 0x2ED7 JUMP JUMPDEST PUSH1 0x40 MLOAD DUP1 SWAP2 SUB SWAP1 REVERT JUMPDEST PUSH0 PUSH1 0xA PUSH1 0x1 DUP5 PUSH2 0x158B SWAP2 SWAP1 PUSH2 0x2F22 JUMP JUMPDEST DUP2 SLOAD DUP2 LT PUSH2 0x159C JUMPI PUSH2 0x159B PUSH2 0x2BD2 JUMP JUMPDEST JUMPDEST SWAP1 PUSH0 MSTORE PUSH1 0x20 PUSH0 KECCAK256 SWAP1 PUSH1 0x8 MUL ADD SWAP1 POP DUP2 DUP2 PUSH1 0x4 ADD SWAP1 DUP2 PUSH2 0x15BB SWAP2 SWAP1 PUSH2 0x30F2 JUMP JUMPDEST POP PUSH32 0x339100E79A1E49A3A66DFC5B4815844CCD06CA8220623B19840283AF21727A1C PUSH1 0x1 PUSH1 0x40 MLOAD PUSH2 0x15EC SWAP2 SWAP1 PUSH2 0x31E4 JUMP JUMPDEST PUSH1 0x40 MLOAD DUP1 SWAP2 SUB SWAP1 LOG1 POP POP POP JUMP JUMPDEST PUSH0 DUP1 DUP4 MLOAD GT PUSH2 0x163D JUMPI PUSH1 0x40 MLOAD PUSH32 0x8C379A000000000000000000000000000000000000000000000000000000000 DUP2 MSTORE PUSH1 0x4 ADD PUSH2 0x1634 SWAP1 PUSH2 0x325A JUMP JUMPDEST PUSH1 0x40 MLOAD DUP1 SWAP2 SUB SWAP1 REVERT JUMPDEST PUSH0 DUP3 MLOAD GT PUSH2 0x1680 JUMPI PUSH1 0x40 MLOAD PUSH32 0x8C379A000000000000000000000000000000000000000000000000000000000 DUP2 MSTORE PUSH1 0x4 ADD PUSH2 0x1677 SWAP1 PUSH2 0x32C2 JUMP JUMPDEST PUSH1 0x40 MLOAD DUP1 SWAP2 SUB SWAP1 REVERT JUMPDEST PUSH0 PUSH1 0x40 MLOAD DUP1 PUSH2 0x100 ADD PUSH1 0x40 MSTORE DUP1 PUSH0 DUP2 MSTORE PUSH1 0x20 ADD PUSH1 0x1 ISZERO ISZERO DUP2 MSTORE PUSH1 0x20 ADD PUSH0 DUP2 MSTORE PUSH1 0x20 ADD CALLER PUSH20 0xFFFFFFFFFFFFFFFFFFFFFFFFFFFFFFFFFFFFFFFF AND DUP2 MSTORE PUSH1 0x20 ADD PUSH1 0x40 MLOAD DUP1 PUSH1 0x40 ADD PUSH1 0x40 MSTORE DUP1 PUSH1 0x7 DUP2 MSTORE PUSH1 0x20 ADD PUSH32 0x4372656174656400000000000000000000000000000000000000000000000000 DUP2 MSTORE POP DUP2 MSTORE PUSH1 0x20 ADD PUSH0 DUP2 MSTORE PUSH1 0x20 ADD DUP6 DUP2 MSTORE PUSH1 0x20 ADD DUP5 DUP2 MSTORE POP SWAP1 POP PUSH1 0xA DUP2 SWAP1 DUP1 PUSH1 0x1 DUP2 SLOAD ADD DUP1 DUP3 SSTORE DUP1 SWAP2 POP POP PUSH1 0x1 SWAP1 SUB SWAP1 PUSH0 MSTORE PUSH1 0x20 PUSH0 KECCAK256 SWAP1 PUSH1 0x8 MUL ADD PUSH0 SWAP1 SWAP2 SWAP1 SWAP2 SWAP1 SWAP2 POP PUSH0 DUP3 ADD MLOAD DUP2 PUSH0 ADD SSTORE PUSH1 0x20 DUP3 ADD MLOAD DUP2 PUSH1 0x1 ADD PUSH0 PUSH2 0x100 EXP DUP2 SLOAD DUP2 PUSH1 0xFF MUL NOT AND SWAP1 DUP4 ISZERO ISZERO MUL OR SWAP1 SSTORE POP PUSH1 0x40 DUP3 ADD MLOAD DUP2 PUSH1 0x2 ADD SSTORE PUSH1 0x60 DUP3 ADD MLOAD DUP2 PUSH1 0x3 ADD PUSH0 PUSH2 0x100 EXP DUP2 SLOAD DUP2 PUSH20 0xFFFFFFFFFFFFFFFFFFFFFFFFFFFFFFFFFFFFFFFF MUL NOT AND SWAP1 DUP4 PUSH20 0xFFFFFFFFFFFFFFFFFFFFFFFFFFFFFFFFFFFFFFFF AND MUL OR SWAP1 SSTORE POP PUSH1 0x80 DUP3 ADD MLOAD DUP2 PUSH1 0x4 ADD SWAP1 DUP2 PUSH2 0x17C0 SWAP2 SWAP1 PUSH2 0x30F2 JUMP JUMPDEST POP PUSH1 0xA0 DUP3 ADD MLOAD DUP2 PUSH1 0x5 ADD SSTORE PUSH1 0xC0 DUP3 ADD MLOAD DUP2 PUSH1 0x6 ADD SWAP1 DUP2 PUSH2 0x17E0 SWAP2 SWAP1 PUSH2 0x30F2 JUMP JUMPDEST POP PUSH1 0xE0 DUP3 ADD MLOAD DUP2 PUSH1 0x7 ADD SWAP1 DUP2 PUSH2 0x17F6 SWAP2 SWAP1 PUSH2 0x30F2 JUMP JUMPDEST POP POP POP PUSH0 PUSH32 0x4EA95E25BFC92B9B3CAC49A4220DF7D53206C3D80E2CA4DB9F6A49E51CB76372 DUP6 PUSH0 PUSH1 0x40 MLOAD PUSH2 0x182B SWAP3 SWAP2 SWAP1 PUSH2 0x3353 JUMP JUMPDEST PUSH1 0x40 MLOAD DUP1 SWAP2 SUB SWAP1 LOG2 PUSH0 SWAP2 POP POP SWAP3 SWAP2 POP POP JUMP JUMPDEST PUSH1 0x2 PUSH1 0x20 MSTORE DUP1 PUSH0 MSTORE PUSH1 0x40 PUSH0 KECCAK256 PUSH0 SWAP2 POP SWAP1 POP DUP1 PUSH0 ADD SLOAD SWAP1 DUP1 PUSH1 0x1 ADD PUSH0 SWAP1 SLOAD SWAP1 PUSH2 0x100 EXP SWAP1 DIV PUSH1 0xFF AND SWAP1 DUP1 PUSH1 0x2 ADD SLOAD SWAP1 DUP1 PUSH1 0x3 ADD PUSH0 SWAP1 SLOAD SWAP1 PUSH2 0x100 EXP SWAP1 DIV PUSH20 0xFFFFFFFFFFFFFFFFFFFFFFFFFFFFFFFFFFFFFFFF AND SWAP1 DUP1 PUSH1 0x4 ADD DUP1 SLOAD PUSH2 0x189F SWAP1 PUSH2 0x2AD2 JUMP JUMPDEST DUP1 PUSH1 0x1F ADD PUSH1 0x20 DUP1 SWAP2 DIV MUL PUSH1 0x20 ADD PUSH1 0x40 MLOAD SWAP1 DUP2 ADD PUSH1 0x40 MSTORE DUP1 SWAP3 SWAP2 SWAP1 DUP2 DUP2 MSTORE PUSH1 0x20 ADD DUP3 DUP1 SLOAD PUSH2 0x18CB SWAP1 PUSH2 0x2AD2 JUMP JUMPDEST DUP1 ISZERO PUSH2 0x1916 JUMPI DUP1 PUSH1 0x1F LT PUSH2 0x18ED JUMPI PUSH2 0x100 DUP1 DUP4 SLOAD DIV MUL DUP4 MSTORE SWAP2 PUSH1 0x20 ADD SWAP2 PUSH2 0x1916 JUMP JUMPDEST DUP3 ADD SWAP2 SWAP1 PUSH0 MSTORE PUSH1 0x20 PUSH0 KECCAK256 SWAP1 JUMPDEST DUP2 SLOAD DUP2 MSTORE SWAP1 PUSH1 0x1 ADD SWAP1 PUSH1 0x20 ADD DUP1 DUP4 GT PUSH2 0x18F9 JUMPI DUP3 SWAP1 SUB PUSH1 0x1F AND DUP3 ADD SWAP2 JUMPDEST POP POP POP POP POP SWAP1 DUP1 PUSH1 0x5 ADD SLOAD SWAP1 DUP1 PUSH1 0x6 ADD DUP1 SLOAD PUSH2 0x1931 SWAP1 PUSH2 0x2AD2 JUMP JUMPDEST DUP1 PUSH1 0x1F ADD PUSH1 0x20 DUP1 SWAP2 DIV MUL PUSH1 0x20 ADD PUSH1 0x40 MLOAD SWAP1 DUP2 ADD PUSH1 0x40 MSTORE DUP1 SWAP3 SWAP2 SWAP1 DUP2 DUP2 MSTORE PUSH1 0x20 ADD DUP3 DUP1 SLOAD PUSH2 0x195D SWAP1 PUSH2 0x2AD2 JUMP JUMPDEST DUP1 ISZERO PUSH2 0x19A8 JUMPI DUP1 PUSH1 0x1F LT PUSH2 0x197F JUMPI PUSH2 0x100 DUP1 DUP4 SLOAD DIV MUL DUP4 MSTORE SWAP2 PUSH1 0x20 ADD SWAP2 PUSH2 0x19A8 JUMP JUMPDEST DUP3 ADD SWAP2 SWAP1 PUSH0 MSTORE PUSH1 0x20 PUSH0 KECCAK256 SWAP1 JUMPDEST DUP2 SLOAD DUP2 MSTORE SWAP1 PUSH1 0x1 ADD SWAP1 PUSH1 0x20 ADD DUP1 DUP4 GT PUSH2 0x198B JUMPI DUP3 SWAP1 SUB PUSH1 0x1F AND DUP3 ADD SWAP2 JUMPDEST POP POP POP POP POP SWAP1 DUP1 PUSH1 0x7 ADD DUP1 SLOAD PUSH2 0x19BD SWAP1 PUSH2 0x2AD2 JUMP JUMPDEST DUP1 PUSH1 0x1F ADD PUSH1 0x20 DUP1 SWAP2 DIV MUL PUSH1 0x20 ADD PUSH1 0x40 MLOAD SWAP1 DUP2 ADD PUSH1 0x40 MSTORE DUP1 SWAP3 SWAP2 SWAP1 DUP2 DUP2 MSTORE PUSH1 0x20 ADD DUP3 DUP1 SLOAD PUSH2 0x19E9 SWAP1 PUSH2 0x2AD2 JUMP JUMPDEST DUP1 ISZERO PUSH2 0x1A34 JUMPI DUP1 PUSH1 0x1F LT PUSH2 0x1A0B JUMPI PUSH2 0x100 DUP1 DUP4 SLOAD DIV MUL DUP4 MSTORE SWAP2 PUSH1 0x20 ADD SWAP2 PUSH2 0x1A34 JUMP JUMPDEST DUP3 ADD SWAP2 SWAP1 PUSH0 MSTORE PUSH1 0x20 PUSH0 KECCAK256 SWAP1 JUMPDEST DUP2 SLOAD DUP2 MSTORE SWAP1 PUSH1 0x1 ADD SWAP1 PUSH1 0x20 ADD DUP1 DUP4 GT PUSH2 0x1A17 JUMPI DUP3 SWAP1 SUB PUSH1 0x1F AND DUP3 ADD SWAP2 JUMPDEST POP POP POP POP POP SWAP1 POP DUP9 JUMP JUMPDEST PUSH1 0x7 PUSH1 0x20 MSTORE DUP1 PUSH0 MSTORE PUSH1 0x40 PUSH0 KECCAK256 PUSH0 SWAP2 POP SWAP1 POP DUP1 PUSH0 ADD SLOAD SWAP1 DUP1 PUSH1 0x1 ADD DUP1 SLOAD PUSH2 0x1A63 SWAP1 PUSH2 0x2AD2 JUMP JUMPDEST DUP1 PUSH1 0x1F ADD PUSH1 0x20 DUP1 SWAP2 DIV MUL PUSH1 0x20 ADD PUSH1 0x40 MLOAD SWAP1 DUP2 ADD PUSH1 0x40 MSTORE DUP1 SWAP3 SWAP2 SWAP1 DUP2 DUP2 MSTORE PUSH1 0x20 ADD DUP3 DUP1 SLOAD PUSH2 0x1A8F SWAP1 PUSH2 0x2AD2 JUMP JUMPDEST DUP1 ISZERO PUSH2 0x1ADA JUMPI DUP1 PUSH1 0x1F LT PUSH2 0x1AB1 JUMPI PUSH2 0x100 DUP1 DUP4 SLOAD DIV MUL DUP4 MSTORE SWAP2 PUSH1 0x20 ADD SWAP2 PUSH2 0x1ADA JUMP JUMPDEST DUP3 ADD SWAP2 SWAP1 PUSH0 MSTORE PUSH1 0x20 PUSH0 KECCAK256 SWAP1 JUMPDEST DUP2 SLOAD DUP2 MSTORE SWAP1 PUSH1 0x1 ADD SWAP1 PUSH1 0x20 ADD DUP1 DUP4 GT PUSH2 0x1ABD JUMPI DUP3 SWAP1 SUB PUSH1 0x1F AND DUP3 ADD SWAP2 JUMPDEST POP POP POP POP POP SWAP1 DUP1 PUSH1 0x2 ADD DUP1 SLOAD PUSH2 0x1AEF SWAP1 PUSH2 0x2AD2 JUMP JUMPDEST DUP1 PUSH1 0x1F ADD PUSH1 0x20 DUP1 SWAP2 DIV MUL PUSH1 0x20 ADD PUSH1 0x40 MLOAD SWAP1 DUP2 ADD PUSH1 0x40 MSTORE DUP1 SWAP3 SWAP2 SWAP1 DUP2 DUP2 MSTORE PUSH1 0x20 ADD DUP3 DUP1 SLOAD PUSH2 0x1B1B SWAP1 PUSH2 0x2AD2 JUMP JUMPDEST DUP1 ISZERO PUSH2 0x1B66 JUMPI DUP1 PUSH1 0x1F LT PUSH2 0x1B3D JUMPI PUSH2 0x100 DUP1 DUP4 SLOAD DIV MUL DUP4 MSTORE SWAP2 PUSH1 0x20 ADD SWAP2 PUSH2 0x1B66 JUMP JUMPDEST DUP3 ADD SWAP2 SWAP1 PUSH0 MSTORE PUSH1 0x20 PUSH0 KECCAK256 SWAP1 JUMPDEST DUP2 SLOAD DUP2 MSTORE SWAP1 PUSH1 0x1 ADD SWAP1 PUSH1 0x20 ADD DUP1 DUP4 GT PUSH2 0x1B49 JUMPI DUP3 SWAP1 SUB PUSH1 0x1F AND DUP3 ADD SWAP2 JUMPDEST POP POP POP POP POP SWAP1 DUP1 PUSH1 0x3 ADD SLOAD SWAP1 DUP1 PUSH1 0x4 ADD PUSH0 SWAP1 SLOAD SWAP1 PUSH2 0x100 EXP SWAP1 DIV PUSH1 0xFF AND SWAP1 POP DUP6 JUMP JUMPDEST PUSH1 0x4 PUSH1 0x20 MSTORE DUP2 PUSH0 MSTORE PUSH1 0x40 PUSH0 KECCAK256 PUSH1 0x20 MSTORE DUP1 PUSH0 MSTORE PUSH1 0x40 PUSH0 KECCAK256 PUSH0 SWAP2 POP SWAP2 POP POP DUP1 PUSH0 ADD SLOAD SWAP1 DUP1 PUSH1 0x1 ADD PUSH0 SWAP1 SLOAD SWAP1 PUSH2 0x100 EXP SWAP1 DIV PUSH1 0xFF AND SWAP1 DUP1 PUSH1 0x2 ADD SLOAD SWAP1 DUP1 PUSH1 0x3 ADD PUSH0 SWAP1 SLOAD SWAP1 PUSH2 0x100 EXP SWAP1 DIV PUSH20 0xFFFFFFFFFFFFFFFFFFFFFFFFFFFFFFFFFFFFFFFF AND SWAP1 DUP1 PUSH1 0x4 ADD DUP1 SLOAD PUSH2 0x1BF5 SWAP1 PUSH2 0x2AD2 JUMP JUMPDEST DUP1 PUSH1 0x1F ADD PUSH1 0x20 DUP1 SWAP2 DIV MUL PUSH1 0x20 ADD PUSH1 0x40 MLOAD SWAP1 DUP2 ADD PUSH1 0x40 MSTORE DUP1 SWAP3 SWAP2 SWAP1 DUP2 DUP2 MSTORE PUSH1 0x20 ADD DUP3 DUP1 SLOAD PUSH2 0x1C21 SWAP1 PUSH2 0x2AD2 JUMP JUMPDEST DUP1 ISZERO PUSH2 0x1C6C JUMPI DUP1 PUSH1 0x1F LT PUSH2 0x1C43 JUMPI PUSH2 0x100 DUP1 DUP4 SLOAD DIV MUL DUP4 MSTORE SWAP2 PUSH1 0x20 ADD SWAP2 PUSH2 0x1C6C JUMP JUMPDEST DUP3 ADD SWAP2 SWAP1 PUSH0 MSTORE PUSH1 0x20 PUSH0 KECCAK256 SWAP1 JUMPDEST DUP2 SLOAD DUP2 MSTORE SWAP1 PUSH1 0x1 ADD SWAP1 PUSH1 0x20 ADD DUP1 DUP4 GT PUSH2 0x1C4F JUMPI DUP3 SWAP1 SUB PUSH1 0x1F AND DUP3 ADD SWAP2 JUMPDEST POP POP POP POP POP SWAP1 DUP1 PUSH1 0x5 ADD SLOAD SWAP1 DUP1 PUSH1 0x6 ADD DUP1 SLOAD PUSH2 0x1C87 SWAP1 PUSH2 0x2AD2 JUMP JUMPDEST DUP1 PUSH1 0x1F ADD PUSH1 0x20 DUP1 SWAP2 DIV MUL PUSH1 0x20 ADD PUSH1 0x40 MLOAD SWAP1 DUP2 ADD PUSH1 0x40 MSTORE DUP1 SWAP3 SWAP2 SWAP1 DUP2 DUP2 MSTORE PUSH1 0x20 ADD DUP3 DUP1 SLOAD PUSH2 0x1CB3 SWAP1 PUSH2 0x2AD2 JUMP JUMPDEST DUP1 ISZERO PUSH2 0x1CFE JUMPI DUP1 PUSH1 0x1F LT PUSH2 0x1CD5 JUMPI PUSH2 0x100 DUP1 DUP4 SLOAD DIV MUL DUP4 MSTORE SWAP2 PUSH1 0x20 ADD SWAP2 PUSH2 0x1CFE JUMP JUMPDEST DUP3 ADD SWAP2 SWAP1 PUSH0 MSTORE PUSH1 0x20 PUSH0 KECCAK256 SWAP1 JUMPDEST DUP2 SLOAD DUP2 MSTORE SWAP1 PUSH1 0x1 ADD SWAP1 PUSH1 0x20 ADD DUP1 DUP4 GT PUSH2 0x1CE1 JUMPI DUP3 SWAP1 SUB PUSH1 0x1F AND DUP3 ADD SWAP2 JUMPDEST POP POP POP POP POP SWAP1 DUP1 PUSH1 0x7 ADD DUP1 SLOAD PUSH2 0x1D13 SWAP1 PUSH2 0x2AD2 JUMP JUMPDEST DUP1 PUSH1 0x1F ADD PUSH1 0x20 DUP1 SWAP2 DIV MUL PUSH1 0x20 ADD PUSH1 0x40 MLOAD SWAP1 DUP2 ADD PUSH1 0x40 MSTORE DUP1 SWAP3 SWAP2 SWAP1 DUP2 DUP2 MSTORE PUSH1 0x20 ADD DUP3 DUP1 SLOAD PUSH2 0x1D3F SWAP1 PUSH2 0x2AD2 JUMP JUMPDEST DUP1 ISZERO PUSH2 0x1D8A JUMPI DUP1 PUSH1 0x1F LT PUSH2 0x1D61 JUMPI PUSH2 0x100 DUP1 DUP4 SLOAD DIV MUL DUP4 MSTORE SWAP2 PUSH1 0x20 ADD SWAP2 PUSH2 0x1D8A JUMP JUMPDEST DUP3 ADD SWAP2 SWAP1 PUSH0 MSTORE PUSH1 0x20 PUSH0 KECCAK256 SWAP1 JUMPDEST DUP2 SLOAD DUP2 MSTORE SWAP1 PUSH1 0x1 ADD SWAP1 PUSH1 0x20 ADD DUP1 DUP4 GT PUSH2 0x1D6D JUMPI DUP3 SWAP1 SUB PUSH1 0x1F AND DUP3 ADD SWAP2 JUMPDEST POP POP POP POP POP SWAP1 POP DUP9 JUMP JUMPDEST PUSH0 DUP5 MLOAD GT PUSH2 0x1DD7 JUMPI PUSH1 0x40 MLOAD PUSH32 0x8C379A000000000000000000000000000000000000000000000000000000000 DUP2 MSTORE PUSH1 0x4 ADD PUSH2 0x1DCE SWAP1 PUSH2 0x2B4C JUMP JUMPDEST PUSH1 0x40 MLOAD DUP1 SWAP2 SUB SWAP1 REVERT JUMPDEST PUSH0 DUP2 MLOAD GT PUSH2 0x1E1A JUMPI PUSH1 0x40 MLOAD PUSH32 0x8C379A000000000000000000000000000000000000000000000000000000000 DUP2 MSTORE PUSH1 0x4 ADD PUSH2 0x1E11 SWAP1 PUSH2 0x2BB4 JUMP JUMPDEST PUSH1 0x40 MLOAD DUP1 SWAP2 SUB SWAP1 REVERT JUMPDEST PUSH1 0x40 MLOAD DUP1 PUSH1 0x40 ADD PUSH1 0x40 MSTORE DUP1 PUSH1 0x7 DUP2 MSTORE PUSH1 0x20 ADD PUSH32 0x4E69676572696100000000000000000000000000000000000000000000000000 DUP2 MSTORE POP DUP1 MLOAD SWAP1 PUSH1 0x20 ADD KECCAK256 DUP4 DUP1 MLOAD SWAP1 PUSH1 0x20 ADD KECCAK256 EQ DUP1 ISZERO PUSH2 0x1EAF JUMPI POP PUSH1 0x40 MLOAD DUP1 PUSH1 0x40 ADD PUSH1 0x40 MSTORE DUP1 PUSH1 0x7 DUP2 MSTORE PUSH1 0x20 ADD PUSH32 0x4E69676572696100000000000000000000000000000000000000000000000000 DUP2 MSTORE POP DUP1 MLOAD SWAP1 PUSH1 0x20 ADD KECCAK256 DUP3 DUP1 MLOAD SWAP1 PUSH1 0x20 ADD KECCAK256 EQ ISZERO JUMPDEST ISZERO PUSH2 0x1FFA JUMPI PUSH0 PUSH1 0x9 PUSH0 SWAP1 SLOAD SWAP1 PUSH2 0x100 EXP SWAP1 DIV PUSH20 0xFFFFFFFFFFFFFFFFFFFFFFFFFFFFFFFFFFFFFFFF AND PUSH20 0xFFFFFFFFFFFFFFFFFFFFFFFFFFFFFFFFFFFFFFFF AND PUSH4 0xFEAF968C PUSH1 0x40 MLOAD DUP2 PUSH4 0xFFFFFFFF AND PUSH1 0xE0 SHL DUP2 MSTORE PUSH1 0x4 ADD PUSH1 0xA0 PUSH1 0x40 MLOAD DUP1 DUP4 SUB DUP2 DUP7 GAS STATICCALL ISZERO DUP1 ISZERO PUSH2 0x1F1F JUMPI RETURNDATASIZE PUSH0 DUP1 RETURNDATACOPY RETURNDATASIZE PUSH0 REVERT JUMPDEST POP POP POP POP PUSH1 0x40 MLOAD RETURNDATASIZE PUSH1 0x1F NOT PUSH1 0x1F DUP3 ADD AND DUP3 ADD DUP1 PUSH1 0x40 MSTORE POP DUP2 ADD SWAP1 PUSH2 0x1F43 SWAP2 SWAP1 PUSH2 0x2E16 JUMP JUMPDEST POP POP POP SWAP2 POP POP PUSH0 DUP2 SGT PUSH2 0x1F8B JUMPI PUSH1 0x40 MLOAD PUSH32 0x8C379A000000000000000000000000000000000000000000000000000000000 DUP2 MSTORE PUSH1 0x4 ADD PUSH2 0x1F82 SWAP1 PUSH2 0x33CB JUMP JUMPDEST PUSH1 0x40 MLOAD DUP1 SWAP2 SUB SWAP1 REVERT JUMPDEST PUSH0 JUMPDEST DUP3 MLOAD DUP2 LT ISZERO PUSH2 0x1FF7 JUMPI DUP3 DUP2 DUP2 MLOAD DUP2 LT PUSH2 0x1FA9 JUMPI PUSH2 0x1FA8 PUSH2 0x2BD2 JUMP JUMPDEST JUMPDEST PUSH1 0x20 MUL PUSH1 0x20 ADD ADD MLOAD PUSH32 0xCADCD35989E6067D7504DFEDC645C79E7F8FCF1E0168974C122BACB5CC17FDA1 CALLER DUP5 PUSH1 0x40 MLOAD PUSH2 0x1FE2 SWAP3 SWAP2 SWAP1 PUSH2 0x33E9 JUMP JUMPDEST PUSH1 0x40 MLOAD DUP1 SWAP2 SUB SWAP1 LOG2 DUP1 DUP1 PUSH1 0x1 ADD SWAP2 POP POP PUSH2 0x1F8D JUMP JUMPDEST POP POP JUMPDEST POP POP POP POP JUMP JUMPDEST PUSH0 PUSH1 0x40 MLOAD SWAP1 POP SWAP1 JUMP JUMPDEST PUSH0 DUP1 REVERT JUMPDEST PUSH0 DUP1 REVERT JUMPDEST PUSH0 DUP2 SWAP1 POP SWAP2 SWAP1 POP JUMP JUMPDEST PUSH2 0x2023 DUP2 PUSH2 0x2011 JUMP JUMPDEST DUP2 EQ PUSH2 0x202D JUMPI PUSH0 DUP1 REVERT JUMPDEST POP JUMP JUMPDEST PUSH0 DUP2 CALLDATALOAD SWAP1 POP PUSH2 0x203E DUP2 PUSH2 0x201A JUMP JUMPDEST SWAP3 SWAP2 POP POP JUMP JUMPDEST PUSH0 PUSH1 0x20 DUP3 DUP5 SUB SLT ISZERO PUSH2 0x2059 JUMPI PUSH2 0x2058 PUSH2 0x2009 JUMP JUMPDEST JUMPDEST PUSH0 PUSH2 0x2066 DUP5 DUP3 DUP6 ADD PUSH2 0x2030 JUMP JUMPDEST SWAP2 POP POP SWAP3 SWAP2 POP POP JUMP JUMPDEST PUSH2 0x2078 DUP2 PUSH2 0x2011 JUMP JUMPDEST DUP3 MSTORE POP POP JUMP JUMPDEST PUSH0 DUP2 MLOAD SWAP1 POP SWAP2 SWAP1 POP JUMP JUMPDEST PUSH0 DUP3 DUP3 MSTORE PUSH1 0x20 DUP3 ADD SWAP1 POP SWAP3 SWAP2 POP POP JUMP JUMPDEST PUSH0 JUMPDEST DUP4 DUP2 LT ISZERO PUSH2 0x20B5 JUMPI DUP1 DUP3 ADD MLOAD DUP2 DUP5 ADD MSTORE PUSH1 0x20 DUP2 ADD SWAP1 POP PUSH2 0x209A JUMP JUMPDEST PUSH0 DUP5 DUP5 ADD MSTORE POP POP POP POP JUMP JUMPDEST PUSH0 PUSH1 0x1F NOT PUSH1 0x1F DUP4 ADD AND SWAP1 POP SWAP2 SWAP1 POP JUMP JUMPDEST PUSH0 PUSH2 0x20DA DUP3 PUSH2 0x207E JUMP JUMPDEST PUSH2 0x20E4 DUP2 DUP6 PUSH2 0x2088 JUMP JUMPDEST SWAP4 POP PUSH2 0x20F4 DUP2 DUP6 PUSH1 0x20 DUP7 ADD PUSH2 0x2098 JUMP JUMPDEST PUSH2 0x20FD DUP2 PUSH2 0x20C0 JUMP JUMPDEST DUP5 ADD SWAP2 POP POP SWAP3 SWAP2 POP POP JUMP JUMPDEST PUSH0 PUSH1 0xE0 DUP3 ADD SWAP1 POP PUSH2 0x211B PUSH0 DUP4 ADD DUP11 PUSH2 0x206F JUMP JUMPDEST DUP2 DUP2 SUB PUSH1 0x20 DUP4 ADD MSTORE PUSH2 0x212D DUP2 DUP10 PUSH2 0x20D0 JUMP JUMPDEST SWAP1 POP PUSH2 0x213C PUSH1 0x40 DUP4 ADD DUP9 PUSH2 0x206F JUMP JUMPDEST DUP2 DUP2 SUB PUSH1 0x60 DUP4 ADD MSTORE PUSH2 0x214E DUP2 DUP8 PUSH2 0x20D0 JUMP JUMPDEST SWAP1 POP PUSH2 0x215D PUSH1 0x80 DUP4 ADD DUP7 PUSH2 0x206F JUMP JUMPDEST PUSH2 0x216A PUSH1 0xA0 DUP4 ADD DUP6 PUSH2 0x206F JUMP JUMPDEST PUSH2 0x2177 PUSH1 0xC0 DUP4 ADD DUP5 PUSH2 0x206F JUMP JUMPDEST SWAP9 SWAP8 POP POP POP POP POP POP POP POP JUMP JUMPDEST PUSH0 DUP2 ISZERO ISZERO SWAP1 POP SWAP2 SWAP1 POP JUMP JUMPDEST PUSH2 0x2197 DUP2 PUSH2 0x2183 JUMP JUMPDEST DUP3 MSTORE POP POP JUMP JUMPDEST PUSH0 PUSH20 0xFFFFFFFFFFFFFFFFFFFFFFFFFFFFFFFFFFFFFFFF DUP3 AND SWAP1 POP SWAP2 SWAP1 POP JUMP JUMPDEST PUSH0 PUSH2 0x21C6 DUP3 PUSH2 0x219D JUMP JUMPDEST SWAP1 POP SWAP2 SWAP1 POP JUMP JUMPDEST PUSH2 0x21D6 DUP2 PUSH2 0x21BC JUMP JUMPDEST DUP3 MSTORE POP POP JUMP JUMPDEST PUSH0 PUSH2 0x100 DUP3 ADD SWAP1 POP PUSH2 0x21F0 PUSH0 DUP4 ADD DUP12 PUSH2 0x206F JUMP JUMPDEST PUSH2 0x21FD PUSH1 0x20 DUP4 ADD DUP11 PUSH2 0x218E JUMP JUMPDEST PUSH2 0x220A PUSH1 0x40 DUP4 ADD DUP10 PUSH2 0x206F JUMP JUMPDEST PUSH2 0x2217 PUSH1 0x60 DUP4 ADD DUP9 PUSH2 0x21CD JUMP JUMPDEST DUP2 DUP2 SUB PUSH1 0x80 DUP4 ADD MSTORE PUSH2 0x2229 DUP2 DUP8 PUSH2 0x20D0 JUMP JUMPDEST SWAP1 POP PUSH2 0x2238 PUSH1 0xA0 DUP4 ADD DUP7 PUSH2 0x206F JUMP JUMPDEST DUP2 DUP2 SUB PUSH1 0xC0 DUP4 ADD MSTORE PUSH2 0x224A DUP2 DUP6 PUSH2 0x20D0 JUMP JUMPDEST SWAP1 POP DUP2 DUP2 SUB PUSH1 0xE0 DUP4 ADD MSTORE PUSH2 0x225E DUP2 DUP5 PUSH2 0x20D0 JUMP JUMPDEST SWAP1 POP SWAP10 SWAP9 POP POP POP POP POP POP POP POP POP JUMP JUMPDEST PUSH0 PUSH1 0xA0 DUP3 ADD SWAP1 POP PUSH2 0x2280 PUSH0 DUP4 ADD DUP9 PUSH2 0x218E JUMP JUMPDEST PUSH2 0x228D PUSH1 0x20 DUP4 ADD DUP8 PUSH2 0x206F JUMP JUMPDEST PUSH2 0x229A PUSH1 0x40 DUP4 ADD DUP7 PUSH2 0x21CD JUMP JUMPDEST PUSH2 0x22A7 PUSH1 0x60 DUP4 ADD DUP6 PUSH2 0x206F JUMP JUMPDEST PUSH2 0x22B4 PUSH1 0x80 DUP4 ADD DUP5 PUSH2 0x21CD JUMP JUMPDEST SWAP7 SWAP6 POP POP POP POP POP POP JUMP JUMPDEST PUSH0 DUP1 REVERT JUMPDEST PUSH0 DUP1 REVERT JUMPDEST PUSH32 0x4E487B7100000000000000000000000000000000000000000000000000000000 PUSH0 MSTORE PUSH1 0x41 PUSH1 0x4 MSTORE PUSH1 0x24 PUSH0 REVERT JUMPDEST PUSH2 0x22FC DUP3 PUSH2 0x20C0 JUMP JUMPDEST DUP2 ADD DUP2 DUP2 LT PUSH8 0xFFFFFFFFFFFFFFFF DUP3 GT OR ISZERO PUSH2 0x231B JUMPI PUSH2 0x231A PUSH2 0x22C6 JUMP JUMPDEST JUMPDEST DUP1 PUSH1 0x40 MSTORE POP POP POP JUMP JUMPDEST PUSH0 PUSH2 0x232D PUSH2 0x2000 JUMP JUMPDEST SWAP1 POP PUSH2 0x2339 DUP3 DUP3 PUSH2 0x22F3 JUMP JUMPDEST SWAP2 SWAP1 POP JUMP JUMPDEST PUSH0 PUSH8 0xFFFFFFFFFFFFFFFF DUP3 GT ISZERO PUSH2 0x2358 JUMPI PUSH2 0x2357 PUSH2 0x22C6 JUMP JUMPDEST JUMPDEST PUSH2 0x2361 DUP3 PUSH2 0x20C0 JUMP JUMPDEST SWAP1 POP PUSH1 0x20 DUP2 ADD SWAP1 POP SWAP2 SWAP1 POP JUMP JUMPDEST DUP3 DUP2 DUP4 CALLDATACOPY PUSH0 DUP4 DUP4 ADD MSTORE POP POP POP JUMP JUMPDEST PUSH0 PUSH2 0x238E PUSH2 0x2389 DUP5 PUSH2 0x233E JUMP JUMPDEST PUSH2 0x2324 JUMP JUMPDEST SWAP1 POP DUP3 DUP2 MSTORE PUSH1 0x20 DUP2 ADD DUP5 DUP5 DUP5 ADD GT ISZERO PUSH2 0x23AA JUMPI PUSH2 0x23A9 PUSH2 0x22C2 JUMP JUMPDEST JUMPDEST PUSH2 0x23B5 DUP5 DUP3 DUP6 PUSH2 0x236E JUMP JUMPDEST POP SWAP4 SWAP3 POP POP POP JUMP JUMPDEST PUSH0 DUP3 PUSH1 0x1F DUP4 ADD SLT PUSH2 0x23D1 JUMPI PUSH2 0x23D0 PUSH2 0x22BE JUMP JUMPDEST JUMPDEST DUP2 CALLDATALOAD PUSH2 0x23E1 DUP5 DUP3 PUSH1 0x20 DUP7 ADD PUSH2 0x237C JUMP JUMPDEST SWAP2 POP POP SWAP3 SWAP2 POP POP JUMP JUMPDEST PUSH0 PUSH8 0xFFFFFFFFFFFFFFFF DUP3 GT ISZERO PUSH2 0x2404 JUMPI PUSH2 0x2403 PUSH2 0x22C6 JUMP JUMPDEST JUMPDEST PUSH1 0x20 DUP3 MUL SWAP1 POP PUSH1 0x20 DUP2 ADD SWAP1 POP SWAP2 SWAP1 POP JUMP JUMPDEST PUSH0 DUP1 REVERT JUMPDEST PUSH0 PUSH2 0x242B PUSH2 0x2426 DUP5 PUSH2 0x23EA JUMP JUMPDEST PUSH2 0x2324 JUMP JUMPDEST SWAP1 POP DUP1 DUP4 DUP3 MSTORE PUSH1 0x20 DUP3 ADD SWAP1 POP PUSH1 0x20 DUP5 MUL DUP4 ADD DUP6 DUP2 GT ISZERO PUSH2 0x244E JUMPI PUSH2 0x244D PUSH2 0x2415 JUMP JUMPDEST JUMPDEST DUP4 JUMPDEST DUP2 DUP2 LT ISZERO PUSH2 0x2477 JUMPI DUP1 PUSH2 0x2463 DUP9 DUP3 PUSH2 0x2030 JUMP JUMPDEST DUP5 MSTORE PUSH1 0x20 DUP5 ADD SWAP4 POP POP PUSH1 0x20 DUP2 ADD SWAP1 POP PUSH2 0x2450 JUMP JUMPDEST POP POP POP SWAP4 SWAP3 POP POP POP JUMP JUMPDEST PUSH0 DUP3 PUSH1 0x1F DUP4 ADD SLT PUSH2 0x2495 JUMPI PUSH2 0x2494 PUSH2 0x22BE JUMP JUMPDEST JUMPDEST DUP2 CALLDATALOAD PUSH2 0x24A5 DUP5 DUP3 PUSH1 0x20 DUP7 ADD PUSH2 0x2419 JUMP JUMPDEST SWAP2 POP POP SWAP3 SWAP2 POP POP JUMP JUMPDEST PUSH0 DUP1 PUSH0 DUP1 PUSH1 0x80 DUP6 DUP8 SUB SLT ISZERO PUSH2 0x24C6 JUMPI PUSH2 0x24C5 PUSH2 0x2009 JUMP JUMPDEST JUMPDEST PUSH0 DUP6 ADD CALLDATALOAD PUSH8 0xFFFFFFFFFFFFFFFF DUP2 GT ISZERO PUSH2 0x24E3 JUMPI PUSH2 0x24E2 PUSH2 0x200D JUMP JUMPDEST JUMPDEST PUSH2 0x24EF DUP8 DUP3 DUP9 ADD PUSH2 0x23BD JUMP JUMPDEST SWAP5 POP POP PUSH1 0x20 DUP6 ADD CALLDATALOAD PUSH8 0xFFFFFFFFFFFFFFFF DUP2 GT ISZERO PUSH2 0x2510 JUMPI PUSH2 0x250F PUSH2 0x200D JUMP JUMPDEST JUMPDEST PUSH2 0x251C DUP8 DUP3 DUP9 ADD PUSH2 0x23BD JUMP JUMPDEST SWAP4 POP POP PUSH1 0x40 DUP6 ADD CALLDATALOAD PUSH8 0xFFFFFFFFFFFFFFFF DUP2 GT ISZERO PUSH2 0x253D JUMPI PUSH2 0x253C PUSH2 0x200D JUMP JUMPDEST JUMPDEST PUSH2 0x2549 DUP8 DUP3 DUP9 ADD PUSH2 0x23BD JUMP JUMPDEST SWAP3 POP POP PUSH1 0x60 DUP6 ADD CALLDATALOAD PUSH8 0xFFFFFFFFFFFFFFFF DUP2 GT ISZERO PUSH2 0x256A JUMPI PUSH2 0x2569 PUSH2 0x200D JUMP JUMPDEST JUMPDEST PUSH2 0x2576 DUP8 DUP3 DUP9 ADD PUSH2 0x2481 JUMP JUMPDEST SWAP2 POP POP SWAP3 SWAP6 SWAP2 SWAP5 POP SWAP3 POP JUMP JUMPDEST PUSH0 PUSH8 0xFFFFFFFFFFFFFFFF DUP3 GT ISZERO PUSH2 0x259C JUMPI PUSH2 0x259B PUSH2 0x22C6 JUMP JUMPDEST JUMPDEST PUSH1 0x20 DUP3 MUL SWAP1 POP PUSH1 0x20 DUP2 ADD SWAP1 POP SWAP2 SWAP1 POP JUMP JUMPDEST PUSH0 PUSH2 0x25BF PUSH2 0x25BA DUP5 PUSH2 0x2582 JUMP JUMPDEST PUSH2 0x2324 JUMP JUMPDEST SWAP1 POP DUP1 DUP4 DUP3 MSTORE PUSH1 0x20 DUP3 ADD SWAP1 POP PUSH1 0x20 DUP5 MUL DUP4 ADD DUP6 DUP2 GT ISZERO PUSH2 0x25E2 JUMPI PUSH2 0x25E1 PUSH2 0x2415 JUMP JUMPDEST JUMPDEST DUP4 JUMPDEST DUP2 DUP2 LT ISZERO PUSH2 0x2629 JUMPI DUP1 CALLDATALOAD PUSH8 0xFFFFFFFFFFFFFFFF DUP2 GT ISZERO PUSH2 0x2607 JUMPI PUSH2 0x2606 PUSH2 0x22BE JUMP JUMPDEST JUMPDEST DUP1 DUP7 ADD PUSH2 0x2614 DUP10 DUP3 PUSH2 0x23BD JUMP JUMPDEST DUP6 MSTORE PUSH1 0x20 DUP6 ADD SWAP5 POP POP POP PUSH1 0x20 DUP2 ADD SWAP1 POP PUSH2 0x25E4 JUMP JUMPDEST POP POP POP SWAP4 SWAP3 POP POP POP JUMP JUMPDEST PUSH0 DUP3 PUSH1 0x1F DUP4 ADD SLT PUSH2 0x2647 JUMPI PUSH2 0x2646 PUSH2 0x22BE JUMP JUMPDEST JUMPDEST DUP2 CALLDATALOAD PUSH2 0x2657 DUP5 DUP3 PUSH1 0x20 DUP7 ADD PUSH2 0x25AD JUMP JUMPDEST SWAP2 POP POP SWAP3 SWAP2 POP POP JUMP JUMPDEST PUSH0 DUP1 PUSH0 PUSH1 0x60 DUP5 DUP7 SUB SLT ISZERO PUSH2 0x2677 JUMPI PUSH2 0x2676 PUSH2 0x2009 JUMP JUMPDEST JUMPDEST PUSH0 DUP5 ADD CALLDATALOAD PUSH8 0xFFFFFFFFFFFFFFFF DUP2 GT ISZERO PUSH2 0x2694 JUMPI PUSH2 0x2693 PUSH2 0x200D JUMP JUMPDEST JUMPDEST PUSH2 0x26A0 DUP7 DUP3 DUP8 ADD PUSH2 0x23BD JUMP JUMPDEST SWAP4 POP POP PUSH1 0x20 DUP5 ADD CALLDATALOAD PUSH8 0xFFFFFFFFFFFFFFFF DUP2 GT ISZERO PUSH2 0x26C1 JUMPI PUSH2 0x26C0 PUSH2 0x200D JUMP JUMPDEST JUMPDEST PUSH2 0x26CD DUP7 DUP3 DUP8 ADD PUSH2 0x2633 JUMP JUMPDEST SWAP3 POP POP PUSH1 0x40 DUP5 ADD CALLDATALOAD PUSH8 0xFFFFFFFFFFFFFFFF DUP2 GT ISZERO PUSH2 0x26EE JUMPI PUSH2 0x26ED PUSH2 0x200D JUMP JUMPDEST JUMPDEST PUSH2 0x26FA DUP7 DUP3 DUP8 ADD PUSH2 0x2481 JUMP JUMPDEST SWAP2 POP POP SWAP3 POP SWAP3 POP SWAP3 JUMP JUMPDEST PUSH0 PUSH1 0x20 DUP3 ADD SWAP1 POP PUSH2 0x2717 PUSH0 DUP4 ADD DUP5 PUSH2 0x21CD JUMP JUMPDEST SWAP3 SWAP2 POP POP JUMP JUMPDEST PUSH2 0x2726 DUP2 PUSH2 0x21BC JUMP JUMPDEST DUP2 EQ PUSH2 0x2730 JUMPI PUSH0 DUP1 REVERT JUMPDEST POP JUMP JUMPDEST PUSH0 DUP2 CALLDATALOAD SWAP1 POP PUSH2 0x2741 DUP2 PUSH2 0x271D JUMP JUMPDEST SWAP3 SWAP2 POP POP JUMP JUMPDEST PUSH0 DUP1 PUSH1 0x40 DUP4 DUP6 SUB SLT ISZERO PUSH2 0x275D JUMPI PUSH2 0x275C PUSH2 0x2009 JUMP JUMPDEST JUMPDEST PUSH0 PUSH2 0x276A DUP6 DUP3 DUP7 ADD PUSH2 0x2030 JUMP JUMPDEST SWAP3 POP POP PUSH1 0x20 PUSH2 0x277B DUP6 DUP3 DUP7 ADD PUSH2 0x2733 JUMP JUMPDEST SWAP2 POP POP SWAP3 POP SWAP3 SWAP1 POP JUMP JUMPDEST PUSH0 PUSH1 0x80 DUP3 ADD SWAP1 POP PUSH2 0x2798 PUSH0 DUP4 ADD DUP8 PUSH2 0x206F JUMP JUMPDEST PUSH2 0x27A5 PUSH1 0x20 DUP4 ADD DUP7 PUSH2 0x206F JUMP JUMPDEST PUSH2 0x27B2 PUSH1 0x40 DUP4 ADD DUP6 PUSH2 0x21CD JUMP JUMPDEST PUSH2 0x27BF PUSH1 0x60 DUP4 ADD DUP5 PUSH2 0x218E JUMP JUMPDEST SWAP6 SWAP5 POP POP POP POP POP JUMP JUMPDEST PUSH1 0x2 DUP2 LT PUSH2 0x27D4 JUMPI PUSH0 DUP1 REVERT JUMPDEST POP JUMP JUMPDEST PUSH0 DUP2 CALLDATALOAD SWAP1 POP PUSH2 0x27E5 DUP2 PUSH2 0x27C8 JUMP JUMPDEST SWAP3 SWAP2 POP POP JUMP JUMPDEST PUSH0 DUP1 PUSH1 0x40 DUP4 DUP6 SUB SLT ISZERO PUSH2 0x2801 JUMPI PUSH2 0x2800 PUSH2 0x2009 JUMP JUMPDEST JUMPDEST PUSH0 PUSH2 0x280E DUP6 DUP3 DUP7 ADD PUSH2 0x27D7 JUMP JUMPDEST SWAP3 POP POP PUSH1 0x20 PUSH2 0x281F DUP6 DUP3 DUP7 ADD PUSH2 0x2030 JUMP JUMPDEST SWAP2 POP POP SWAP3 POP SWAP3 SWAP1 POP JUMP JUMPDEST PUSH0 PUSH1 0x20 DUP3 DUP5 SUB SLT ISZERO PUSH2 0x283E JUMPI PUSH2 0x283D PUSH2 0x2009 JUMP JUMPDEST JUMPDEST PUSH0 DUP3 ADD CALLDATALOAD PUSH8 0xFFFFFFFFFFFFFFFF DUP2 GT ISZERO PUSH2 0x285B JUMPI PUSH2 0x285A PUSH2 0x200D JUMP JUMPDEST JUMPDEST PUSH2 0x2867 DUP5 DUP3 DUP6 ADD PUSH2 0x23BD JUMP JUMPDEST SWAP2 POP POP SWAP3 SWAP2 POP POP JUMP JUMPDEST PUSH0 PUSH2 0x287A DUP3 PUSH2 0x219D JUMP JUMPDEST SWAP1 POP SWAP2 SWAP1 POP JUMP JUMPDEST PUSH2 0x288A DUP2 PUSH2 0x2870 JUMP JUMPDEST DUP3 MSTORE POP POP JUMP JUMPDEST PUSH0 PUSH1 0x20 DUP3 ADD SWAP1 POP PUSH2 0x28A3 PUSH0 DUP4 ADD DUP5 PUSH2 0x2881 JUMP JUMPDEST SWAP3 SWAP2 POP POP JUMP JUMPDEST PUSH0 DUP2 SWAP1 POP SWAP2 SWAP1 POP JUMP JUMPDEST PUSH2 0x28BB DUP2 PUSH2 0x28A9 JUMP JUMPDEST DUP3 MSTORE POP POP JUMP JUMPDEST PUSH0 PUSH1 0x20 DUP3 ADD SWAP1 POP PUSH2 0x28D4 PUSH0 DUP4 ADD DUP5 PUSH2 0x28B2 JUMP JUMPDEST SWAP3 SWAP2 POP POP JUMP JUMPDEST PUSH0 PUSH1 0x80 DUP3 ADD SWAP1 POP DUP2 DUP2 SUB PUSH0 DUP4 ADD MSTORE PUSH2 0x28F2 DUP2 DUP8 PUSH2 0x20D0 JUMP JUMPDEST SWAP1 POP DUP2 DUP2 SUB PUSH1 0x20 DUP4 ADD MSTORE PUSH2 0x2906 DUP2 DUP7 PUSH2 0x20D0 JUMP JUMPDEST SWAP1 POP DUP2 DUP2 SUB PUSH1 0x40 DUP4 ADD MSTORE PUSH2 0x291A DUP2 DUP6 PUSH2 0x20D0 JUMP JUMPDEST SWAP1 POP PUSH2 0x2929 PUSH1 0x60 DUP4 ADD DUP5 PUSH2 0x21CD JUMP JUMPDEST SWAP6 SWAP5 POP POP POP POP POP JUMP JUMPDEST PUSH0 DUP1 PUSH1 0x40 DUP4 DUP6 SUB SLT ISZERO PUSH2 0x2948 JUMPI PUSH2 0x2947 PUSH2 0x2009 JUMP JUMPDEST JUMPDEST PUSH0 PUSH2 0x2955 DUP6 DUP3 DUP7 ADD PUSH2 0x2030 JUMP JUMPDEST SWAP3 POP POP PUSH1 0x20 DUP4 ADD CALLDATALOAD PUSH8 0xFFFFFFFFFFFFFFFF DUP2 GT ISZERO PUSH2 0x2976 JUMPI PUSH2 0x2975 PUSH2 0x200D JUMP JUMPDEST JUMPDEST PUSH2 0x2982 DUP6 DUP3 DUP7 ADD PUSH2 0x23BD JUMP JUMPDEST SWAP2 POP POP SWAP3 POP SWAP3 SWAP1 POP JUMP JUMPDEST PUSH0 DUP1 PUSH1 0x40 DUP4 DUP6 SUB SLT ISZERO PUSH2 0x29A2 JUMPI PUSH2 0x29A1 PUSH2 0x2009 JUMP JUMPDEST JUMPDEST PUSH0 DUP4 ADD CALLDATALOAD PUSH8 0xFFFFFFFFFFFFFFFF DUP2 GT ISZERO PUSH2 0x29BF JUMPI PUSH2 0x29BE PUSH2 0x200D JUMP JUMPDEST JUMPDEST PUSH2 0x29CB DUP6 DUP3 DUP7 ADD PUSH2 0x23BD JUMP JUMPDEST SWAP3 POP POP PUSH1 0x20 DUP4 ADD CALLDATALOAD PUSH8 0xFFFFFFFFFFFFFFFF DUP2 GT ISZERO PUSH2 0x29EC JUMPI PUSH2 0x29EB PUSH2 0x200D JUMP JUMPDEST JUMPDEST PUSH2 0x29F8 DUP6 DUP3 DUP7 ADD PUSH2 0x23BD JUMP JUMPDEST SWAP2 POP POP SWAP3 POP SWAP3 SWAP1 POP JUMP JUMPDEST PUSH0 PUSH1 0x20 DUP3 ADD SWAP1 POP PUSH2 0x2A15 PUSH0 DUP4 ADD DUP5 PUSH2 0x206F JUMP JUMPDEST SWAP3 SWAP2 POP POP JUMP JUMPDEST PUSH0 PUSH1 0x20 DUP3 DUP5 SUB SLT ISZERO PUSH2 0x2A30 JUMPI PUSH2 0x2A2F PUSH2 0x2009 JUMP JUMPDEST JUMPDEST PUSH0 PUSH2 0x2A3D DUP5 DUP3 DUP6 ADD PUSH2 0x2733 JUMP JUMPDEST SWAP2 POP POP SWAP3 SWAP2 POP POP JUMP JUMPDEST PUSH0 PUSH1 0xA0 DUP3 ADD SWAP1 POP PUSH2 0x2A59 PUSH0 DUP4 ADD DUP9 PUSH2 0x206F JUMP JUMPDEST DUP2 DUP2 SUB PUSH1 0x20 DUP4 ADD MSTORE PUSH2 0x2A6B DUP2 DUP8 PUSH2 0x20D0 JUMP JUMPDEST SWAP1 POP DUP2 DUP2 SUB PUSH1 0x40 DUP4 ADD MSTORE PUSH2 0x2A7F DUP2 DUP7 PUSH2 0x20D0 JUMP JUMPDEST SWAP1 POP PUSH2 0x2A8E PUSH1 0x60 DUP4 ADD DUP6 PUSH2 0x206F JUMP JUMPDEST PUSH2 0x2A9B PUSH1 0x80 DUP4 ADD DUP5 PUSH2 0x218E JUMP JUMPDEST SWAP7 SWAP6 POP POP POP POP POP POP JUMP JUMPDEST PUSH32 0x4E487B7100000000000000000000000000000000000000000000000000000000 PUSH0 MSTORE PUSH1 0x22 PUSH1 0x4 MSTORE PUSH1 0x24 PUSH0 REVERT JUMPDEST PUSH0 PUSH1 0x2 DUP3 DIV SWAP1 POP PUSH1 0x1 DUP3 AND DUP1 PUSH2 0x2AE9 JUMPI PUSH1 0x7F DUP3 AND SWAP2 POP JUMPDEST PUSH1 0x20 DUP3 LT DUP2 SUB PUSH2 0x2AFC JUMPI PUSH2 0x2AFB PUSH2 0x2AA5 JUMP JUMPDEST JUMPDEST POP SWAP2 SWAP1 POP JUMP JUMPDEST PUSH32 0x4261746368204964206973207265717569726564000000000000000000000000 PUSH0 DUP3 ADD MSTORE POP JUMP JUMPDEST PUSH0 PUSH2 0x2B36 PUSH1 0x14 DUP4 PUSH2 0x2088 JUMP JUMPDEST SWAP2 POP PUSH2 0x2B41 DUP3 PUSH2 0x2B02 JUMP JUMPDEST PUSH1 0x20 DUP3 ADD SWAP1 POP SWAP2 SWAP1 POP JUMP JUMPDEST PUSH0 PUSH1 0x20 DUP3 ADD SWAP1 POP DUP2 DUP2 SUB PUSH0 DUP4 ADD MSTORE PUSH2 0x2B63 DUP2 PUSH2 0x2B2A JUMP JUMPDEST SWAP1 POP SWAP2 SWAP1 POP JUMP JUMPDEST PUSH32 0x4974656D206C6973742072657175697265640000000000000000000000000000 PUSH0 DUP3 ADD MSTORE POP JUMP JUMPDEST PUSH0 PUSH2 0x2B9E PUSH1 0x12 DUP4 PUSH2 0x2088 JUMP JUMPDEST SWAP2 POP PUSH2 0x2BA9 DUP3 PUSH2 0x2B6A JUMP JUMPDEST PUSH1 0x20 DUP3 ADD SWAP1 POP SWAP2 SWAP1 POP JUMP JUMPDEST PUSH0 PUSH1 0x20 DUP3 ADD SWAP1 POP DUP2 DUP2 SUB PUSH0 DUP4 ADD MSTORE PUSH2 0x2BCB DUP2 PUSH2 0x2B92 JUMP JUMPDEST SWAP1 POP SWAP2 SWAP1 POP JUMP JUMPDEST PUSH32 0x4E487B7100000000000000000000000000000000000000000000000000000000 PUSH0 MSTORE PUSH1 0x32 PUSH1 0x4 MSTORE PUSH1 0x24 PUSH0 REVERT JUMPDEST PUSH32 0x4C61676F732043656E7472616C2057617265686F757365000000000000000000 PUSH0 DUP3 ADD MSTORE POP JUMP JUMPDEST PUSH0 PUSH2 0x2C33 PUSH1 0x17 DUP4 PUSH2 0x2088 JUMP JUMPDEST SWAP2 POP PUSH2 0x2C3E DUP3 PUSH2 0x2BFF JUMP JUMPDEST PUSH1 0x20 DUP3 ADD SWAP1 POP SWAP2 SWAP1 POP JUMP JUMPDEST PUSH0 PUSH1 0x40 DUP3 ADD SWAP1 POP PUSH2 0x2C5C PUSH0 DUP4 ADD DUP5 PUSH2 0x21CD JUMP JUMPDEST DUP2 DUP2 SUB PUSH1 0x20 DUP4 ADD MSTORE PUSH2 0x2C6D DUP2 PUSH2 0x2C27 JUMP JUMPDEST SWAP1 POP SWAP3 SWAP2 POP POP JUMP JUMPDEST PUSH32 0x4974656D20616E64207175616E74697479206C656E677468206D69736D617463 PUSH0 DUP3 ADD MSTORE PUSH32 0x6800000000000000000000000000000000000000000000000000000000000000 PUSH1 0x20 DUP3 ADD MSTORE POP JUMP JUMPDEST PUSH0 PUSH2 0x2CCF PUSH1 0x21 DUP4 PUSH2 0x2088 JUMP JUMPDEST SWAP2 POP PUSH2 0x2CDA DUP3 PUSH2 0x2C75 JUMP JUMPDEST PUSH1 0x40 DUP3 ADD SWAP1 POP SWAP2 SWAP1 POP JUMP JUMPDEST PUSH0 PUSH1 0x20 DUP3 ADD SWAP1 POP DUP2 DUP2 SUB PUSH0 DUP4 ADD MSTORE PUSH2 0x2CFC DUP2 PUSH2 0x2CC3 JUMP JUMPDEST SWAP1 POP SWAP2 SWAP1 POP JUMP JUMPDEST PUSH32 0x4261746368204944206973207265717569726564000000000000000000000000 PUSH0 DUP3 ADD MSTORE POP JUMP JUMPDEST PUSH0 PUSH2 0x2D37 PUSH1 0x14 DUP4 PUSH2 0x2088 JUMP JUMPDEST SWAP2 POP PUSH2 0x2D42 DUP3 PUSH2 0x2D03 JUMP JUMPDEST PUSH1 0x20 DUP3 ADD SWAP1 POP SWAP2 SWAP1 POP JUMP JUMPDEST PUSH0 PUSH1 0x20 DUP3 ADD SWAP1 POP DUP2 DUP2 SUB PUSH0 DUP4 ADD MSTORE PUSH2 0x2D64 DUP2 PUSH2 0x2D2B JUMP JUMPDEST SWAP1 POP SWAP2 SWAP1 POP JUMP JUMPDEST PUSH0 PUSH1 0x40 DUP3 ADD SWAP1 POP DUP2 DUP2 SUB PUSH0 DUP4 ADD MSTORE PUSH2 0x2D83 DUP2 DUP6 PUSH2 0x20D0 JUMP JUMPDEST SWAP1 POP PUSH2 0x2D92 PUSH1 0x20 DUP4 ADD DUP5 PUSH2 0x218E JUMP JUMPDEST SWAP4 SWAP3 POP POP POP JUMP JUMPDEST PUSH0 PUSH10 0xFFFFFFFFFFFFFFFFFFFF DUP3 AND SWAP1 POP SWAP2 SWAP1 POP JUMP JUMPDEST PUSH2 0x2DB7 DUP2 PUSH2 0x2D99 JUMP JUMPDEST DUP2 EQ PUSH2 0x2DC1 JUMPI PUSH0 DUP1 REVERT JUMPDEST POP JUMP JUMPDEST PUSH0 DUP2 MLOAD SWAP1 POP PUSH2 0x2DD2 DUP2 PUSH2 0x2DAE JUMP JUMPDEST SWAP3 SWAP2 POP POP JUMP JUMPDEST PUSH2 0x2DE1 DUP2 PUSH2 0x28A9 JUMP JUMPDEST DUP2 EQ PUSH2 0x2DEB JUMPI PUSH0 DUP1 REVERT JUMPDEST POP JUMP JUMPDEST PUSH0 DUP2 MLOAD SWAP1 POP PUSH2 0x2DFC DUP2 PUSH2 0x2DD8 JUMP JUMPDEST SWAP3 SWAP2 POP POP JUMP JUMPDEST PUSH0 DUP2 MLOAD SWAP1 POP PUSH2 0x2E10 DUP2 PUSH2 0x201A JUMP JUMPDEST SWAP3 SWAP2 POP POP JUMP JUMPDEST PUSH0 DUP1 PUSH0 DUP1 PUSH0 PUSH1 0xA0 DUP7 DUP9 SUB SLT ISZERO PUSH2 0x2E2F JUMPI PUSH2 0x2E2E PUSH2 0x2009 JUMP JUMPDEST JUMPDEST PUSH0 PUSH2 0x2E3C DUP9 DUP3 DUP10 ADD PUSH2 0x2DC4 JUMP JUMPDEST SWAP6 POP POP PUSH1 0x20 PUSH2 0x2E4D DUP9 DUP3 DUP10 ADD PUSH2 0x2DEE JUMP JUMPDEST SWAP5 POP POP PUSH1 0x40 PUSH2 0x2E5E DUP9 DUP3 DUP10 ADD PUSH2 0x2E02 JUMP JUMPDEST SWAP4 POP POP PUSH1 0x60 PUSH2 0x2E6F DUP9 DUP3 DUP10 ADD PUSH2 0x2E02 JUMP JUMPDEST SWAP3 POP POP PUSH1 0x80 PUSH2 0x2E80 DUP9 DUP3 DUP10 ADD PUSH2 0x2DC4 JUMP JUMPDEST SWAP2 POP POP SWAP3 SWAP6 POP SWAP3 SWAP6 SWAP1 SWAP4 POP JUMP JUMPDEST PUSH32 0x496E76616C69642070726F647563742049440000000000000000000000000000 PUSH0 DUP3 ADD MSTORE POP JUMP JUMPDEST PUSH0 PUSH2 0x2EC1 PUSH1 0x12 DUP4 PUSH2 0x2088 JUMP JUMPDEST SWAP2 POP PUSH2 0x2ECC DUP3 PUSH2 0x2E8D JUMP JUMPDEST PUSH1 0x20 DUP3 ADD SWAP1 POP SWAP2 SWAP1 POP JUMP JUMPDEST PUSH0 PUSH1 0x20 DUP3 ADD SWAP1 POP DUP2 DUP2 SUB PUSH0 DUP4 ADD MSTORE PUSH2 0x2EEE DUP2 PUSH2 0x2EB5 JUMP JUMPDEST SWAP1 POP SWAP2 SWAP1 POP JUMP JUMPDEST PUSH32 0x4E487B7100000000000000000000000000000000000000000000000000000000 PUSH0 MSTORE PUSH1 0x11 PUSH1 0x4 MSTORE PUSH1 0x24 PUSH0 REVERT JUMPDEST PUSH0 PUSH2 0x2F2C DUP3 PUSH2 0x2011 JUMP JUMPDEST SWAP2 POP PUSH2 0x2F37 DUP4 PUSH2 0x2011 JUMP JUMPDEST SWAP3 POP DUP3 DUP3 SUB SWAP1 POP DUP2 DUP2 GT ISZERO PUSH2 0x2F4F JUMPI PUSH2 0x2F4E PUSH2 0x2EF5 JUMP JUMPDEST JUMPDEST SWAP3 SWAP2 POP POP JUMP JUMPDEST PUSH0 DUP2 SWAP1 POP DUP2 PUSH0 MSTORE PUSH1 0x20 PUSH0 KECCAK256 SWAP1 POP SWAP2 SWAP1 POP JUMP JUMPDEST PUSH0 PUSH1 0x20 PUSH1 0x1F DUP4 ADD DIV SWAP1 POP SWAP2 SWAP1 POP JUMP JUMPDEST PUSH0 DUP3 DUP3 SHL SWAP1 POP SWAP3 SWAP2 POP POP JUMP JUMPDEST PUSH0 PUSH1 0x8 DUP4 MUL PUSH2 0x2FB1 PUSH32 0xFFFFFFFFFFFFFFFFFFFFFFFFFFFFFFFFFFFFFFFFFFFFFFFFFFFFFFFFFFFFFFFF DUP3 PUSH2 0x2F76 JUMP JUMPDEST PUSH2 0x2FBB DUP7 DUP4 PUSH2 0x2F76 JUMP JUMPDEST SWAP6 POP DUP1 NOT DUP5 AND SWAP4 POP DUP1 DUP7 AND DUP5 OR SWAP3 POP POP POP SWAP4 SWAP3 POP POP POP JUMP JUMPDEST PUSH0 DUP2 SWAP1 POP SWAP2 SWAP1 POP JUMP JUMPDEST PUSH0 PUSH2 0x2FF6 PUSH2 0x2FF1 PUSH2 0x2FEC DUP5 PUSH2 0x2011 JUMP JUMPDEST PUSH2 0x2FD3 JUMP JUMPDEST PUSH2 0x2011 JUMP JUMPDEST SWAP1 POP SWAP2 SWAP1 POP JUMP JUMPDEST PUSH0 DUP2 SWAP1 POP SWAP2 SWAP1 POP JUMP JUMPDEST PUSH2 0x300F DUP4 PUSH2 0x2FDC JUMP JUMPDEST PUSH2 0x3023 PUSH2 0x301B DUP3 PUSH2 0x2FFD JUMP JUMPDEST DUP5 DUP5 SLOAD PUSH2 0x2F82 JUMP JUMPDEST DUP3 SSTORE POP POP POP POP JUMP JUMPDEST PUSH0 SWAP1 JUMP JUMPDEST PUSH2 0x3037 PUSH2 0x302B JUMP JUMPDEST PUSH2 0x3042 DUP2 DUP5 DUP5 PUSH2 0x3006 JUMP JUMPDEST POP POP POP JUMP JUMPDEST JUMPDEST DUP2 DUP2 LT ISZERO PUSH2 0x3065 JUMPI PUSH2 0x305A PUSH0 DUP3 PUSH2 0x302F JUMP JUMPDEST PUSH1 0x1 DUP2 ADD SWAP1 POP PUSH2 0x3048 JUMP JUMPDEST POP POP JUMP JUMPDEST PUSH1 0x1F DUP3 GT ISZERO PUSH2 0x30AA JUMPI PUSH2 0x307B DUP2 PUSH2 0x2F55 JUMP JUMPDEST PUSH2 0x3084 DUP5 PUSH2 0x2F67 JUMP JUMPDEST DUP2 ADD PUSH1 0x20 DUP6 LT ISZERO PUSH2 0x3093 JUMPI DUP2 SWAP1 POP JUMPDEST PUSH2 0x30A7 PUSH2 0x309F DUP6 PUSH2 0x2F67 JUMP JUMPDEST DUP4 ADD DUP3 PUSH2 0x3047 JUMP JUMPDEST POP POP JUMPDEST POP POP POP JUMP JUMPDEST PUSH0 DUP3 DUP3 SHR SWAP1 POP SWAP3 SWAP2 POP POP JUMP JUMPDEST PUSH0 PUSH2 0x30CA PUSH0 NOT DUP5 PUSH1 0x8 MUL PUSH2 0x30AF JUMP JUMPDEST NOT DUP1 DUP4 AND SWAP2 POP POP SWAP3 SWAP2 POP POP JUMP JUMPDEST PUSH0 PUSH2 0x30E2 DUP4 DUP4 PUSH2 0x30BB JUMP JUMPDEST SWAP2 POP DUP3 PUSH1 0x2 MUL DUP3 OR SWAP1 POP SWAP3 SWAP2 POP POP JUMP JUMPDEST PUSH2 0x30FB DUP3 PUSH2 0x207E JUMP JUMPDEST PUSH8 0xFFFFFFFFFFFFFFFF DUP2 GT ISZERO PUSH2 0x3114 JUMPI PUSH2 0x3113 PUSH2 0x22C6 JUMP JUMPDEST JUMPDEST PUSH2 0x311E DUP3 SLOAD PUSH2 0x2AD2 JUMP JUMPDEST PUSH2 0x3129 DUP3 DUP3 DUP6 PUSH2 0x3069 JUMP JUMPDEST PUSH0 PUSH1 0x20 SWAP1 POP PUSH1 0x1F DUP4 GT PUSH1 0x1 DUP2 EQ PUSH2 0x315A JUMPI PUSH0 DUP5 ISZERO PUSH2 0x3148 JUMPI DUP3 DUP8 ADD MLOAD SWAP1 POP JUMPDEST PUSH2 0x3152 DUP6 DUP3 PUSH2 0x30D7 JUMP JUMPDEST DUP7 SSTORE POP PUSH2 0x31B9 JUMP JUMPDEST PUSH1 0x1F NOT DUP5 AND PUSH2 0x3168 DUP7 PUSH2 0x2F55 JUMP JUMPDEST PUSH0 JUMPDEST DUP3 DUP2 LT ISZERO PUSH2 0x318F JUMPI DUP5 DUP10 ADD MLOAD DUP3 SSTORE PUSH1 0x1 DUP3 ADD SWAP2 POP PUSH1 0x20 DUP6 ADD SWAP5 POP PUSH1 0x20 DUP2 ADD SWAP1 POP PUSH2 0x316A JUMP JUMPDEST DUP7 DUP4 LT ISZERO PUSH2 0x31AC JUMPI DUP5 DUP10 ADD MLOAD PUSH2 0x31A8 PUSH1 0x1F DUP10 AND DUP3 PUSH2 0x30BB JUMP JUMPDEST DUP4 SSTORE POP JUMPDEST PUSH1 0x1 PUSH1 0x2 DUP9 MUL ADD DUP9 SSTORE POP POP POP JUMPDEST POP POP POP POP POP POP JUMP JUMPDEST POP JUMP JUMPDEST PUSH0 PUSH2 0x31CF PUSH0 DUP4 PUSH2 0x2088 JUMP JUMPDEST SWAP2 POP PUSH2 0x31DA DUP3 PUSH2 0x31C1 JUMP JUMPDEST PUSH0 DUP3 ADD SWAP1 POP SWAP2 SWAP1 POP JUMP JUMPDEST PUSH0 PUSH1 0x40 DUP3 ADD SWAP1 POP DUP2 DUP2 SUB PUSH0 DUP4 ADD MSTORE PUSH2 0x31FB DUP2 PUSH2 0x31C4 JUMP JUMPDEST SWAP1 POP PUSH2 0x320A PUSH1 0x20 DUP4 ADD DUP5 PUSH2 0x218E JUMP JUMPDEST SWAP3 SWAP2 POP POP JUMP JUMPDEST PUSH32 0x50726F64756374206E616D652069732072657175697265640000000000000000 PUSH0 DUP3 ADD MSTORE POP JUMP JUMPDEST PUSH0 PUSH2 0x3244 PUSH1 0x18 DUP4 PUSH2 0x2088 JUMP JUMPDEST SWAP2 POP PUSH2 0x324F DUP3 PUSH2 0x3210 JUMP JUMPDEST PUSH1 0x20 DUP3 ADD SWAP1 POP SWAP2 SWAP1 POP JUMP JUMPDEST PUSH0 PUSH1 0x20 DUP3 ADD SWAP1 POP DUP2 DUP2 SUB PUSH0 DUP4 ADD MSTORE PUSH2 0x3271 DUP2 PUSH2 0x3238 JUMP JUMPDEST SWAP1 POP SWAP2 SWAP1 POP JUMP JUMPDEST PUSH32 0x4261746368206E756D6265722069732072657175697265640000000000000000 PUSH0 DUP3 ADD MSTORE POP JUMP JUMPDEST PUSH0 PUSH2 0x32AC PUSH1 0x18 DUP4 PUSH2 0x2088 JUMP JUMPDEST SWAP2 POP PUSH2 0x32B7 DUP3 PUSH2 0x3278 JUMP JUMPDEST PUSH1 0x20 DUP3 ADD SWAP1 POP SWAP2 SWAP1 POP JUMP JUMPDEST PUSH0 PUSH1 0x20 DUP3 ADD SWAP1 POP DUP2 DUP2 SUB PUSH0 DUP4 ADD MSTORE PUSH2 0x32D9 DUP2 PUSH2 0x32A0 JUMP JUMPDEST SWAP1 POP SWAP2 SWAP1 POP JUMP JUMPDEST PUSH32 0x4E487B7100000000000000000000000000000000000000000000000000000000 PUSH0 MSTORE PUSH1 0x21 PUSH1 0x4 MSTORE PUSH1 0x24 PUSH0 REVERT JUMPDEST PUSH1 0x2 DUP2 LT PUSH2 0x331E JUMPI PUSH2 0x331D PUSH2 0x32E0 JUMP JUMPDEST JUMPDEST POP JUMP JUMPDEST PUSH0 DUP2 SWAP1 POP PUSH2 0x332E DUP3 PUSH2 0x330D JUMP JUMPDEST SWAP2 SWAP1 POP JUMP JUMPDEST PUSH0 PUSH2 0x333D DUP3 PUSH2 0x3321 JUMP JUMPDEST SWAP1 POP SWAP2 SWAP1 POP JUMP JUMPDEST PUSH2 0x334D DUP2 PUSH2 0x3333 JUMP JUMPDEST DUP3 MSTORE POP POP JUMP JUMPDEST PUSH0 PUSH1 0x40 DUP3 ADD SWAP1 POP DUP2 DUP2 SUB PUSH0 DUP4 ADD MSTORE PUSH2 0x336B DUP2 DUP6 PUSH2 0x20D0 JUMP JUMPDEST SWAP1 POP PUSH2 0x337A PUSH1 0x20 DUP4 ADD DUP5 PUSH2 0x3344 JUMP JUMPDEST SWAP4 SWAP3 POP POP POP JUMP JUMPDEST PUSH32 0x496E76616C696420707269636500000000000000000000000000000000000000 PUSH0 DUP3 ADD MSTORE POP JUMP JUMPDEST PUSH0 PUSH2 0x33B5 PUSH1 0xD DUP4 PUSH2 0x2088 JUMP JUMPDEST SWAP2 POP PUSH2 0x33C0 DUP3 PUSH2 0x3381 JUMP JUMPDEST PUSH1 0x20 DUP3 ADD SWAP1 POP SWAP2 SWAP1 POP JUMP JUMPDEST PUSH0 PUSH1 0x20 DUP3 ADD SWAP1 POP DUP2 DUP2 SUB PUSH0 DUP4 ADD MSTORE PUSH2 0x33E2 DUP2 PUSH2 0x33A9 JUMP JUMPDEST SWAP1 POP SWAP2 SWAP1 POP JUMP JUMPDEST PUSH0 PUSH1 0x60 DUP3 ADD SWAP1 POP PUSH2 0x33FC PUSH0 DUP4 ADD DUP6 PUSH2 0x21CD JUMP JUMPDEST DUP2 DUP2 SUB PUSH1 0x20 DUP4 ADD MSTORE PUSH2 0x340D DUP2 PUSH2 0x2C27 JUMP JUMPDEST SWAP1 POP PUSH2 0x341C PUSH1 0x40 DUP4 ADD DUP5 PUSH2 0x206F JUMP JUMPDEST SWAP4 SWAP3 POP POP POP JUMP INVALID LOG2 PUSH5 0x6970667358 0x22 SLT KECCAK256 0xD7 0xEB TIMESTAMP BASEFEE EQ 0xC9 0x4E LOG3 BLOBBASEFEE 0xD8 0xE3 XOR 0xE1 MLOAD PUSH9 0xA510CA2CCED64E4A83 0xC7 SWAP7 DUP2 LOG0 PUSH16 0xDA728064736F6C634300081800330000 "
				},
				"gasEstimates": {
					"creation": {
						"codeDepositCost": "2680200",
						"executionCost": "infinite",
						"totalCost": "infinite"
					},
					"external": {
						"addProduct(string,string)": "infinite",
						"authorizeImport(string,string,string,uint256[])": "infinite",
						"authorizeImportWithPrice(string,string,string,uint256[])": "infinite",
						"categorizedItems(uint8,uint256)": "infinite",
						"consumersAddress(uint256)": "4989",
						"foodList(uint256)": "infinite",
						"getLatestPrice()": "infinite",
						"getProduct(uint256)": "infinite",
						"itemValidations(uint256)": "infinite",
						"medicals(uint256)": "infinite",
						"movementLogs(uint256)": "infinite",
						"owner()": "2553",
						"transaction(string)": "infinite",
						"transactionDetails(uint256)": "infinite",
						"transactions(uint256)": "infinite",
						"transferMedicine(string,string[],uint256[])": "infinite",
						"updateProductStatus(uint256,string)": "infinite",
						"usersAddressToMedicalId(address)": "infinite",
						"validationResults(uint256,address)": "infinite",
						"warehouseInventory(uint256,address)": "infinite",
						"warehouseInventory_(uint256)": "infinite"
					}
				},
				"methodIdentifiers": {
					"addProduct(string,string)": "ca2efb55",
					"authorizeImport(string,string,string,uint256[])": "4036b950",
					"authorizeImportWithPrice(string,string,string,uint256[])": "f57a3c49",
					"categorizedItems(uint8,uint256)": "6e374428",
					"consumersAddress(uint256)": "508ddcbb",
					"foodList(uint256)": "03e5b628",
					"getLatestPrice()": "8e15f473",
					"getProduct(uint256)": "b9db15b4",
					"itemValidations(uint256)": "866c8470",
					"medicals(uint256)": "182072b0",
					"movementLogs(uint256)": "dc2b2a4c",
					"owner()": "8da5cb5b",
					"transaction(string)": "7cd07fed",
					"transactionDetails(uint256)": "3f0a54a6",
					"transactions(uint256)": "9ace38c2",
					"transferMedicine(string,string[],uint256[])": "4e70be95",
					"updateProductStatus(uint256,string)": "ba429578",
					"usersAddressToMedicalId(address)": "cc74458c",
					"validationResults(uint256,address)": "58475c35",
					"warehouseInventory(uint256,address)": "f170cdae",
					"warehouseInventory_(uint256)": "2b6c653f"
				}
			},
			"storageLayout": {
				"storage": [
					{
						"astId": 159,
						"contract": "HealthChain/src/SupplyChain.sol:SupplyChain",
						"label": "itemValidations",
						"offset": 0,
						"slot": "0",
						"type": "t_mapping(t_uint256,t_struct(ValidationResult)64_storage)"
					},
					{
						"astId": 164,
						"contract": "HealthChain/src/SupplyChain.sol:SupplyChain",
						"label": "transaction",
						"offset": 0,
						"slot": "1",
						"type": "t_mapping(t_string_memory_ptr,t_struct(Transaction)111_storage)"
					},
					{
						"astId": 169,
						"contract": "HealthChain/src/SupplyChain.sol:SupplyChain",
						"label": "usersAddressToMedicalId",
						"offset": 0,
						"slot": "2",
						"type": "t_mapping(t_address,t_struct(Medicals)35_storage)"
					},
					{
						"astId": 177,
						"contract": "HealthChain/src/SupplyChain.sol:SupplyChain",
						"label": "categorizedItems",
						"offset": 0,
						"slot": "3",
						"type": "t_mapping(t_enum(Category)18,t_mapping(t_uint256,t_struct(Food)50_storage))"
					},
					{
						"astId": 184,
						"contract": "HealthChain/src/SupplyChain.sol:SupplyChain",
						"label": "warehouseInventory",
						"offset": 0,
						"slot": "4",
						"type": "t_mapping(t_uint256,t_mapping(t_address,t_struct(Medicals)35_storage))"
					},
					{
						"astId": 191,
						"contract": "HealthChain/src/SupplyChain.sol:SupplyChain",
						"label": "validationResults",
						"offset": 0,
						"slot": "5",
						"type": "t_mapping(t_uint256,t_mapping(t_address,t_struct(ValidationResult)64_storage))"
					},
					{
						"astId": 194,
						"contract": "HealthChain/src/SupplyChain.sol:SupplyChain",
						"label": "consumersAddress",
						"offset": 0,
						"slot": "6",
						"type": "t_array(t_address)dyn_storage"
					},
					{
						"astId": 199,
						"contract": "HealthChain/src/SupplyChain.sol:SupplyChain",
						"label": "movementLogs",
						"offset": 0,
						"slot": "7",
						"type": "t_mapping(t_uint256,t_struct(MovementDetails)86_storage)"
					},
					{
						"astId": 204,
						"contract": "HealthChain/src/SupplyChain.sol:SupplyChain",
						"label": "transactions",
						"offset": 0,
						"slot": "8",
						"type": "t_mapping(t_uint256,t_struct(Transaction)111_storage)"
					},
					{
						"astId": 249,
						"contract": "HealthChain/src/SupplyChain.sol:SupplyChain",
						"label": "priceFeed",
						"offset": 0,
						"slot": "9",
						"type": "t_contract(AggregatorV3Interface)15"
					},
					{
						"astId": 286,
						"contract": "HealthChain/src/SupplyChain.sol:SupplyChain",
						"label": "medicals",
						"offset": 0,
						"slot": "10",
						"type": "t_array(t_struct(Medicals)35_storage)dyn_storage"
					},
					{
						"astId": 290,
						"contract": "HealthChain/src/SupplyChain.sol:SupplyChain",
						"label": "foodList",
						"offset": 0,
						"slot": "11",
						"type": "t_array(t_struct(Food)50_storage)dyn_storage"
					},
					{
						"astId": 294,
						"contract": "HealthChain/src/SupplyChain.sol:SupplyChain",
						"label": "transactionDetails",
						"offset": 0,
						"slot": "12",
						"type": "t_array(t_struct(Transaction)111_storage)dyn_storage"
					},
					{
						"astId": 299,
						"contract": "HealthChain/src/SupplyChain.sol:SupplyChain",
						"label": "warehouseInventory_",
						"offset": 0,
						"slot": "13",
						"type": "t_mapping(t_uint256,t_struct(Medicals)35_storage)"
					},
					{
						"astId": 301,
						"contract": "HealthChain/src/SupplyChain.sol:SupplyChain",
						"label": "owner",
						"offset": 0,
						"slot": "14",
						"type": "t_address_payable"
					}
				],
				"types": {
					"t_address": {
						"encoding": "inplace",
						"label": "address",
						"numberOfBytes": "20"
					},
					"t_address_payable": {
						"encoding": "inplace",
						"label": "address payable",
						"numberOfBytes": "20"
					},
					"t_array(t_address)dyn_storage": {
						"base": "t_address",
						"encoding": "dynamic_array",
						"label": "address[]",
						"numberOfBytes": "32"
					},
					"t_array(t_struct(Food)50_storage)dyn_storage": {
						"base": "t_struct(Food)50_storage",
						"encoding": "dynamic_array",
						"label": "struct SupplyChain.Food[]",
						"numberOfBytes": "32"
					},
					"t_array(t_struct(Medicals)35_storage)dyn_storage": {
						"base": "t_struct(Medicals)35_storage",
						"encoding": "dynamic_array",
						"label": "struct SupplyChain.Medicals[]",
						"numberOfBytes": "32"
					},
					"t_array(t_struct(Transaction)111_storage)dyn_storage": {
						"base": "t_struct(Transaction)111_storage",
						"encoding": "dynamic_array",
						"label": "struct SupplyChain.Transaction[]",
						"numberOfBytes": "32"
					},
					"t_bool": {
						"encoding": "inplace",
						"label": "bool",
						"numberOfBytes": "1"
					},
					"t_contract(AggregatorV3Interface)15": {
						"encoding": "inplace",
						"label": "contract AggregatorV3Interface",
						"numberOfBytes": "20"
					},
					"t_enum(Category)18": {
						"encoding": "inplace",
						"label": "enum SupplyChain.Category",
						"numberOfBytes": "1"
					},
					"t_mapping(t_address,t_struct(Medicals)35_storage)": {
						"encoding": "mapping",
						"key": "t_address",
						"label": "mapping(address => struct SupplyChain.Medicals)",
						"numberOfBytes": "32",
						"value": "t_struct(Medicals)35_storage"
					},
					"t_mapping(t_address,t_struct(ValidationResult)64_storage)": {
						"encoding": "mapping",
						"key": "t_address",
						"label": "mapping(address => struct SupplyChain.ValidationResult)",
						"numberOfBytes": "32",
						"value": "t_struct(ValidationResult)64_storage"
					},
					"t_mapping(t_address,t_struct(VerificationResult)75_storage)": {
						"encoding": "mapping",
						"key": "t_address",
						"label": "mapping(address => struct SupplyChain.VerificationResult)",
						"numberOfBytes": "32",
						"value": "t_struct(VerificationResult)75_storage"
					},
					"t_mapping(t_enum(Category)18,t_mapping(t_uint256,t_struct(Food)50_storage))": {
						"encoding": "mapping",
						"key": "t_enum(Category)18",
						"label": "mapping(enum SupplyChain.Category => mapping(uint256 => struct SupplyChain.Food))",
						"numberOfBytes": "32",
						"value": "t_mapping(t_uint256,t_struct(Food)50_storage)"
					},
					"t_mapping(t_string_memory_ptr,t_struct(Transaction)111_storage)": {
						"encoding": "mapping",
						"key": "t_string_memory_ptr",
						"label": "mapping(string => struct SupplyChain.Transaction)",
						"numberOfBytes": "32",
						"value": "t_struct(Transaction)111_storage"
					},
					"t_mapping(t_uint256,t_mapping(t_address,t_struct(Medicals)35_storage))": {
						"encoding": "mapping",
						"key": "t_uint256",
						"label": "mapping(uint256 => mapping(address => struct SupplyChain.Medicals))",
						"numberOfBytes": "32",
						"value": "t_mapping(t_address,t_struct(Medicals)35_storage)"
					},
					"t_mapping(t_uint256,t_mapping(t_address,t_struct(ValidationResult)64_storage))": {
						"encoding": "mapping",
						"key": "t_uint256",
						"label": "mapping(uint256 => mapping(address => struct SupplyChain.ValidationResult))",
						"numberOfBytes": "32",
						"value": "t_mapping(t_address,t_struct(ValidationResult)64_storage)"
					},
					"t_mapping(t_uint256,t_struct(Food)50_storage)": {
						"encoding": "mapping",
						"key": "t_uint256",
						"label": "mapping(uint256 => struct SupplyChain.Food)",
						"numberOfBytes": "32",
						"value": "t_struct(Food)50_storage"
					},
					"t_mapping(t_uint256,t_struct(Medicals)35_storage)": {
						"encoding": "mapping",
						"key": "t_uint256",
						"label": "mapping(uint256 => struct SupplyChain.Medicals)",
						"numberOfBytes": "32",
						"value": "t_struct(Medicals)35_storage"
					},
					"t_mapping(t_uint256,t_struct(MovementDetails)86_storage)": {
						"encoding": "mapping",
						"key": "t_uint256",
						"label": "mapping(uint256 => struct SupplyChain.MovementDetails)",
						"numberOfBytes": "32",
						"value": "t_struct(MovementDetails)86_storage"
					},
					"t_mapping(t_uint256,t_struct(Transaction)111_storage)": {
						"encoding": "mapping",
						"key": "t_uint256",
						"label": "mapping(uint256 => struct SupplyChain.Transaction)",
						"numberOfBytes": "32",
						"value": "t_struct(Transaction)111_storage"
					},
					"t_mapping(t_uint256,t_struct(ValidationResult)64_storage)": {
						"encoding": "mapping",
						"key": "t_uint256",
						"label": "mapping(uint256 => struct SupplyChain.ValidationResult)",
						"numberOfBytes": "32",
						"value": "t_struct(ValidationResult)64_storage"
					},
					"t_string_memory_ptr": {
						"encoding": "bytes",
						"label": "string",
						"numberOfBytes": "32"
					},
					"t_string_storage": {
						"encoding": "bytes",
						"label": "string",
						"numberOfBytes": "32"
					},
					"t_struct(Food)50_storage": {
						"encoding": "inplace",
						"label": "struct SupplyChain.Food",
						"members": [
							{
								"astId": 37,
								"contract": "HealthChain/src/SupplyChain.sol:SupplyChain",
								"label": "id",
								"offset": 0,
								"slot": "0",
								"type": "t_uint256"
							},
							{
								"astId": 39,
								"contract": "HealthChain/src/SupplyChain.sol:SupplyChain",
								"label": "name",
								"offset": 0,
								"slot": "1",
								"type": "t_string_storage"
							},
							{
								"astId": 41,
								"contract": "HealthChain/src/SupplyChain.sol:SupplyChain",
								"label": "price_in_usd",
								"offset": 0,
								"slot": "2",
								"type": "t_uint256"
							},
							{
								"astId": 43,
								"contract": "HealthChain/src/SupplyChain.sol:SupplyChain",
								"label": "currencyCode",
								"offset": 0,
								"slot": "3",
								"type": "t_string_storage"
							},
							{
								"astId": 45,
								"contract": "HealthChain/src/SupplyChain.sol:SupplyChain",
								"label": "delivery_days",
								"offset": 0,
								"slot": "4",
								"type": "t_uint256"
							},
							{
								"astId": 47,
								"contract": "HealthChain/src/SupplyChain.sol:SupplyChain",
								"label": "delivery_fee_in_usd",
								"offset": 0,
								"slot": "5",
								"type": "t_uint256"
							},
							{
								"astId": 49,
								"contract": "HealthChain/src/SupplyChain.sol:SupplyChain",
								"label": "amount_of_users",
								"offset": 0,
								"slot": "6",
								"type": "t_uint256"
							}
						],
						"numberOfBytes": "224"
					},
					"t_struct(Medicals)35_storage": {
						"encoding": "inplace",
						"label": "struct SupplyChain.Medicals",
						"members": [
							{
								"astId": 20,
								"contract": "HealthChain/src/SupplyChain.sol:SupplyChain",
								"label": "id",
								"offset": 0,
								"slot": "0",
								"type": "t_uint256"
							},
							{
								"astId": 22,
								"contract": "HealthChain/src/SupplyChain.sol:SupplyChain",
								"label": "isTrue",
								"offset": 0,
								"slot": "1",
								"type": "t_bool"
							},
							{
								"astId": 24,
								"contract": "HealthChain/src/SupplyChain.sol:SupplyChain",
								"label": "amount_of_users",
								"offset": 0,
								"slot": "2",
								"type": "t_uint256"
							},
							{
								"astId": 26,
								"contract": "HealthChain/src/SupplyChain.sol:SupplyChain",
								"label": "users",
								"offset": 0,
								"slot": "3",
								"type": "t_address"
							},
							{
								"astId": 28,
								"contract": "HealthChain/src/SupplyChain.sol:SupplyChain",
								"label": "currentStatus",
								"offset": 0,
								"slot": "4",
								"type": "t_string_storage"
							},
							{
								"astId": 30,
								"contract": "HealthChain/src/SupplyChain.sol:SupplyChain",
								"label": "warehouseId",
								"offset": 0,
								"slot": "5",
								"type": "t_uint256"
							},
							{
								"astId": 32,
								"contract": "HealthChain/src/SupplyChain.sol:SupplyChain",
								"label": "name",
								"offset": 0,
								"slot": "6",
								"type": "t_string_storage"
							},
							{
								"astId": 34,
								"contract": "HealthChain/src/SupplyChain.sol:SupplyChain",
								"label": "batch",
								"offset": 0,
								"slot": "7",
								"type": "t_string_storage"
							}
						],
						"numberOfBytes": "256"
					},
					"t_struct(MovementDetails)86_storage": {
						"encoding": "inplace",
						"label": "struct SupplyChain.MovementDetails",
						"members": [
							{
								"astId": 77,
								"contract": "HealthChain/src/SupplyChain.sol:SupplyChain",
								"label": "tracking_id",
								"offset": 0,
								"slot": "0",
								"type": "t_uint256"
							},
							{
								"astId": 79,
								"contract": "HealthChain/src/SupplyChain.sol:SupplyChain",
								"label": "trunk_id",
								"offset": 0,
								"slot": "1",
								"type": "t_string_storage"
							},
							{
								"astId": 81,
								"contract": "HealthChain/src/SupplyChain.sol:SupplyChain",
								"label": "delivery_company",
								"offset": 0,
								"slot": "2",
								"type": "t_string_storage"
							},
							{
								"astId": 83,
								"contract": "HealthChain/src/SupplyChain.sol:SupplyChain",
								"label": "delivery_fee_in_usd",
								"offset": 0,
								"slot": "3",
								"type": "t_uint256"
							},
							{
								"astId": 85,
								"contract": "HealthChain/src/SupplyChain.sol:SupplyChain",
								"label": "delivered_on_time",
								"offset": 0,
								"slot": "4",
								"type": "t_bool"
							}
						],
						"numberOfBytes": "160"
					},
					"t_struct(Transaction)111_storage": {
						"encoding": "inplace",
						"label": "struct SupplyChain.Transaction",
						"members": [
							{
								"astId": 102,
								"contract": "HealthChain/src/SupplyChain.sol:SupplyChain",
								"label": "isTransact_Successful",
								"offset": 0,
								"slot": "0",
								"type": "t_bool"
							},
							{
								"astId": 104,
								"contract": "HealthChain/src/SupplyChain.sol:SupplyChain",
								"label": "amountOfUsers",
								"offset": 0,
								"slot": "1",
								"type": "t_uint256"
							},
							{
								"astId": 106,
								"contract": "HealthChain/src/SupplyChain.sol:SupplyChain",
								"label": "payment_receiver",
								"offset": 0,
								"slot": "2",
								"type": "t_address"
							},
							{
								"astId": 108,
								"contract": "HealthChain/src/SupplyChain.sol:SupplyChain",
								"label": "payment_receiver_id",
								"offset": 0,
								"slot": "3",
								"type": "t_uint256"
							},
							{
								"astId": 110,
								"contract": "HealthChain/src/SupplyChain.sol:SupplyChain",
								"label": "medicalsId",
								"offset": 0,
								"slot": "4",
								"type": "t_address"
							}
						],
						"numberOfBytes": "160"
					},
					"t_struct(ValidationResult)64_storage": {
						"encoding": "inplace",
						"label": "struct SupplyChain.ValidationResult",
						"members": [
							{
								"astId": 52,
								"contract": "HealthChain/src/SupplyChain.sol:SupplyChain",
								"label": "medical_id",
								"offset": 0,
								"slot": "0",
								"type": "t_uint256"
							},
							{
								"astId": 54,
								"contract": "HealthChain/src/SupplyChain.sol:SupplyChain",
								"label": "medical_report",
								"offset": 0,
								"slot": "1",
								"type": "t_uint256"
							},
							{
								"astId": 56,
								"contract": "HealthChain/src/SupplyChain.sol:SupplyChain",
								"label": "block",
								"offset": 0,
								"slot": "2",
								"type": "t_address"
							},
							{
								"astId": 58,
								"contract": "HealthChain/src/SupplyChain.sol:SupplyChain",
								"label": "is_validated",
								"offset": 20,
								"slot": "2",
								"type": "t_bool"
							},
							{
								"astId": 63,
								"contract": "HealthChain/src/SupplyChain.sol:SupplyChain",
								"label": "verificationResults",
								"offset": 0,
								"slot": "3",
								"type": "t_mapping(t_address,t_struct(VerificationResult)75_storage)"
							}
						],
						"numberOfBytes": "128"
					},
					"t_struct(VerificationResult)75_storage": {
						"encoding": "inplace",
						"label": "struct SupplyChain.VerificationResult",
						"members": [
							{
								"astId": 66,
								"contract": "HealthChain/src/SupplyChain.sol:SupplyChain",
								"label": "transactionHash",
								"offset": 0,
								"slot": "0",
								"type": "t_string_storage"
							},
							{
								"astId": 68,
								"contract": "HealthChain/src/SupplyChain.sol:SupplyChain",
								"label": "rpc_result",
								"offset": 0,
								"slot": "1",
								"type": "t_string_storage"
							},
							{
								"astId": 70,
								"contract": "HealthChain/src/SupplyChain.sol:SupplyChain",
								"label": "verifier",
								"offset": 0,
								"slot": "2",
								"type": "t_address"
							},
							{
								"astId": 72,
								"contract": "HealthChain/src/SupplyChain.sol:SupplyChain",
								"label": "isApproved",
								"offset": 20,
								"slot": "2",
								"type": "t_bool"
							},
							{
								"astId": 74,
								"contract": "HealthChain/src/SupplyChain.sol:SupplyChain",
								"label": "name_of_verified_users",
								"offset": 0,
								"slot": "3",
								"type": "t_string_storage"
							}
						],
						"numberOfBytes": "128"
					},
					"t_uint256": {
						"encoding": "inplace",
						"label": "uint256",
						"numberOfBytes": "32"
					}
				}
			},
			"userdoc": {
				"kind": "user",
				"methods": {},
				"version": 1
			}
		}
	}
}